{
	"contracts/Dividends/FeeDistributor.sol": {
		"FeeDistributor": {
			"abi": [
				{
					"inputs": [
						{
							"internalType": "address",
							"name": "_rewardsReceiver",
							"type": "address"
						},
						{
							"internalType": "address",
							"name": "_feeHolder",
							"type": "address"
						},
						{
							"internalType": "address",
							"name": "_schedulerAddress",
							"type": "address"
						},
						{
							"internalType": "address",
							"name": "_wElaAddress",
							"type": "address"
						}
					],
					"stateMutability": "nonpayable",
					"type": "constructor"
				},
				{
					"anonymous": false,
					"inputs": [
						{
							"indexed": true,
							"internalType": "address",
							"name": "previousOwner",
							"type": "address"
						},
						{
							"indexed": true,
							"internalType": "address",
							"name": "newOwner",
							"type": "address"
						}
					],
					"name": "OwnershipTransferred",
					"type": "event"
				},
				{
					"anonymous": false,
					"inputs": [
						{
							"indexed": true,
							"internalType": "address",
							"name": "user",
							"type": "address"
						},
						{
							"indexed": true,
							"internalType": "address",
							"name": "token",
							"type": "address"
						},
						{
							"indexed": false,
							"internalType": "uint256",
							"name": "amount",
							"type": "uint256"
						}
					],
					"name": "RescueTokens",
					"type": "event"
				},
				{
					"anonymous": false,
					"inputs": [
						{
							"indexed": true,
							"internalType": "address",
							"name": "user",
							"type": "address"
						},
						{
							"indexed": false,
							"internalType": "address",
							"name": "newAddr",
							"type": "address"
						}
					],
					"name": "SetSchedulerAddress",
					"type": "event"
				},
				{
					"anonymous": false,
					"inputs": [
						{
							"indexed": true,
							"internalType": "address",
							"name": "user",
							"type": "address"
						},
						{
							"indexed": false,
							"internalType": "address",
							"name": "rewardsReceiver",
							"type": "address"
						},
						{
							"indexed": false,
							"internalType": "address",
							"name": "feeHolder",
							"type": "address"
						}
					],
					"name": "UpdateFeeReceivers",
					"type": "event"
				},
				{
					"anonymous": false,
					"inputs": [
						{
							"indexed": true,
							"internalType": "address",
							"name": "user",
							"type": "address"
						},
						{
							"indexed": false,
							"internalType": "uint256",
							"name": "platformShareBP",
							"type": "uint256"
						}
					],
					"name": "UpdateFeeSettings",
					"type": "event"
				},
				{
					"inputs": [],
					"name": "distributeFees",
					"outputs": [],
					"stateMutability": "nonpayable",
					"type": "function"
				},
				{
					"inputs": [],
					"name": "feeHolder",
					"outputs": [
						{
							"internalType": "address",
							"name": "",
							"type": "address"
						}
					],
					"stateMutability": "view",
					"type": "function"
				},
				{
					"inputs": [],
					"name": "owner",
					"outputs": [
						{
							"internalType": "address",
							"name": "",
							"type": "address"
						}
					],
					"stateMutability": "view",
					"type": "function"
				},
				{
					"inputs": [],
					"name": "platformShareBP",
					"outputs": [
						{
							"internalType": "uint256",
							"name": "",
							"type": "uint256"
						}
					],
					"stateMutability": "view",
					"type": "function"
				},
				{
					"inputs": [
						{
							"internalType": "address",
							"name": "router",
							"type": "address"
						},
						{
							"internalType": "address",
							"name": "lpToken",
							"type": "address"
						}
					],
					"name": "removeLiquidity",
					"outputs": [],
					"stateMutability": "nonpayable",
					"type": "function"
				},
				{
					"inputs": [],
					"name": "renounceOwnership",
					"outputs": [],
					"stateMutability": "nonpayable",
					"type": "function"
				},
				{
					"inputs": [
						{
							"internalType": "address",
							"name": "token",
							"type": "address"
						}
					],
					"name": "rescueToken",
					"outputs": [],
					"stateMutability": "nonpayable",
					"type": "function"
				},
				{
					"inputs": [],
					"name": "rewardsReceiver",
					"outputs": [
						{
							"internalType": "address",
							"name": "",
							"type": "address"
						}
					],
					"stateMutability": "view",
					"type": "function"
				},
				{
					"inputs": [],
					"name": "schedulerAddress",
					"outputs": [
						{
							"internalType": "address",
							"name": "",
							"type": "address"
						}
					],
					"stateMutability": "view",
					"type": "function"
				},
				{
					"inputs": [
						{
							"internalType": "address",
							"name": "router",
							"type": "address"
						},
						{
							"internalType": "address",
							"name": "inputToken",
							"type": "address"
						},
						{
							"internalType": "address",
							"name": "outputToken",
							"type": "address"
						},
						{
							"internalType": "address[]",
							"name": "path",
							"type": "address[]"
						}
					],
					"name": "sellTokens",
					"outputs": [],
					"stateMutability": "nonpayable",
					"type": "function"
				},
				{
					"inputs": [
						{
							"internalType": "address",
							"name": "newAddr",
							"type": "address"
						}
					],
					"name": "setSchedulerAddr",
					"outputs": [],
					"stateMutability": "nonpayable",
					"type": "function"
				},
				{
					"inputs": [],
					"name": "test",
					"outputs": [
						{
							"internalType": "uint256",
							"name": "",
							"type": "uint256"
						},
						{
							"internalType": "uint256",
							"name": "",
							"type": "uint256"
						}
					],
					"stateMutability": "nonpayable",
					"type": "function"
				},
				{
					"inputs": [
						{
							"internalType": "address",
							"name": "newOwner",
							"type": "address"
						}
					],
					"name": "transferOwnership",
					"outputs": [],
					"stateMutability": "nonpayable",
					"type": "function"
				},
				{
					"inputs": [
						{
							"internalType": "address",
							"name": "_rewardsReceiver",
							"type": "address"
						},
						{
							"internalType": "address",
							"name": "_feeHolder",
							"type": "address"
						}
					],
					"name": "updateFeeReceivers",
					"outputs": [],
					"stateMutability": "nonpayable",
					"type": "function"
				},
				{
					"inputs": [
						{
							"internalType": "uint256",
							"name": "_platformShareBP",
							"type": "uint256"
						}
					],
					"name": "updateFeeSettings",
					"outputs": [],
					"stateMutability": "nonpayable",
					"type": "function"
				},
				{
					"inputs": [],
					"name": "wElaAddress",
					"outputs": [
						{
							"internalType": "address",
							"name": "",
							"type": "address"
						}
					],
					"stateMutability": "view",
					"type": "function"
				}
			],
			"devdoc": {
				"kind": "dev",
				"methods": {
					"owner()": {
						"details": "Returns the address of the current owner."
					},
					"renounceOwnership()": {
						"details": "Leaves the contract without owner. It will not be possible to call `onlyOwner` functions anymore. Can only be called by the current owner. NOTE: Renouncing ownership will leave the contract without an owner, thereby removing any functionality that is only available to the owner."
					},
					"transferOwnership(address)": {
						"details": "Transfers ownership of the contract to a new account (`newOwner`). Can only be called by the current owner."
					}
				},
				"version": 1
			},
			"evm": {
				"assembly": "    /* \"contracts/Dividends/FeeDistributor.sol\":368:3829  contract FeeDistributor is Ownable {... */\n  mstore(0x40, 0x80)\n    /* \"contracts/Dividends/FeeDistributor.sol\":974:1291  constructor(... */\n  callvalue\n  dup1\n  iszero\n  tag_1\n  jumpi\n  0x00\n  dup1\n  revert\ntag_1:\n  pop\n  mload(0x40)\n  sub(codesize, bytecodeSize)\n  dup1\n  bytecodeSize\n  dup4\n  codecopy\n  dup2\n  dup2\n  add\n  0x40\n  mstore\n  0x80\n  dup2\n  lt\n  iszero\n  tag_2\n  jumpi\n  0x00\n  dup1\n  revert\ntag_2:\n  pop\n  dup1\n  mload\n  0x20\n  dup3\n  add\n  mload\n  0x40\n  dup4\n  add\n  mload\n  0x60\n  swap1\n  swap4\n  add\n  mload\n  swap2\n  swap3\n  swap1\n  swap2\n    /* \"@openzeppelin/contracts/access/Ownable.sol\":884:901  address msgSender */\n  0x00\n    /* \"@openzeppelin/contracts/access/Ownable.sol\":904:916  _msgSender() */\n  tag_6\n    /* \"@openzeppelin/contracts/access/Ownable.sol\":904:914  _msgSender */\n  tag_7\n    /* \"@openzeppelin/contracts/access/Ownable.sol\":904:916  _msgSender() */\n  jump\t// in\ntag_6:\n    /* \"@openzeppelin/contracts/access/Ownable.sol\":926:932  _owner */\n  0x00\n    /* \"@openzeppelin/contracts/access/Ownable.sol\":926:944  _owner = msgSender */\n  dup1\n  sload\n  not(sub(shl(0xa0, 0x01), 0x01))\n  and\n  sub(shl(0xa0, 0x01), 0x01)\n  dup4\n  and\n  swap1\n  dup2\n  or\n  dup3\n  sstore\n    /* \"@openzeppelin/contracts/access/Ownable.sol\":959:1002  OwnershipTransferred(address(0), msgSender) */\n  mload(0x40)\n    /* \"@openzeppelin/contracts/access/Ownable.sol\":926:944  _owner = msgSender */\n  swap3\n  swap4\n  pop\n  swap2\n    /* \"@openzeppelin/contracts/access/Ownable.sol\":959:1002  OwnershipTransferred(address(0), msgSender) */\n  0x8be0079c531659141344cd1fd0a4f28419497f9722a3daafe3b4186f6b6457e0\n  swap1\n    /* \"@openzeppelin/contracts/access/Ownable.sol\":926:932  _owner */\n  dup3\n  swap1\n    /* \"@openzeppelin/contracts/access/Ownable.sol\":959:1002  OwnershipTransferred(address(0), msgSender) */\n  log3\n  pop\n    /* \"contracts/Dividends/FeeDistributor.sol\":1136:1151  rewardsReceiver */\n  0x02\n    /* \"contracts/Dividends/FeeDistributor.sol\":1136:1170  rewardsReceiver = _rewardsReceiver */\n  dup1\n  sload\n  sub(shl(0xa0, 0x01), 0x01)\n  swap6\n  dup7\n  and\n  not(sub(shl(0xa0, 0x01), 0x01))\n  swap2\n  dup3\n  and\n  or\n  swap1\n  swap2\n  sstore\n    /* \"contracts/Dividends/FeeDistributor.sol\":1180:1189  feeHolder */\n  0x03\n    /* \"contracts/Dividends/FeeDistributor.sol\":1180:1202  feeHolder = _feeHolder */\n  dup1\n  sload\n  swap5\n  dup7\n  and\n  swap5\n  dup3\n  and\n  swap5\n  swap1\n  swap5\n  or\n  swap1\n  swap4\n  sstore\n    /* \"contracts/Dividends/FeeDistributor.sol\":1212:1228  schedulerAddress */\n  0x04\n    /* \"contracts/Dividends/FeeDistributor.sol\":1212:1248  schedulerAddress = _schedulerAddress */\n  dup1\n  sload\n  swap3\n  dup6\n  and\n  swap3\n  dup5\n  and\n  swap3\n  swap1\n  swap3\n  or\n  swap1\n  swap2\n  sstore\n    /* \"contracts/Dividends/FeeDistributor.sol\":1258:1269  wElaAddress */\n  0x05\n    /* \"contracts/Dividends/FeeDistributor.sol\":1258:1284  wElaAddress = _wElaAddress */\n  dup1\n  sload\n  swap2\n  swap1\n  swap4\n  and\n  swap2\n  and\n  or\n  swap1\n  sstore\n    /* \"contracts/Dividends/FeeDistributor.sol\":368:3829  contract FeeDistributor is Ownable {... */\n  jump(tag_9)\n    /* \"@openzeppelin/contracts/utils/Context.sol\":598:702  function _msgSender() internal view virtual returns (address payable) {... */\ntag_7:\n    /* \"@openzeppelin/contracts/utils/Context.sol\":685:695  msg.sender */\n  caller\n    /* \"@openzeppelin/contracts/utils/Context.sol\":598:702  function _msgSender() internal view virtual returns (address payable) {... */\n  swap1\n  jump\t// out\n    /* \"contracts/Dividends/FeeDistributor.sol\":368:3829  contract FeeDistributor is Ownable {... */\ntag_9:\n  dataSize(sub_0)\n  dup1\n  dataOffset(sub_0)\n  0x00\n  codecopy\n  0x00\n  return\nstop\n\nsub_0: assembly {\n        /* \"contracts/Dividends/FeeDistributor.sol\":368:3829  contract FeeDistributor is Ownable {... */\n      mstore(0x40, 0x80)\n      callvalue\n      dup1\n      iszero\n      tag_1\n      jumpi\n      0x00\n      dup1\n      revert\n    tag_1:\n      pop\n      jumpi(tag_2, lt(calldatasize, 0x04))\n      shr(0xe0, calldataload(0x00))\n      dup1\n      0xae45850b\n      gt\n      tag_19\n      jumpi\n      dup1\n      0xd7236159\n      gt\n      tag_20\n      jumpi\n      dup1\n      0xd7236159\n      eq\n      tag_15\n      jumpi\n      dup1\n      0xf2fde38b\n      eq\n      tag_16\n      jumpi\n      dup1\n      0xf8a8fd6d\n      eq\n      tag_17\n      jumpi\n      dup1\n      0xfca11cb8\n      eq\n      tag_18\n      jumpi\n      jump(tag_2)\n    tag_20:\n      dup1\n      0xae45850b\n      eq\n      tag_11\n      jumpi\n      dup1\n      0xbb57ad20\n      eq\n      tag_12\n      jumpi\n      dup1\n      0xc0d46b91\n      eq\n      tag_13\n      jumpi\n      dup1\n      0xcc6be5e4\n      eq\n      tag_14\n      jumpi\n      jump(tag_2)\n    tag_19:\n      dup1\n      0x717815de\n      gt\n      tag_21\n      jumpi\n      dup1\n      0x717815de\n      eq\n      tag_7\n      jumpi\n      dup1\n      0x7a2829d2\n      eq\n      tag_8\n      jumpi\n      dup1\n      0x8da5cb5b\n      eq\n      tag_9\n      jumpi\n      dup1\n      0x9cf38f7c\n      eq\n      tag_10\n      jumpi\n      jump(tag_2)\n    tag_21:\n      dup1\n      0x208995cf\n      eq\n      tag_3\n      jumpi\n      dup1\n      0x43abd319\n      eq\n      tag_4\n      jumpi\n      dup1\n      0x4460d3cf\n      eq\n      tag_5\n      jumpi\n      dup1\n      0x715018a6\n      eq\n      tag_6\n      jumpi\n    tag_2:\n      0x00\n      dup1\n      revert\n        /* \"contracts/Dividends/FeeDistributor.sol\":3221:3405  function updateFeeSettings(uint256 _platformShareBP) external onlyOwner {... */\n    tag_3:\n      tag_22\n      0x04\n      dup1\n      calldatasize\n      sub\n      0x20\n      dup2\n      lt\n      iszero\n      tag_23\n      jumpi\n      0x00\n      dup1\n      revert\n    tag_23:\n      pop\n      calldataload\n      tag_24\n      jump\t// in\n    tag_22:\n      stop\n        /* \"contracts/Dividends/FeeDistributor.sol\":3666:3827  function setSchedulerAddr(address newAddr) external onlyAdmins {... */\n    tag_4:\n      tag_22\n      0x04\n      dup1\n      calldatasize\n      sub\n      0x20\n      dup2\n      lt\n      iszero\n      tag_26\n      jumpi\n      0x00\n      dup1\n      revert\n    tag_26:\n      pop\n      calldataload\n      sub(shl(0xa0, 0x01), 0x01)\n      and\n      tag_27\n      jump\t// in\n        /* \"contracts/Dividends/FeeDistributor.sol\":2976:3215  function rescueToken(address token) external onlyOwner {... */\n    tag_5:\n      tag_22\n      0x04\n      dup1\n      calldatasize\n      sub\n      0x20\n      dup2\n      lt\n      iszero\n      tag_29\n      jumpi\n      0x00\n      dup1\n      revert\n    tag_29:\n      pop\n      calldataload\n      sub(shl(0xa0, 0x01), 0x01)\n      and\n      tag_30\n      jump\t// in\n        /* \"@openzeppelin/contracts/access/Ownable.sol\":1717:1862  function renounceOwnership() public virtual onlyOwner {... */\n    tag_6:\n      tag_22\n      tag_32\n      jump\t// in\n        /* \"contracts/Dividends/FeeDistributor.sol\":616:642  address public wElaAddress */\n    tag_7:\n      tag_33\n      tag_34\n      jump\t// in\n    tag_33:\n      0x40\n      dup1\n      mload\n      sub(shl(0xa0, 0x01), 0x01)\n      swap1\n      swap3\n      and\n      dup3\n      mstore\n      mload\n      swap1\n      dup2\n      swap1\n      sub\n      0x20\n      add\n      swap1\n      return\n        /* \"contracts/Dividends/FeeDistributor.sol\":1662:1939  function sellTokens(address router, address inputToken, address outputToken, address[] memory path) external onlyAdmins {... */\n    tag_8:\n      tag_22\n      0x04\n      dup1\n      calldatasize\n      sub\n      0x80\n      dup2\n      lt\n      iszero\n      tag_36\n      jumpi\n      0x00\n      dup1\n      revert\n    tag_36:\n      sub(shl(0xa0, 0x01), 0x01)\n      dup3\n      calldataload\n      dup2\n      and\n      swap3\n      0x20\n      dup2\n      add\n      calldataload\n      dup3\n      and\n      swap3\n      0x40\n      dup3\n      add\n      calldataload\n      swap1\n      swap3\n      and\n      swap2\n      dup2\n      add\n      swap1\n      0x80\n      dup2\n      add\n      0x60\n      dup3\n      add\n      calldataload\n      0x0100000000\n      dup2\n      gt\n      iszero\n      tag_37\n      jumpi\n      0x00\n      dup1\n      revert\n    tag_37:\n      dup3\n      add\n      dup4\n      0x20\n      dup3\n      add\n      gt\n      iszero\n      tag_38\n      jumpi\n      0x00\n      dup1\n      revert\n    tag_38:\n      dup1\n      calldataload\n      swap1\n      0x20\n      add\n      swap2\n      dup5\n      0x20\n      dup4\n      mul\n      dup5\n      add\n      gt\n      0x0100000000\n      dup4\n      gt\n      or\n      iszero\n      tag_39\n      jumpi\n      0x00\n      dup1\n      revert\n    tag_39:\n      swap2\n      swap1\n      dup1\n      dup1\n      0x20\n      mul\n      0x20\n      add\n      mload(0x40)\n      swap1\n      dup2\n      add\n      0x40\n      mstore\n      dup1\n      swap4\n      swap3\n      swap2\n      swap1\n      dup2\n      dup2\n      mstore\n      0x20\n      add\n      dup4\n      dup4\n      0x20\n      mul\n      dup1\n      dup3\n      dup5\n      calldatacopy\n      0x00\n      swap3\n      add\n      swap2\n      swap1\n      swap2\n      mstore\n      pop\n      swap3\n      swap6\n      pop\n      tag_40\n      swap5\n      pop\n      pop\n      pop\n      pop\n      pop\n      jump\t// in\n        /* \"@openzeppelin/contracts/access/Ownable.sol\":1085:1170  function owner() public view virtual returns (address) {... */\n    tag_9:\n      tag_33\n      tag_42\n      jump\t// in\n        /* \"contracts/Dividends/FeeDistributor.sol\":1441:1656  function removeLiquidity(address router, address lpToken) external onlyAdmins {... */\n    tag_10:\n      tag_22\n      0x04\n      dup1\n      calldatasize\n      sub\n      0x40\n      dup2\n      lt\n      iszero\n      tag_44\n      jumpi\n      0x00\n      dup1\n      revert\n    tag_44:\n      pop\n      sub(shl(0xa0, 0x01), 0x01)\n      dup2\n      calldataload\n      dup2\n      and\n      swap2\n      0x20\n      add\n      calldataload\n      and\n      tag_45\n      jump\t// in\n        /* \"contracts/Dividends/FeeDistributor.sol\":578:609  address public schedulerAddress */\n    tag_11:\n      tag_33\n      tag_47\n      jump\t// in\n        /* \"contracts/Dividends/FeeDistributor.sol\":1945:2410  function distributeFees() external onlyAdmins {... */\n    tag_12:\n      tag_22\n      tag_49\n      jump\t// in\n        /* \"contracts/Dividends/FeeDistributor.sol\":474:504  uint256 public platformShareBP */\n    tag_13:\n      tag_50\n      tag_51\n      jump\t// in\n    tag_50:\n      0x40\n      dup1\n      mload\n      swap2\n      dup3\n      mstore\n      mload\n      swap1\n      dup2\n      swap1\n      sub\n      0x20\n      add\n      swap1\n      return\n        /* \"contracts/Dividends/FeeDistributor.sol\":547:571  address public feeHolder */\n    tag_14:\n      tag_33\n      tag_53\n      jump\t// in\n        /* \"contracts/Dividends/FeeDistributor.sol\":3411:3660  function updateFeeReceivers(address _rewardsReceiver, address _feeHolder) external onlyOwner {... */\n    tag_15:\n      tag_22\n      0x04\n      dup1\n      calldatasize\n      sub\n      0x40\n      dup2\n      lt\n      iszero\n      tag_55\n      jumpi\n      0x00\n      dup1\n      revert\n    tag_55:\n      pop\n      sub(shl(0xa0, 0x01), 0x01)\n      dup2\n      calldataload\n      dup2\n      and\n      swap2\n      0x20\n      add\n      calldataload\n      and\n      tag_56\n      jump\t// in\n        /* \"@openzeppelin/contracts/access/Ownable.sol\":2011:2251  function transferOwnership(address newOwner) public virtual onlyOwner {... */\n    tag_16:\n      tag_22\n      0x04\n      dup1\n      calldatasize\n      sub\n      0x20\n      dup2\n      lt\n      iszero\n      tag_58\n      jumpi\n      0x00\n      dup1\n      revert\n    tag_58:\n      pop\n      calldataload\n      sub(shl(0xa0, 0x01), 0x01)\n      and\n      tag_59\n      jump\t// in\n        /* \"contracts/Dividends/FeeDistributor.sol\":2416:2645  function test() external returns(uint,uint) {... */\n    tag_17:\n      tag_60\n      tag_61\n      jump\t// in\n    tag_60:\n      0x40\n      dup1\n      mload\n      swap3\n      dup4\n      mstore\n      0x20\n      dup4\n      add\n      swap2\n      swap1\n      swap2\n      mstore\n      dup1\n      mload\n      swap2\n      dup3\n      swap1\n      sub\n      add\n      swap1\n      return\n        /* \"contracts/Dividends/FeeDistributor.sol\":511:541  address public rewardsReceiver */\n    tag_18:\n      tag_33\n      tag_63\n      jump\t// in\n        /* \"contracts/Dividends/FeeDistributor.sol\":3221:3405  function updateFeeSettings(uint256 _platformShareBP) external onlyOwner {... */\n    tag_24:\n        /* \"@openzeppelin/contracts/access/Ownable.sol\":1308:1320  _msgSender() */\n      tag_65\n        /* \"@openzeppelin/contracts/access/Ownable.sol\":1308:1318  _msgSender */\n      tag_66\n        /* \"@openzeppelin/contracts/access/Ownable.sol\":1308:1320  _msgSender() */\n      jump\t// in\n    tag_65:\n      sub(shl(0xa0, 0x01), 0x01)\n        /* \"@openzeppelin/contracts/access/Ownable.sol\":1297:1320  owner() == _msgSender() */\n      and\n        /* \"@openzeppelin/contracts/access/Ownable.sol\":1297:1304  owner() */\n      tag_67\n        /* \"@openzeppelin/contracts/access/Ownable.sol\":1297:1302  owner */\n      tag_42\n        /* \"@openzeppelin/contracts/access/Ownable.sol\":1297:1304  owner() */\n      jump\t// in\n    tag_67:\n      sub(shl(0xa0, 0x01), 0x01)\n        /* \"@openzeppelin/contracts/access/Ownable.sol\":1297:1320  owner() == _msgSender() */\n      and\n      eq\n        /* \"@openzeppelin/contracts/access/Ownable.sol\":1289:1357  require(owner() == _msgSender(), \"Ownable: caller is not the owner\") */\n      tag_68\n      jumpi\n      0x40\n      dup1\n      mload\n      shl(0xe5, 0x461bcd)\n      dup2\n      mstore\n      0x20\n      0x04\n      dup3\n      add\n      dup2\n      swap1\n      mstore\n      0x24\n      dup3\n      add\n      mstore\n      0x4f776e61626c653a2063616c6c6572206973206e6f7420746865206f776e6572\n      0x44\n      dup3\n      add\n      mstore\n      swap1\n      mload\n      swap1\n      dup2\n      swap1\n      sub\n      0x64\n      add\n      swap1\n      revert\n    tag_68:\n        /* \"contracts/Dividends/FeeDistributor.sol\":3303:3318  platformShareBP */\n      0x01\n        /* \"contracts/Dividends/FeeDistributor.sol\":3303:3337  platformShareBP = _platformShareBP */\n      dup2\n      swap1\n      sstore\n        /* \"contracts/Dividends/FeeDistributor.sol\":3352:3398  UpdateFeeSettings(msg.sender, platformShareBP) */\n      0x40\n      dup1\n      mload\n      dup3\n      dup2\n      mstore\n      swap1\n      mload\n        /* \"contracts/Dividends/FeeDistributor.sol\":3370:3380  msg.sender */\n      caller\n      swap2\n        /* \"contracts/Dividends/FeeDistributor.sol\":3352:3398  UpdateFeeSettings(msg.sender, platformShareBP) */\n      0x4707e55f0a09c2af9ce22cf5f17b652615a810a1ea25f650cb18276dee658d6e\n      swap2\n      swap1\n      dup2\n      swap1\n      sub\n      0x20\n      add\n      swap1\n      log2\n        /* \"contracts/Dividends/FeeDistributor.sol\":3221:3405  function updateFeeSettings(uint256 _platformShareBP) external onlyOwner {... */\n      pop\n      jump\t// out\n        /* \"contracts/Dividends/FeeDistributor.sol\":3666:3827  function setSchedulerAddr(address newAddr) external onlyAdmins {... */\n    tag_27:\n        /* \"contracts/Dividends/FeeDistributor.sol\":1350:1366  schedulerAddress */\n      and(sub(shl(0xa0, 0x01), 0x01), sload(0x04))\n        /* \"contracts/Dividends/FeeDistributor.sol\":1336:1346  msg.sender */\n      caller\n        /* \"contracts/Dividends/FeeDistributor.sol\":1336:1366  msg.sender == schedulerAddress */\n      eq\n      dup1\n        /* \"contracts/Dividends/FeeDistributor.sol\":1336:1391  msg.sender == schedulerAddress || msg.sender == owner() */\n      tag_71\n      jumpi\n      pop\n        /* \"contracts/Dividends/FeeDistributor.sol\":1384:1391  owner() */\n      tag_72\n        /* \"contracts/Dividends/FeeDistributor.sol\":1384:1389  owner */\n      tag_42\n        /* \"contracts/Dividends/FeeDistributor.sol\":1384:1391  owner() */\n      jump\t// in\n    tag_72:\n      sub(shl(0xa0, 0x01), 0x01)\n        /* \"contracts/Dividends/FeeDistributor.sol\":1370:1391  msg.sender == owner() */\n      and\n        /* \"contracts/Dividends/FeeDistributor.sol\":1370:1380  msg.sender */\n      caller\n      sub(shl(0xa0, 0x01), 0x01)\n        /* \"contracts/Dividends/FeeDistributor.sol\":1370:1391  msg.sender == owner() */\n      and\n      eq\n        /* \"contracts/Dividends/FeeDistributor.sol\":1336:1391  msg.sender == schedulerAddress || msg.sender == owner() */\n    tag_71:\n        /* \"contracts/Dividends/FeeDistributor.sol\":1328:1417  require(msg.sender == schedulerAddress || msg.sender == owner(), \"onlyAdmins: FORBIDDEN\") */\n      tag_73\n      jumpi\n      0x40\n      dup1\n      mload\n      shl(0xe5, 0x461bcd)\n      dup2\n      mstore\n      0x20\n      0x04\n      dup3\n      add\n      mstore\n      0x15\n      0x24\n      dup3\n      add\n      mstore\n      shl(0x59, 0x37b7363ca0b236b4b7399d102327a92124a22222a7)\n      0x44\n      dup3\n      add\n      mstore\n      swap1\n      mload\n      swap1\n      dup2\n      swap1\n      sub\n      0x64\n      add\n      swap1\n      revert\n    tag_73:\n        /* \"contracts/Dividends/FeeDistributor.sol\":3739:3755  schedulerAddress */\n      0x04\n        /* \"contracts/Dividends/FeeDistributor.sol\":3739:3765  schedulerAddress = newAddr */\n      dup1\n      sload\n      sub(shl(0xa0, 0x01), 0x01)\n      dup4\n      and\n      not(0xffffffffffffffffffffffffffffffffffffffff)\n      swap1\n      swap2\n      and\n      dup2\n      or\n      swap1\n      swap2\n      sstore\n        /* \"contracts/Dividends/FeeDistributor.sol\":3780:3820  SetSchedulerAddress(msg.sender, newAddr) */\n      0x40\n      dup1\n      mload\n      swap2\n      dup3\n      mstore\n      mload\n        /* \"contracts/Dividends/FeeDistributor.sol\":3800:3810  msg.sender */\n      caller\n      swap2\n        /* \"contracts/Dividends/FeeDistributor.sol\":3780:3820  SetSchedulerAddress(msg.sender, newAddr) */\n      0x3286106f3d6ecbfd95574eec1ebdfd0640a1d7bfea3ac1ef867907e32830ec3f\n      swap2\n      swap1\n      dup2\n      swap1\n      sub\n      0x20\n      add\n      swap1\n      log2\n        /* \"contracts/Dividends/FeeDistributor.sol\":3666:3827  function setSchedulerAddr(address newAddr) external onlyAdmins {... */\n      pop\n      jump\t// out\n        /* \"contracts/Dividends/FeeDistributor.sol\":2976:3215  function rescueToken(address token) external onlyOwner {... */\n    tag_30:\n        /* \"@openzeppelin/contracts/access/Ownable.sol\":1308:1320  _msgSender() */\n      tag_76\n        /* \"@openzeppelin/contracts/access/Ownable.sol\":1308:1318  _msgSender */\n      tag_66\n        /* \"@openzeppelin/contracts/access/Ownable.sol\":1308:1320  _msgSender() */\n      jump\t// in\n    tag_76:\n      sub(shl(0xa0, 0x01), 0x01)\n        /* \"@openzeppelin/contracts/access/Ownable.sol\":1297:1320  owner() == _msgSender() */\n      and\n        /* \"@openzeppelin/contracts/access/Ownable.sol\":1297:1304  owner() */\n      tag_77\n        /* \"@openzeppelin/contracts/access/Ownable.sol\":1297:1302  owner */\n      tag_42\n        /* \"@openzeppelin/contracts/access/Ownable.sol\":1297:1304  owner() */\n      jump\t// in\n    tag_77:\n      sub(shl(0xa0, 0x01), 0x01)\n        /* \"@openzeppelin/contracts/access/Ownable.sol\":1297:1320  owner() == _msgSender() */\n      and\n      eq\n        /* \"@openzeppelin/contracts/access/Ownable.sol\":1289:1357  require(owner() == _msgSender(), \"Ownable: caller is not the owner\") */\n      tag_78\n      jumpi\n      0x40\n      dup1\n      mload\n      shl(0xe5, 0x461bcd)\n      dup2\n      mstore\n      0x20\n      0x04\n      dup3\n      add\n      dup2\n      swap1\n      mstore\n      0x24\n      dup3\n      add\n      mstore\n      0x4f776e61626c653a2063616c6c6572206973206e6f7420746865206f776e6572\n      0x44\n      dup3\n      add\n      mstore\n      swap1\n      mload\n      swap1\n      dup2\n      swap1\n      sub\n      0x64\n      add\n      swap1\n      revert\n    tag_78:\n        /* \"contracts/Dividends/FeeDistributor.sol\":3041:3056  uint256 balance */\n      0x00\n        /* \"contracts/Dividends/FeeDistributor.sol\":3066:3071  token */\n      dup2\n      sub(shl(0xa0, 0x01), 0x01)\n        /* \"contracts/Dividends/FeeDistributor.sol\":3059:3082  IERC20(token).balanceOf */\n      and\n      0x70a08231\n        /* \"contracts/Dividends/FeeDistributor.sol\":3091:3095  this */\n      address\n        /* \"contracts/Dividends/FeeDistributor.sol\":3059:3097  IERC20(token).balanceOf(address(this)) */\n      mload(0x40)\n      dup3\n      0xffffffff\n      and\n      0xe0\n      shl\n      dup2\n      mstore\n      0x04\n      add\n      dup1\n      dup3\n      sub(shl(0xa0, 0x01), 0x01)\n      and\n      dup2\n      mstore\n      0x20\n      add\n      swap2\n      pop\n      pop\n      0x20\n      mload(0x40)\n      dup1\n      dup4\n      sub\n      dup2\n      dup7\n      dup1\n      extcodesize\n      iszero\n      dup1\n      iszero\n      tag_80\n      jumpi\n      0x00\n      dup1\n      revert\n    tag_80:\n      pop\n      gas\n      staticcall\n      iszero\n      dup1\n      iszero\n      tag_82\n      jumpi\n      returndatasize\n      0x00\n      dup1\n      returndatacopy\n      revert(0x00, returndatasize)\n    tag_82:\n      pop\n      pop\n      pop\n      pop\n      mload(0x40)\n      returndatasize\n      0x20\n      dup2\n      lt\n      iszero\n      tag_83\n      jumpi\n      0x00\n      dup1\n      revert\n    tag_83:\n      pop\n      mload\n        /* \"contracts/Dividends/FeeDistributor.sol\":3134:3143  feeHolder */\n      sload(0x03)\n        /* \"contracts/Dividends/FeeDistributor.sol\":3059:3097  IERC20(token).balanceOf(address(this)) */\n      swap1\n      swap2\n      pop\n        /* \"contracts/Dividends/FeeDistributor.sol\":3107:3153  IERC20(token).safeTransfer(feeHolder, balance) */\n      tag_84\n      swap1\n      sub(shl(0xa0, 0x01), 0x01)\n        /* \"contracts/Dividends/FeeDistributor.sol\":3107:3133  IERC20(token).safeTransfer */\n      dup5\n      dup2\n      and\n      swap2\n        /* \"contracts/Dividends/FeeDistributor.sol\":3134:3143  feeHolder */\n      and\n        /* \"contracts/Dividends/FeeDistributor.sol\":3059:3097  IERC20(token).balanceOf(address(this)) */\n      dup4\n        /* \"contracts/Dividends/FeeDistributor.sol\":3107:3133  IERC20(token).safeTransfer */\n      tag_85\n        /* \"contracts/Dividends/FeeDistributor.sol\":3107:3153  IERC20(token).safeTransfer(feeHolder, balance) */\n      jump\t// in\n    tag_84:\n        /* \"contracts/Dividends/FeeDistributor.sol\":3168:3208  RescueTokens(msg.sender, token, balance) */\n      0x40\n      dup1\n      mload\n      dup3\n      dup2\n      mstore\n      swap1\n      mload\n      sub(shl(0xa0, 0x01), 0x01)\n      dup5\n      and\n      swap2\n        /* \"contracts/Dividends/FeeDistributor.sol\":3181:3191  msg.sender */\n      caller\n      swap2\n        /* \"contracts/Dividends/FeeDistributor.sol\":3168:3208  RescueTokens(msg.sender, token, balance) */\n      0x0de377c3f3362540c047602ad996510f81ec5d84f9ad151c7b6ebecce8ea6b7b\n      swap2\n      dup2\n      swap1\n      sub\n      0x20\n      add\n      swap1\n      log3\n        /* \"@openzeppelin/contracts/access/Ownable.sol\":1367:1368  _ */\n      pop\n        /* \"contracts/Dividends/FeeDistributor.sol\":2976:3215  function rescueToken(address token) external onlyOwner {... */\n      pop\n      jump\t// out\n        /* \"@openzeppelin/contracts/access/Ownable.sol\":1717:1862  function renounceOwnership() public virtual onlyOwner {... */\n    tag_32:\n        /* \"@openzeppelin/contracts/access/Ownable.sol\":1308:1320  _msgSender() */\n      tag_87\n        /* \"@openzeppelin/contracts/access/Ownable.sol\":1308:1318  _msgSender */\n      tag_66\n        /* \"@openzeppelin/contracts/access/Ownable.sol\":1308:1320  _msgSender() */\n      jump\t// in\n    tag_87:\n      sub(shl(0xa0, 0x01), 0x01)\n        /* \"@openzeppelin/contracts/access/Ownable.sol\":1297:1320  owner() == _msgSender() */\n      and\n        /* \"@openzeppelin/contracts/access/Ownable.sol\":1297:1304  owner() */\n      tag_88\n        /* \"@openzeppelin/contracts/access/Ownable.sol\":1297:1302  owner */\n      tag_42\n        /* \"@openzeppelin/contracts/access/Ownable.sol\":1297:1304  owner() */\n      jump\t// in\n    tag_88:\n      sub(shl(0xa0, 0x01), 0x01)\n        /* \"@openzeppelin/contracts/access/Ownable.sol\":1297:1320  owner() == _msgSender() */\n      and\n      eq\n        /* \"@openzeppelin/contracts/access/Ownable.sol\":1289:1357  require(owner() == _msgSender(), \"Ownable: caller is not the owner\") */\n      tag_89\n      jumpi\n      0x40\n      dup1\n      mload\n      shl(0xe5, 0x461bcd)\n      dup2\n      mstore\n      0x20\n      0x04\n      dup3\n      add\n      dup2\n      swap1\n      mstore\n      0x24\n      dup3\n      add\n      mstore\n      0x4f776e61626c653a2063616c6c6572206973206e6f7420746865206f776e6572\n      0x44\n      dup3\n      add\n      mstore\n      swap1\n      mload\n      swap1\n      dup2\n      swap1\n      sub\n      0x64\n      add\n      swap1\n      revert\n    tag_89:\n        /* \"@openzeppelin/contracts/access/Ownable.sol\":1823:1824  0 */\n      0x00\n        /* \"@openzeppelin/contracts/access/Ownable.sol\":1807:1813  _owner */\n      dup1\n      sload\n        /* \"@openzeppelin/contracts/access/Ownable.sol\":1786:1826  OwnershipTransferred(_owner, address(0)) */\n      mload(0x40)\n      sub(shl(0xa0, 0x01), 0x01)\n        /* \"@openzeppelin/contracts/access/Ownable.sol\":1807:1813  _owner */\n      swap1\n      swap2\n      and\n      swap1\n        /* \"@openzeppelin/contracts/access/Ownable.sol\":1786:1826  OwnershipTransferred(_owner, address(0)) */\n      0x8be0079c531659141344cd1fd0a4f28419497f9722a3daafe3b4186f6b6457e0\n      swap1\n        /* \"@openzeppelin/contracts/access/Ownable.sol\":1823:1824  0 */\n      dup4\n      swap1\n        /* \"@openzeppelin/contracts/access/Ownable.sol\":1786:1826  OwnershipTransferred(_owner, address(0)) */\n      log3\n        /* \"@openzeppelin/contracts/access/Ownable.sol\":1853:1854  0 */\n      0x00\n        /* \"@openzeppelin/contracts/access/Ownable.sol\":1836:1855  _owner = address(0) */\n      dup1\n      sload\n      not(0xffffffffffffffffffffffffffffffffffffffff)\n      and\n      swap1\n      sstore\n        /* \"@openzeppelin/contracts/access/Ownable.sol\":1717:1862  function renounceOwnership() public virtual onlyOwner {... */\n      jump\t// out\n        /* \"contracts/Dividends/FeeDistributor.sol\":616:642  address public wElaAddress */\n    tag_34:\n      and(sub(shl(0xa0, 0x01), 0x01), sload(0x05))\n      dup2\n      jump\t// out\n        /* \"contracts/Dividends/FeeDistributor.sol\":1662:1939  function sellTokens(address router, address inputToken, address outputToken, address[] memory path) external onlyAdmins {... */\n    tag_40:\n        /* \"contracts/Dividends/FeeDistributor.sol\":1350:1366  schedulerAddress */\n      and(sub(shl(0xa0, 0x01), 0x01), sload(0x04))\n        /* \"contracts/Dividends/FeeDistributor.sol\":1336:1346  msg.sender */\n      caller\n        /* \"contracts/Dividends/FeeDistributor.sol\":1336:1366  msg.sender == schedulerAddress */\n      eq\n      dup1\n        /* \"contracts/Dividends/FeeDistributor.sol\":1336:1391  msg.sender == schedulerAddress || msg.sender == owner() */\n      tag_92\n      jumpi\n      pop\n        /* \"contracts/Dividends/FeeDistributor.sol\":1384:1391  owner() */\n      tag_93\n        /* \"contracts/Dividends/FeeDistributor.sol\":1384:1389  owner */\n      tag_42\n        /* \"contracts/Dividends/FeeDistributor.sol\":1384:1391  owner() */\n      jump\t// in\n    tag_93:\n      sub(shl(0xa0, 0x01), 0x01)\n        /* \"contracts/Dividends/FeeDistributor.sol\":1370:1391  msg.sender == owner() */\n      and\n        /* \"contracts/Dividends/FeeDistributor.sol\":1370:1380  msg.sender */\n      caller\n      sub(shl(0xa0, 0x01), 0x01)\n        /* \"contracts/Dividends/FeeDistributor.sol\":1370:1391  msg.sender == owner() */\n      and\n      eq\n        /* \"contracts/Dividends/FeeDistributor.sol\":1336:1391  msg.sender == schedulerAddress || msg.sender == owner() */\n    tag_92:\n        /* \"contracts/Dividends/FeeDistributor.sol\":1328:1417  require(msg.sender == schedulerAddress || msg.sender == owner(), \"onlyAdmins: FORBIDDEN\") */\n      tag_94\n      jumpi\n      0x40\n      dup1\n      mload\n      shl(0xe5, 0x461bcd)\n      dup2\n      mstore\n      0x20\n      0x04\n      dup3\n      add\n      mstore\n      0x15\n      0x24\n      dup3\n      add\n      mstore\n      shl(0x59, 0x37b7363ca0b236b4b7399d102327a92124a22222a7)\n      0x44\n      dup3\n      add\n      mstore\n      swap1\n      mload\n      swap1\n      dup2\n      swap1\n      sub\n      0x64\n      add\n      swap1\n      revert\n    tag_94:\n        /* \"contracts/Dividends/FeeDistributor.sol\":1792:1806  uint256 amount */\n      0x00\n        /* \"contracts/Dividends/FeeDistributor.sol\":1816:1826  inputToken */\n      dup4\n      sub(shl(0xa0, 0x01), 0x01)\n        /* \"contracts/Dividends/FeeDistributor.sol\":1809:1837  IERC20(inputToken).balanceOf */\n      and\n      0x70a08231\n        /* \"contracts/Dividends/FeeDistributor.sol\":1846:1850  this */\n      address\n        /* \"contracts/Dividends/FeeDistributor.sol\":1809:1852  IERC20(inputToken).balanceOf(address(this)) */\n      mload(0x40)\n      dup3\n      0xffffffff\n      and\n      0xe0\n      shl\n      dup2\n      mstore\n      0x04\n      add\n      dup1\n      dup3\n      sub(shl(0xa0, 0x01), 0x01)\n      and\n      dup2\n      mstore\n      0x20\n      add\n      swap2\n      pop\n      pop\n      0x20\n      mload(0x40)\n      dup1\n      dup4\n      sub\n      dup2\n      dup7\n      dup1\n      extcodesize\n      iszero\n      dup1\n      iszero\n      tag_96\n      jumpi\n      0x00\n      dup1\n      revert\n    tag_96:\n      pop\n      gas\n      staticcall\n      iszero\n      dup1\n      iszero\n      tag_98\n      jumpi\n      returndatasize\n      0x00\n      dup1\n      returndatacopy\n      revert(0x00, returndatasize)\n    tag_98:\n      pop\n      pop\n      pop\n      pop\n      mload(0x40)\n      returndatasize\n      0x20\n      dup2\n      lt\n      iszero\n      tag_99\n      jumpi\n      0x00\n      dup1\n      revert\n    tag_99:\n      pop\n      mload\n      swap1\n      pop\n        /* \"contracts/Dividends/FeeDistributor.sol\":1862:1932  RouterHelper.swapTokens(router, amount, inputToken, outputToken, path) */\n      tag_100\n        /* \"contracts/Dividends/FeeDistributor.sol\":1886:1892  router */\n      dup6\n        /* \"contracts/Dividends/FeeDistributor.sol\":1809:1852  IERC20(inputToken).balanceOf(address(this)) */\n      dup3\n        /* \"contracts/Dividends/FeeDistributor.sol\":1902:1912  inputToken */\n      dup7\n        /* \"contracts/Dividends/FeeDistributor.sol\":1914:1925  outputToken */\n      dup7\n        /* \"contracts/Dividends/FeeDistributor.sol\":1927:1931  path */\n      dup7\n        /* \"contracts/Dividends/FeeDistributor.sol\":1862:1885  RouterHelper.swapTokens */\n      tag_101\n        /* \"contracts/Dividends/FeeDistributor.sol\":1862:1932  RouterHelper.swapTokens(router, amount, inputToken, outputToken, path) */\n      jump\t// in\n    tag_100:\n      pop\n        /* \"contracts/Dividends/FeeDistributor.sol\":1427:1428  _ */\n      pop\n        /* \"contracts/Dividends/FeeDistributor.sol\":1662:1939  function sellTokens(address router, address inputToken, address outputToken, address[] memory path) external onlyAdmins {... */\n      pop\n      pop\n      pop\n      pop\n      jump\t// out\n        /* \"@openzeppelin/contracts/access/Ownable.sol\":1085:1170  function owner() public view virtual returns (address) {... */\n    tag_42:\n        /* \"@openzeppelin/contracts/access/Ownable.sol\":1131:1138  address */\n      0x00\n        /* \"@openzeppelin/contracts/access/Ownable.sol\":1157:1163  _owner */\n      sload\n      sub(shl(0xa0, 0x01), 0x01)\n      and\n        /* \"@openzeppelin/contracts/access/Ownable.sol\":1085:1170  function owner() public view virtual returns (address) {... */\n      swap1\n      jump\t// out\n        /* \"contracts/Dividends/FeeDistributor.sol\":1441:1656  function removeLiquidity(address router, address lpToken) external onlyAdmins {... */\n    tag_45:\n        /* \"contracts/Dividends/FeeDistributor.sol\":1350:1366  schedulerAddress */\n      and(sub(shl(0xa0, 0x01), 0x01), sload(0x04))\n        /* \"contracts/Dividends/FeeDistributor.sol\":1336:1346  msg.sender */\n      caller\n        /* \"contracts/Dividends/FeeDistributor.sol\":1336:1366  msg.sender == schedulerAddress */\n      eq\n      dup1\n        /* \"contracts/Dividends/FeeDistributor.sol\":1336:1391  msg.sender == schedulerAddress || msg.sender == owner() */\n      tag_104\n      jumpi\n      pop\n        /* \"contracts/Dividends/FeeDistributor.sol\":1384:1391  owner() */\n      tag_105\n        /* \"contracts/Dividends/FeeDistributor.sol\":1384:1389  owner */\n      tag_42\n        /* \"contracts/Dividends/FeeDistributor.sol\":1384:1391  owner() */\n      jump\t// in\n    tag_105:\n      sub(shl(0xa0, 0x01), 0x01)\n        /* \"contracts/Dividends/FeeDistributor.sol\":1370:1391  msg.sender == owner() */\n      and\n        /* \"contracts/Dividends/FeeDistributor.sol\":1370:1380  msg.sender */\n      caller\n      sub(shl(0xa0, 0x01), 0x01)\n        /* \"contracts/Dividends/FeeDistributor.sol\":1370:1391  msg.sender == owner() */\n      and\n      eq\n        /* \"contracts/Dividends/FeeDistributor.sol\":1336:1391  msg.sender == schedulerAddress || msg.sender == owner() */\n    tag_104:\n        /* \"contracts/Dividends/FeeDistributor.sol\":1328:1417  require(msg.sender == schedulerAddress || msg.sender == owner(), \"onlyAdmins: FORBIDDEN\") */\n      tag_106\n      jumpi\n      0x40\n      dup1\n      mload\n      shl(0xe5, 0x461bcd)\n      dup2\n      mstore\n      0x20\n      0x04\n      dup3\n      add\n      mstore\n      0x15\n      0x24\n      dup3\n      add\n      mstore\n      shl(0x59, 0x37b7363ca0b236b4b7399d102327a92124a22222a7)\n      0x44\n      dup3\n      add\n      mstore\n      swap1\n      mload\n      swap1\n      dup2\n      swap1\n      sub\n      0x64\n      add\n      swap1\n      revert\n    tag_106:\n        /* \"contracts/Dividends/FeeDistributor.sol\":1529:1543  uint256 amount */\n      0x00\n        /* \"contracts/Dividends/FeeDistributor.sol\":1553:1560  lpToken */\n      dup2\n      sub(shl(0xa0, 0x01), 0x01)\n        /* \"contracts/Dividends/FeeDistributor.sol\":1546:1571  IERC20(lpToken).balanceOf */\n      and\n      0x70a08231\n        /* \"contracts/Dividends/FeeDistributor.sol\":1580:1584  this */\n      address\n        /* \"contracts/Dividends/FeeDistributor.sol\":1546:1586  IERC20(lpToken).balanceOf(address(this)) */\n      mload(0x40)\n      dup3\n      0xffffffff\n      and\n      0xe0\n      shl\n      dup2\n      mstore\n      0x04\n      add\n      dup1\n      dup3\n      sub(shl(0xa0, 0x01), 0x01)\n      and\n      dup2\n      mstore\n      0x20\n      add\n      swap2\n      pop\n      pop\n      0x20\n      mload(0x40)\n      dup1\n      dup4\n      sub\n      dup2\n      dup7\n      dup1\n      extcodesize\n      iszero\n      dup1\n      iszero\n      tag_108\n      jumpi\n      0x00\n      dup1\n      revert\n    tag_108:\n      pop\n      gas\n      staticcall\n      iszero\n      dup1\n      iszero\n      tag_110\n      jumpi\n      returndatasize\n      0x00\n      dup1\n      returndatacopy\n      revert(0x00, returndatasize)\n    tag_110:\n      pop\n      pop\n      pop\n      pop\n      mload(0x40)\n      returndatasize\n      0x20\n      dup2\n      lt\n      iszero\n      tag_111\n      jumpi\n      0x00\n      dup1\n      revert\n    tag_111:\n      pop\n      mload\n      swap1\n      pop\n        /* \"contracts/Dividends/FeeDistributor.sol\":1596:1649  RouterHelper.removeLiquidity(router, lpToken, amount) */\n      tag_112\n        /* \"contracts/Dividends/FeeDistributor.sol\":1625:1631  router */\n      dup4\n        /* \"contracts/Dividends/FeeDistributor.sol\":1633:1640  lpToken */\n      dup4\n        /* \"contracts/Dividends/FeeDistributor.sol\":1546:1586  IERC20(lpToken).balanceOf(address(this)) */\n      dup4\n        /* \"contracts/Dividends/FeeDistributor.sol\":1596:1624  RouterHelper.removeLiquidity */\n      tag_113\n        /* \"contracts/Dividends/FeeDistributor.sol\":1596:1649  RouterHelper.removeLiquidity(router, lpToken, amount) */\n      jump\t// in\n    tag_112:\n      pop\n      pop\n        /* \"contracts/Dividends/FeeDistributor.sol\":1427:1428  _ */\n      pop\n        /* \"contracts/Dividends/FeeDistributor.sol\":1441:1656  function removeLiquidity(address router, address lpToken) external onlyAdmins {... */\n      pop\n      pop\n      jump\t// out\n        /* \"contracts/Dividends/FeeDistributor.sol\":578:609  address public schedulerAddress */\n    tag_47:\n      and(sub(shl(0xa0, 0x01), 0x01), sload(0x04))\n      dup2\n      jump\t// out\n        /* \"contracts/Dividends/FeeDistributor.sol\":1945:2410  function distributeFees() external onlyAdmins {... */\n    tag_49:\n        /* \"contracts/Dividends/FeeDistributor.sol\":1350:1366  schedulerAddress */\n      and(sub(shl(0xa0, 0x01), 0x01), sload(0x04))\n        /* \"contracts/Dividends/FeeDistributor.sol\":1336:1346  msg.sender */\n      caller\n        /* \"contracts/Dividends/FeeDistributor.sol\":1336:1366  msg.sender == schedulerAddress */\n      eq\n      dup1\n        /* \"contracts/Dividends/FeeDistributor.sol\":1336:1391  msg.sender == schedulerAddress || msg.sender == owner() */\n      tag_115\n      jumpi\n      pop\n        /* \"contracts/Dividends/FeeDistributor.sol\":1384:1391  owner() */\n      tag_116\n        /* \"contracts/Dividends/FeeDistributor.sol\":1384:1389  owner */\n      tag_42\n        /* \"contracts/Dividends/FeeDistributor.sol\":1384:1391  owner() */\n      jump\t// in\n    tag_116:\n      sub(shl(0xa0, 0x01), 0x01)\n        /* \"contracts/Dividends/FeeDistributor.sol\":1370:1391  msg.sender == owner() */\n      and\n        /* \"contracts/Dividends/FeeDistributor.sol\":1370:1380  msg.sender */\n      caller\n      sub(shl(0xa0, 0x01), 0x01)\n        /* \"contracts/Dividends/FeeDistributor.sol\":1370:1391  msg.sender == owner() */\n      and\n      eq\n        /* \"contracts/Dividends/FeeDistributor.sol\":1336:1391  msg.sender == schedulerAddress || msg.sender == owner() */\n    tag_115:\n        /* \"contracts/Dividends/FeeDistributor.sol\":1328:1417  require(msg.sender == schedulerAddress || msg.sender == owner(), \"onlyAdmins: FORBIDDEN\") */\n      tag_117\n      jumpi\n      0x40\n      dup1\n      mload\n      shl(0xe5, 0x461bcd)\n      dup2\n      mstore\n      0x20\n      0x04\n      dup3\n      add\n      mstore\n      0x15\n      0x24\n      dup3\n      add\n      mstore\n      shl(0x59, 0x37b7363ca0b236b4b7399d102327a92124a22222a7)\n      0x44\n      dup3\n      add\n      mstore\n      swap1\n      mload\n      swap1\n      dup2\n      swap1\n      sub\n      0x64\n      add\n      swap1\n      revert\n    tag_117:\n        /* \"contracts/Dividends/FeeDistributor.sol\":2027:2038  wElaAddress */\n      sload(0x05)\n        /* \"contracts/Dividends/FeeDistributor.sol\":2020:2064  IERC20(wElaAddress).balanceOf(address(this)) */\n      0x40\n      dup1\n      mload\n      shl(0xe0, 0x70a08231)\n      dup2\n      mstore\n        /* \"contracts/Dividends/FeeDistributor.sol\":2058:2062  this */\n      address\n        /* \"contracts/Dividends/FeeDistributor.sol\":2020:2064  IERC20(wElaAddress).balanceOf(address(this)) */\n      0x04\n      dup3\n      add\n      mstore\n      swap1\n      mload\n        /* \"contracts/Dividends/FeeDistributor.sol\":2002:2017  uint256 balance */\n      0x00\n      swap3\n      sub(shl(0xa0, 0x01), 0x01)\n        /* \"contracts/Dividends/FeeDistributor.sol\":2027:2038  wElaAddress */\n      and\n      swap2\n        /* \"contracts/Dividends/FeeDistributor.sol\":2020:2049  IERC20(wElaAddress).balanceOf */\n      0x70a08231\n      swap2\n        /* \"contracts/Dividends/FeeDistributor.sol\":2020:2064  IERC20(wElaAddress).balanceOf(address(this)) */\n      0x24\n      dup1\n      dup4\n      add\n      swap3\n      0x20\n      swap3\n      swap2\n      swap1\n      dup3\n      swap1\n      sub\n      add\n      dup2\n        /* \"contracts/Dividends/FeeDistributor.sol\":2027:2038  wElaAddress */\n      dup7\n        /* \"contracts/Dividends/FeeDistributor.sol\":2020:2064  IERC20(wElaAddress).balanceOf(address(this)) */\n      dup1\n      extcodesize\n      iszero\n      dup1\n      iszero\n      tag_119\n      jumpi\n      0x00\n      dup1\n      revert\n    tag_119:\n      pop\n      gas\n      staticcall\n      iszero\n      dup1\n      iszero\n      tag_121\n      jumpi\n      returndatasize\n      0x00\n      dup1\n      returndatacopy\n      revert(0x00, returndatasize)\n    tag_121:\n      pop\n      pop\n      pop\n      pop\n      mload(0x40)\n      returndatasize\n      0x20\n      dup2\n      lt\n      iszero\n      tag_122\n      jumpi\n      0x00\n      dup1\n      revert\n    tag_122:\n      pop\n      mload\n        /* \"contracts/Dividends/FeeDistributor.sol\":2112:2127  platformShareBP */\n      sload(0x01)\n        /* \"contracts/Dividends/FeeDistributor.sol\":2020:2064  IERC20(wElaAddress).balanceOf(address(this)) */\n      swap1\n      swap2\n      pop\n        /* \"contracts/Dividends/FeeDistributor.sol\":2075:2097  uint256 platformAmount */\n      0x00\n      swap1\n        /* \"contracts/Dividends/FeeDistributor.sol\":2100:2139  balance.mul(platformShareBP).div(10000) */\n      tag_123\n      swap1\n        /* \"contracts/Dividends/FeeDistributor.sol\":2133:2138  10000 */\n      0x2710\n      swap1\n        /* \"contracts/Dividends/FeeDistributor.sol\":2100:2128  balance.mul(platformShareBP) */\n      tag_124\n      swap1\n        /* \"contracts/Dividends/FeeDistributor.sol\":2020:2064  IERC20(wElaAddress).balanceOf(address(this)) */\n      dup6\n      swap1\n        /* \"contracts/Dividends/FeeDistributor.sol\":2100:2111  balance.mul */\n      tag_125\n        /* \"contracts/Dividends/FeeDistributor.sol\":2100:2128  balance.mul(platformShareBP) */\n      jump\t// in\n    tag_124:\n        /* \"contracts/Dividends/FeeDistributor.sol\":2100:2132  balance.mul(platformShareBP).div */\n      swap1\n      tag_126\n        /* \"contracts/Dividends/FeeDistributor.sol\":2100:2139  balance.mul(platformShareBP).div(10000) */\n      jump\t// in\n    tag_123:\n        /* \"contracts/Dividends/FeeDistributor.sol\":2075:2139  uint256 platformAmount = balance.mul(platformShareBP).div(10000) */\n      swap1\n      pop\n        /* \"contracts/Dividends/FeeDistributor.sol\":2149:2171  uint256 receiverAmount */\n      0x00\n        /* \"contracts/Dividends/FeeDistributor.sol\":2174:2201  balance.sub(platformAmount) */\n      tag_127\n        /* \"contracts/Dividends/FeeDistributor.sol\":2174:2181  balance */\n      dup4\n        /* \"contracts/Dividends/FeeDistributor.sol\":2075:2139  uint256 platformAmount = balance.mul(platformShareBP).div(10000) */\n      dup4\n        /* \"contracts/Dividends/FeeDistributor.sol\":2174:2185  balance.sub */\n      tag_128\n        /* \"contracts/Dividends/FeeDistributor.sol\":2174:2201  balance.sub(platformAmount) */\n      jump\t// in\n    tag_127:\n        /* \"contracts/Dividends/FeeDistributor.sol\":2254:2269  rewardsReceiver */\n      sload(0x02)\n        /* \"contracts/Dividends/FeeDistributor.sol\":2219:2230  wElaAddress */\n      sload(0x05)\n        /* \"contracts/Dividends/FeeDistributor.sol\":2149:2201  uint256 receiverAmount = balance.sub(platformAmount) */\n      swap2\n      swap3\n      pop\n        /* \"contracts/Dividends/FeeDistributor.sol\":2212:2286  IERC20(wElaAddress).safeIncreaseAllowance(rewardsReceiver, receiverAmount) */\n      tag_129\n      swap2\n      sub(shl(0xa0, 0x01), 0x01)\n        /* \"contracts/Dividends/FeeDistributor.sol\":2219:2230  wElaAddress */\n      swap1\n      dup2\n      and\n      swap2\n        /* \"contracts/Dividends/FeeDistributor.sol\":2254:2269  rewardsReceiver */\n      and\n        /* \"contracts/Dividends/FeeDistributor.sol\":2149:2201  uint256 receiverAmount = balance.sub(platformAmount) */\n      dup4\n        /* \"contracts/Dividends/FeeDistributor.sol\":2212:2253  IERC20(wElaAddress).safeIncreaseAllowance */\n      tag_130\n        /* \"contracts/Dividends/FeeDistributor.sol\":2212:2286  IERC20(wElaAddress).safeIncreaseAllowance(rewardsReceiver, receiverAmount) */\n      jump\t// in\n    tag_129:\n        /* \"contracts/Dividends/FeeDistributor.sol\":2309:2324  rewardsReceiver */\n      sload(0x02)\n        /* \"contracts/Dividends/FeeDistributor.sol\":2296:2348  IFeeReceiver(rewardsReceiver).income(receiverAmount) */\n      0x40\n      dup1\n      mload\n      0x84ed8c5600000000000000000000000000000000000000000000000000000000\n      dup2\n      mstore\n      0x04\n      dup2\n      add\n      dup5\n      swap1\n      mstore\n      swap1\n      mload\n      sub(shl(0xa0, 0x01), 0x01)\n        /* \"contracts/Dividends/FeeDistributor.sol\":2309:2324  rewardsReceiver */\n      swap1\n      swap3\n      and\n      swap2\n        /* \"contracts/Dividends/FeeDistributor.sol\":2296:2332  IFeeReceiver(rewardsReceiver).income */\n      0x84ed8c56\n      swap2\n        /* \"contracts/Dividends/FeeDistributor.sol\":2296:2348  IFeeReceiver(rewardsReceiver).income(receiverAmount) */\n      0x24\n      dup1\n      dup3\n      add\n      swap3\n        /* \"contracts/Dividends/FeeDistributor.sol\":2309:2324  rewardsReceiver */\n      0x00\n      swap3\n        /* \"contracts/Dividends/FeeDistributor.sol\":2296:2348  IFeeReceiver(rewardsReceiver).income(receiverAmount) */\n      swap1\n      swap2\n      swap1\n      dup3\n      swap1\n      sub\n      add\n      dup2\n        /* \"contracts/Dividends/FeeDistributor.sol\":2309:2324  rewardsReceiver */\n      dup4\n      dup8\n        /* \"contracts/Dividends/FeeDistributor.sol\":2296:2348  IFeeReceiver(rewardsReceiver).income(receiverAmount) */\n      dup1\n      extcodesize\n      iszero\n      dup1\n      iszero\n      tag_131\n      jumpi\n      0x00\n      dup1\n      revert\n    tag_131:\n      pop\n      gas\n      call\n      iszero\n      dup1\n      iszero\n      tag_133\n      jumpi\n      returndatasize\n      0x00\n      dup1\n      returndatacopy\n      revert(0x00, returndatasize)\n    tag_133:\n      pop\n      pop\n        /* \"contracts/Dividends/FeeDistributor.sol\":2377:2386  feeHolder */\n      sload(0x03)\n        /* \"contracts/Dividends/FeeDistributor.sol\":2359:2403  safeTokenTransfer(feeHolder, platformAmount) */\n      tag_134\n      swap3\n      pop\n      sub(shl(0xa0, 0x01), 0x01)\n        /* \"contracts/Dividends/FeeDistributor.sol\":2377:2386  feeHolder */\n      and\n      swap1\n      pop\n        /* \"contracts/Dividends/FeeDistributor.sol\":2388:2402  platformAmount */\n      dup4\n        /* \"contracts/Dividends/FeeDistributor.sol\":2359:2376  safeTokenTransfer */\n      tag_135\n        /* \"contracts/Dividends/FeeDistributor.sol\":2359:2403  safeTokenTransfer(feeHolder, platformAmount) */\n      jump\t// in\n    tag_134:\n        /* \"contracts/Dividends/FeeDistributor.sol\":1427:1428  _ */\n      pop\n      pop\n      pop\n        /* \"contracts/Dividends/FeeDistributor.sol\":1945:2410  function distributeFees() external onlyAdmins {... */\n      jump\t// out\n        /* \"contracts/Dividends/FeeDistributor.sol\":474:504  uint256 public platformShareBP */\n    tag_51:\n      sload(0x01)\n      dup2\n      jump\t// out\n        /* \"contracts/Dividends/FeeDistributor.sol\":547:571  address public feeHolder */\n    tag_53:\n      and(sub(shl(0xa0, 0x01), 0x01), sload(0x03))\n      dup2\n      jump\t// out\n        /* \"contracts/Dividends/FeeDistributor.sol\":3411:3660  function updateFeeReceivers(address _rewardsReceiver, address _feeHolder) external onlyOwner {... */\n    tag_56:\n        /* \"@openzeppelin/contracts/access/Ownable.sol\":1308:1320  _msgSender() */\n      tag_137\n        /* \"@openzeppelin/contracts/access/Ownable.sol\":1308:1318  _msgSender */\n      tag_66\n        /* \"@openzeppelin/contracts/access/Ownable.sol\":1308:1320  _msgSender() */\n      jump\t// in\n    tag_137:\n      sub(shl(0xa0, 0x01), 0x01)\n        /* \"@openzeppelin/contracts/access/Ownable.sol\":1297:1320  owner() == _msgSender() */\n      and\n        /* \"@openzeppelin/contracts/access/Ownable.sol\":1297:1304  owner() */\n      tag_138\n        /* \"@openzeppelin/contracts/access/Ownable.sol\":1297:1302  owner */\n      tag_42\n        /* \"@openzeppelin/contracts/access/Ownable.sol\":1297:1304  owner() */\n      jump\t// in\n    tag_138:\n      sub(shl(0xa0, 0x01), 0x01)\n        /* \"@openzeppelin/contracts/access/Ownable.sol\":1297:1320  owner() == _msgSender() */\n      and\n      eq\n        /* \"@openzeppelin/contracts/access/Ownable.sol\":1289:1357  require(owner() == _msgSender(), \"Ownable: caller is not the owner\") */\n      tag_139\n      jumpi\n      0x40\n      dup1\n      mload\n      shl(0xe5, 0x461bcd)\n      dup2\n      mstore\n      0x20\n      0x04\n      dup3\n      add\n      dup2\n      swap1\n      mstore\n      0x24\n      dup3\n      add\n      mstore\n      0x4f776e61626c653a2063616c6c6572206973206e6f7420746865206f776e6572\n      0x44\n      dup3\n      add\n      mstore\n      swap1\n      mload\n      swap1\n      dup2\n      swap1\n      sub\n      0x64\n      add\n      swap1\n      revert\n    tag_139:\n        /* \"contracts/Dividends/FeeDistributor.sol\":3514:3529  rewardsReceiver */\n      0x02\n        /* \"contracts/Dividends/FeeDistributor.sol\":3514:3548  rewardsReceiver = _rewardsReceiver */\n      dup1\n      sload\n      sub(shl(0xa0, 0x01), 0x01)\n      dup1\n      dup6\n      and\n      not(0xffffffffffffffffffffffffffffffffffffffff)\n      swap3\n      dup4\n      and\n      or\n      swap3\n      dup4\n      swap1\n      sstore\n        /* \"contracts/Dividends/FeeDistributor.sol\":3558:3567  feeHolder */\n      0x03\n        /* \"contracts/Dividends/FeeDistributor.sol\":3558:3580  feeHolder = _feeHolder */\n      dup1\n      sload\n      dup6\n      dup4\n      and\n      swap4\n      and\n      swap3\n      swap1\n      swap3\n      or\n      swap2\n      dup3\n      swap1\n      sstore\n        /* \"contracts/Dividends/FeeDistributor.sol\":3595:3653  UpdateFeeReceivers(msg.sender, rewardsReceiver, feeHolder) */\n      0x40\n      dup1\n      mload\n        /* \"contracts/Dividends/FeeDistributor.sol\":3626:3641  rewardsReceiver */\n      swap4\n      dup3\n      and\n        /* \"contracts/Dividends/FeeDistributor.sol\":3595:3653  UpdateFeeReceivers(msg.sender, rewardsReceiver, feeHolder) */\n      dup5\n      mstore\n        /* \"contracts/Dividends/FeeDistributor.sol\":3643:3652  feeHolder */\n      swap2\n      and\n        /* \"contracts/Dividends/FeeDistributor.sol\":3595:3653  UpdateFeeReceivers(msg.sender, rewardsReceiver, feeHolder) */\n      0x20\n      dup4\n      add\n      mstore\n      dup1\n      mload\n        /* \"contracts/Dividends/FeeDistributor.sol\":3614:3624  msg.sender */\n      caller\n      swap3\n        /* \"contracts/Dividends/FeeDistributor.sol\":3595:3653  UpdateFeeReceivers(msg.sender, rewardsReceiver, feeHolder) */\n      0xe21787ff2af43740120359435dbc79c3d7431032c8974862cbc5c8dbaa207fe6\n      swap3\n      swap1\n      dup3\n      swap1\n      sub\n      add\n      swap1\n      log2\n        /* \"contracts/Dividends/FeeDistributor.sol\":3411:3660  function updateFeeReceivers(address _rewardsReceiver, address _feeHolder) external onlyOwner {... */\n      pop\n      pop\n      jump\t// out\n        /* \"@openzeppelin/contracts/access/Ownable.sol\":2011:2251  function transferOwnership(address newOwner) public virtual onlyOwner {... */\n    tag_59:\n        /* \"@openzeppelin/contracts/access/Ownable.sol\":1308:1320  _msgSender() */\n      tag_142\n        /* \"@openzeppelin/contracts/access/Ownable.sol\":1308:1318  _msgSender */\n      tag_66\n        /* \"@openzeppelin/contracts/access/Ownable.sol\":1308:1320  _msgSender() */\n      jump\t// in\n    tag_142:\n      sub(shl(0xa0, 0x01), 0x01)\n        /* \"@openzeppelin/contracts/access/Ownable.sol\":1297:1320  owner() == _msgSender() */\n      and\n        /* \"@openzeppelin/contracts/access/Ownable.sol\":1297:1304  owner() */\n      tag_143\n        /* \"@openzeppelin/contracts/access/Ownable.sol\":1297:1302  owner */\n      tag_42\n        /* \"@openzeppelin/contracts/access/Ownable.sol\":1297:1304  owner() */\n      jump\t// in\n    tag_143:\n      sub(shl(0xa0, 0x01), 0x01)\n        /* \"@openzeppelin/contracts/access/Ownable.sol\":1297:1320  owner() == _msgSender() */\n      and\n      eq\n        /* \"@openzeppelin/contracts/access/Ownable.sol\":1289:1357  require(owner() == _msgSender(), \"Ownable: caller is not the owner\") */\n      tag_144\n      jumpi\n      0x40\n      dup1\n      mload\n      shl(0xe5, 0x461bcd)\n      dup2\n      mstore\n      0x20\n      0x04\n      dup3\n      add\n      dup2\n      swap1\n      mstore\n      0x24\n      dup3\n      add\n      mstore\n      0x4f776e61626c653a2063616c6c6572206973206e6f7420746865206f776e6572\n      0x44\n      dup3\n      add\n      mstore\n      swap1\n      mload\n      swap1\n      dup2\n      swap1\n      sub\n      0x64\n      add\n      swap1\n      revert\n    tag_144:\n      sub(shl(0xa0, 0x01), 0x01)\n        /* \"@openzeppelin/contracts/access/Ownable.sol\":2099:2121  newOwner != address(0) */\n      dup2\n      and\n        /* \"@openzeppelin/contracts/access/Ownable.sol\":2091:2164  require(newOwner != address(0), \"Ownable: new owner is the zero address\") */\n      tag_146\n      jumpi\n      mload(0x40)\n      shl(0xe5, 0x461bcd)\n      dup2\n      mstore\n      0x04\n      add\n      dup1\n      dup1\n      0x20\n      add\n      dup3\n      dup2\n      sub\n      dup3\n      mstore\n      0x26\n      dup2\n      mstore\n      0x20\n      add\n      dup1\n      data_245f15ff17f551913a7a18385165551503906a406f905ac1c2437281a7cd0cfe\n      0x26\n      swap2\n      codecopy\n      0x40\n      add\n      swap2\n      pop\n      pop\n      mload(0x40)\n      dup1\n      swap2\n      sub\n      swap1\n      revert\n    tag_146:\n        /* \"@openzeppelin/contracts/access/Ownable.sol\":2200:2206  _owner */\n      0x00\n      dup1\n      sload\n        /* \"@openzeppelin/contracts/access/Ownable.sol\":2179:2217  OwnershipTransferred(_owner, newOwner) */\n      mload(0x40)\n      sub(shl(0xa0, 0x01), 0x01)\n      dup1\n      dup6\n      and\n      swap4\n        /* \"@openzeppelin/contracts/access/Ownable.sol\":2200:2206  _owner */\n      swap3\n      and\n      swap2\n        /* \"@openzeppelin/contracts/access/Ownable.sol\":2179:2217  OwnershipTransferred(_owner, newOwner) */\n      0x8be0079c531659141344cd1fd0a4f28419497f9722a3daafe3b4186f6b6457e0\n      swap2\n      log3\n        /* \"@openzeppelin/contracts/access/Ownable.sol\":2227:2233  _owner */\n      0x00\n        /* \"@openzeppelin/contracts/access/Ownable.sol\":2227:2244  _owner = newOwner */\n      dup1\n      sload\n      not(0xffffffffffffffffffffffffffffffffffffffff)\n      and\n      sub(shl(0xa0, 0x01), 0x01)\n      swap3\n      swap1\n      swap3\n      and\n      swap2\n      swap1\n      swap2\n      or\n      swap1\n      sstore\n        /* \"@openzeppelin/contracts/access/Ownable.sol\":2011:2251  function transferOwnership(address newOwner) public virtual onlyOwner {... */\n      jump\t// out\n        /* \"contracts/Dividends/FeeDistributor.sol\":2416:2645  function test() external returns(uint,uint) {... */\n    tag_61:\n        /* \"contracts/Dividends/FeeDistributor.sol\":2449:2453  uint */\n      0x00\n        /* \"contracts/Dividends/FeeDistributor.sol\":2454:2458  uint */\n      dup1\n        /* \"contracts/Dividends/FeeDistributor.sol\":2471:2483  uint balance */\n      0x00\n        /* \"contracts/Dividends/FeeDistributor.sol\":2486:2493  1 ether */\n      0x0de0b6b3a7640000\n        /* \"contracts/Dividends/FeeDistributor.sol\":2471:2493  uint balance = 1 ether */\n      swap1\n      pop\n        /* \"contracts/Dividends/FeeDistributor.sol\":2503:2525  uint256 platformAmount */\n      0x00\n        /* \"contracts/Dividends/FeeDistributor.sol\":2528:2567  balance.mul(platformShareBP).div(10000) */\n      tag_148\n        /* \"contracts/Dividends/FeeDistributor.sol\":2561:2566  10000 */\n      0x2710\n        /* \"contracts/Dividends/FeeDistributor.sol\":2528:2556  balance.mul(platformShareBP) */\n      tag_124\n        /* \"contracts/Dividends/FeeDistributor.sol\":2540:2555  platformShareBP */\n      sload(0x01)\n        /* \"contracts/Dividends/FeeDistributor.sol\":2528:2535  balance */\n      dup6\n        /* \"contracts/Dividends/FeeDistributor.sol\":2528:2539  balance.mul */\n      tag_125\n      swap1\n        /* \"contracts/Dividends/FeeDistributor.sol\":2528:2556  balance.mul(platformShareBP) */\n      swap2\n      swap1\n      0xffffffff\n      and\n      jump\t// in\n        /* \"contracts/Dividends/FeeDistributor.sol\":2528:2567  balance.mul(platformShareBP).div(10000) */\n    tag_148:\n        /* \"contracts/Dividends/FeeDistributor.sol\":2503:2567  uint256 platformAmount = balance.mul(platformShareBP).div(10000) */\n      swap1\n      pop\n        /* \"contracts/Dividends/FeeDistributor.sol\":2577:2599  uint256 receiverAmount */\n      0x00\n        /* \"contracts/Dividends/FeeDistributor.sol\":2602:2629  balance.sub(platformAmount) */\n      tag_150\n        /* \"contracts/Dividends/FeeDistributor.sol\":2602:2609  balance */\n      dup4\n        /* \"contracts/Dividends/FeeDistributor.sol\":2503:2567  uint256 platformAmount = balance.mul(platformShareBP).div(10000) */\n      dup4\n        /* \"contracts/Dividends/FeeDistributor.sol\":2602:2613  balance.sub */\n      tag_128\n        /* \"contracts/Dividends/FeeDistributor.sol\":2602:2629  balance.sub(platformAmount) */\n      jump\t// in\n    tag_150:\n        /* \"contracts/Dividends/FeeDistributor.sol\":2577:2629  uint256 receiverAmount = balance.sub(platformAmount) */\n      swap1\n      pop\n        /* \"contracts/Dividends/FeeDistributor.sol\":2416:2645  function test() external returns(uint,uint) {... */\n      pop\n      pop\n      pop\n      swap1\n      swap2\n      jump\t// out\n        /* \"contracts/Dividends/FeeDistributor.sol\":511:541  address public rewardsReceiver */\n    tag_63:\n      and(sub(shl(0xa0, 0x01), 0x01), sload(0x02))\n      dup2\n      jump\t// out\n        /* \"@openzeppelin/contracts/utils/Context.sol\":598:702  function _msgSender() internal view virtual returns (address payable) {... */\n    tag_66:\n        /* \"@openzeppelin/contracts/utils/Context.sol\":685:695  msg.sender */\n      caller\n        /* \"@openzeppelin/contracts/utils/Context.sol\":598:702  function _msgSender() internal view virtual returns (address payable) {... */\n      swap1\n      jump\t// out\n        /* \"@openzeppelin/contracts/token/ERC20/SafeERC20.sol\":704:879  function safeTransfer(IERC20 token, address to, uint256 value) internal {... */\n    tag_85:\n        /* \"@openzeppelin/contracts/token/ERC20/SafeERC20.sol\":813:871  abi.encodeWithSelector(token.transfer.selector, to, value) */\n      0x40\n      dup1\n      mload\n      sub(shl(0xa0, 0x01), 0x01)\n      dup5\n      and\n      0x24\n      dup3\n      add\n      mstore\n      0x44\n      dup1\n      dup3\n      add\n      dup5\n      swap1\n      mstore\n      dup3\n      mload\n      dup1\n      dup4\n      sub\n      swap1\n      swap2\n      add\n      dup2\n      mstore\n      0x64\n      swap1\n      swap2\n      add\n      swap1\n      swap2\n      mstore\n      0x20\n      dup2\n      add\n      dup1\n      mload\n      0xffffffffffffffffffffffffffffffffffffffffffffffffffffffff\n      and\n        /* \"@openzeppelin/contracts/token/ERC20/SafeERC20.sol\":836:859  token.transfer.selector */\n      0xa9059cbb00000000000000000000000000000000000000000000000000000000\n        /* \"@openzeppelin/contracts/token/ERC20/SafeERC20.sol\":813:871  abi.encodeWithSelector(token.transfer.selector, to, value) */\n      or\n      swap1\n      mstore\n        /* \"@openzeppelin/contracts/token/ERC20/SafeERC20.sol\":786:872  _callOptionalReturn(token, abi.encodeWithSelector(token.transfer.selector, to, value)) */\n      tag_134\n      swap1\n        /* \"@openzeppelin/contracts/token/ERC20/SafeERC20.sol\":806:811  token */\n      dup5\n      swap1\n        /* \"@openzeppelin/contracts/token/ERC20/SafeERC20.sol\":786:805  _callOptionalReturn */\n      tag_154\n        /* \"@openzeppelin/contracts/token/ERC20/SafeERC20.sol\":786:872  _callOptionalReturn(token, abi.encodeWithSelector(token.transfer.selector, to, value)) */\n      jump\t// in\n        /* \"contracts/Swap/libraries/RouterHelper.sol\":650:1710  function swapTokens(address router, uint256 amount, address inputToken, address outputToken, address[] memory path) internal returns (uint256) {... */\n    tag_101:\n        /* \"contracts/Swap/libraries/RouterHelper.sol\":784:791  uint256 */\n      0x00\n        /* \"contracts/Swap/libraries/RouterHelper.sol\":821:832  outputToken */\n      dup3\n      sub(shl(0xa0, 0x01), 0x01)\n        /* \"contracts/Swap/libraries/RouterHelper.sol\":807:832  inputToken == outputToken */\n      and\n        /* \"contracts/Swap/libraries/RouterHelper.sol\":807:817  inputToken */\n      dup5\n      sub(shl(0xa0, 0x01), 0x01)\n        /* \"contracts/Swap/libraries/RouterHelper.sol\":807:832  inputToken == outputToken */\n      and\n      eq\n        /* \"contracts/Swap/libraries/RouterHelper.sol\":803:872  if (inputToken == outputToken) {... */\n      iszero\n      tag_156\n      jumpi\n      pop\n        /* \"contracts/Swap/libraries/RouterHelper.sol\":855:861  amount */\n      dup4\n        /* \"contracts/Swap/libraries/RouterHelper.sol\":848:861  return amount */\n      jump(tag_155)\n        /* \"contracts/Swap/libraries/RouterHelper.sol\":803:872  if (inputToken == outputToken) {... */\n    tag_156:\n        /* \"contracts/Swap/libraries/RouterHelper.sol\":904:905  0 */\n      0x00\n        /* \"contracts/Swap/libraries/RouterHelper.sol\":890:894  path */\n      dup3\n        /* \"contracts/Swap/libraries/RouterHelper.sol\":890:901  path.length */\n      mload\n        /* \"contracts/Swap/libraries/RouterHelper.sol\":890:905  path.length > 0 */\n      gt\n        /* \"contracts/Swap/libraries/RouterHelper.sol\":882:934  require(path.length > 0, \"swapTokens: INVALID PATH\") */\n      tag_157\n      jumpi\n      0x40\n      dup1\n      mload\n      shl(0xe5, 0x461bcd)\n      dup2\n      mstore\n      0x20\n      0x04\n      dup3\n      add\n      mstore\n      0x18\n      0x24\n      dup3\n      add\n      mstore\n      0x73776170546f6b656e733a20494e56414c494420504154480000000000000000\n      0x44\n      dup3\n      add\n      mstore\n      swap1\n      mload\n      swap1\n      dup2\n      swap1\n      sub\n      0x64\n      add\n      swap1\n      revert\n    tag_157:\n        /* \"contracts/Swap/libraries/RouterHelper.sol\":963:973  inputToken */\n      dup4\n      sub(shl(0xa0, 0x01), 0x01)\n        /* \"contracts/Swap/libraries/RouterHelper.sol\":952:973  path[0] == inputToken */\n      and\n        /* \"contracts/Swap/libraries/RouterHelper.sol\":952:956  path */\n      dup3\n        /* \"contracts/Swap/libraries/RouterHelper.sol\":957:958  0 */\n      0x00\n        /* \"contracts/Swap/libraries/RouterHelper.sol\":952:959  path[0] */\n      dup2\n      mload\n      dup2\n      lt\n      tag_158\n      jumpi\n      invalid\n    tag_158:\n      0x20\n      mul\n      0x20\n      add\n      add\n      mload\n      sub(shl(0xa0, 0x01), 0x01)\n        /* \"contracts/Swap/libraries/RouterHelper.sol\":952:973  path[0] == inputToken */\n      and\n      eq\n        /* \"contracts/Swap/libraries/RouterHelper.sol\":944:1002  require(path[0] == inputToken, \"swapTokens: INVALID PATH\") */\n      tag_159\n      jumpi\n      0x40\n      dup1\n      mload\n      shl(0xe5, 0x461bcd)\n      dup2\n      mstore\n      0x20\n      0x04\n      dup3\n      add\n      mstore\n      0x18\n      0x24\n      dup3\n      add\n      mstore\n      0x73776170546f6b656e733a20494e56414c494420504154480000000000000000\n      0x44\n      dup3\n      add\n      mstore\n      swap1\n      mload\n      swap1\n      dup2\n      swap1\n      sub\n      0x64\n      add\n      swap1\n      revert\n    tag_159:\n        /* \"contracts/Swap/libraries/RouterHelper.sol\":1045:1056  outputToken */\n      dup3\n      sub(shl(0xa0, 0x01), 0x01)\n        /* \"contracts/Swap/libraries/RouterHelper.sol\":1020:1056  path[path.length - 1] == outputToken */\n      and\n        /* \"contracts/Swap/libraries/RouterHelper.sol\":1020:1024  path */\n      dup3\n        /* \"contracts/Swap/libraries/RouterHelper.sol\":1039:1040  1 */\n      0x01\n        /* \"contracts/Swap/libraries/RouterHelper.sol\":1025:1029  path */\n      dup5\n        /* \"contracts/Swap/libraries/RouterHelper.sol\":1025:1036  path.length */\n      mload\n        /* \"contracts/Swap/libraries/RouterHelper.sol\":1025:1040  path.length - 1 */\n      sub\n        /* \"contracts/Swap/libraries/RouterHelper.sol\":1020:1041  path[path.length - 1] */\n      dup2\n      mload\n      dup2\n      lt\n      tag_160\n      jumpi\n      invalid\n    tag_160:\n      0x20\n      mul\n      0x20\n      add\n      add\n      mload\n      sub(shl(0xa0, 0x01), 0x01)\n        /* \"contracts/Swap/libraries/RouterHelper.sol\":1020:1056  path[path.length - 1] == outputToken */\n      and\n      eq\n        /* \"contracts/Swap/libraries/RouterHelper.sol\":1012:1085  require(path[path.length - 1] == outputToken, \"swapTokens: INVALID PATH\") */\n      tag_161\n      jumpi\n      0x40\n      dup1\n      mload\n      shl(0xe5, 0x461bcd)\n      dup2\n      mstore\n      0x20\n      0x04\n      dup3\n      add\n      mstore\n      0x18\n      0x24\n      dup3\n      add\n      mstore\n      0x73776170546f6b656e733a20494e56414c494420504154480000000000000000\n      0x44\n      dup3\n      add\n      mstore\n      swap1\n      mload\n      swap1\n      dup2\n      swap1\n      sub\n      0x64\n      add\n      swap1\n      revert\n    tag_161:\n        /* \"contracts/Swap/libraries/RouterHelper.sol\":1096:1117  uint256 inputTokenBal */\n      0x00\n        /* \"contracts/Swap/libraries/RouterHelper.sol\":1127:1137  inputToken */\n      dup5\n      sub(shl(0xa0, 0x01), 0x01)\n        /* \"contracts/Swap/libraries/RouterHelper.sol\":1120:1148  IERC20(inputToken).balanceOf */\n      and\n      0x70a08231\n        /* \"contracts/Swap/libraries/RouterHelper.sol\":1157:1161  this */\n      address\n        /* \"contracts/Swap/libraries/RouterHelper.sol\":1120:1163  IERC20(inputToken).balanceOf(address(this)) */\n      mload(0x40)\n      dup3\n      0xffffffff\n      and\n      0xe0\n      shl\n      dup2\n      mstore\n      0x04\n      add\n      dup1\n      dup3\n      sub(shl(0xa0, 0x01), 0x01)\n      and\n      dup2\n      mstore\n      0x20\n      add\n      swap2\n      pop\n      pop\n      0x20\n      mload(0x40)\n      dup1\n      dup4\n      sub\n      dup2\n      dup7\n      dup1\n      extcodesize\n      iszero\n      dup1\n      iszero\n      tag_162\n      jumpi\n      0x00\n      dup1\n      revert\n    tag_162:\n      pop\n      gas\n      staticcall\n      iszero\n      dup1\n      iszero\n      tag_164\n      jumpi\n      returndatasize\n      0x00\n      dup1\n      returndatacopy\n      revert(0x00, returndatasize)\n    tag_164:\n      pop\n      pop\n      pop\n      pop\n      mload(0x40)\n      returndatasize\n      0x20\n      dup2\n      lt\n      iszero\n      tag_165\n      jumpi\n      0x00\n      dup1\n      revert\n    tag_165:\n      pop\n      mload\n      swap1\n      pop\n        /* \"contracts/Swap/libraries/RouterHelper.sol\":1181:1204  inputTokenBal >= amount */\n      dup6\n      dup2\n      lt\n      iszero\n        /* \"contracts/Swap/libraries/RouterHelper.sol\":1173:1240  require(inputTokenBal >= amount, \"swapTokens: INSUFFICIENT AMOUNT\") */\n      tag_166\n      jumpi\n      0x40\n      dup1\n      mload\n      shl(0xe5, 0x461bcd)\n      dup2\n      mstore\n      0x20\n      0x04\n      dup3\n      add\n      mstore\n      0x1f\n      0x24\n      dup3\n      add\n      mstore\n      0x73776170546f6b656e733a20494e53554646494349454e5420414d4f554e5400\n      0x44\n      dup3\n      add\n      mstore\n      swap1\n      mload\n      swap1\n      dup2\n      swap1\n      sub\n      0x64\n      add\n      swap1\n      revert\n    tag_166:\n        /* \"contracts/Swap/libraries/RouterHelper.sol\":1251:1273  uint256 outputTokenBal */\n      0x00\n        /* \"contracts/Swap/libraries/RouterHelper.sol\":1283:1294  outputToken */\n      dup5\n      sub(shl(0xa0, 0x01), 0x01)\n        /* \"contracts/Swap/libraries/RouterHelper.sol\":1276:1305  IERC20(outputToken).balanceOf */\n      and\n      0x70a08231\n        /* \"contracts/Swap/libraries/RouterHelper.sol\":1314:1318  this */\n      address\n        /* \"contracts/Swap/libraries/RouterHelper.sol\":1276:1320  IERC20(outputToken).balanceOf(address(this)) */\n      mload(0x40)\n      dup3\n      0xffffffff\n      and\n      0xe0\n      shl\n      dup2\n      mstore\n      0x04\n      add\n      dup1\n      dup3\n      sub(shl(0xa0, 0x01), 0x01)\n      and\n      dup2\n      mstore\n      0x20\n      add\n      swap2\n      pop\n      pop\n      0x20\n      mload(0x40)\n      dup1\n      dup4\n      sub\n      dup2\n      dup7\n      dup1\n      extcodesize\n      iszero\n      dup1\n      iszero\n      tag_167\n      jumpi\n      0x00\n      dup1\n      revert\n    tag_167:\n      pop\n      gas\n      staticcall\n      iszero\n      dup1\n      iszero\n      tag_169\n      jumpi\n      returndatasize\n      0x00\n      dup1\n      returndatacopy\n      revert(0x00, returndatasize)\n    tag_169:\n      pop\n      pop\n      pop\n      pop\n      mload(0x40)\n      returndatasize\n      0x20\n      dup2\n      lt\n      iszero\n      tag_170\n      jumpi\n      0x00\n      dup1\n      revert\n    tag_170:\n      pop\n      mload\n      swap1\n      pop\n        /* \"contracts/Swap/libraries/RouterHelper.sol\":1331:1387  IERC20(inputToken).safeIncreaseAllowance(router, amount) */\n      tag_171\n      sub(shl(0xa0, 0x01), 0x01)\n        /* \"contracts/Swap/libraries/RouterHelper.sol\":1331:1371  IERC20(inputToken).safeIncreaseAllowance */\n      dup8\n      and\n        /* \"contracts/Swap/libraries/RouterHelper.sol\":1372:1378  router */\n      dup10\n        /* \"contracts/Swap/libraries/RouterHelper.sol\":1380:1386  amount */\n      dup10\n        /* \"contracts/Swap/libraries/RouterHelper.sol\":1331:1371  IERC20(inputToken).safeIncreaseAllowance */\n      tag_130\n        /* \"contracts/Swap/libraries/RouterHelper.sol\":1331:1387  IERC20(inputToken).safeIncreaseAllowance(router, amount) */\n      jump\t// in\n    tag_171:\n        /* \"contracts/Swap/libraries/RouterHelper.sol\":1410:1416  router */\n      dup8\n      sub(shl(0xa0, 0x01), 0x01)\n        /* \"contracts/Swap/libraries/RouterHelper.sol\":1397:1471  IGlideRouter(router).swapExactTokensForTokensSupportingFeeOnTransferTokens */\n      and\n      0x5c11d795\n        /* \"contracts/Swap/libraries/RouterHelper.sol\":1485:1491  amount */\n      dup9\n        /* \"contracts/Swap/libraries/RouterHelper.sol\":1505:1506  0 */\n      0x00\n        /* \"contracts/Swap/libraries/RouterHelper.sol\":1520:1524  path */\n      dup8\n        /* \"contracts/Swap/libraries/RouterHelper.sol\":1546:1550  this */\n      address\n        /* \"contracts/Swap/libraries/RouterHelper.sol\":1565:1580  getTxDeadline() */\n      tag_172\n        /* \"contracts/Swap/libraries/RouterHelper.sol\":1565:1578  getTxDeadline */\n      tag_173\n        /* \"contracts/Swap/libraries/RouterHelper.sol\":1565:1580  getTxDeadline() */\n      jump\t// in\n    tag_172:\n        /* \"contracts/Swap/libraries/RouterHelper.sol\":1397:1590  IGlideRouter(router).swapExactTokensForTokensSupportingFeeOnTransferTokens(... */\n      mload(0x40)\n      dup7\n      0xffffffff\n      and\n      0xe0\n      shl\n      dup2\n      mstore\n      0x04\n      add\n      dup1\n      dup7\n      dup2\n      mstore\n      0x20\n      add\n      dup6\n      dup2\n      mstore\n      0x20\n      add\n      dup1\n      0x20\n      add\n      dup5\n      sub(shl(0xa0, 0x01), 0x01)\n      and\n      dup2\n      mstore\n      0x20\n      add\n      dup4\n      dup2\n      mstore\n      0x20\n      add\n      dup3\n      dup2\n      sub\n      dup3\n      mstore\n      dup6\n      dup2\n      dup2\n      mload\n      dup2\n      mstore\n      0x20\n      add\n      swap2\n      pop\n      dup1\n      mload\n      swap1\n      0x20\n      add\n      swap1\n      0x20\n      mul\n      dup1\n      dup4\n      dup4\n      0x00\n    tag_174:\n      dup4\n      dup2\n      lt\n      iszero\n      tag_176\n      jumpi\n      dup2\n      dup2\n      add\n      mload\n      dup4\n      dup3\n      add\n      mstore\n      0x20\n      add\n      jump(tag_174)\n    tag_176:\n      pop\n      pop\n      pop\n      pop\n      swap1\n      pop\n      add\n      swap7\n      pop\n      pop\n      pop\n      pop\n      pop\n      pop\n      pop\n      0x00\n      mload(0x40)\n      dup1\n      dup4\n      sub\n      dup2\n      0x00\n      dup8\n      dup1\n      extcodesize\n      iszero\n      dup1\n      iszero\n      tag_177\n      jumpi\n      0x00\n      dup1\n      revert\n    tag_177:\n      pop\n      gas\n      call\n      iszero\n      dup1\n      iszero\n      tag_179\n      jumpi\n      returndatasize\n      0x00\n      dup1\n      returndatacopy\n      revert(0x00, returndatasize)\n    tag_179:\n      pop\n      pop\n      pop\n      pop\n        /* \"contracts/Swap/libraries/RouterHelper.sol\":1601:1614  uint256 gains */\n      0x00\n        /* \"contracts/Swap/libraries/RouterHelper.sol\":1617:1681  IERC20(outputToken).balanceOf(address(this)).sub(outputTokenBal) */\n      tag_180\n        /* \"contracts/Swap/libraries/RouterHelper.sol\":1666:1680  outputTokenBal */\n      dup3\n        /* \"contracts/Swap/libraries/RouterHelper.sol\":1624:1635  outputToken */\n      dup8\n      sub(shl(0xa0, 0x01), 0x01)\n        /* \"contracts/Swap/libraries/RouterHelper.sol\":1617:1646  IERC20(outputToken).balanceOf */\n      and\n      0x70a08231\n        /* \"contracts/Swap/libraries/RouterHelper.sol\":1655:1659  this */\n      address\n        /* \"contracts/Swap/libraries/RouterHelper.sol\":1617:1661  IERC20(outputToken).balanceOf(address(this)) */\n      mload(0x40)\n      dup3\n      0xffffffff\n      and\n      0xe0\n      shl\n      dup2\n      mstore\n      0x04\n      add\n      dup1\n      dup3\n      sub(shl(0xa0, 0x01), 0x01)\n      and\n      dup2\n      mstore\n      0x20\n      add\n      swap2\n      pop\n      pop\n      0x20\n      mload(0x40)\n      dup1\n      dup4\n      sub\n      dup2\n      dup7\n      dup1\n      extcodesize\n      iszero\n      dup1\n      iszero\n      tag_181\n      jumpi\n      0x00\n      dup1\n      revert\n    tag_181:\n      pop\n      gas\n      staticcall\n      iszero\n      dup1\n      iszero\n      tag_183\n      jumpi\n      returndatasize\n      0x00\n      dup1\n      returndatacopy\n      revert(0x00, returndatasize)\n    tag_183:\n      pop\n      pop\n      pop\n      pop\n      mload(0x40)\n      returndatasize\n      0x20\n      dup2\n      lt\n      iszero\n      tag_184\n      jumpi\n      0x00\n      dup1\n      revert\n    tag_184:\n      pop\n      mload\n      swap1\n        /* \"contracts/Swap/libraries/RouterHelper.sol\":1617:1665  IERC20(outputToken).balanceOf(address(this)).sub */\n      tag_128\n        /* \"contracts/Swap/libraries/RouterHelper.sol\":1617:1681  IERC20(outputToken).balanceOf(address(this)).sub(outputTokenBal) */\n      jump\t// in\n    tag_180:\n        /* \"contracts/Swap/libraries/RouterHelper.sol\":1601:1681  uint256 gains = IERC20(outputToken).balanceOf(address(this)).sub(outputTokenBal) */\n      swap4\n      pop\n      pop\n      pop\n      pop\n        /* \"contracts/Swap/libraries/RouterHelper.sol\":650:1710  function swapTokens(address router, uint256 amount, address inputToken, address outputToken, address[] memory path) internal returns (uint256) {... */\n    tag_155:\n      swap6\n      swap5\n      pop\n      pop\n      pop\n      pop\n      pop\n      jump\t// out\n        /* \"contracts/Swap/libraries/RouterHelper.sol\":2418:3068  function removeLiquidity(... */\n    tag_113:\n        /* \"contracts/Swap/libraries/RouterHelper.sol\":2548:2555  uint256 */\n      0x00\n        /* \"contracts/Swap/libraries/RouterHelper.sol\":2557:2564  uint256 */\n      dup1\n        /* \"contracts/Swap/libraries/RouterHelper.sol\":2575:2596  address token0Address */\n      0x00\n        /* \"contracts/Swap/libraries/RouterHelper.sol\":2610:2621  pairAddress */\n      dup5\n      sub(shl(0xa0, 0x01), 0x01)\n        /* \"contracts/Swap/libraries/RouterHelper.sol\":2599:2629  IGlidePair(pairAddress).token0 */\n      and\n      0x0dfe1681\n        /* \"contracts/Swap/libraries/RouterHelper.sol\":2599:2631  IGlidePair(pairAddress).token0() */\n      mload(0x40)\n      dup2\n      0xffffffff\n      and\n      0xe0\n      shl\n      dup2\n      mstore\n      0x04\n      add\n      0x20\n      mload(0x40)\n      dup1\n      dup4\n      sub\n      dup2\n      dup7\n      dup1\n      extcodesize\n      iszero\n      dup1\n      iszero\n      tag_186\n      jumpi\n      0x00\n      dup1\n      revert\n    tag_186:\n      pop\n      gas\n      staticcall\n      iszero\n      dup1\n      iszero\n      tag_188\n      jumpi\n      returndatasize\n      0x00\n      dup1\n      returndatacopy\n      revert(0x00, returndatasize)\n    tag_188:\n      pop\n      pop\n      pop\n      pop\n      mload(0x40)\n      returndatasize\n      0x20\n      dup2\n      lt\n      iszero\n      tag_189\n      jumpi\n      0x00\n      dup1\n      revert\n    tag_189:\n      pop\n      mload\n        /* \"contracts/Swap/libraries/RouterHelper.sol\":2665:2697  IGlidePair(pairAddress).token1() */\n      0x40\n      dup1\n      mload\n      0xd21220a700000000000000000000000000000000000000000000000000000000\n      dup2\n      mstore\n      swap1\n      mload\n        /* \"contracts/Swap/libraries/RouterHelper.sol\":2599:2631  IGlidePair(pairAddress).token0() */\n      swap2\n      swap3\n      pop\n        /* \"contracts/Swap/libraries/RouterHelper.sol\":2641:2662  address token1Address */\n      0x00\n      swap2\n      sub(shl(0xa0, 0x01), 0x01)\n        /* \"contracts/Swap/libraries/RouterHelper.sol\":2665:2695  IGlidePair(pairAddress).token1 */\n      dup9\n      and\n      swap2\n      0xd21220a7\n      swap2\n        /* \"contracts/Swap/libraries/RouterHelper.sol\":2665:2697  IGlidePair(pairAddress).token1() */\n      0x04\n      dup1\n      dup4\n      add\n      swap3\n        /* \"contracts/Swap/libraries/RouterHelper.sol\":2599:2631  IGlidePair(pairAddress).token0() */\n      0x20\n      swap3\n        /* \"contracts/Swap/libraries/RouterHelper.sol\":2665:2697  IGlidePair(pairAddress).token1() */\n      swap2\n      swap1\n      dup3\n      swap1\n      sub\n      add\n      dup2\n        /* \"contracts/Swap/libraries/RouterHelper.sol\":2665:2695  IGlidePair(pairAddress).token1 */\n      dup7\n        /* \"contracts/Swap/libraries/RouterHelper.sol\":2665:2697  IGlidePair(pairAddress).token1() */\n      dup1\n      extcodesize\n      iszero\n      dup1\n      iszero\n      tag_190\n      jumpi\n      0x00\n      dup1\n      revert\n    tag_190:\n      pop\n      gas\n      staticcall\n      iszero\n      dup1\n      iszero\n      tag_192\n      jumpi\n      returndatasize\n      0x00\n      dup1\n      returndatacopy\n      revert(0x00, returndatasize)\n    tag_192:\n      pop\n      pop\n      pop\n      pop\n      mload(0x40)\n      returndatasize\n      0x20\n      dup2\n      lt\n      iszero\n      tag_193\n      jumpi\n      0x00\n      dup1\n      revert\n    tag_193:\n      pop\n      mload\n      swap1\n      pop\n        /* \"contracts/Swap/libraries/RouterHelper.sol\":2708:2769  IERC20(pairAddress).safeIncreaseAllowance(router, pairAmount) */\n      tag_194\n      sub(shl(0xa0, 0x01), 0x01)\n        /* \"contracts/Swap/libraries/RouterHelper.sol\":2708:2749  IERC20(pairAddress).safeIncreaseAllowance */\n      dup8\n      and\n        /* \"contracts/Swap/libraries/RouterHelper.sol\":2750:2756  router */\n      dup9\n        /* \"contracts/Swap/libraries/RouterHelper.sol\":2758:2768  pairAmount */\n      dup8\n        /* \"contracts/Swap/libraries/RouterHelper.sol\":2708:2749  IERC20(pairAddress).safeIncreaseAllowance */\n      tag_130\n        /* \"contracts/Swap/libraries/RouterHelper.sol\":2708:2769  IERC20(pairAddress).safeIncreaseAllowance(router, pairAmount) */\n      jump\t// in\n    tag_194:\n        /* \"contracts/Swap/libraries/RouterHelper.sol\":2780:2795  uint256 amount0 */\n      0x00\n        /* \"contracts/Swap/libraries/RouterHelper.sol\":2797:2812  uint256 amount1 */\n      dup1\n        /* \"contracts/Swap/libraries/RouterHelper.sol\":2829:2835  router */\n      dup9\n      sub(shl(0xa0, 0x01), 0x01)\n        /* \"contracts/Swap/libraries/RouterHelper.sol\":2816:2852  IGlideRouter(router).removeLiquidity */\n      and\n      0xbaa2abde\n        /* \"contracts/Swap/libraries/RouterHelper.sol\":2866:2879  token0Address */\n      dup6\n        /* \"contracts/Swap/libraries/RouterHelper.sol\":2893:2906  token1Address */\n      dup6\n        /* \"contracts/Swap/libraries/RouterHelper.sol\":2920:2930  pairAmount */\n      dup11\n        /* \"contracts/Swap/libraries/RouterHelper.sol\":2944:2945  0 */\n      0x00\n        /* \"contracts/Swap/libraries/RouterHelper.sol\":2959:2960  0 */\n      dup1\n        /* \"contracts/Swap/libraries/RouterHelper.sol\":2982:2986  this */\n      address\n        /* \"contracts/Swap/libraries/RouterHelper.sol\":3001:3016  getTxDeadline() */\n      tag_195\n        /* \"contracts/Swap/libraries/RouterHelper.sol\":3001:3014  getTxDeadline */\n      tag_173\n        /* \"contracts/Swap/libraries/RouterHelper.sol\":3001:3016  getTxDeadline() */\n      jump\t// in\n    tag_195:\n        /* \"contracts/Swap/libraries/RouterHelper.sol\":2816:3026  IGlideRouter(router).removeLiquidity(... */\n      mload(0x40)\n      dup9\n      0xffffffff\n      and\n      0xe0\n      shl\n      dup2\n      mstore\n      0x04\n      add\n      dup1\n      dup9\n      sub(shl(0xa0, 0x01), 0x01)\n      and\n      dup2\n      mstore\n      0x20\n      add\n      dup8\n      sub(shl(0xa0, 0x01), 0x01)\n      and\n      dup2\n      mstore\n      0x20\n      add\n      dup7\n      dup2\n      mstore\n      0x20\n      add\n      dup6\n      dup2\n      mstore\n      0x20\n      add\n      dup5\n      dup2\n      mstore\n      0x20\n      add\n      dup4\n      sub(shl(0xa0, 0x01), 0x01)\n      and\n      dup2\n      mstore\n      0x20\n      add\n      dup3\n      dup2\n      mstore\n      0x20\n      add\n      swap8\n      pop\n      pop\n      pop\n      pop\n      pop\n      pop\n      pop\n      pop\n      0x40\n      dup1\n      mload\n      dup1\n      dup4\n      sub\n      dup2\n      0x00\n      dup8\n      dup1\n      extcodesize\n      iszero\n      dup1\n      iszero\n      tag_196\n      jumpi\n      0x00\n      dup1\n      revert\n    tag_196:\n      pop\n      gas\n      call\n      iszero\n      dup1\n      iszero\n      tag_198\n      jumpi\n      returndatasize\n      0x00\n      dup1\n      returndatacopy\n      revert(0x00, returndatasize)\n    tag_198:\n      pop\n      pop\n      pop\n      pop\n      mload(0x40)\n      returndatasize\n      0x40\n      dup2\n      lt\n      iszero\n      tag_199\n      jumpi\n      0x00\n      dup1\n      revert\n    tag_199:\n      pop\n      dup1\n      mload\n      0x20\n      swap1\n      swap2\n      add\n      mload\n      swap1\n      swap11\n      swap1\n      swap10\n      pop\n        /* \"contracts/Swap/libraries/RouterHelper.sol\":2418:3068  function removeLiquidity(... */\n      swap8\n      pop\n      pop\n      pop\n      pop\n      pop\n      pop\n      pop\n      pop\n      jump\t// out\n        /* \"@openzeppelin/contracts/math/SafeMath.sol\":3538:3753  function mul(uint256 a, uint256 b) internal pure returns (uint256) {... */\n    tag_125:\n        /* \"@openzeppelin/contracts/math/SafeMath.sol\":3596:3603  uint256 */\n      0x00\n        /* \"@openzeppelin/contracts/math/SafeMath.sol\":3619:3625  a == 0 */\n      dup3\n        /* \"@openzeppelin/contracts/math/SafeMath.sol\":3615:3635  if (a == 0) return 0 */\n      tag_201\n      jumpi\n      pop\n        /* \"@openzeppelin/contracts/math/SafeMath.sol\":3634:3635  0 */\n      0x00\n        /* \"@openzeppelin/contracts/math/SafeMath.sol\":3627:3635  return 0 */\n      jump(tag_200)\n        /* \"@openzeppelin/contracts/math/SafeMath.sol\":3615:3635  if (a == 0) return 0 */\n    tag_201:\n        /* \"@openzeppelin/contracts/math/SafeMath.sol\":3657:3662  a * b */\n      dup3\n      dup3\n      mul\n        /* \"@openzeppelin/contracts/math/SafeMath.sol\":3661:3662  b */\n      dup3\n        /* \"@openzeppelin/contracts/math/SafeMath.sol\":3657:3658  a */\n      dup5\n        /* \"@openzeppelin/contracts/math/SafeMath.sol\":3657:3662  a * b */\n      dup3\n        /* \"@openzeppelin/contracts/math/SafeMath.sol\":3657:3658  a */\n      dup2\n        /* \"@openzeppelin/contracts/math/SafeMath.sol\":3680:3685  c / a */\n      tag_202\n      jumpi\n      invalid\n    tag_202:\n      div\n        /* \"@openzeppelin/contracts/math/SafeMath.sol\":3680:3690  c / a == b */\n      eq\n        /* \"@openzeppelin/contracts/math/SafeMath.sol\":3672:3728  require(c / a == b, \"SafeMath: multiplication overflow\") */\n      tag_203\n      jumpi\n      mload(0x40)\n      shl(0xe5, 0x461bcd)\n      dup2\n      mstore\n      0x04\n      add\n      dup1\n      dup1\n      0x20\n      add\n      dup3\n      dup2\n      sub\n      dup3\n      mstore\n      0x21\n      dup2\n      mstore\n      0x20\n      add\n      dup1\n      data_9113bb53c2876a3805b2c9242029423fc540a728243ce887ab24c82cf119fba3\n      0x21\n      swap2\n      codecopy\n      0x40\n      add\n      swap2\n      pop\n      pop\n      mload(0x40)\n      dup1\n      swap2\n      sub\n      swap1\n      revert\n    tag_203:\n        /* \"@openzeppelin/contracts/math/SafeMath.sol\":3745:3746  c */\n      swap1\n      pop\n        /* \"@openzeppelin/contracts/math/SafeMath.sol\":3538:3753  function mul(uint256 a, uint256 b) internal pure returns (uint256) {... */\n    tag_200:\n      swap3\n      swap2\n      pop\n      pop\n      jump\t// out\n        /* \"@openzeppelin/contracts/math/SafeMath.sol\":4217:4367  function div(uint256 a, uint256 b) internal pure returns (uint256) {... */\n    tag_126:\n        /* \"@openzeppelin/contracts/math/SafeMath.sol\":4275:4282  uint256 */\n      0x00\n        /* \"@openzeppelin/contracts/math/SafeMath.sol\":4306:4307  0 */\n      dup1\n        /* \"@openzeppelin/contracts/math/SafeMath.sol\":4302:4303  b */\n      dup3\n        /* \"@openzeppelin/contracts/math/SafeMath.sol\":4302:4307  b > 0 */\n      gt\n        /* \"@openzeppelin/contracts/math/SafeMath.sol\":4294:4338  require(b > 0, \"SafeMath: division by zero\") */\n      tag_205\n      jumpi\n      0x40\n      dup1\n      mload\n      shl(0xe5, 0x461bcd)\n      dup2\n      mstore\n      0x20\n      0x04\n      dup3\n      add\n      mstore\n      0x1a\n      0x24\n      dup3\n      add\n      mstore\n      0x536166654d6174683a206469766973696f6e206279207a65726f000000000000\n      0x44\n      dup3\n      add\n      mstore\n      swap1\n      mload\n      swap1\n      dup2\n      swap1\n      sub\n      0x64\n      add\n      swap1\n      revert\n    tag_205:\n        /* \"@openzeppelin/contracts/math/SafeMath.sol\":4359:4360  b */\n      dup2\n        /* \"@openzeppelin/contracts/math/SafeMath.sol\":4355:4356  a */\n      dup4\n        /* \"@openzeppelin/contracts/math/SafeMath.sol\":4355:4360  a / b */\n      dup2\n      tag_206\n      jumpi\n      invalid\n    tag_206:\n      div\n      swap4\n        /* \"@openzeppelin/contracts/math/SafeMath.sol\":4217:4367  function div(uint256 a, uint256 b) internal pure returns (uint256) {... */\n      swap3\n      pop\n      pop\n      pop\n      jump\t// out\n        /* \"@openzeppelin/contracts/math/SafeMath.sol\":3136:3291  function sub(uint256 a, uint256 b) internal pure returns (uint256) {... */\n    tag_128:\n        /* \"@openzeppelin/contracts/math/SafeMath.sol\":3194:3201  uint256 */\n      0x00\n        /* \"@openzeppelin/contracts/math/SafeMath.sol\":3226:3227  a */\n      dup3\n        /* \"@openzeppelin/contracts/math/SafeMath.sol\":3221:3222  b */\n      dup3\n        /* \"@openzeppelin/contracts/math/SafeMath.sol\":3221:3227  b <= a */\n      gt\n      iszero\n        /* \"@openzeppelin/contracts/math/SafeMath.sol\":3213:3262  require(b <= a, \"SafeMath: subtraction overflow\") */\n      tag_208\n      jumpi\n      0x40\n      dup1\n      mload\n      shl(0xe5, 0x461bcd)\n      dup2\n      mstore\n      0x20\n      0x04\n      dup3\n      add\n      mstore\n      0x1e\n      0x24\n      dup3\n      add\n      mstore\n      0x536166654d6174683a207375627472616374696f6e206f766572666c6f770000\n      0x44\n      dup3\n      add\n      mstore\n      swap1\n      mload\n      swap1\n      dup2\n      swap1\n      sub\n      0x64\n      add\n      swap1\n      revert\n    tag_208:\n      pop\n        /* \"@openzeppelin/contracts/math/SafeMath.sol\":3279:3284  a - b */\n      swap1\n      sub\n      swap1\n        /* \"@openzeppelin/contracts/math/SafeMath.sol\":3136:3291  function sub(uint256 a, uint256 b) internal pure returns (uint256) {... */\n      jump\t// out\n        /* \"@openzeppelin/contracts/token/ERC20/SafeERC20.sol\":1967:2250  function safeIncreaseAllowance(IERC20 token, address spender, uint256 value) internal {... */\n    tag_130:\n        /* \"@openzeppelin/contracts/token/ERC20/SafeERC20.sol\":2063:2083  uint256 newAllowance */\n      0x00\n        /* \"@openzeppelin/contracts/token/ERC20/SafeERC20.sol\":2086:2136  token.allowance(address(this), spender).add(value) */\n      tag_210\n        /* \"@openzeppelin/contracts/token/ERC20/SafeERC20.sol\":2130:2135  value */\n      dup3\n        /* \"@openzeppelin/contracts/token/ERC20/SafeERC20.sol\":2086:2091  token */\n      dup6\n      sub(shl(0xa0, 0x01), 0x01)\n        /* \"@openzeppelin/contracts/token/ERC20/SafeERC20.sol\":2086:2101  token.allowance */\n      and\n      0xdd62ed3e\n        /* \"@openzeppelin/contracts/token/ERC20/SafeERC20.sol\":2110:2114  this */\n      address\n        /* \"@openzeppelin/contracts/token/ERC20/SafeERC20.sol\":2117:2124  spender */\n      dup8\n        /* \"@openzeppelin/contracts/token/ERC20/SafeERC20.sol\":2086:2125  token.allowance(address(this), spender) */\n      mload(0x40)\n      dup4\n      0xffffffff\n      and\n      0xe0\n      shl\n      dup2\n      mstore\n      0x04\n      add\n      dup1\n      dup4\n      sub(shl(0xa0, 0x01), 0x01)\n      and\n      dup2\n      mstore\n      0x20\n      add\n      dup3\n      sub(shl(0xa0, 0x01), 0x01)\n      and\n      dup2\n      mstore\n      0x20\n      add\n      swap3\n      pop\n      pop\n      pop\n      0x20\n      mload(0x40)\n      dup1\n      dup4\n      sub\n      dup2\n      dup7\n      dup1\n      extcodesize\n      iszero\n      dup1\n      iszero\n      tag_211\n      jumpi\n      0x00\n      dup1\n      revert\n    tag_211:\n      pop\n      gas\n      staticcall\n      iszero\n      dup1\n      iszero\n      tag_213\n      jumpi\n      returndatasize\n      0x00\n      dup1\n      returndatacopy\n      revert(0x00, returndatasize)\n    tag_213:\n      pop\n      pop\n      pop\n      pop\n      mload(0x40)\n      returndatasize\n      0x20\n      dup2\n      lt\n      iszero\n      tag_214\n      jumpi\n      0x00\n      dup1\n      revert\n    tag_214:\n      pop\n      mload\n      swap1\n        /* \"@openzeppelin/contracts/token/ERC20/SafeERC20.sol\":2086:2129  token.allowance(address(this), spender).add */\n      tag_215\n        /* \"@openzeppelin/contracts/token/ERC20/SafeERC20.sol\":2086:2136  token.allowance(address(this), spender).add(value) */\n      jump\t// in\n    tag_210:\n        /* \"@openzeppelin/contracts/token/ERC20/SafeERC20.sol\":2173:2242  abi.encodeWithSelector(token.approve.selector, spender, newAllowance) */\n      0x40\n      dup1\n      mload\n      sub(shl(0xa0, 0x01), 0x01)\n      dup7\n      and\n      0x24\n      dup3\n      add\n      mstore\n      0x44\n      dup1\n      dup3\n      add\n      dup5\n      swap1\n      mstore\n      dup3\n      mload\n      dup1\n      dup4\n      sub\n      swap1\n      swap2\n      add\n      dup2\n      mstore\n      0x64\n      swap1\n      swap2\n      add\n      swap1\n      swap2\n      mstore\n      0x20\n      dup2\n      add\n      dup1\n      mload\n      0xffffffffffffffffffffffffffffffffffffffffffffffffffffffff\n      and\n        /* \"@openzeppelin/contracts/token/ERC20/SafeERC20.sol\":2196:2218  token.approve.selector */\n      0x095ea7b300000000000000000000000000000000000000000000000000000000\n        /* \"@openzeppelin/contracts/token/ERC20/SafeERC20.sol\":2173:2242  abi.encodeWithSelector(token.approve.selector, spender, newAllowance) */\n      or\n      swap1\n      mstore\n        /* \"@openzeppelin/contracts/token/ERC20/SafeERC20.sol\":2063:2136  uint256 newAllowance = token.allowance(address(this), spender).add(value) */\n      swap1\n      swap2\n      pop\n        /* \"@openzeppelin/contracts/token/ERC20/SafeERC20.sol\":2146:2243  _callOptionalReturn(token, abi.encodeWithSelector(token.approve.selector, spender, newAllowance)) */\n      tag_216\n      swap1\n        /* \"@openzeppelin/contracts/token/ERC20/SafeERC20.sol\":2166:2171  token */\n      dup6\n      swap1\n        /* \"@openzeppelin/contracts/token/ERC20/SafeERC20.sol\":2146:2165  _callOptionalReturn */\n      tag_154\n        /* \"@openzeppelin/contracts/token/ERC20/SafeERC20.sol\":2146:2243  _callOptionalReturn(token, abi.encodeWithSelector(token.approve.selector, spender, newAllowance)) */\n      jump\t// in\n    tag_216:\n        /* \"@openzeppelin/contracts/token/ERC20/SafeERC20.sol\":1967:2250  function safeIncreaseAllowance(IERC20 token, address spender, uint256 value) internal {... */\n      pop\n      pop\n      pop\n      pop\n      jump\t// out\n        /* \"contracts/Dividends/FeeDistributor.sol\":2651:2970  function safeTokenTransfer(address to, uint256 amount) internal {... */\n    tag_135:\n        /* \"contracts/Dividends/FeeDistributor.sol\":2750:2761  wElaAddress */\n      sload(0x05)\n        /* \"contracts/Dividends/FeeDistributor.sol\":2743:2787  IERC20(wElaAddress).balanceOf(address(this)) */\n      0x40\n      dup1\n      mload\n      shl(0xe0, 0x70a08231)\n      dup2\n      mstore\n        /* \"contracts/Dividends/FeeDistributor.sol\":2781:2785  this */\n      address\n        /* \"contracts/Dividends/FeeDistributor.sol\":2743:2787  IERC20(wElaAddress).balanceOf(address(this)) */\n      0x04\n      dup3\n      add\n      mstore\n      swap1\n      mload\n        /* \"contracts/Dividends/FeeDistributor.sol\":2725:2740  uint256 balance */\n      0x00\n      swap3\n      sub(shl(0xa0, 0x01), 0x01)\n        /* \"contracts/Dividends/FeeDistributor.sol\":2750:2761  wElaAddress */\n      and\n      swap2\n        /* \"contracts/Dividends/FeeDistributor.sol\":2743:2772  IERC20(wElaAddress).balanceOf */\n      0x70a08231\n      swap2\n        /* \"contracts/Dividends/FeeDistributor.sol\":2743:2787  IERC20(wElaAddress).balanceOf(address(this)) */\n      0x24\n      dup1\n      dup4\n      add\n      swap3\n      0x20\n      swap3\n      swap2\n      swap1\n      dup3\n      swap1\n      sub\n      add\n      dup2\n        /* \"contracts/Dividends/FeeDistributor.sol\":2750:2761  wElaAddress */\n      dup7\n        /* \"contracts/Dividends/FeeDistributor.sol\":2743:2787  IERC20(wElaAddress).balanceOf(address(this)) */\n      dup1\n      extcodesize\n      iszero\n      dup1\n      iszero\n      tag_218\n      jumpi\n      0x00\n      dup1\n      revert\n    tag_218:\n      pop\n      gas\n      staticcall\n      iszero\n      dup1\n      iszero\n      tag_220\n      jumpi\n      returndatasize\n      0x00\n      dup1\n      returndatacopy\n      revert(0x00, returndatasize)\n    tag_220:\n      pop\n      pop\n      pop\n      pop\n      mload(0x40)\n      returndatasize\n      0x20\n      dup2\n      lt\n      iszero\n      tag_221\n      jumpi\n      0x00\n      dup1\n      revert\n    tag_221:\n      pop\n      mload\n      swap1\n      pop\n        /* \"contracts/Dividends/FeeDistributor.sol\":2801:2817  amount > balance */\n      dup1\n      dup3\n      gt\n        /* \"contracts/Dividends/FeeDistributor.sol\":2797:2964  if (amount > balance) {... */\n      iszero\n      tag_222\n      jumpi\n        /* \"contracts/Dividends/FeeDistributor.sol\":2840:2851  wElaAddress */\n      sload(0x05)\n        /* \"contracts/Dividends/FeeDistributor.sol\":2833:2878  IERC20(wElaAddress).safeTransfer(to, balance) */\n      tag_223\n      swap1\n      sub(shl(0xa0, 0x01), 0x01)\n        /* \"contracts/Dividends/FeeDistributor.sol\":2840:2851  wElaAddress */\n      and\n        /* \"contracts/Dividends/FeeDistributor.sol\":2866:2868  to */\n      dup5\n        /* \"contracts/Dividends/FeeDistributor.sol\":2870:2877  balance */\n      dup4\n        /* \"contracts/Dividends/FeeDistributor.sol\":2833:2865  IERC20(wElaAddress).safeTransfer */\n      tag_85\n        /* \"contracts/Dividends/FeeDistributor.sol\":2833:2878  IERC20(wElaAddress).safeTransfer(to, balance) */\n      jump\t// in\n    tag_223:\n        /* \"contracts/Dividends/FeeDistributor.sol\":2797:2964  if (amount > balance) {... */\n      jump(tag_134)\n    tag_222:\n        /* \"contracts/Dividends/FeeDistributor.sol\":2916:2927  wElaAddress */\n      sload(0x05)\n        /* \"contracts/Dividends/FeeDistributor.sol\":2909:2953  IERC20(wElaAddress).safeTransfer(to, amount) */\n      tag_134\n      swap1\n      sub(shl(0xa0, 0x01), 0x01)\n        /* \"contracts/Dividends/FeeDistributor.sol\":2916:2927  wElaAddress */\n      and\n        /* \"contracts/Dividends/FeeDistributor.sol\":2942:2944  to */\n      dup5\n        /* \"contracts/Dividends/FeeDistributor.sol\":2946:2952  amount */\n      dup5\n        /* \"contracts/Dividends/FeeDistributor.sol\":2909:2941  IERC20(wElaAddress).safeTransfer */\n      tag_85\n        /* \"contracts/Dividends/FeeDistributor.sol\":2909:2953  IERC20(wElaAddress).safeTransfer(to, amount) */\n      jump\t// in\n        /* \"@openzeppelin/contracts/token/ERC20/SafeERC20.sol\":2967:3718  function _callOptionalReturn(IERC20 token, bytes memory data) private {... */\n    tag_154:\n        /* \"@openzeppelin/contracts/token/ERC20/SafeERC20.sol\":3386:3409  bytes memory returndata */\n      0x60\n        /* \"@openzeppelin/contracts/token/ERC20/SafeERC20.sol\":3412:3481  address(token).functionCall(data, \"SafeERC20: low-level call failed\") */\n      tag_227\n        /* \"@openzeppelin/contracts/token/ERC20/SafeERC20.sol\":3440:3444  data */\n      dup3\n        /* \"@openzeppelin/contracts/token/ERC20/SafeERC20.sol\":3412:3481  address(token).functionCall(data, \"SafeERC20: low-level call failed\") */\n      mload(0x40)\n      dup1\n      0x40\n      add\n      0x40\n      mstore\n      dup1\n      0x20\n      dup2\n      mstore\n      0x20\n      add\n      0x5361666545524332303a206c6f772d6c6576656c2063616c6c206661696c6564\n      dup2\n      mstore\n      pop\n        /* \"@openzeppelin/contracts/token/ERC20/SafeERC20.sol\":3420:3425  token */\n      dup6\n      sub(shl(0xa0, 0x01), 0x01)\n        /* \"@openzeppelin/contracts/token/ERC20/SafeERC20.sol\":3412:3439  address(token).functionCall */\n      and\n      tag_228\n      swap1\n        /* \"@openzeppelin/contracts/token/ERC20/SafeERC20.sol\":3412:3481  address(token).functionCall(data, \"SafeERC20: low-level call failed\") */\n      swap3\n      swap2\n      swap1\n      0xffffffff\n      and\n      jump\t// in\n    tag_227:\n        /* \"@openzeppelin/contracts/token/ERC20/SafeERC20.sol\":3495:3512  returndata.length */\n      dup1\n      mload\n        /* \"@openzeppelin/contracts/token/ERC20/SafeERC20.sol\":3386:3481  bytes memory returndata = address(token).functionCall(data, \"SafeERC20: low-level call failed\") */\n      swap1\n      swap2\n      pop\n        /* \"@openzeppelin/contracts/token/ERC20/SafeERC20.sol\":3495:3516  returndata.length > 0 */\n      iszero\n        /* \"@openzeppelin/contracts/token/ERC20/SafeERC20.sol\":3491:3712  if (returndata.length > 0) { // Return data is optional... */\n      tag_134\n      jumpi\n        /* \"@openzeppelin/contracts/token/ERC20/SafeERC20.sol\":3635:3645  returndata */\n      dup1\n        /* \"@openzeppelin/contracts/token/ERC20/SafeERC20.sol\":3624:3654  abi.decode(returndata, (bool)) */\n      dup1\n      0x20\n      add\n      swap1\n      mload\n      0x20\n      dup2\n      lt\n      iszero\n      tag_230\n      jumpi\n      0x00\n      dup1\n      revert\n    tag_230:\n      pop\n      mload\n        /* \"@openzeppelin/contracts/token/ERC20/SafeERC20.sol\":3616:3701  require(abi.decode(returndata, (bool)), \"SafeERC20: ERC20 operation did not succeed\") */\n      tag_134\n      jumpi\n      mload(0x40)\n      shl(0xe5, 0x461bcd)\n      dup2\n      mstore\n      0x04\n      add\n      dup1\n      dup1\n      0x20\n      add\n      dup3\n      dup2\n      sub\n      dup3\n      mstore\n      0x2a\n      dup2\n      mstore\n      0x20\n      add\n      dup1\n      data_e11ad79d1e4a7f2e5f376964cb99e8e8f7904e3fc16a109f7a7ecb9aa7956dcd\n      0x2a\n      swap2\n      codecopy\n      0x40\n      add\n      swap2\n      pop\n      pop\n      mload(0x40)\n      dup1\n      swap2\n      sub\n      swap1\n      revert\n        /* \"contracts/Swap/libraries/RouterHelper.sol\":455:554  function getTxDeadline() private view returns (uint256){... */\n    tag_173:\n        /* \"contracts/Swap/libraries/RouterHelper.sol\":545:547  60 */\n      0x3c\n        /* \"contracts/Swap/libraries/RouterHelper.sol\":527:542  block.timestamp */\n      timestamp\n        /* \"contracts/Swap/libraries/RouterHelper.sol\":527:547  block.timestamp + 60 */\n      add\n        /* \"contracts/Swap/libraries/RouterHelper.sol\":455:554  function getTxDeadline() private view returns (uint256){... */\n      swap1\n      jump\t// out\n        /* \"@openzeppelin/contracts/math/SafeMath.sol\":2690:2865  function add(uint256 a, uint256 b) internal pure returns (uint256) {... */\n    tag_215:\n        /* \"@openzeppelin/contracts/math/SafeMath.sol\":2748:2755  uint256 */\n      0x00\n        /* \"@openzeppelin/contracts/math/SafeMath.sol\":2779:2784  a + b */\n      dup3\n      dup3\n      add\n        /* \"@openzeppelin/contracts/math/SafeMath.sol\":2802:2808  c >= a */\n      dup4\n      dup2\n      lt\n      iszero\n        /* \"@openzeppelin/contracts/math/SafeMath.sol\":2794:2840  require(c >= a, \"SafeMath: addition overflow\") */\n      tag_203\n      jumpi\n      0x40\n      dup1\n      mload\n      shl(0xe5, 0x461bcd)\n      dup2\n      mstore\n      0x20\n      0x04\n      dup3\n      add\n      mstore\n      0x1b\n      0x24\n      dup3\n      add\n      mstore\n      0x536166654d6174683a206164646974696f6e206f766572666c6f770000000000\n      0x44\n      dup3\n      add\n      mstore\n      swap1\n      mload\n      swap1\n      dup2\n      swap1\n      sub\n      0x64\n      add\n      swap1\n      revert\n        /* \"@openzeppelin/contracts/utils/Address.sol\":3581:3774  function functionCall(address target, bytes memory data, string memory errorMessage) internal returns (bytes memory) {... */\n    tag_228:\n        /* \"@openzeppelin/contracts/utils/Address.sol\":3684:3696  bytes memory */\n      0x60\n        /* \"@openzeppelin/contracts/utils/Address.sol\":3715:3767  functionCallWithValue(target, data, 0, errorMessage) */\n      tag_236\n        /* \"@openzeppelin/contracts/utils/Address.sol\":3737:3743  target */\n      dup5\n        /* \"@openzeppelin/contracts/utils/Address.sol\":3745:3749  data */\n      dup5\n        /* \"@openzeppelin/contracts/utils/Address.sol\":3751:3752  0 */\n      0x00\n        /* \"@openzeppelin/contracts/utils/Address.sol\":3754:3766  errorMessage */\n      dup6\n        /* \"@openzeppelin/contracts/utils/Address.sol\":3715:3736  functionCallWithValue */\n      tag_237\n        /* \"@openzeppelin/contracts/utils/Address.sol\":3715:3767  functionCallWithValue(target, data, 0, errorMessage) */\n      jump\t// in\n    tag_236:\n        /* \"@openzeppelin/contracts/utils/Address.sol\":3708:3767  return functionCallWithValue(target, data, 0, errorMessage) */\n      swap1\n      pop\n        /* \"@openzeppelin/contracts/utils/Address.sol\":3581:3774  function functionCall(address target, bytes memory data, string memory errorMessage) internal returns (bytes memory) {... */\n    tag_235:\n      swap4\n      swap3\n      pop\n      pop\n      pop\n      jump\t// out\n        /* \"@openzeppelin/contracts/utils/Address.sol\":4608:5131  function functionCallWithValue(address target, bytes memory data, uint256 value, string memory errorMessage) internal returns (bytes memory) {... */\n    tag_237:\n        /* \"@openzeppelin/contracts/utils/Address.sol\":4735:4747  bytes memory */\n      0x60\n        /* \"@openzeppelin/contracts/utils/Address.sol\":4792:4797  value */\n      dup3\n        /* \"@openzeppelin/contracts/utils/Address.sol\":4767:4788  address(this).balance */\n      selfbalance\n        /* \"@openzeppelin/contracts/utils/Address.sol\":4767:4797  address(this).balance >= value */\n      lt\n      iszero\n        /* \"@openzeppelin/contracts/utils/Address.sol\":4759:4840  require(address(this).balance >= value, \"Address: insufficient balance for call\") */\n      tag_239\n      jumpi\n      mload(0x40)\n      shl(0xe5, 0x461bcd)\n      dup2\n      mstore\n      0x04\n      add\n      dup1\n      dup1\n      0x20\n      add\n      dup3\n      dup2\n      sub\n      dup3\n      mstore\n      0x26\n      dup2\n      mstore\n      0x20\n      add\n      dup1\n      data_565f1a77334fc4792800921178c71e4521acffab18ff9e7885b49377ee80ab4c\n      0x26\n      swap2\n      codecopy\n      0x40\n      add\n      swap2\n      pop\n      pop\n      mload(0x40)\n      dup1\n      swap2\n      sub\n      swap1\n      revert\n    tag_239:\n        /* \"@openzeppelin/contracts/utils/Address.sol\":4858:4876  isContract(target) */\n      tag_240\n        /* \"@openzeppelin/contracts/utils/Address.sol\":4869:4875  target */\n      dup6\n        /* \"@openzeppelin/contracts/utils/Address.sol\":4858:4868  isContract */\n      tag_241\n        /* \"@openzeppelin/contracts/utils/Address.sol\":4858:4876  isContract(target) */\n      jump\t// in\n    tag_240:\n        /* \"@openzeppelin/contracts/utils/Address.sol\":4850:4910  require(isContract(target), \"Address: call to non-contract\") */\n      tag_242\n      jumpi\n      0x40\n      dup1\n      mload\n      shl(0xe5, 0x461bcd)\n      dup2\n      mstore\n      0x20\n      0x04\n      dup3\n      add\n      mstore\n      0x1d\n      0x24\n      dup3\n      add\n      mstore\n      0x416464726573733a2063616c6c20746f206e6f6e2d636f6e7472616374000000\n      0x44\n      dup3\n      add\n      mstore\n      swap1\n      mload\n      swap1\n      dup2\n      swap1\n      sub\n      0x64\n      add\n      swap1\n      revert\n    tag_242:\n        /* \"@openzeppelin/contracts/utils/Address.sol\":4981:4993  bool success */\n      0x00\n        /* \"@openzeppelin/contracts/utils/Address.sol\":4995:5018  bytes memory returndata */\n      0x60\n        /* \"@openzeppelin/contracts/utils/Address.sol\":5022:5028  target */\n      dup7\n      sub(shl(0xa0, 0x01), 0x01)\n        /* \"@openzeppelin/contracts/utils/Address.sol\":5022:5033  target.call */\n      and\n        /* \"@openzeppelin/contracts/utils/Address.sol\":5042:5047  value */\n      dup6\n        /* \"@openzeppelin/contracts/utils/Address.sol\":5050:5054  data */\n      dup8\n        /* \"@openzeppelin/contracts/utils/Address.sol\":5022:5055  target.call{ value: value }(data) */\n      mload(0x40)\n      dup1\n      dup3\n      dup1\n      mload\n      swap1\n      0x20\n      add\n      swap1\n      dup1\n      dup4\n      dup4\n    tag_243:\n      0x20\n      dup4\n      lt\n      tag_245\n      jumpi\n      dup1\n      mload\n      dup3\n      mstore\n      not(0x1f)\n      swap1\n      swap3\n      add\n      swap2\n      0x20\n      swap2\n      dup3\n      add\n      swap2\n      add\n      jump(tag_243)\n    tag_245:\n      0x01\n      dup4\n      0x20\n      sub\n      0x0100\n      exp\n      sub\n      dup1\n      not\n      dup3\n      mload\n      and\n      dup2\n      dup5\n      mload\n      and\n      dup1\n      dup3\n      or\n      dup6\n      mstore\n      pop\n      pop\n      pop\n      pop\n      pop\n      pop\n      swap1\n      pop\n      add\n      swap2\n      pop\n      pop\n      0x00\n      mload(0x40)\n      dup1\n      dup4\n      sub\n      dup2\n      dup6\n      dup8\n      gas\n      call\n      swap3\n      pop\n      pop\n      pop\n      returndatasize\n      dup1\n      0x00\n      dup2\n      eq\n      tag_248\n      jumpi\n      mload(0x40)\n      swap2\n      pop\n      and(add(returndatasize, 0x3f), not(0x1f))\n      dup3\n      add\n      0x40\n      mstore\n      returndatasize\n      dup3\n      mstore\n      returndatasize\n      0x00\n      0x20\n      dup5\n      add\n      returndatacopy\n      jump(tag_247)\n    tag_248:\n      0x60\n      swap2\n      pop\n    tag_247:\n      pop\n        /* \"@openzeppelin/contracts/utils/Address.sol\":4980:5055  (bool success, bytes memory returndata) = target.call{ value: value }(data) */\n      swap2\n      pop\n      swap2\n      pop\n        /* \"@openzeppelin/contracts/utils/Address.sol\":5072:5124  _verifyCallResult(success, returndata, errorMessage) */\n      tag_249\n        /* \"@openzeppelin/contracts/utils/Address.sol\":5090:5097  success */\n      dup3\n        /* \"@openzeppelin/contracts/utils/Address.sol\":5099:5109  returndata */\n      dup3\n        /* \"@openzeppelin/contracts/utils/Address.sol\":5111:5123  errorMessage */\n      dup7\n        /* \"@openzeppelin/contracts/utils/Address.sol\":5072:5089  _verifyCallResult */\n      tag_250\n        /* \"@openzeppelin/contracts/utils/Address.sol\":5072:5124  _verifyCallResult(success, returndata, errorMessage) */\n      jump\t// in\n    tag_249:\n        /* \"@openzeppelin/contracts/utils/Address.sol\":5065:5124  return _verifyCallResult(success, returndata, errorMessage) */\n      swap8\n        /* \"@openzeppelin/contracts/utils/Address.sol\":4608:5131  function functionCallWithValue(address target, bytes memory data, uint256 value, string memory errorMessage) internal returns (bytes memory) {... */\n      swap7\n      pop\n      pop\n      pop\n      pop\n      pop\n      pop\n      pop\n      jump\t// out\n        /* \"@openzeppelin/contracts/utils/Address.sol\":726:1139  function isContract(address account) internal view returns (bool) {... */\n    tag_241:\n        /* \"@openzeppelin/contracts/utils/Address.sol\":1086:1106  extcodesize(account) */\n      extcodesize\n        /* \"@openzeppelin/contracts/utils/Address.sol\":1124:1132  size > 0 */\n      iszero\n      iszero\n      swap1\n        /* \"@openzeppelin/contracts/utils/Address.sol\":726:1139  function isContract(address account) internal view returns (bool) {... */\n      jump\t// out\n        /* \"@openzeppelin/contracts/utils/Address.sol\":7091:7816  function _verifyCallResult(bool success, bytes memory returndata, string memory errorMessage) private pure returns(bytes memory) {... */\n    tag_250:\n        /* \"@openzeppelin/contracts/utils/Address.sol\":7206:7218  bytes memory */\n      0x60\n        /* \"@openzeppelin/contracts/utils/Address.sol\":7234:7241  success */\n      dup4\n        /* \"@openzeppelin/contracts/utils/Address.sol\":7230:7810  if (success) {... */\n      iszero\n      tag_253\n      jumpi\n      pop\n        /* \"@openzeppelin/contracts/utils/Address.sol\":7264:7274  returndata */\n      dup2\n        /* \"@openzeppelin/contracts/utils/Address.sol\":7257:7274  return returndata */\n      jump(tag_235)\n        /* \"@openzeppelin/contracts/utils/Address.sol\":7230:7810  if (success) {... */\n    tag_253:\n        /* \"@openzeppelin/contracts/utils/Address.sol\":7375:7392  returndata.length */\n      dup3\n      mload\n        /* \"@openzeppelin/contracts/utils/Address.sol\":7375:7396  returndata.length > 0 */\n      iszero\n        /* \"@openzeppelin/contracts/utils/Address.sol\":7371:7800  if (returndata.length > 0) {... */\n      tag_255\n      jumpi\n        /* \"@openzeppelin/contracts/utils/Address.sol\":7633:7643  returndata */\n      dup3\n        /* \"@openzeppelin/contracts/utils/Address.sol\":7627:7644  mload(returndata) */\n      mload\n        /* \"@openzeppelin/contracts/utils/Address.sol\":7693:7708  returndata_size */\n      dup1\n        /* \"@openzeppelin/contracts/utils/Address.sol\":7680:7690  returndata */\n      dup5\n        /* \"@openzeppelin/contracts/utils/Address.sol\":7676:7678  32 */\n      0x20\n        /* \"@openzeppelin/contracts/utils/Address.sol\":7672:7691  add(32, returndata) */\n      add\n        /* \"@openzeppelin/contracts/utils/Address.sol\":7665:7709  revert(add(32, returndata), returndata_size) */\n      revert\n        /* \"@openzeppelin/contracts/utils/Address.sol\":7582:7727  {... */\n    tag_255:\n        /* \"@openzeppelin/contracts/utils/Address.sol\":7772:7784  errorMessage */\n      dup2\n        /* \"@openzeppelin/contracts/utils/Address.sol\":7765:7785  revert(errorMessage) */\n      mload(0x40)\n      shl(0xe5, 0x461bcd)\n      dup2\n      mstore\n      0x04\n      add\n      dup1\n      dup1\n      0x20\n      add\n      dup3\n      dup2\n      sub\n      dup3\n      mstore\n      dup4\n      dup2\n      dup2\n      mload\n      dup2\n      mstore\n      0x20\n      add\n      swap2\n      pop\n      dup1\n      mload\n      swap1\n      0x20\n      add\n      swap1\n      dup1\n      dup4\n      dup4\n      0x00\n    tag_257:\n      dup4\n      dup2\n      lt\n      iszero\n      tag_259\n      jumpi\n      dup2\n      dup2\n      add\n      mload\n      dup4\n      dup3\n      add\n      mstore\n      0x20\n      add\n      jump(tag_257)\n    tag_259:\n      pop\n      pop\n      pop\n      pop\n      swap1\n      pop\n      swap1\n      dup2\n      add\n      swap1\n      0x1f\n      and\n      dup1\n      iszero\n      tag_260\n      jumpi\n      dup1\n      dup3\n      sub\n      dup1\n      mload\n      0x01\n      dup4\n      0x20\n      sub\n      0x0100\n      exp\n      sub\n      not\n      and\n      dup2\n      mstore\n      0x20\n      add\n      swap2\n      pop\n    tag_260:\n      pop\n      swap3\n      pop\n      pop\n      pop\n      mload(0x40)\n      dup1\n      swap2\n      sub\n      swap1\n      revert\n    stop\n    data_245f15ff17f551913a7a18385165551503906a406f905ac1c2437281a7cd0cfe 4f776e61626c653a206e6577206f776e657220697320746865207a65726f2061646472657373\n    data_565f1a77334fc4792800921178c71e4521acffab18ff9e7885b49377ee80ab4c 416464726573733a20696e73756666696369656e742062616c616e636520666f722063616c6c\n    data_9113bb53c2876a3805b2c9242029423fc540a728243ce887ab24c82cf119fba3 536166654d6174683a206d756c7469706c69636174696f6e206f766572666c6f77\n    data_e11ad79d1e4a7f2e5f376964cb99e8e8f7904e3fc16a109f7a7ecb9aa7956dcd 5361666545524332303a204552433230206f7065726174696f6e20646964206e6f742073756363656564\n\n    auxdata: 0xa26469706673582212205540fdb56380e7af3da900a82ed347054cda717c121079c2347b9e988ddc5aa264736f6c634300060c0033\n}\n",
				"bytecode": {
					"linkReferences": {},
					"object": "608060405234801561001057600080fd5b50604051611c25380380611c258339818101604052608081101561003357600080fd5b508051602082015160408301516060909301519192909160006100546100f1565b600080546001600160a01b0319166001600160a01b0383169081178255604051929350917f8be0079c531659141344cd1fd0a4f28419497f9722a3daafe3b4186f6b6457e0908290a350600280546001600160a01b039586166001600160a01b03199182161790915560038054948616948216949094179093556004805492851692841692909217909155600580549190931691161790556100f5565b3390565b611b21806101046000396000f3fe608060405234801561001057600080fd5b50600436106101005760003560e01c8063ae45850b11610097578063d723615911610066578063d7236159146102c8578063f2fde38b146102f6578063f8a8fd6d1461031c578063fca11cb81461033d57610100565b8063ae45850b14610296578063bb57ad201461029e578063c0d46b91146102a6578063cc6be5e4146102c057610100565b8063717815de116100d3578063717815de146101785780637a2829d21461019c5780638da5cb5b146102605780639cf38f7c1461026857610100565b8063208995cf1461010557806343abd319146101245780634460d3cf1461014a578063715018a614610170575b600080fd5b6101226004803603602081101561011b57600080fd5b5035610345565b005b6101226004803603602081101561013a57600080fd5b50356001600160a01b03166103f7565b6101226004803603602081101561016057600080fd5b50356001600160a01b03166104d5565b610122610625565b6101806106f0565b604080516001600160a01b039092168252519081900360200190f35b610122600480360360808110156101b257600080fd5b6001600160a01b03823581169260208101358216926040820135909216918101906080810160608201356401000000008111156101ee57600080fd5b82018360208201111561020057600080fd5b8035906020019184602083028401116401000000008311171561022257600080fd5b9190808060200260200160405190810160405280939291908181526020018383602002808284376000920191909152509295506106ff945050505050565b61018061080b565b6101226004803603604081101561027e57600080fd5b506001600160a01b038135811691602001351661081a565b610180610923565b610122610932565b6102ae610b0d565b60408051918252519081900360200190f35b610180610b13565b610122600480360360408110156102de57600080fd5b506001600160a01b0381358116916020013516610b22565b6101226004803603602081101561030c57600080fd5b50356001600160a01b0316610c15565b610324610d36565b6040805192835260208301919091528051918290030190f35b610180610d7a565b61034d610d89565b6001600160a01b031661035e61080b565b6001600160a01b0316146103b9576040805162461bcd60e51b815260206004820181905260248201527f4f776e61626c653a2063616c6c6572206973206e6f7420746865206f776e6572604482015290519081900360640190fd5b600181905560408051828152905133917f4707e55f0a09c2af9ce22cf5f17b652615a810a1ea25f650cb18276dee658d6e919081900360200190a250565b6004546001600160a01b0316331480610428575061041361080b565b6001600160a01b0316336001600160a01b0316145b610471576040805162461bcd60e51b815260206004820152601560248201527437b7363ca0b236b4b7399d102327a92124a22222a760591b604482015290519081900360640190fd5b600480546001600160a01b03831673ffffffffffffffffffffffffffffffffffffffff199091168117909155604080519182525133917f3286106f3d6ecbfd95574eec1ebdfd0640a1d7bfea3ac1ef867907e32830ec3f919081900360200190a250565b6104dd610d89565b6001600160a01b03166104ee61080b565b6001600160a01b031614610549576040805162461bcd60e51b815260206004820181905260248201527f4f776e61626c653a2063616c6c6572206973206e6f7420746865206f776e6572604482015290519081900360640190fd5b6000816001600160a01b03166370a08231306040518263ffffffff1660e01b815260040180826001600160a01b0316815260200191505060206040518083038186803b15801561059857600080fd5b505afa1580156105ac573d6000803e3d6000fd5b505050506040513d60208110156105c257600080fd5b50516003549091506105e1906001600160a01b03848116911683610d8d565b6040805182815290516001600160a01b0384169133917f0de377c3f3362540c047602ad996510f81ec5d84f9ad151c7b6ebecce8ea6b7b9181900360200190a35050565b61062d610d89565b6001600160a01b031661063e61080b565b6001600160a01b031614610699576040805162461bcd60e51b815260206004820181905260248201527f4f776e61626c653a2063616c6c6572206973206e6f7420746865206f776e6572604482015290519081900360640190fd5b600080546040516001600160a01b03909116907f8be0079c531659141344cd1fd0a4f28419497f9722a3daafe3b4186f6b6457e0908390a36000805473ffffffffffffffffffffffffffffffffffffffff19169055565b6005546001600160a01b031681565b6004546001600160a01b0316331480610730575061071b61080b565b6001600160a01b0316336001600160a01b0316145b610779576040805162461bcd60e51b815260206004820152601560248201527437b7363ca0b236b4b7399d102327a92124a22222a760591b604482015290519081900360640190fd5b6000836001600160a01b03166370a08231306040518263ffffffff1660e01b815260040180826001600160a01b0316815260200191505060206040518083038186803b1580156107c857600080fd5b505afa1580156107dc573d6000803e3d6000fd5b505050506040513d60208110156107f257600080fd5b505190506108038582868686610e0d565b505050505050565b6000546001600160a01b031690565b6004546001600160a01b031633148061084b575061083661080b565b6001600160a01b0316336001600160a01b0316145b610894576040805162461bcd60e51b815260206004820152601560248201527437b7363ca0b236b4b7399d102327a92124a22222a760591b604482015290519081900360640190fd5b6000816001600160a01b03166370a08231306040518263ffffffff1660e01b815260040180826001600160a01b0316815260200191505060206040518083038186803b1580156108e357600080fd5b505afa1580156108f7573d6000803e3d6000fd5b505050506040513d602081101561090d57600080fd5b5051905061091c838383611241565b5050505050565b6004546001600160a01b031681565b6004546001600160a01b0316331480610963575061094e61080b565b6001600160a01b0316336001600160a01b0316145b6109ac576040805162461bcd60e51b815260206004820152601560248201527437b7363ca0b236b4b7399d102327a92124a22222a760591b604482015290519081900360640190fd5b600554604080516370a0823160e01b815230600482015290516000926001600160a01b0316916370a08231916024808301926020929190829003018186803b1580156109f757600080fd5b505afa158015610a0b573d6000803e3d6000fd5b505050506040513d6020811015610a2157600080fd5b5051600154909150600090610a459061271090610a3f90859061142a565b9061148c565b90506000610a5383836114f3565b600254600554919250610a73916001600160a01b03908116911683611550565b600254604080517f84ed8c560000000000000000000000000000000000000000000000000000000081526004810184905290516001600160a01b03909216916384ed8c569160248082019260009290919082900301818387803b158015610ad957600080fd5b505af1158015610aed573d6000803e3d6000fd5b5050600354610b0892506001600160a01b031690508361166f565b505050565b60015481565b6003546001600160a01b031681565b610b2a610d89565b6001600160a01b0316610b3b61080b565b6001600160a01b031614610b96576040805162461bcd60e51b815260206004820181905260248201527f4f776e61626c653a2063616c6c6572206973206e6f7420746865206f776e6572604482015290519081900360640190fd5b600280546001600160a01b0380851673ffffffffffffffffffffffffffffffffffffffff199283161792839055600380548583169316929092179182905560408051938216845291166020830152805133927fe21787ff2af43740120359435dbc79c3d7431032c8974862cbc5c8dbaa207fe692908290030190a25050565b610c1d610d89565b6001600160a01b0316610c2e61080b565b6001600160a01b031614610c89576040805162461bcd60e51b815260206004820181905260248201527f4f776e61626c653a2063616c6c6572206973206e6f7420746865206f776e6572604482015290519081900360640190fd5b6001600160a01b038116610cce5760405162461bcd60e51b8152600401808060200182810382526026815260200180611a556026913960400191505060405180910390fd5b600080546040516001600160a01b03808516939216917f8be0079c531659141344cd1fd0a4f28419497f9722a3daafe3b4186f6b6457e091a36000805473ffffffffffffffffffffffffffffffffffffffff19166001600160a01b0392909216919091179055565b6000806000670de0b6b3a764000090506000610d63612710610a3f6001548561142a90919063ffffffff16565b90506000610d7183836114f3565b90505050509091565b6002546001600160a01b031681565b3390565b604080516001600160a01b038416602482015260448082018490528251808303909101815260649091019091526020810180517bffffffffffffffffffffffffffffffffffffffffffffffffffffffff167fa9059cbb00000000000000000000000000000000000000000000000000000000179052610b08908490611723565b6000826001600160a01b0316846001600160a01b03161415610e30575083611238565b6000825111610e86576040805162461bcd60e51b815260206004820152601860248201527f73776170546f6b656e733a20494e56414c494420504154480000000000000000604482015290519081900360640190fd5b836001600160a01b031682600081518110610e9d57fe5b60200260200101516001600160a01b031614610f00576040805162461bcd60e51b815260206004820152601860248201527f73776170546f6b656e733a20494e56414c494420504154480000000000000000604482015290519081900360640190fd5b826001600160a01b031682600184510381518110610f1a57fe5b60200260200101516001600160a01b031614610f7d576040805162461bcd60e51b815260206004820152601860248201527f73776170546f6b656e733a20494e56414c494420504154480000000000000000604482015290519081900360640190fd5b6000846001600160a01b03166370a08231306040518263ffffffff1660e01b815260040180826001600160a01b0316815260200191505060206040518083038186803b158015610fcc57600080fd5b505afa158015610fe0573d6000803e3d6000fd5b505050506040513d6020811015610ff657600080fd5b505190508581101561104f576040805162461bcd60e51b815260206004820152601f60248201527f73776170546f6b656e733a20494e53554646494349454e5420414d4f554e5400604482015290519081900360640190fd5b6000846001600160a01b03166370a08231306040518263ffffffff1660e01b815260040180826001600160a01b0316815260200191505060206040518083038186803b15801561109e57600080fd5b505afa1580156110b2573d6000803e3d6000fd5b505050506040513d60208110156110c857600080fd5b505190506110e06001600160a01b0387168989611550565b876001600160a01b0316635c11d79588600087306110fc6117d4565b6040518663ffffffff1660e01b81526004018086815260200185815260200180602001846001600160a01b03168152602001838152602001828103825285818151815260200191508051906020019060200280838360005b8381101561116c578181015183820152602001611154565b505050509050019650505050505050600060405180830381600087803b15801561119557600080fd5b505af11580156111a9573d6000803e3d6000fd5b50505050600061123282876001600160a01b03166370a08231306040518263ffffffff1660e01b815260040180826001600160a01b0316815260200191505060206040518083038186803b15801561120057600080fd5b505afa158015611214573d6000803e3d6000fd5b505050506040513d602081101561122a57600080fd5b5051906114f3565b93505050505b95945050505050565b6000806000846001600160a01b0316630dfe16816040518163ffffffff1660e01b815260040160206040518083038186803b15801561127f57600080fd5b505afa158015611293573d6000803e3d6000fd5b505050506040513d60208110156112a957600080fd5b5051604080517fd21220a700000000000000000000000000000000000000000000000000000000815290519192506000916001600160a01b0388169163d21220a7916004808301926020929190829003018186803b15801561130a57600080fd5b505afa15801561131e573d6000803e3d6000fd5b505050506040513d602081101561133457600080fd5b5051905061134c6001600160a01b0387168887611550565b600080886001600160a01b031663baa2abde85858a6000803061136d6117d4565b6040518863ffffffff1660e01b815260040180886001600160a01b03168152602001876001600160a01b03168152602001868152602001858152602001848152602001836001600160a01b031681526020018281526020019750505050505050506040805180830381600087803b1580156113e757600080fd5b505af11580156113fb573d6000803e3d6000fd5b505050506040513d604081101561141157600080fd5b508051602090910151909a909950975050505050505050565b60008261143957506000611486565b8282028284828161144657fe5b04146114835760405162461bcd60e51b8152600401808060200182810382526021815260200180611aa16021913960400191505060405180910390fd5b90505b92915050565b60008082116114e2576040805162461bcd60e51b815260206004820152601a60248201527f536166654d6174683a206469766973696f6e206279207a65726f000000000000604482015290519081900360640190fd5b8183816114eb57fe5b049392505050565b60008282111561154a576040805162461bcd60e51b815260206004820152601e60248201527f536166654d6174683a207375627472616374696f6e206f766572666c6f770000604482015290519081900360640190fd5b50900390565b60006115e682856001600160a01b031663dd62ed3e30876040518363ffffffff1660e01b815260040180836001600160a01b03168152602001826001600160a01b031681526020019250505060206040518083038186803b1580156115b457600080fd5b505afa1580156115c8573d6000803e3d6000fd5b505050506040513d60208110156115de57600080fd5b5051906117db565b604080516001600160a01b038616602482015260448082018490528251808303909101815260649091019091526020810180517bffffffffffffffffffffffffffffffffffffffffffffffffffffffff167f095ea7b300000000000000000000000000000000000000000000000000000000179052909150611669908590611723565b50505050565b600554604080516370a0823160e01b815230600482015290516000926001600160a01b0316916370a08231916024808301926020929190829003018186803b1580156116ba57600080fd5b505afa1580156116ce573d6000803e3d6000fd5b505050506040513d60208110156116e457600080fd5b505190508082111561170c57600554611707906001600160a01b03168483610d8d565b610b08565b600554610b08906001600160a01b03168484610d8d565b6060611778826040518060400160405280602081526020017f5361666545524332303a206c6f772d6c6576656c2063616c6c206661696c6564815250856001600160a01b03166118359092919063ffffffff16565b805190915015610b085780806020019051602081101561179757600080fd5b5051610b085760405162461bcd60e51b815260040180806020018281038252602a815260200180611ac2602a913960400191505060405180910390fd5b603c420190565b600082820183811015611483576040805162461bcd60e51b815260206004820152601b60248201527f536166654d6174683a206164646974696f6e206f766572666c6f770000000000604482015290519081900360640190fd5b6060611844848460008561184e565b90505b9392505050565b60608247101561188f5760405162461bcd60e51b8152600401808060200182810382526026815260200180611a7b6026913960400191505060405180910390fd5b611898856119aa565b6118e9576040805162461bcd60e51b815260206004820152601d60248201527f416464726573733a2063616c6c20746f206e6f6e2d636f6e7472616374000000604482015290519081900360640190fd5b60006060866001600160a01b031685876040518082805190602001908083835b602083106119285780518252601f199092019160209182019101611909565b6001836020036101000a03801982511681845116808217855250505050505090500191505060006040518083038185875af1925050503d806000811461198a576040519150601f19603f3d011682016040523d82523d6000602084013e61198f565b606091505b509150915061199f8282866119b0565b979650505050505050565b3b151590565b606083156119bf575081611847565b8251156119cf5782518084602001fd5b8160405162461bcd60e51b81526004018080602001828103825283818151815260200191508051906020019080838360005b83811015611a19578181015183820152602001611a01565b50505050905090810190601f168015611a465780820380516001836020036101000a031916815260200191505b509250505060405180910390fdfe4f776e61626c653a206e6577206f776e657220697320746865207a65726f2061646472657373416464726573733a20696e73756666696369656e742062616c616e636520666f722063616c6c536166654d6174683a206d756c7469706c69636174696f6e206f766572666c6f775361666545524332303a204552433230206f7065726174696f6e20646964206e6f742073756363656564a26469706673582212205540fdb56380e7af3da900a82ed347054cda717c121079c2347b9e988ddc5aa264736f6c634300060c0033",
					"opcodes": "PUSH1 0x80 PUSH1 0x40 MSTORE CALLVALUE DUP1 ISZERO PUSH2 0x10 JUMPI PUSH1 0x0 DUP1 REVERT JUMPDEST POP PUSH1 0x40 MLOAD PUSH2 0x1C25 CODESIZE SUB DUP1 PUSH2 0x1C25 DUP4 CODECOPY DUP2 DUP2 ADD PUSH1 0x40 MSTORE PUSH1 0x80 DUP2 LT ISZERO PUSH2 0x33 JUMPI PUSH1 0x0 DUP1 REVERT JUMPDEST POP DUP1 MLOAD PUSH1 0x20 DUP3 ADD MLOAD PUSH1 0x40 DUP4 ADD MLOAD PUSH1 0x60 SWAP1 SWAP4 ADD MLOAD SWAP2 SWAP3 SWAP1 SWAP2 PUSH1 0x0 PUSH2 0x54 PUSH2 0xF1 JUMP JUMPDEST PUSH1 0x0 DUP1 SLOAD PUSH1 0x1 PUSH1 0x1 PUSH1 0xA0 SHL SUB NOT AND PUSH1 0x1 PUSH1 0x1 PUSH1 0xA0 SHL SUB DUP4 AND SWAP1 DUP2 OR DUP3 SSTORE PUSH1 0x40 MLOAD SWAP3 SWAP4 POP SWAP2 PUSH32 0x8BE0079C531659141344CD1FD0A4F28419497F9722A3DAAFE3B4186F6B6457E0 SWAP1 DUP3 SWAP1 LOG3 POP PUSH1 0x2 DUP1 SLOAD PUSH1 0x1 PUSH1 0x1 PUSH1 0xA0 SHL SUB SWAP6 DUP7 AND PUSH1 0x1 PUSH1 0x1 PUSH1 0xA0 SHL SUB NOT SWAP2 DUP3 AND OR SWAP1 SWAP2 SSTORE PUSH1 0x3 DUP1 SLOAD SWAP5 DUP7 AND SWAP5 DUP3 AND SWAP5 SWAP1 SWAP5 OR SWAP1 SWAP4 SSTORE PUSH1 0x4 DUP1 SLOAD SWAP3 DUP6 AND SWAP3 DUP5 AND SWAP3 SWAP1 SWAP3 OR SWAP1 SWAP2 SSTORE PUSH1 0x5 DUP1 SLOAD SWAP2 SWAP1 SWAP4 AND SWAP2 AND OR SWAP1 SSTORE PUSH2 0xF5 JUMP JUMPDEST CALLER SWAP1 JUMP JUMPDEST PUSH2 0x1B21 DUP1 PUSH2 0x104 PUSH1 0x0 CODECOPY PUSH1 0x0 RETURN INVALID PUSH1 0x80 PUSH1 0x40 MSTORE CALLVALUE DUP1 ISZERO PUSH2 0x10 JUMPI PUSH1 0x0 DUP1 REVERT JUMPDEST POP PUSH1 0x4 CALLDATASIZE LT PUSH2 0x100 JUMPI PUSH1 0x0 CALLDATALOAD PUSH1 0xE0 SHR DUP1 PUSH4 0xAE45850B GT PUSH2 0x97 JUMPI DUP1 PUSH4 0xD7236159 GT PUSH2 0x66 JUMPI DUP1 PUSH4 0xD7236159 EQ PUSH2 0x2C8 JUMPI DUP1 PUSH4 0xF2FDE38B EQ PUSH2 0x2F6 JUMPI DUP1 PUSH4 0xF8A8FD6D EQ PUSH2 0x31C JUMPI DUP1 PUSH4 0xFCA11CB8 EQ PUSH2 0x33D JUMPI PUSH2 0x100 JUMP JUMPDEST DUP1 PUSH4 0xAE45850B EQ PUSH2 0x296 JUMPI DUP1 PUSH4 0xBB57AD20 EQ PUSH2 0x29E JUMPI DUP1 PUSH4 0xC0D46B91 EQ PUSH2 0x2A6 JUMPI DUP1 PUSH4 0xCC6BE5E4 EQ PUSH2 0x2C0 JUMPI PUSH2 0x100 JUMP JUMPDEST DUP1 PUSH4 0x717815DE GT PUSH2 0xD3 JUMPI DUP1 PUSH4 0x717815DE EQ PUSH2 0x178 JUMPI DUP1 PUSH4 0x7A2829D2 EQ PUSH2 0x19C JUMPI DUP1 PUSH4 0x8DA5CB5B EQ PUSH2 0x260 JUMPI DUP1 PUSH4 0x9CF38F7C EQ PUSH2 0x268 JUMPI PUSH2 0x100 JUMP JUMPDEST DUP1 PUSH4 0x208995CF EQ PUSH2 0x105 JUMPI DUP1 PUSH4 0x43ABD319 EQ PUSH2 0x124 JUMPI DUP1 PUSH4 0x4460D3CF EQ PUSH2 0x14A JUMPI DUP1 PUSH4 0x715018A6 EQ PUSH2 0x170 JUMPI JUMPDEST PUSH1 0x0 DUP1 REVERT JUMPDEST PUSH2 0x122 PUSH1 0x4 DUP1 CALLDATASIZE SUB PUSH1 0x20 DUP2 LT ISZERO PUSH2 0x11B JUMPI PUSH1 0x0 DUP1 REVERT JUMPDEST POP CALLDATALOAD PUSH2 0x345 JUMP JUMPDEST STOP JUMPDEST PUSH2 0x122 PUSH1 0x4 DUP1 CALLDATASIZE SUB PUSH1 0x20 DUP2 LT ISZERO PUSH2 0x13A JUMPI PUSH1 0x0 DUP1 REVERT JUMPDEST POP CALLDATALOAD PUSH1 0x1 PUSH1 0x1 PUSH1 0xA0 SHL SUB AND PUSH2 0x3F7 JUMP JUMPDEST PUSH2 0x122 PUSH1 0x4 DUP1 CALLDATASIZE SUB PUSH1 0x20 DUP2 LT ISZERO PUSH2 0x160 JUMPI PUSH1 0x0 DUP1 REVERT JUMPDEST POP CALLDATALOAD PUSH1 0x1 PUSH1 0x1 PUSH1 0xA0 SHL SUB AND PUSH2 0x4D5 JUMP JUMPDEST PUSH2 0x122 PUSH2 0x625 JUMP JUMPDEST PUSH2 0x180 PUSH2 0x6F0 JUMP JUMPDEST PUSH1 0x40 DUP1 MLOAD PUSH1 0x1 PUSH1 0x1 PUSH1 0xA0 SHL SUB SWAP1 SWAP3 AND DUP3 MSTORE MLOAD SWAP1 DUP2 SWAP1 SUB PUSH1 0x20 ADD SWAP1 RETURN JUMPDEST PUSH2 0x122 PUSH1 0x4 DUP1 CALLDATASIZE SUB PUSH1 0x80 DUP2 LT ISZERO PUSH2 0x1B2 JUMPI PUSH1 0x0 DUP1 REVERT JUMPDEST PUSH1 0x1 PUSH1 0x1 PUSH1 0xA0 SHL SUB DUP3 CALLDATALOAD DUP2 AND SWAP3 PUSH1 0x20 DUP2 ADD CALLDATALOAD DUP3 AND SWAP3 PUSH1 0x40 DUP3 ADD CALLDATALOAD SWAP1 SWAP3 AND SWAP2 DUP2 ADD SWAP1 PUSH1 0x80 DUP2 ADD PUSH1 0x60 DUP3 ADD CALLDATALOAD PUSH5 0x100000000 DUP2 GT ISZERO PUSH2 0x1EE JUMPI PUSH1 0x0 DUP1 REVERT JUMPDEST DUP3 ADD DUP4 PUSH1 0x20 DUP3 ADD GT ISZERO PUSH2 0x200 JUMPI PUSH1 0x0 DUP1 REVERT JUMPDEST DUP1 CALLDATALOAD SWAP1 PUSH1 0x20 ADD SWAP2 DUP5 PUSH1 0x20 DUP4 MUL DUP5 ADD GT PUSH5 0x100000000 DUP4 GT OR ISZERO PUSH2 0x222 JUMPI PUSH1 0x0 DUP1 REVERT JUMPDEST SWAP2 SWAP1 DUP1 DUP1 PUSH1 0x20 MUL PUSH1 0x20 ADD PUSH1 0x40 MLOAD SWAP1 DUP2 ADD PUSH1 0x40 MSTORE DUP1 SWAP4 SWAP3 SWAP2 SWAP1 DUP2 DUP2 MSTORE PUSH1 0x20 ADD DUP4 DUP4 PUSH1 0x20 MUL DUP1 DUP3 DUP5 CALLDATACOPY PUSH1 0x0 SWAP3 ADD SWAP2 SWAP1 SWAP2 MSTORE POP SWAP3 SWAP6 POP PUSH2 0x6FF SWAP5 POP POP POP POP POP JUMP JUMPDEST PUSH2 0x180 PUSH2 0x80B JUMP JUMPDEST PUSH2 0x122 PUSH1 0x4 DUP1 CALLDATASIZE SUB PUSH1 0x40 DUP2 LT ISZERO PUSH2 0x27E JUMPI PUSH1 0x0 DUP1 REVERT JUMPDEST POP PUSH1 0x1 PUSH1 0x1 PUSH1 0xA0 SHL SUB DUP2 CALLDATALOAD DUP2 AND SWAP2 PUSH1 0x20 ADD CALLDATALOAD AND PUSH2 0x81A JUMP JUMPDEST PUSH2 0x180 PUSH2 0x923 JUMP JUMPDEST PUSH2 0x122 PUSH2 0x932 JUMP JUMPDEST PUSH2 0x2AE PUSH2 0xB0D JUMP JUMPDEST PUSH1 0x40 DUP1 MLOAD SWAP2 DUP3 MSTORE MLOAD SWAP1 DUP2 SWAP1 SUB PUSH1 0x20 ADD SWAP1 RETURN JUMPDEST PUSH2 0x180 PUSH2 0xB13 JUMP JUMPDEST PUSH2 0x122 PUSH1 0x4 DUP1 CALLDATASIZE SUB PUSH1 0x40 DUP2 LT ISZERO PUSH2 0x2DE JUMPI PUSH1 0x0 DUP1 REVERT JUMPDEST POP PUSH1 0x1 PUSH1 0x1 PUSH1 0xA0 SHL SUB DUP2 CALLDATALOAD DUP2 AND SWAP2 PUSH1 0x20 ADD CALLDATALOAD AND PUSH2 0xB22 JUMP JUMPDEST PUSH2 0x122 PUSH1 0x4 DUP1 CALLDATASIZE SUB PUSH1 0x20 DUP2 LT ISZERO PUSH2 0x30C JUMPI PUSH1 0x0 DUP1 REVERT JUMPDEST POP CALLDATALOAD PUSH1 0x1 PUSH1 0x1 PUSH1 0xA0 SHL SUB AND PUSH2 0xC15 JUMP JUMPDEST PUSH2 0x324 PUSH2 0xD36 JUMP JUMPDEST PUSH1 0x40 DUP1 MLOAD SWAP3 DUP4 MSTORE PUSH1 0x20 DUP4 ADD SWAP2 SWAP1 SWAP2 MSTORE DUP1 MLOAD SWAP2 DUP3 SWAP1 SUB ADD SWAP1 RETURN JUMPDEST PUSH2 0x180 PUSH2 0xD7A JUMP JUMPDEST PUSH2 0x34D PUSH2 0xD89 JUMP JUMPDEST PUSH1 0x1 PUSH1 0x1 PUSH1 0xA0 SHL SUB AND PUSH2 0x35E PUSH2 0x80B JUMP JUMPDEST PUSH1 0x1 PUSH1 0x1 PUSH1 0xA0 SHL SUB AND EQ PUSH2 0x3B9 JUMPI PUSH1 0x40 DUP1 MLOAD PUSH3 0x461BCD PUSH1 0xE5 SHL DUP2 MSTORE PUSH1 0x20 PUSH1 0x4 DUP3 ADD DUP2 SWAP1 MSTORE PUSH1 0x24 DUP3 ADD MSTORE PUSH32 0x4F776E61626C653A2063616C6C6572206973206E6F7420746865206F776E6572 PUSH1 0x44 DUP3 ADD MSTORE SWAP1 MLOAD SWAP1 DUP2 SWAP1 SUB PUSH1 0x64 ADD SWAP1 REVERT JUMPDEST PUSH1 0x1 DUP2 SWAP1 SSTORE PUSH1 0x40 DUP1 MLOAD DUP3 DUP2 MSTORE SWAP1 MLOAD CALLER SWAP2 PUSH32 0x4707E55F0A09C2AF9CE22CF5F17B652615A810A1EA25F650CB18276DEE658D6E SWAP2 SWAP1 DUP2 SWAP1 SUB PUSH1 0x20 ADD SWAP1 LOG2 POP JUMP JUMPDEST PUSH1 0x4 SLOAD PUSH1 0x1 PUSH1 0x1 PUSH1 0xA0 SHL SUB AND CALLER EQ DUP1 PUSH2 0x428 JUMPI POP PUSH2 0x413 PUSH2 0x80B JUMP JUMPDEST PUSH1 0x1 PUSH1 0x1 PUSH1 0xA0 SHL SUB AND CALLER PUSH1 0x1 PUSH1 0x1 PUSH1 0xA0 SHL SUB AND EQ JUMPDEST PUSH2 0x471 JUMPI PUSH1 0x40 DUP1 MLOAD PUSH3 0x461BCD PUSH1 0xE5 SHL DUP2 MSTORE PUSH1 0x20 PUSH1 0x4 DUP3 ADD MSTORE PUSH1 0x15 PUSH1 0x24 DUP3 ADD MSTORE PUSH21 0x37B7363CA0B236B4B7399D102327A92124A22222A7 PUSH1 0x59 SHL PUSH1 0x44 DUP3 ADD MSTORE SWAP1 MLOAD SWAP1 DUP2 SWAP1 SUB PUSH1 0x64 ADD SWAP1 REVERT JUMPDEST PUSH1 0x4 DUP1 SLOAD PUSH1 0x1 PUSH1 0x1 PUSH1 0xA0 SHL SUB DUP4 AND PUSH20 0xFFFFFFFFFFFFFFFFFFFFFFFFFFFFFFFFFFFFFFFF NOT SWAP1 SWAP2 AND DUP2 OR SWAP1 SWAP2 SSTORE PUSH1 0x40 DUP1 MLOAD SWAP2 DUP3 MSTORE MLOAD CALLER SWAP2 PUSH32 0x3286106F3D6ECBFD95574EEC1EBDFD0640A1D7BFEA3AC1EF867907E32830EC3F SWAP2 SWAP1 DUP2 SWAP1 SUB PUSH1 0x20 ADD SWAP1 LOG2 POP JUMP JUMPDEST PUSH2 0x4DD PUSH2 0xD89 JUMP JUMPDEST PUSH1 0x1 PUSH1 0x1 PUSH1 0xA0 SHL SUB AND PUSH2 0x4EE PUSH2 0x80B JUMP JUMPDEST PUSH1 0x1 PUSH1 0x1 PUSH1 0xA0 SHL SUB AND EQ PUSH2 0x549 JUMPI PUSH1 0x40 DUP1 MLOAD PUSH3 0x461BCD PUSH1 0xE5 SHL DUP2 MSTORE PUSH1 0x20 PUSH1 0x4 DUP3 ADD DUP2 SWAP1 MSTORE PUSH1 0x24 DUP3 ADD MSTORE PUSH32 0x4F776E61626C653A2063616C6C6572206973206E6F7420746865206F776E6572 PUSH1 0x44 DUP3 ADD MSTORE SWAP1 MLOAD SWAP1 DUP2 SWAP1 SUB PUSH1 0x64 ADD SWAP1 REVERT JUMPDEST PUSH1 0x0 DUP2 PUSH1 0x1 PUSH1 0x1 PUSH1 0xA0 SHL SUB AND PUSH4 0x70A08231 ADDRESS PUSH1 0x40 MLOAD DUP3 PUSH4 0xFFFFFFFF AND PUSH1 0xE0 SHL DUP2 MSTORE PUSH1 0x4 ADD DUP1 DUP3 PUSH1 0x1 PUSH1 0x1 PUSH1 0xA0 SHL SUB AND DUP2 MSTORE PUSH1 0x20 ADD SWAP2 POP POP PUSH1 0x20 PUSH1 0x40 MLOAD DUP1 DUP4 SUB DUP2 DUP7 DUP1 EXTCODESIZE ISZERO DUP1 ISZERO PUSH2 0x598 JUMPI PUSH1 0x0 DUP1 REVERT JUMPDEST POP GAS STATICCALL ISZERO DUP1 ISZERO PUSH2 0x5AC JUMPI RETURNDATASIZE PUSH1 0x0 DUP1 RETURNDATACOPY RETURNDATASIZE PUSH1 0x0 REVERT JUMPDEST POP POP POP POP PUSH1 0x40 MLOAD RETURNDATASIZE PUSH1 0x20 DUP2 LT ISZERO PUSH2 0x5C2 JUMPI PUSH1 0x0 DUP1 REVERT JUMPDEST POP MLOAD PUSH1 0x3 SLOAD SWAP1 SWAP2 POP PUSH2 0x5E1 SWAP1 PUSH1 0x1 PUSH1 0x1 PUSH1 0xA0 SHL SUB DUP5 DUP2 AND SWAP2 AND DUP4 PUSH2 0xD8D JUMP JUMPDEST PUSH1 0x40 DUP1 MLOAD DUP3 DUP2 MSTORE SWAP1 MLOAD PUSH1 0x1 PUSH1 0x1 PUSH1 0xA0 SHL SUB DUP5 AND SWAP2 CALLER SWAP2 PUSH32 0xDE377C3F3362540C047602AD996510F81EC5D84F9AD151C7B6EBECCE8EA6B7B SWAP2 DUP2 SWAP1 SUB PUSH1 0x20 ADD SWAP1 LOG3 POP POP JUMP JUMPDEST PUSH2 0x62D PUSH2 0xD89 JUMP JUMPDEST PUSH1 0x1 PUSH1 0x1 PUSH1 0xA0 SHL SUB AND PUSH2 0x63E PUSH2 0x80B JUMP JUMPDEST PUSH1 0x1 PUSH1 0x1 PUSH1 0xA0 SHL SUB AND EQ PUSH2 0x699 JUMPI PUSH1 0x40 DUP1 MLOAD PUSH3 0x461BCD PUSH1 0xE5 SHL DUP2 MSTORE PUSH1 0x20 PUSH1 0x4 DUP3 ADD DUP2 SWAP1 MSTORE PUSH1 0x24 DUP3 ADD MSTORE PUSH32 0x4F776E61626C653A2063616C6C6572206973206E6F7420746865206F776E6572 PUSH1 0x44 DUP3 ADD MSTORE SWAP1 MLOAD SWAP1 DUP2 SWAP1 SUB PUSH1 0x64 ADD SWAP1 REVERT JUMPDEST PUSH1 0x0 DUP1 SLOAD PUSH1 0x40 MLOAD PUSH1 0x1 PUSH1 0x1 PUSH1 0xA0 SHL SUB SWAP1 SWAP2 AND SWAP1 PUSH32 0x8BE0079C531659141344CD1FD0A4F28419497F9722A3DAAFE3B4186F6B6457E0 SWAP1 DUP4 SWAP1 LOG3 PUSH1 0x0 DUP1 SLOAD PUSH20 0xFFFFFFFFFFFFFFFFFFFFFFFFFFFFFFFFFFFFFFFF NOT AND SWAP1 SSTORE JUMP JUMPDEST PUSH1 0x5 SLOAD PUSH1 0x1 PUSH1 0x1 PUSH1 0xA0 SHL SUB AND DUP2 JUMP JUMPDEST PUSH1 0x4 SLOAD PUSH1 0x1 PUSH1 0x1 PUSH1 0xA0 SHL SUB AND CALLER EQ DUP1 PUSH2 0x730 JUMPI POP PUSH2 0x71B PUSH2 0x80B JUMP JUMPDEST PUSH1 0x1 PUSH1 0x1 PUSH1 0xA0 SHL SUB AND CALLER PUSH1 0x1 PUSH1 0x1 PUSH1 0xA0 SHL SUB AND EQ JUMPDEST PUSH2 0x779 JUMPI PUSH1 0x40 DUP1 MLOAD PUSH3 0x461BCD PUSH1 0xE5 SHL DUP2 MSTORE PUSH1 0x20 PUSH1 0x4 DUP3 ADD MSTORE PUSH1 0x15 PUSH1 0x24 DUP3 ADD MSTORE PUSH21 0x37B7363CA0B236B4B7399D102327A92124A22222A7 PUSH1 0x59 SHL PUSH1 0x44 DUP3 ADD MSTORE SWAP1 MLOAD SWAP1 DUP2 SWAP1 SUB PUSH1 0x64 ADD SWAP1 REVERT JUMPDEST PUSH1 0x0 DUP4 PUSH1 0x1 PUSH1 0x1 PUSH1 0xA0 SHL SUB AND PUSH4 0x70A08231 ADDRESS PUSH1 0x40 MLOAD DUP3 PUSH4 0xFFFFFFFF AND PUSH1 0xE0 SHL DUP2 MSTORE PUSH1 0x4 ADD DUP1 DUP3 PUSH1 0x1 PUSH1 0x1 PUSH1 0xA0 SHL SUB AND DUP2 MSTORE PUSH1 0x20 ADD SWAP2 POP POP PUSH1 0x20 PUSH1 0x40 MLOAD DUP1 DUP4 SUB DUP2 DUP7 DUP1 EXTCODESIZE ISZERO DUP1 ISZERO PUSH2 0x7C8 JUMPI PUSH1 0x0 DUP1 REVERT JUMPDEST POP GAS STATICCALL ISZERO DUP1 ISZERO PUSH2 0x7DC JUMPI RETURNDATASIZE PUSH1 0x0 DUP1 RETURNDATACOPY RETURNDATASIZE PUSH1 0x0 REVERT JUMPDEST POP POP POP POP PUSH1 0x40 MLOAD RETURNDATASIZE PUSH1 0x20 DUP2 LT ISZERO PUSH2 0x7F2 JUMPI PUSH1 0x0 DUP1 REVERT JUMPDEST POP MLOAD SWAP1 POP PUSH2 0x803 DUP6 DUP3 DUP7 DUP7 DUP7 PUSH2 0xE0D JUMP JUMPDEST POP POP POP POP POP POP JUMP JUMPDEST PUSH1 0x0 SLOAD PUSH1 0x1 PUSH1 0x1 PUSH1 0xA0 SHL SUB AND SWAP1 JUMP JUMPDEST PUSH1 0x4 SLOAD PUSH1 0x1 PUSH1 0x1 PUSH1 0xA0 SHL SUB AND CALLER EQ DUP1 PUSH2 0x84B JUMPI POP PUSH2 0x836 PUSH2 0x80B JUMP JUMPDEST PUSH1 0x1 PUSH1 0x1 PUSH1 0xA0 SHL SUB AND CALLER PUSH1 0x1 PUSH1 0x1 PUSH1 0xA0 SHL SUB AND EQ JUMPDEST PUSH2 0x894 JUMPI PUSH1 0x40 DUP1 MLOAD PUSH3 0x461BCD PUSH1 0xE5 SHL DUP2 MSTORE PUSH1 0x20 PUSH1 0x4 DUP3 ADD MSTORE PUSH1 0x15 PUSH1 0x24 DUP3 ADD MSTORE PUSH21 0x37B7363CA0B236B4B7399D102327A92124A22222A7 PUSH1 0x59 SHL PUSH1 0x44 DUP3 ADD MSTORE SWAP1 MLOAD SWAP1 DUP2 SWAP1 SUB PUSH1 0x64 ADD SWAP1 REVERT JUMPDEST PUSH1 0x0 DUP2 PUSH1 0x1 PUSH1 0x1 PUSH1 0xA0 SHL SUB AND PUSH4 0x70A08231 ADDRESS PUSH1 0x40 MLOAD DUP3 PUSH4 0xFFFFFFFF AND PUSH1 0xE0 SHL DUP2 MSTORE PUSH1 0x4 ADD DUP1 DUP3 PUSH1 0x1 PUSH1 0x1 PUSH1 0xA0 SHL SUB AND DUP2 MSTORE PUSH1 0x20 ADD SWAP2 POP POP PUSH1 0x20 PUSH1 0x40 MLOAD DUP1 DUP4 SUB DUP2 DUP7 DUP1 EXTCODESIZE ISZERO DUP1 ISZERO PUSH2 0x8E3 JUMPI PUSH1 0x0 DUP1 REVERT JUMPDEST POP GAS STATICCALL ISZERO DUP1 ISZERO PUSH2 0x8F7 JUMPI RETURNDATASIZE PUSH1 0x0 DUP1 RETURNDATACOPY RETURNDATASIZE PUSH1 0x0 REVERT JUMPDEST POP POP POP POP PUSH1 0x40 MLOAD RETURNDATASIZE PUSH1 0x20 DUP2 LT ISZERO PUSH2 0x90D JUMPI PUSH1 0x0 DUP1 REVERT JUMPDEST POP MLOAD SWAP1 POP PUSH2 0x91C DUP4 DUP4 DUP4 PUSH2 0x1241 JUMP JUMPDEST POP POP POP POP POP JUMP JUMPDEST PUSH1 0x4 SLOAD PUSH1 0x1 PUSH1 0x1 PUSH1 0xA0 SHL SUB AND DUP2 JUMP JUMPDEST PUSH1 0x4 SLOAD PUSH1 0x1 PUSH1 0x1 PUSH1 0xA0 SHL SUB AND CALLER EQ DUP1 PUSH2 0x963 JUMPI POP PUSH2 0x94E PUSH2 0x80B JUMP JUMPDEST PUSH1 0x1 PUSH1 0x1 PUSH1 0xA0 SHL SUB AND CALLER PUSH1 0x1 PUSH1 0x1 PUSH1 0xA0 SHL SUB AND EQ JUMPDEST PUSH2 0x9AC JUMPI PUSH1 0x40 DUP1 MLOAD PUSH3 0x461BCD PUSH1 0xE5 SHL DUP2 MSTORE PUSH1 0x20 PUSH1 0x4 DUP3 ADD MSTORE PUSH1 0x15 PUSH1 0x24 DUP3 ADD MSTORE PUSH21 0x37B7363CA0B236B4B7399D102327A92124A22222A7 PUSH1 0x59 SHL PUSH1 0x44 DUP3 ADD MSTORE SWAP1 MLOAD SWAP1 DUP2 SWAP1 SUB PUSH1 0x64 ADD SWAP1 REVERT JUMPDEST PUSH1 0x5 SLOAD PUSH1 0x40 DUP1 MLOAD PUSH4 0x70A08231 PUSH1 0xE0 SHL DUP2 MSTORE ADDRESS PUSH1 0x4 DUP3 ADD MSTORE SWAP1 MLOAD PUSH1 0x0 SWAP3 PUSH1 0x1 PUSH1 0x1 PUSH1 0xA0 SHL SUB AND SWAP2 PUSH4 0x70A08231 SWAP2 PUSH1 0x24 DUP1 DUP4 ADD SWAP3 PUSH1 0x20 SWAP3 SWAP2 SWAP1 DUP3 SWAP1 SUB ADD DUP2 DUP7 DUP1 EXTCODESIZE ISZERO DUP1 ISZERO PUSH2 0x9F7 JUMPI PUSH1 0x0 DUP1 REVERT JUMPDEST POP GAS STATICCALL ISZERO DUP1 ISZERO PUSH2 0xA0B JUMPI RETURNDATASIZE PUSH1 0x0 DUP1 RETURNDATACOPY RETURNDATASIZE PUSH1 0x0 REVERT JUMPDEST POP POP POP POP PUSH1 0x40 MLOAD RETURNDATASIZE PUSH1 0x20 DUP2 LT ISZERO PUSH2 0xA21 JUMPI PUSH1 0x0 DUP1 REVERT JUMPDEST POP MLOAD PUSH1 0x1 SLOAD SWAP1 SWAP2 POP PUSH1 0x0 SWAP1 PUSH2 0xA45 SWAP1 PUSH2 0x2710 SWAP1 PUSH2 0xA3F SWAP1 DUP6 SWAP1 PUSH2 0x142A JUMP JUMPDEST SWAP1 PUSH2 0x148C JUMP JUMPDEST SWAP1 POP PUSH1 0x0 PUSH2 0xA53 DUP4 DUP4 PUSH2 0x14F3 JUMP JUMPDEST PUSH1 0x2 SLOAD PUSH1 0x5 SLOAD SWAP2 SWAP3 POP PUSH2 0xA73 SWAP2 PUSH1 0x1 PUSH1 0x1 PUSH1 0xA0 SHL SUB SWAP1 DUP2 AND SWAP2 AND DUP4 PUSH2 0x1550 JUMP JUMPDEST PUSH1 0x2 SLOAD PUSH1 0x40 DUP1 MLOAD PUSH32 0x84ED8C5600000000000000000000000000000000000000000000000000000000 DUP2 MSTORE PUSH1 0x4 DUP2 ADD DUP5 SWAP1 MSTORE SWAP1 MLOAD PUSH1 0x1 PUSH1 0x1 PUSH1 0xA0 SHL SUB SWAP1 SWAP3 AND SWAP2 PUSH4 0x84ED8C56 SWAP2 PUSH1 0x24 DUP1 DUP3 ADD SWAP3 PUSH1 0x0 SWAP3 SWAP1 SWAP2 SWAP1 DUP3 SWAP1 SUB ADD DUP2 DUP4 DUP8 DUP1 EXTCODESIZE ISZERO DUP1 ISZERO PUSH2 0xAD9 JUMPI PUSH1 0x0 DUP1 REVERT JUMPDEST POP GAS CALL ISZERO DUP1 ISZERO PUSH2 0xAED JUMPI RETURNDATASIZE PUSH1 0x0 DUP1 RETURNDATACOPY RETURNDATASIZE PUSH1 0x0 REVERT JUMPDEST POP POP PUSH1 0x3 SLOAD PUSH2 0xB08 SWAP3 POP PUSH1 0x1 PUSH1 0x1 PUSH1 0xA0 SHL SUB AND SWAP1 POP DUP4 PUSH2 0x166F JUMP JUMPDEST POP POP POP JUMP JUMPDEST PUSH1 0x1 SLOAD DUP2 JUMP JUMPDEST PUSH1 0x3 SLOAD PUSH1 0x1 PUSH1 0x1 PUSH1 0xA0 SHL SUB AND DUP2 JUMP JUMPDEST PUSH2 0xB2A PUSH2 0xD89 JUMP JUMPDEST PUSH1 0x1 PUSH1 0x1 PUSH1 0xA0 SHL SUB AND PUSH2 0xB3B PUSH2 0x80B JUMP JUMPDEST PUSH1 0x1 PUSH1 0x1 PUSH1 0xA0 SHL SUB AND EQ PUSH2 0xB96 JUMPI PUSH1 0x40 DUP1 MLOAD PUSH3 0x461BCD PUSH1 0xE5 SHL DUP2 MSTORE PUSH1 0x20 PUSH1 0x4 DUP3 ADD DUP2 SWAP1 MSTORE PUSH1 0x24 DUP3 ADD MSTORE PUSH32 0x4F776E61626C653A2063616C6C6572206973206E6F7420746865206F776E6572 PUSH1 0x44 DUP3 ADD MSTORE SWAP1 MLOAD SWAP1 DUP2 SWAP1 SUB PUSH1 0x64 ADD SWAP1 REVERT JUMPDEST PUSH1 0x2 DUP1 SLOAD PUSH1 0x1 PUSH1 0x1 PUSH1 0xA0 SHL SUB DUP1 DUP6 AND PUSH20 0xFFFFFFFFFFFFFFFFFFFFFFFFFFFFFFFFFFFFFFFF NOT SWAP3 DUP4 AND OR SWAP3 DUP4 SWAP1 SSTORE PUSH1 0x3 DUP1 SLOAD DUP6 DUP4 AND SWAP4 AND SWAP3 SWAP1 SWAP3 OR SWAP2 DUP3 SWAP1 SSTORE PUSH1 0x40 DUP1 MLOAD SWAP4 DUP3 AND DUP5 MSTORE SWAP2 AND PUSH1 0x20 DUP4 ADD MSTORE DUP1 MLOAD CALLER SWAP3 PUSH32 0xE21787FF2AF43740120359435DBC79C3D7431032C8974862CBC5C8DBAA207FE6 SWAP3 SWAP1 DUP3 SWAP1 SUB ADD SWAP1 LOG2 POP POP JUMP JUMPDEST PUSH2 0xC1D PUSH2 0xD89 JUMP JUMPDEST PUSH1 0x1 PUSH1 0x1 PUSH1 0xA0 SHL SUB AND PUSH2 0xC2E PUSH2 0x80B JUMP JUMPDEST PUSH1 0x1 PUSH1 0x1 PUSH1 0xA0 SHL SUB AND EQ PUSH2 0xC89 JUMPI PUSH1 0x40 DUP1 MLOAD PUSH3 0x461BCD PUSH1 0xE5 SHL DUP2 MSTORE PUSH1 0x20 PUSH1 0x4 DUP3 ADD DUP2 SWAP1 MSTORE PUSH1 0x24 DUP3 ADD MSTORE PUSH32 0x4F776E61626C653A2063616C6C6572206973206E6F7420746865206F776E6572 PUSH1 0x44 DUP3 ADD MSTORE SWAP1 MLOAD SWAP1 DUP2 SWAP1 SUB PUSH1 0x64 ADD SWAP1 REVERT JUMPDEST PUSH1 0x1 PUSH1 0x1 PUSH1 0xA0 SHL SUB DUP2 AND PUSH2 0xCCE JUMPI PUSH1 0x40 MLOAD PUSH3 0x461BCD PUSH1 0xE5 SHL DUP2 MSTORE PUSH1 0x4 ADD DUP1 DUP1 PUSH1 0x20 ADD DUP3 DUP2 SUB DUP3 MSTORE PUSH1 0x26 DUP2 MSTORE PUSH1 0x20 ADD DUP1 PUSH2 0x1A55 PUSH1 0x26 SWAP2 CODECOPY PUSH1 0x40 ADD SWAP2 POP POP PUSH1 0x40 MLOAD DUP1 SWAP2 SUB SWAP1 REVERT JUMPDEST PUSH1 0x0 DUP1 SLOAD PUSH1 0x40 MLOAD PUSH1 0x1 PUSH1 0x1 PUSH1 0xA0 SHL SUB DUP1 DUP6 AND SWAP4 SWAP3 AND SWAP2 PUSH32 0x8BE0079C531659141344CD1FD0A4F28419497F9722A3DAAFE3B4186F6B6457E0 SWAP2 LOG3 PUSH1 0x0 DUP1 SLOAD PUSH20 0xFFFFFFFFFFFFFFFFFFFFFFFFFFFFFFFFFFFFFFFF NOT AND PUSH1 0x1 PUSH1 0x1 PUSH1 0xA0 SHL SUB SWAP3 SWAP1 SWAP3 AND SWAP2 SWAP1 SWAP2 OR SWAP1 SSTORE JUMP JUMPDEST PUSH1 0x0 DUP1 PUSH1 0x0 PUSH8 0xDE0B6B3A7640000 SWAP1 POP PUSH1 0x0 PUSH2 0xD63 PUSH2 0x2710 PUSH2 0xA3F PUSH1 0x1 SLOAD DUP6 PUSH2 0x142A SWAP1 SWAP2 SWAP1 PUSH4 0xFFFFFFFF AND JUMP JUMPDEST SWAP1 POP PUSH1 0x0 PUSH2 0xD71 DUP4 DUP4 PUSH2 0x14F3 JUMP JUMPDEST SWAP1 POP POP POP POP SWAP1 SWAP2 JUMP JUMPDEST PUSH1 0x2 SLOAD PUSH1 0x1 PUSH1 0x1 PUSH1 0xA0 SHL SUB AND DUP2 JUMP JUMPDEST CALLER SWAP1 JUMP JUMPDEST PUSH1 0x40 DUP1 MLOAD PUSH1 0x1 PUSH1 0x1 PUSH1 0xA0 SHL SUB DUP5 AND PUSH1 0x24 DUP3 ADD MSTORE PUSH1 0x44 DUP1 DUP3 ADD DUP5 SWAP1 MSTORE DUP3 MLOAD DUP1 DUP4 SUB SWAP1 SWAP2 ADD DUP2 MSTORE PUSH1 0x64 SWAP1 SWAP2 ADD SWAP1 SWAP2 MSTORE PUSH1 0x20 DUP2 ADD DUP1 MLOAD PUSH28 0xFFFFFFFFFFFFFFFFFFFFFFFFFFFFFFFFFFFFFFFFFFFFFFFFFFFFFFFF AND PUSH32 0xA9059CBB00000000000000000000000000000000000000000000000000000000 OR SWAP1 MSTORE PUSH2 0xB08 SWAP1 DUP5 SWAP1 PUSH2 0x1723 JUMP JUMPDEST PUSH1 0x0 DUP3 PUSH1 0x1 PUSH1 0x1 PUSH1 0xA0 SHL SUB AND DUP5 PUSH1 0x1 PUSH1 0x1 PUSH1 0xA0 SHL SUB AND EQ ISZERO PUSH2 0xE30 JUMPI POP DUP4 PUSH2 0x1238 JUMP JUMPDEST PUSH1 0x0 DUP3 MLOAD GT PUSH2 0xE86 JUMPI PUSH1 0x40 DUP1 MLOAD PUSH3 0x461BCD PUSH1 0xE5 SHL DUP2 MSTORE PUSH1 0x20 PUSH1 0x4 DUP3 ADD MSTORE PUSH1 0x18 PUSH1 0x24 DUP3 ADD MSTORE PUSH32 0x73776170546F6B656E733A20494E56414C494420504154480000000000000000 PUSH1 0x44 DUP3 ADD MSTORE SWAP1 MLOAD SWAP1 DUP2 SWAP1 SUB PUSH1 0x64 ADD SWAP1 REVERT JUMPDEST DUP4 PUSH1 0x1 PUSH1 0x1 PUSH1 0xA0 SHL SUB AND DUP3 PUSH1 0x0 DUP2 MLOAD DUP2 LT PUSH2 0xE9D JUMPI INVALID JUMPDEST PUSH1 0x20 MUL PUSH1 0x20 ADD ADD MLOAD PUSH1 0x1 PUSH1 0x1 PUSH1 0xA0 SHL SUB AND EQ PUSH2 0xF00 JUMPI PUSH1 0x40 DUP1 MLOAD PUSH3 0x461BCD PUSH1 0xE5 SHL DUP2 MSTORE PUSH1 0x20 PUSH1 0x4 DUP3 ADD MSTORE PUSH1 0x18 PUSH1 0x24 DUP3 ADD MSTORE PUSH32 0x73776170546F6B656E733A20494E56414C494420504154480000000000000000 PUSH1 0x44 DUP3 ADD MSTORE SWAP1 MLOAD SWAP1 DUP2 SWAP1 SUB PUSH1 0x64 ADD SWAP1 REVERT JUMPDEST DUP3 PUSH1 0x1 PUSH1 0x1 PUSH1 0xA0 SHL SUB AND DUP3 PUSH1 0x1 DUP5 MLOAD SUB DUP2 MLOAD DUP2 LT PUSH2 0xF1A JUMPI INVALID JUMPDEST PUSH1 0x20 MUL PUSH1 0x20 ADD ADD MLOAD PUSH1 0x1 PUSH1 0x1 PUSH1 0xA0 SHL SUB AND EQ PUSH2 0xF7D JUMPI PUSH1 0x40 DUP1 MLOAD PUSH3 0x461BCD PUSH1 0xE5 SHL DUP2 MSTORE PUSH1 0x20 PUSH1 0x4 DUP3 ADD MSTORE PUSH1 0x18 PUSH1 0x24 DUP3 ADD MSTORE PUSH32 0x73776170546F6B656E733A20494E56414C494420504154480000000000000000 PUSH1 0x44 DUP3 ADD MSTORE SWAP1 MLOAD SWAP1 DUP2 SWAP1 SUB PUSH1 0x64 ADD SWAP1 REVERT JUMPDEST PUSH1 0x0 DUP5 PUSH1 0x1 PUSH1 0x1 PUSH1 0xA0 SHL SUB AND PUSH4 0x70A08231 ADDRESS PUSH1 0x40 MLOAD DUP3 PUSH4 0xFFFFFFFF AND PUSH1 0xE0 SHL DUP2 MSTORE PUSH1 0x4 ADD DUP1 DUP3 PUSH1 0x1 PUSH1 0x1 PUSH1 0xA0 SHL SUB AND DUP2 MSTORE PUSH1 0x20 ADD SWAP2 POP POP PUSH1 0x20 PUSH1 0x40 MLOAD DUP1 DUP4 SUB DUP2 DUP7 DUP1 EXTCODESIZE ISZERO DUP1 ISZERO PUSH2 0xFCC JUMPI PUSH1 0x0 DUP1 REVERT JUMPDEST POP GAS STATICCALL ISZERO DUP1 ISZERO PUSH2 0xFE0 JUMPI RETURNDATASIZE PUSH1 0x0 DUP1 RETURNDATACOPY RETURNDATASIZE PUSH1 0x0 REVERT JUMPDEST POP POP POP POP PUSH1 0x40 MLOAD RETURNDATASIZE PUSH1 0x20 DUP2 LT ISZERO PUSH2 0xFF6 JUMPI PUSH1 0x0 DUP1 REVERT JUMPDEST POP MLOAD SWAP1 POP DUP6 DUP2 LT ISZERO PUSH2 0x104F JUMPI PUSH1 0x40 DUP1 MLOAD PUSH3 0x461BCD PUSH1 0xE5 SHL DUP2 MSTORE PUSH1 0x20 PUSH1 0x4 DUP3 ADD MSTORE PUSH1 0x1F PUSH1 0x24 DUP3 ADD MSTORE PUSH32 0x73776170546F6B656E733A20494E53554646494349454E5420414D4F554E5400 PUSH1 0x44 DUP3 ADD MSTORE SWAP1 MLOAD SWAP1 DUP2 SWAP1 SUB PUSH1 0x64 ADD SWAP1 REVERT JUMPDEST PUSH1 0x0 DUP5 PUSH1 0x1 PUSH1 0x1 PUSH1 0xA0 SHL SUB AND PUSH4 0x70A08231 ADDRESS PUSH1 0x40 MLOAD DUP3 PUSH4 0xFFFFFFFF AND PUSH1 0xE0 SHL DUP2 MSTORE PUSH1 0x4 ADD DUP1 DUP3 PUSH1 0x1 PUSH1 0x1 PUSH1 0xA0 SHL SUB AND DUP2 MSTORE PUSH1 0x20 ADD SWAP2 POP POP PUSH1 0x20 PUSH1 0x40 MLOAD DUP1 DUP4 SUB DUP2 DUP7 DUP1 EXTCODESIZE ISZERO DUP1 ISZERO PUSH2 0x109E JUMPI PUSH1 0x0 DUP1 REVERT JUMPDEST POP GAS STATICCALL ISZERO DUP1 ISZERO PUSH2 0x10B2 JUMPI RETURNDATASIZE PUSH1 0x0 DUP1 RETURNDATACOPY RETURNDATASIZE PUSH1 0x0 REVERT JUMPDEST POP POP POP POP PUSH1 0x40 MLOAD RETURNDATASIZE PUSH1 0x20 DUP2 LT ISZERO PUSH2 0x10C8 JUMPI PUSH1 0x0 DUP1 REVERT JUMPDEST POP MLOAD SWAP1 POP PUSH2 0x10E0 PUSH1 0x1 PUSH1 0x1 PUSH1 0xA0 SHL SUB DUP8 AND DUP10 DUP10 PUSH2 0x1550 JUMP JUMPDEST DUP8 PUSH1 0x1 PUSH1 0x1 PUSH1 0xA0 SHL SUB AND PUSH4 0x5C11D795 DUP9 PUSH1 0x0 DUP8 ADDRESS PUSH2 0x10FC PUSH2 0x17D4 JUMP JUMPDEST PUSH1 0x40 MLOAD DUP7 PUSH4 0xFFFFFFFF AND PUSH1 0xE0 SHL DUP2 MSTORE PUSH1 0x4 ADD DUP1 DUP7 DUP2 MSTORE PUSH1 0x20 ADD DUP6 DUP2 MSTORE PUSH1 0x20 ADD DUP1 PUSH1 0x20 ADD DUP5 PUSH1 0x1 PUSH1 0x1 PUSH1 0xA0 SHL SUB AND DUP2 MSTORE PUSH1 0x20 ADD DUP4 DUP2 MSTORE PUSH1 0x20 ADD DUP3 DUP2 SUB DUP3 MSTORE DUP6 DUP2 DUP2 MLOAD DUP2 MSTORE PUSH1 0x20 ADD SWAP2 POP DUP1 MLOAD SWAP1 PUSH1 0x20 ADD SWAP1 PUSH1 0x20 MUL DUP1 DUP4 DUP4 PUSH1 0x0 JUMPDEST DUP4 DUP2 LT ISZERO PUSH2 0x116C JUMPI DUP2 DUP2 ADD MLOAD DUP4 DUP3 ADD MSTORE PUSH1 0x20 ADD PUSH2 0x1154 JUMP JUMPDEST POP POP POP POP SWAP1 POP ADD SWAP7 POP POP POP POP POP POP POP PUSH1 0x0 PUSH1 0x40 MLOAD DUP1 DUP4 SUB DUP2 PUSH1 0x0 DUP8 DUP1 EXTCODESIZE ISZERO DUP1 ISZERO PUSH2 0x1195 JUMPI PUSH1 0x0 DUP1 REVERT JUMPDEST POP GAS CALL ISZERO DUP1 ISZERO PUSH2 0x11A9 JUMPI RETURNDATASIZE PUSH1 0x0 DUP1 RETURNDATACOPY RETURNDATASIZE PUSH1 0x0 REVERT JUMPDEST POP POP POP POP PUSH1 0x0 PUSH2 0x1232 DUP3 DUP8 PUSH1 0x1 PUSH1 0x1 PUSH1 0xA0 SHL SUB AND PUSH4 0x70A08231 ADDRESS PUSH1 0x40 MLOAD DUP3 PUSH4 0xFFFFFFFF AND PUSH1 0xE0 SHL DUP2 MSTORE PUSH1 0x4 ADD DUP1 DUP3 PUSH1 0x1 PUSH1 0x1 PUSH1 0xA0 SHL SUB AND DUP2 MSTORE PUSH1 0x20 ADD SWAP2 POP POP PUSH1 0x20 PUSH1 0x40 MLOAD DUP1 DUP4 SUB DUP2 DUP7 DUP1 EXTCODESIZE ISZERO DUP1 ISZERO PUSH2 0x1200 JUMPI PUSH1 0x0 DUP1 REVERT JUMPDEST POP GAS STATICCALL ISZERO DUP1 ISZERO PUSH2 0x1214 JUMPI RETURNDATASIZE PUSH1 0x0 DUP1 RETURNDATACOPY RETURNDATASIZE PUSH1 0x0 REVERT JUMPDEST POP POP POP POP PUSH1 0x40 MLOAD RETURNDATASIZE PUSH1 0x20 DUP2 LT ISZERO PUSH2 0x122A JUMPI PUSH1 0x0 DUP1 REVERT JUMPDEST POP MLOAD SWAP1 PUSH2 0x14F3 JUMP JUMPDEST SWAP4 POP POP POP POP JUMPDEST SWAP6 SWAP5 POP POP POP POP POP JUMP JUMPDEST PUSH1 0x0 DUP1 PUSH1 0x0 DUP5 PUSH1 0x1 PUSH1 0x1 PUSH1 0xA0 SHL SUB AND PUSH4 0xDFE1681 PUSH1 0x40 MLOAD DUP2 PUSH4 0xFFFFFFFF AND PUSH1 0xE0 SHL DUP2 MSTORE PUSH1 0x4 ADD PUSH1 0x20 PUSH1 0x40 MLOAD DUP1 DUP4 SUB DUP2 DUP7 DUP1 EXTCODESIZE ISZERO DUP1 ISZERO PUSH2 0x127F JUMPI PUSH1 0x0 DUP1 REVERT JUMPDEST POP GAS STATICCALL ISZERO DUP1 ISZERO PUSH2 0x1293 JUMPI RETURNDATASIZE PUSH1 0x0 DUP1 RETURNDATACOPY RETURNDATASIZE PUSH1 0x0 REVERT JUMPDEST POP POP POP POP PUSH1 0x40 MLOAD RETURNDATASIZE PUSH1 0x20 DUP2 LT ISZERO PUSH2 0x12A9 JUMPI PUSH1 0x0 DUP1 REVERT JUMPDEST POP MLOAD PUSH1 0x40 DUP1 MLOAD PUSH32 0xD21220A700000000000000000000000000000000000000000000000000000000 DUP2 MSTORE SWAP1 MLOAD SWAP2 SWAP3 POP PUSH1 0x0 SWAP2 PUSH1 0x1 PUSH1 0x1 PUSH1 0xA0 SHL SUB DUP9 AND SWAP2 PUSH4 0xD21220A7 SWAP2 PUSH1 0x4 DUP1 DUP4 ADD SWAP3 PUSH1 0x20 SWAP3 SWAP2 SWAP1 DUP3 SWAP1 SUB ADD DUP2 DUP7 DUP1 EXTCODESIZE ISZERO DUP1 ISZERO PUSH2 0x130A JUMPI PUSH1 0x0 DUP1 REVERT JUMPDEST POP GAS STATICCALL ISZERO DUP1 ISZERO PUSH2 0x131E JUMPI RETURNDATASIZE PUSH1 0x0 DUP1 RETURNDATACOPY RETURNDATASIZE PUSH1 0x0 REVERT JUMPDEST POP POP POP POP PUSH1 0x40 MLOAD RETURNDATASIZE PUSH1 0x20 DUP2 LT ISZERO PUSH2 0x1334 JUMPI PUSH1 0x0 DUP1 REVERT JUMPDEST POP MLOAD SWAP1 POP PUSH2 0x134C PUSH1 0x1 PUSH1 0x1 PUSH1 0xA0 SHL SUB DUP8 AND DUP9 DUP8 PUSH2 0x1550 JUMP JUMPDEST PUSH1 0x0 DUP1 DUP9 PUSH1 0x1 PUSH1 0x1 PUSH1 0xA0 SHL SUB AND PUSH4 0xBAA2ABDE DUP6 DUP6 DUP11 PUSH1 0x0 DUP1 ADDRESS PUSH2 0x136D PUSH2 0x17D4 JUMP JUMPDEST PUSH1 0x40 MLOAD DUP9 PUSH4 0xFFFFFFFF AND PUSH1 0xE0 SHL DUP2 MSTORE PUSH1 0x4 ADD DUP1 DUP9 PUSH1 0x1 PUSH1 0x1 PUSH1 0xA0 SHL SUB AND DUP2 MSTORE PUSH1 0x20 ADD DUP8 PUSH1 0x1 PUSH1 0x1 PUSH1 0xA0 SHL SUB AND DUP2 MSTORE PUSH1 0x20 ADD DUP7 DUP2 MSTORE PUSH1 0x20 ADD DUP6 DUP2 MSTORE PUSH1 0x20 ADD DUP5 DUP2 MSTORE PUSH1 0x20 ADD DUP4 PUSH1 0x1 PUSH1 0x1 PUSH1 0xA0 SHL SUB AND DUP2 MSTORE PUSH1 0x20 ADD DUP3 DUP2 MSTORE PUSH1 0x20 ADD SWAP8 POP POP POP POP POP POP POP POP PUSH1 0x40 DUP1 MLOAD DUP1 DUP4 SUB DUP2 PUSH1 0x0 DUP8 DUP1 EXTCODESIZE ISZERO DUP1 ISZERO PUSH2 0x13E7 JUMPI PUSH1 0x0 DUP1 REVERT JUMPDEST POP GAS CALL ISZERO DUP1 ISZERO PUSH2 0x13FB JUMPI RETURNDATASIZE PUSH1 0x0 DUP1 RETURNDATACOPY RETURNDATASIZE PUSH1 0x0 REVERT JUMPDEST POP POP POP POP PUSH1 0x40 MLOAD RETURNDATASIZE PUSH1 0x40 DUP2 LT ISZERO PUSH2 0x1411 JUMPI PUSH1 0x0 DUP1 REVERT JUMPDEST POP DUP1 MLOAD PUSH1 0x20 SWAP1 SWAP2 ADD MLOAD SWAP1 SWAP11 SWAP1 SWAP10 POP SWAP8 POP POP POP POP POP POP POP POP JUMP JUMPDEST PUSH1 0x0 DUP3 PUSH2 0x1439 JUMPI POP PUSH1 0x0 PUSH2 0x1486 JUMP JUMPDEST DUP3 DUP3 MUL DUP3 DUP5 DUP3 DUP2 PUSH2 0x1446 JUMPI INVALID JUMPDEST DIV EQ PUSH2 0x1483 JUMPI PUSH1 0x40 MLOAD PUSH3 0x461BCD PUSH1 0xE5 SHL DUP2 MSTORE PUSH1 0x4 ADD DUP1 DUP1 PUSH1 0x20 ADD DUP3 DUP2 SUB DUP3 MSTORE PUSH1 0x21 DUP2 MSTORE PUSH1 0x20 ADD DUP1 PUSH2 0x1AA1 PUSH1 0x21 SWAP2 CODECOPY PUSH1 0x40 ADD SWAP2 POP POP PUSH1 0x40 MLOAD DUP1 SWAP2 SUB SWAP1 REVERT JUMPDEST SWAP1 POP JUMPDEST SWAP3 SWAP2 POP POP JUMP JUMPDEST PUSH1 0x0 DUP1 DUP3 GT PUSH2 0x14E2 JUMPI PUSH1 0x40 DUP1 MLOAD PUSH3 0x461BCD PUSH1 0xE5 SHL DUP2 MSTORE PUSH1 0x20 PUSH1 0x4 DUP3 ADD MSTORE PUSH1 0x1A PUSH1 0x24 DUP3 ADD MSTORE PUSH32 0x536166654D6174683A206469766973696F6E206279207A65726F000000000000 PUSH1 0x44 DUP3 ADD MSTORE SWAP1 MLOAD SWAP1 DUP2 SWAP1 SUB PUSH1 0x64 ADD SWAP1 REVERT JUMPDEST DUP2 DUP4 DUP2 PUSH2 0x14EB JUMPI INVALID JUMPDEST DIV SWAP4 SWAP3 POP POP POP JUMP JUMPDEST PUSH1 0x0 DUP3 DUP3 GT ISZERO PUSH2 0x154A JUMPI PUSH1 0x40 DUP1 MLOAD PUSH3 0x461BCD PUSH1 0xE5 SHL DUP2 MSTORE PUSH1 0x20 PUSH1 0x4 DUP3 ADD MSTORE PUSH1 0x1E PUSH1 0x24 DUP3 ADD MSTORE PUSH32 0x536166654D6174683A207375627472616374696F6E206F766572666C6F770000 PUSH1 0x44 DUP3 ADD MSTORE SWAP1 MLOAD SWAP1 DUP2 SWAP1 SUB PUSH1 0x64 ADD SWAP1 REVERT JUMPDEST POP SWAP1 SUB SWAP1 JUMP JUMPDEST PUSH1 0x0 PUSH2 0x15E6 DUP3 DUP6 PUSH1 0x1 PUSH1 0x1 PUSH1 0xA0 SHL SUB AND PUSH4 0xDD62ED3E ADDRESS DUP8 PUSH1 0x40 MLOAD DUP4 PUSH4 0xFFFFFFFF AND PUSH1 0xE0 SHL DUP2 MSTORE PUSH1 0x4 ADD DUP1 DUP4 PUSH1 0x1 PUSH1 0x1 PUSH1 0xA0 SHL SUB AND DUP2 MSTORE PUSH1 0x20 ADD DUP3 PUSH1 0x1 PUSH1 0x1 PUSH1 0xA0 SHL SUB AND DUP2 MSTORE PUSH1 0x20 ADD SWAP3 POP POP POP PUSH1 0x20 PUSH1 0x40 MLOAD DUP1 DUP4 SUB DUP2 DUP7 DUP1 EXTCODESIZE ISZERO DUP1 ISZERO PUSH2 0x15B4 JUMPI PUSH1 0x0 DUP1 REVERT JUMPDEST POP GAS STATICCALL ISZERO DUP1 ISZERO PUSH2 0x15C8 JUMPI RETURNDATASIZE PUSH1 0x0 DUP1 RETURNDATACOPY RETURNDATASIZE PUSH1 0x0 REVERT JUMPDEST POP POP POP POP PUSH1 0x40 MLOAD RETURNDATASIZE PUSH1 0x20 DUP2 LT ISZERO PUSH2 0x15DE JUMPI PUSH1 0x0 DUP1 REVERT JUMPDEST POP MLOAD SWAP1 PUSH2 0x17DB JUMP JUMPDEST PUSH1 0x40 DUP1 MLOAD PUSH1 0x1 PUSH1 0x1 PUSH1 0xA0 SHL SUB DUP7 AND PUSH1 0x24 DUP3 ADD MSTORE PUSH1 0x44 DUP1 DUP3 ADD DUP5 SWAP1 MSTORE DUP3 MLOAD DUP1 DUP4 SUB SWAP1 SWAP2 ADD DUP2 MSTORE PUSH1 0x64 SWAP1 SWAP2 ADD SWAP1 SWAP2 MSTORE PUSH1 0x20 DUP2 ADD DUP1 MLOAD PUSH28 0xFFFFFFFFFFFFFFFFFFFFFFFFFFFFFFFFFFFFFFFFFFFFFFFFFFFFFFFF AND PUSH32 0x95EA7B300000000000000000000000000000000000000000000000000000000 OR SWAP1 MSTORE SWAP1 SWAP2 POP PUSH2 0x1669 SWAP1 DUP6 SWAP1 PUSH2 0x1723 JUMP JUMPDEST POP POP POP POP JUMP JUMPDEST PUSH1 0x5 SLOAD PUSH1 0x40 DUP1 MLOAD PUSH4 0x70A08231 PUSH1 0xE0 SHL DUP2 MSTORE ADDRESS PUSH1 0x4 DUP3 ADD MSTORE SWAP1 MLOAD PUSH1 0x0 SWAP3 PUSH1 0x1 PUSH1 0x1 PUSH1 0xA0 SHL SUB AND SWAP2 PUSH4 0x70A08231 SWAP2 PUSH1 0x24 DUP1 DUP4 ADD SWAP3 PUSH1 0x20 SWAP3 SWAP2 SWAP1 DUP3 SWAP1 SUB ADD DUP2 DUP7 DUP1 EXTCODESIZE ISZERO DUP1 ISZERO PUSH2 0x16BA JUMPI PUSH1 0x0 DUP1 REVERT JUMPDEST POP GAS STATICCALL ISZERO DUP1 ISZERO PUSH2 0x16CE JUMPI RETURNDATASIZE PUSH1 0x0 DUP1 RETURNDATACOPY RETURNDATASIZE PUSH1 0x0 REVERT JUMPDEST POP POP POP POP PUSH1 0x40 MLOAD RETURNDATASIZE PUSH1 0x20 DUP2 LT ISZERO PUSH2 0x16E4 JUMPI PUSH1 0x0 DUP1 REVERT JUMPDEST POP MLOAD SWAP1 POP DUP1 DUP3 GT ISZERO PUSH2 0x170C JUMPI PUSH1 0x5 SLOAD PUSH2 0x1707 SWAP1 PUSH1 0x1 PUSH1 0x1 PUSH1 0xA0 SHL SUB AND DUP5 DUP4 PUSH2 0xD8D JUMP JUMPDEST PUSH2 0xB08 JUMP JUMPDEST PUSH1 0x5 SLOAD PUSH2 0xB08 SWAP1 PUSH1 0x1 PUSH1 0x1 PUSH1 0xA0 SHL SUB AND DUP5 DUP5 PUSH2 0xD8D JUMP JUMPDEST PUSH1 0x60 PUSH2 0x1778 DUP3 PUSH1 0x40 MLOAD DUP1 PUSH1 0x40 ADD PUSH1 0x40 MSTORE DUP1 PUSH1 0x20 DUP2 MSTORE PUSH1 0x20 ADD PUSH32 0x5361666545524332303A206C6F772D6C6576656C2063616C6C206661696C6564 DUP2 MSTORE POP DUP6 PUSH1 0x1 PUSH1 0x1 PUSH1 0xA0 SHL SUB AND PUSH2 0x1835 SWAP1 SWAP3 SWAP2 SWAP1 PUSH4 0xFFFFFFFF AND JUMP JUMPDEST DUP1 MLOAD SWAP1 SWAP2 POP ISZERO PUSH2 0xB08 JUMPI DUP1 DUP1 PUSH1 0x20 ADD SWAP1 MLOAD PUSH1 0x20 DUP2 LT ISZERO PUSH2 0x1797 JUMPI PUSH1 0x0 DUP1 REVERT JUMPDEST POP MLOAD PUSH2 0xB08 JUMPI PUSH1 0x40 MLOAD PUSH3 0x461BCD PUSH1 0xE5 SHL DUP2 MSTORE PUSH1 0x4 ADD DUP1 DUP1 PUSH1 0x20 ADD DUP3 DUP2 SUB DUP3 MSTORE PUSH1 0x2A DUP2 MSTORE PUSH1 0x20 ADD DUP1 PUSH2 0x1AC2 PUSH1 0x2A SWAP2 CODECOPY PUSH1 0x40 ADD SWAP2 POP POP PUSH1 0x40 MLOAD DUP1 SWAP2 SUB SWAP1 REVERT JUMPDEST PUSH1 0x3C TIMESTAMP ADD SWAP1 JUMP JUMPDEST PUSH1 0x0 DUP3 DUP3 ADD DUP4 DUP2 LT ISZERO PUSH2 0x1483 JUMPI PUSH1 0x40 DUP1 MLOAD PUSH3 0x461BCD PUSH1 0xE5 SHL DUP2 MSTORE PUSH1 0x20 PUSH1 0x4 DUP3 ADD MSTORE PUSH1 0x1B PUSH1 0x24 DUP3 ADD MSTORE PUSH32 0x536166654D6174683A206164646974696F6E206F766572666C6F770000000000 PUSH1 0x44 DUP3 ADD MSTORE SWAP1 MLOAD SWAP1 DUP2 SWAP1 SUB PUSH1 0x64 ADD SWAP1 REVERT JUMPDEST PUSH1 0x60 PUSH2 0x1844 DUP5 DUP5 PUSH1 0x0 DUP6 PUSH2 0x184E JUMP JUMPDEST SWAP1 POP JUMPDEST SWAP4 SWAP3 POP POP POP JUMP JUMPDEST PUSH1 0x60 DUP3 SELFBALANCE LT ISZERO PUSH2 0x188F JUMPI PUSH1 0x40 MLOAD PUSH3 0x461BCD PUSH1 0xE5 SHL DUP2 MSTORE PUSH1 0x4 ADD DUP1 DUP1 PUSH1 0x20 ADD DUP3 DUP2 SUB DUP3 MSTORE PUSH1 0x26 DUP2 MSTORE PUSH1 0x20 ADD DUP1 PUSH2 0x1A7B PUSH1 0x26 SWAP2 CODECOPY PUSH1 0x40 ADD SWAP2 POP POP PUSH1 0x40 MLOAD DUP1 SWAP2 SUB SWAP1 REVERT JUMPDEST PUSH2 0x1898 DUP6 PUSH2 0x19AA JUMP JUMPDEST PUSH2 0x18E9 JUMPI PUSH1 0x40 DUP1 MLOAD PUSH3 0x461BCD PUSH1 0xE5 SHL DUP2 MSTORE PUSH1 0x20 PUSH1 0x4 DUP3 ADD MSTORE PUSH1 0x1D PUSH1 0x24 DUP3 ADD MSTORE PUSH32 0x416464726573733A2063616C6C20746F206E6F6E2D636F6E7472616374000000 PUSH1 0x44 DUP3 ADD MSTORE SWAP1 MLOAD SWAP1 DUP2 SWAP1 SUB PUSH1 0x64 ADD SWAP1 REVERT JUMPDEST PUSH1 0x0 PUSH1 0x60 DUP7 PUSH1 0x1 PUSH1 0x1 PUSH1 0xA0 SHL SUB AND DUP6 DUP8 PUSH1 0x40 MLOAD DUP1 DUP3 DUP1 MLOAD SWAP1 PUSH1 0x20 ADD SWAP1 DUP1 DUP4 DUP4 JUMPDEST PUSH1 0x20 DUP4 LT PUSH2 0x1928 JUMPI DUP1 MLOAD DUP3 MSTORE PUSH1 0x1F NOT SWAP1 SWAP3 ADD SWAP2 PUSH1 0x20 SWAP2 DUP3 ADD SWAP2 ADD PUSH2 0x1909 JUMP JUMPDEST PUSH1 0x1 DUP4 PUSH1 0x20 SUB PUSH2 0x100 EXP SUB DUP1 NOT DUP3 MLOAD AND DUP2 DUP5 MLOAD AND DUP1 DUP3 OR DUP6 MSTORE POP POP POP POP POP POP SWAP1 POP ADD SWAP2 POP POP PUSH1 0x0 PUSH1 0x40 MLOAD DUP1 DUP4 SUB DUP2 DUP6 DUP8 GAS CALL SWAP3 POP POP POP RETURNDATASIZE DUP1 PUSH1 0x0 DUP2 EQ PUSH2 0x198A JUMPI PUSH1 0x40 MLOAD SWAP2 POP PUSH1 0x1F NOT PUSH1 0x3F RETURNDATASIZE ADD AND DUP3 ADD PUSH1 0x40 MSTORE RETURNDATASIZE DUP3 MSTORE RETURNDATASIZE PUSH1 0x0 PUSH1 0x20 DUP5 ADD RETURNDATACOPY PUSH2 0x198F JUMP JUMPDEST PUSH1 0x60 SWAP2 POP JUMPDEST POP SWAP2 POP SWAP2 POP PUSH2 0x199F DUP3 DUP3 DUP7 PUSH2 0x19B0 JUMP JUMPDEST SWAP8 SWAP7 POP POP POP POP POP POP POP JUMP JUMPDEST EXTCODESIZE ISZERO ISZERO SWAP1 JUMP JUMPDEST PUSH1 0x60 DUP4 ISZERO PUSH2 0x19BF JUMPI POP DUP2 PUSH2 0x1847 JUMP JUMPDEST DUP3 MLOAD ISZERO PUSH2 0x19CF JUMPI DUP3 MLOAD DUP1 DUP5 PUSH1 0x20 ADD REVERT JUMPDEST DUP2 PUSH1 0x40 MLOAD PUSH3 0x461BCD PUSH1 0xE5 SHL DUP2 MSTORE PUSH1 0x4 ADD DUP1 DUP1 PUSH1 0x20 ADD DUP3 DUP2 SUB DUP3 MSTORE DUP4 DUP2 DUP2 MLOAD DUP2 MSTORE PUSH1 0x20 ADD SWAP2 POP DUP1 MLOAD SWAP1 PUSH1 0x20 ADD SWAP1 DUP1 DUP4 DUP4 PUSH1 0x0 JUMPDEST DUP4 DUP2 LT ISZERO PUSH2 0x1A19 JUMPI DUP2 DUP2 ADD MLOAD DUP4 DUP3 ADD MSTORE PUSH1 0x20 ADD PUSH2 0x1A01 JUMP JUMPDEST POP POP POP POP SWAP1 POP SWAP1 DUP2 ADD SWAP1 PUSH1 0x1F AND DUP1 ISZERO PUSH2 0x1A46 JUMPI DUP1 DUP3 SUB DUP1 MLOAD PUSH1 0x1 DUP4 PUSH1 0x20 SUB PUSH2 0x100 EXP SUB NOT AND DUP2 MSTORE PUSH1 0x20 ADD SWAP2 POP JUMPDEST POP SWAP3 POP POP POP PUSH1 0x40 MLOAD DUP1 SWAP2 SUB SWAP1 REVERT INVALID 0x4F PUSH24 0x6E61626C653A206E6577206F776E65722069732074686520 PUSH27 0x65726F2061646472657373416464726573733A20696E7375666669 PUSH4 0x69656E74 KECCAK256 PUSH3 0x616C61 PUSH15 0x636520666F722063616C6C53616665 0x4D PUSH2 0x7468 GASPRICE KECCAK256 PUSH14 0x756C7469706C69636174696F6E20 PUSH16 0x766572666C6F77536166654552433230 GASPRICE KECCAK256 GASLIMIT MSTORE NUMBER ORIGIN ADDRESS KECCAK256 PUSH16 0x7065726174696F6E20646964206E6F74 KECCAK256 PUSH20 0x756363656564A26469706673582212205540FDB5 PUSH4 0x80E7AF3D 0xA9 STOP 0xA8 0x2E 0xD3 SELFBALANCE SDIV 0x4C 0xDA PUSH18 0x7C121079C2347B9E988DDC5AA264736F6C63 NUMBER STOP MOD 0xC STOP CALLER "
				},
				"gasEstimates": {
					"creation": {
						"codeDepositCost": "1389000",
						"executionCost": "infinite",
						"totalCost": "infinite"
					},
					"external": {
						"distributeFees()": "infinite",
						"feeHolder()": "1126",
						"owner()": "1104",
						"platformShareBP()": "1065",
						"removeLiquidity(address,address)": "infinite",
						"renounceOwnership()": "24333",
						"rescueToken(address)": "infinite",
						"rewardsReceiver()": "1125",
						"schedulerAddress()": "1060",
						"sellTokens(address,address,address,address[])": "infinite",
						"setSchedulerAddr(address)": "24294",
						"test()": "infinite",
						"transferOwnership(address)": "infinite",
						"updateFeeReceivers(address,address)": "44603",
						"updateFeeSettings(uint256)": "22594",
						"wElaAddress()": "1060"
					},
					"internal": {
						"safeTokenTransfer(address,uint256)": "infinite"
					}
				},
				"methodIdentifiers": {
					"distributeFees()": "bb57ad20",
					"feeHolder()": "cc6be5e4",
					"owner()": "8da5cb5b",
					"platformShareBP()": "c0d46b91",
					"removeLiquidity(address,address)": "9cf38f7c",
					"renounceOwnership()": "715018a6",
					"rescueToken(address)": "4460d3cf",
					"rewardsReceiver()": "fca11cb8",
					"schedulerAddress()": "ae45850b",
					"sellTokens(address,address,address,address[])": "7a2829d2",
					"setSchedulerAddr(address)": "43abd319",
					"test()": "f8a8fd6d",
					"transferOwnership(address)": "f2fde38b",
					"updateFeeReceivers(address,address)": "d7236159",
					"updateFeeSettings(uint256)": "208995cf",
					"wElaAddress()": "717815de"
				}
			},
			"userdoc": {
				"kind": "user",
				"methods": {},
				"version": 1
			}
		}
	}
}