{
	"contracts/Dividends/SwapRewardsChef.sol": {
		"SwapRewardsChef": {
			"abi": [
				{
					"inputs": [
						{
							"internalType": "contract IERC20",
							"name": "_stakeToken",
							"type": "address"
						},
						{
							"internalType": "contract IERC20",
							"name": "_rewardToken",
							"type": "address"
						},
						{
							"internalType": "address",
							"name": "_wrappedNativeAddress",
							"type": "address"
						}
					],
					"stateMutability": "nonpayable",
					"type": "constructor"
				},
				{
					"anonymous": false,
					"inputs": [
						{
							"indexed": true,
							"internalType": "address",
							"name": "user",
							"type": "address"
						},
						{
							"indexed": false,
							"internalType": "uint256",
							"name": "amount",
							"type": "uint256"
						}
					],
					"name": "Deposit",
					"type": "event"
				},
				{
					"anonymous": false,
					"inputs": [
						{
							"indexed": true,
							"internalType": "address",
							"name": "user",
							"type": "address"
						},
						{
							"indexed": false,
							"internalType": "uint256",
							"name": "amount",
							"type": "uint256"
						}
					],
					"name": "EmergencyWithdraw",
					"type": "event"
				},
				{
					"anonymous": false,
					"inputs": [
						{
							"indexed": true,
							"internalType": "address",
							"name": "user",
							"type": "address"
						},
						{
							"indexed": false,
							"internalType": "uint256",
							"name": "amount",
							"type": "uint256"
						}
					],
					"name": "Harvest",
					"type": "event"
				},
				{
					"anonymous": false,
					"inputs": [
						{
							"indexed": true,
							"internalType": "address",
							"name": "previousOwner",
							"type": "address"
						},
						{
							"indexed": true,
							"internalType": "address",
							"name": "newOwner",
							"type": "address"
						}
					],
					"name": "OwnershipTransferred",
					"type": "event"
				},
				{
					"anonymous": false,
					"inputs": [
						{
							"indexed": true,
							"internalType": "address",
							"name": "user",
							"type": "address"
						},
						{
							"indexed": true,
							"internalType": "address",
							"name": "token",
							"type": "address"
						},
						{
							"indexed": false,
							"internalType": "uint256",
							"name": "amount",
							"type": "uint256"
						}
					],
					"name": "RescueTokens",
					"type": "event"
				},
				{
					"anonymous": false,
					"inputs": [
						{
							"indexed": true,
							"internalType": "address",
							"name": "user",
							"type": "address"
						},
						{
							"indexed": false,
							"internalType": "uint256",
							"name": "denomination",
							"type": "uint256"
						},
						{
							"indexed": false,
							"internalType": "uint256",
							"name": "minimum",
							"type": "uint256"
						},
						{
							"indexed": false,
							"internalType": "uint256",
							"name": "maximum",
							"type": "uint256"
						},
						{
							"indexed": false,
							"internalType": "uint256",
							"name": "rewardsPerBlock",
							"type": "uint256"
						}
					],
					"name": "UpdateEmissionSettings",
					"type": "event"
				},
				{
					"anonymous": false,
					"inputs": [
						{
							"indexed": true,
							"internalType": "address",
							"name": "user",
							"type": "address"
						},
						{
							"indexed": false,
							"internalType": "uint256",
							"name": "amount",
							"type": "uint256"
						}
					],
					"name": "Withdraw",
					"type": "event"
				},
				{
					"inputs": [],
					"name": "denominationEmitAmount",
					"outputs": [
						{
							"internalType": "uint256",
							"name": "",
							"type": "uint256"
						}
					],
					"stateMutability": "view",
					"type": "function"
				},
				{
					"inputs": [
						{
							"internalType": "uint256",
							"name": "_amount",
							"type": "uint256"
						}
					],
					"name": "deposit",
					"outputs": [],
					"stateMutability": "nonpayable",
					"type": "function"
				},
				{
					"inputs": [],
					"name": "emergencyWithdraw",
					"outputs": [],
					"stateMutability": "nonpayable",
					"type": "function"
				},
				{
					"inputs": [
						{
							"internalType": "address",
							"name": "_user",
							"type": "address"
						}
					],
					"name": "harvestFor",
					"outputs": [],
					"stateMutability": "nonpayable",
					"type": "function"
				},
				{
					"inputs": [
						{
							"internalType": "uint256",
							"name": "_amount",
							"type": "uint256"
						}
					],
					"name": "income",
					"outputs": [],
					"stateMutability": "nonpayable",
					"type": "function"
				},
				{
					"inputs": [],
					"name": "maximumEmitAmount",
					"outputs": [
						{
							"internalType": "uint256",
							"name": "",
							"type": "uint256"
						}
					],
					"stateMutability": "view",
					"type": "function"
				},
				{
					"inputs": [],
					"name": "minimumEmitAmount",
					"outputs": [
						{
							"internalType": "uint256",
							"name": "",
							"type": "uint256"
						}
					],
					"stateMutability": "view",
					"type": "function"
				},
				{
					"inputs": [],
					"name": "owner",
					"outputs": [
						{
							"internalType": "address",
							"name": "",
							"type": "address"
						}
					],
					"stateMutability": "view",
					"type": "function"
				},
				{
					"inputs": [
						{
							"internalType": "address",
							"name": "_user",
							"type": "address"
						}
					],
					"name": "pendingRewards",
					"outputs": [
						{
							"internalType": "uint256",
							"name": "",
							"type": "uint256"
						}
					],
					"stateMutability": "view",
					"type": "function"
				},
				{
					"inputs": [
						{
							"internalType": "uint256",
							"name": "",
							"type": "uint256"
						}
					],
					"name": "poolInfo",
					"outputs": [
						{
							"internalType": "contract IERC20",
							"name": "lpToken",
							"type": "address"
						},
						{
							"internalType": "uint256",
							"name": "allocPoint",
							"type": "uint256"
						},
						{
							"internalType": "uint256",
							"name": "lastRewardBlock",
							"type": "uint256"
						},
						{
							"internalType": "uint256",
							"name": "accRewardPerShare",
							"type": "uint256"
						},
						{
							"internalType": "uint256",
							"name": "currentDepositAmount",
							"type": "uint256"
						}
					],
					"stateMutability": "view",
					"type": "function"
				},
				{
					"inputs": [],
					"name": "remainingRewards",
					"outputs": [
						{
							"internalType": "uint256",
							"name": "",
							"type": "uint256"
						}
					],
					"stateMutability": "view",
					"type": "function"
				},
				{
					"inputs": [],
					"name": "renounceOwnership",
					"outputs": [],
					"stateMutability": "nonpayable",
					"type": "function"
				},
				{
					"inputs": [
						{
							"internalType": "address",
							"name": "token",
							"type": "address"
						},
						{
							"internalType": "address",
							"name": "addressForReceive",
							"type": "address"
						}
					],
					"name": "rescueToken",
					"outputs": [],
					"stateMutability": "nonpayable",
					"type": "function"
				},
				{
					"inputs": [],
					"name": "rewardToken",
					"outputs": [
						{
							"internalType": "contract IERC20",
							"name": "",
							"type": "address"
						}
					],
					"stateMutability": "view",
					"type": "function"
				},
				{
					"inputs": [],
					"name": "rewardsPerBlock",
					"outputs": [
						{
							"internalType": "uint256",
							"name": "",
							"type": "uint256"
						}
					],
					"stateMutability": "view",
					"type": "function"
				},
				{
					"inputs": [],
					"name": "startBlock",
					"outputs": [
						{
							"internalType": "uint256",
							"name": "",
							"type": "uint256"
						}
					],
					"stateMutability": "view",
					"type": "function"
				},
				{
					"inputs": [],
					"name": "totalAllocPoint",
					"outputs": [
						{
							"internalType": "uint256",
							"name": "",
							"type": "uint256"
						}
					],
					"stateMutability": "view",
					"type": "function"
				},
				{
					"inputs": [
						{
							"internalType": "address",
							"name": "newOwner",
							"type": "address"
						}
					],
					"name": "transferOwnership",
					"outputs": [],
					"stateMutability": "nonpayable",
					"type": "function"
				},
				{
					"inputs": [
						{
							"internalType": "uint256",
							"name": "denomination",
							"type": "uint256"
						},
						{
							"internalType": "uint256",
							"name": "minimum",
							"type": "uint256"
						},
						{
							"internalType": "uint256",
							"name": "maximum",
							"type": "uint256"
						}
					],
					"name": "updateEmissionSettings",
					"outputs": [],
					"stateMutability": "nonpayable",
					"type": "function"
				},
				{
					"inputs": [],
					"name": "updatePool",
					"outputs": [],
					"stateMutability": "nonpayable",
					"type": "function"
				},
				{
					"inputs": [
						{
							"internalType": "address",
							"name": "",
							"type": "address"
						}
					],
					"name": "userInfo",
					"outputs": [
						{
							"internalType": "uint256",
							"name": "amount",
							"type": "uint256"
						},
						{
							"internalType": "uint256",
							"name": "rewardDebt",
							"type": "uint256"
						}
					],
					"stateMutability": "view",
					"type": "function"
				},
				{
					"inputs": [
						{
							"internalType": "uint256",
							"name": "_amount",
							"type": "uint256"
						}
					],
					"name": "withdraw",
					"outputs": [],
					"stateMutability": "nonpayable",
					"type": "function"
				},
				{
					"inputs": [],
					"name": "wrappedNativeAddress",
					"outputs": [
						{
							"internalType": "address",
							"name": "",
							"type": "address"
						}
					],
					"stateMutability": "view",
					"type": "function"
				},
				{
					"stateMutability": "payable",
					"type": "receive"
				}
			],
			"devdoc": {
				"kind": "dev",
				"methods": {
					"owner()": {
						"details": "Returns the address of the current owner."
					},
					"renounceOwnership()": {
						"details": "Leaves the contract without owner. It will not be possible to call `onlyOwner` functions anymore. Can only be called by the current owner. NOTE: Renouncing ownership will leave the contract without an owner, thereby removing any functionality that is only available to the owner."
					},
					"transferOwnership(address)": {
						"details": "Transfers ownership of the contract to a new account (`newOwner`). Can only be called by the current owner."
					}
				},
				"version": 1
			},
			"evm": {
				"assembly": "    /* \"contracts/Dividends/SwapRewardsChef.sol\":432:10681  contract SwapRewardsChef is Ownable, ReentrancyGuard {... */\n  mstore(0x40, 0x80)\n    /* \"contracts/Dividends/SwapRewardsChef.sol\":1399:1405  403200 */\n  0x062700\n    /* \"contracts/Dividends/SwapRewardsChef.sol\":1359:1405  uint256 public denominationEmitAmount = 403200 */\n  0x05\n  sstore\n    /* \"contracts/Dividends/SwapRewardsChef.sol\":1455:1456  0 */\n  0x00\n    /* \"contracts/Dividends/SwapRewardsChef.sol\":1420:1456  uint256 public minimumEmitAmount = 0 */\n  0x06\n  sstore\n    /* \"contracts/Dividends/SwapRewardsChef.sol\":1520:1527  1 ether */\n  0x0de0b6b3a7640000\n    /* \"contracts/Dividends/SwapRewardsChef.sol\":1485:1527  uint256 public maximumEmitAmount = 1 ether */\n  0x07\n  sstore\n    /* \"contracts/Dividends/SwapRewardsChef.sol\":1833:1834  0 */\n  0x00\n    /* \"contracts/Dividends/SwapRewardsChef.sol\":1800:1834  uint256 public totalAllocPoint = 0 */\n  0x0a\n  sstore\n    /* \"contracts/Dividends/SwapRewardsChef.sol\":1950:1951  0 */\n  0x00\n    /* \"contracts/Dividends/SwapRewardsChef.sol\":1916:1951  uint256 public remainingRewards = 0 */\n  0x0c\n  sstore\n    /* \"contracts/Dividends/SwapRewardsChef.sol\":2420:2875  constructor(IERC20 _stakeToken, IERC20 _rewardToken, address _wrappedNativeAddress) public {... */\n  callvalue\n  dup1\n  iszero\n  tag_1\n  jumpi\n  0x00\n  dup1\n  revert\ntag_1:\n  pop\n  mload(0x40)\n  sub(codesize, bytecodeSize)\n  dup1\n  bytecodeSize\n  dup4\n  codecopy\n  dup2\n  dup2\n  add\n  0x40\n  mstore\n  0x60\n  dup2\n  lt\n  iszero\n  tag_2\n  jumpi\n  0x00\n  dup1\n  revert\ntag_2:\n  dup2\n  add\n  swap1\n  dup1\n  dup1\n  mload\n  swap1\n  0x20\n  add\n  swap1\n  swap3\n  swap2\n  swap1\n  dup1\n  mload\n  swap1\n  0x20\n  add\n  swap1\n  swap3\n  swap2\n  swap1\n  dup1\n  mload\n  swap1\n  0x20\n  add\n  swap1\n  swap3\n  swap2\n  swap1\n  pop\n  pop\n  pop\n    /* \"@openzeppelin/contracts/access/Ownable.sol\":884:901  address msgSender */\n  0x00\n    /* \"@openzeppelin/contracts/access/Ownable.sol\":904:916  _msgSender() */\n  tag_7\n    /* \"@openzeppelin/contracts/access/Ownable.sol\":904:914  _msgSender */\n  shl(0x20, tag_8)\n    /* \"@openzeppelin/contracts/access/Ownable.sol\":904:916  _msgSender() */\n  0x20\n  shr\n  jump\t// in\ntag_7:\n    /* \"@openzeppelin/contracts/access/Ownable.sol\":884:916  address msgSender = _msgSender() */\n  swap1\n  pop\n    /* \"@openzeppelin/contracts/access/Ownable.sol\":935:944  msgSender */\n  dup1\n    /* \"@openzeppelin/contracts/access/Ownable.sol\":926:932  _owner */\n  0x00\n  dup1\n    /* \"@openzeppelin/contracts/access/Ownable.sol\":926:944  _owner = msgSender */\n  0x0100\n  exp\n  dup2\n  sload\n  dup2\n  0xffffffffffffffffffffffffffffffffffffffff\n  mul\n  not\n  and\n  swap1\n  dup4\n  0xffffffffffffffffffffffffffffffffffffffff\n  and\n  mul\n  or\n  swap1\n  sstore\n  pop\n    /* \"@openzeppelin/contracts/access/Ownable.sol\":992:1001  msgSender */\n  dup1\n    /* \"@openzeppelin/contracts/access/Ownable.sol\":959:1002  OwnershipTransferred(address(0), msgSender) */\n  0xffffffffffffffffffffffffffffffffffffffff\n  and\n    /* \"@openzeppelin/contracts/access/Ownable.sol\":988:989  0 */\n  0x00\n    /* \"@openzeppelin/contracts/access/Ownable.sol\":959:1002  OwnershipTransferred(address(0), msgSender) */\n  0xffffffffffffffffffffffffffffffffffffffff\n  and\n  0x8be0079c531659141344cd1fd0a4f28419497f9722a3daafe3b4186f6b6457e0\n  mload(0x40)\n  mload(0x40)\n  dup1\n  swap2\n  sub\n  swap1\n  log3\n    /* \"@openzeppelin/contracts/access/Ownable.sol\":850:1009  constructor () internal {... */\n  pop\n    /* \"@openzeppelin/contracts/utils/ReentrancyGuard.sol\":1645:1646  1 */\n  0x01\n    /* \"@openzeppelin/contracts/utils/ReentrancyGuard.sol\":1760:1767  _status */\n  dup1\n    /* \"@openzeppelin/contracts/utils/ReentrancyGuard.sol\":1760:1782  _status = _NOT_ENTERED */\n  dup2\n  swap1\n  sstore\n  pop\n    /* \"contracts/Dividends/SwapRewardsChef.sol\":2535:2547  _rewardToken */\n  dup2\n    /* \"contracts/Dividends/SwapRewardsChef.sol\":2521:2532  rewardToken */\n  0x03\n  0x00\n    /* \"contracts/Dividends/SwapRewardsChef.sol\":2521:2547  rewardToken = _rewardToken */\n  0x0100\n  exp\n  dup2\n  sload\n  dup2\n  0xffffffffffffffffffffffffffffffffffffffff\n  mul\n  not\n  and\n  swap1\n  dup4\n  0xffffffffffffffffffffffffffffffffffffffff\n  and\n  mul\n  or\n  swap1\n  sstore\n  pop\n    /* \"contracts/Dividends/SwapRewardsChef.sol\":2558:2566  poolInfo */\n  0x08\n    /* \"contracts/Dividends/SwapRewardsChef.sol\":2572:2772  PoolInfo({... */\n  mload(0x40)\n  dup1\n  0xa0\n  add\n  0x40\n  mstore\n  dup1\n    /* \"contracts/Dividends/SwapRewardsChef.sol\":2605:2616  _stakeToken */\n  dup6\n    /* \"contracts/Dividends/SwapRewardsChef.sol\":2572:2772  PoolInfo({... */\n  0xffffffffffffffffffffffffffffffffffffffff\n  and\n  dup2\n  mstore\n  0x20\n  add\n    /* \"contracts/Dividends/SwapRewardsChef.sol\":2643:2646  100 */\n  0x64\n    /* \"contracts/Dividends/SwapRewardsChef.sol\":2572:2772  PoolInfo({... */\n  dup2\n  mstore\n  0x20\n  add\n    /* \"contracts/Dividends/SwapRewardsChef.sol\":2678:2688  startBlock */\n  sload(0x0b)\n    /* \"contracts/Dividends/SwapRewardsChef.sol\":2572:2772  PoolInfo({... */\n  dup2\n  mstore\n  0x20\n  add\n    /* \"contracts/Dividends/SwapRewardsChef.sol\":2722:2723  0 */\n  0x00\n    /* \"contracts/Dividends/SwapRewardsChef.sol\":2572:2772  PoolInfo({... */\n  dup2\n  mstore\n  0x20\n  add\n    /* \"contracts/Dividends/SwapRewardsChef.sol\":2760:2761  0 */\n  0x00\n    /* \"contracts/Dividends/SwapRewardsChef.sol\":2572:2772  PoolInfo({... */\n  dup2\n  mstore\n  pop\n    /* \"contracts/Dividends/SwapRewardsChef.sol\":2558:2773  poolInfo.push(PoolInfo({... */\n  swap1\n  dup1\n  0x01\n  dup2\n  sload\n  add\n  dup1\n  dup3\n  sstore\n  dup1\n  swap2\n  pop\n  pop\n  0x01\n  swap1\n  sub\n  swap1\n  0x00\n  mstore\n  keccak256(0x00, 0x20)\n  swap1\n  0x05\n  mul\n  add\n  0x00\n  swap1\n  swap2\n  swap1\n  swap2\n  swap1\n  swap2\n  pop\n  0x00\n  dup3\n  add\n  mload\n  dup2\n  0x00\n  add\n  exp(0x0100, 0x00)\n  dup2\n  sload\n  dup2\n  0xffffffffffffffffffffffffffffffffffffffff\n  mul\n  not\n  and\n  swap1\n  dup4\n  0xffffffffffffffffffffffffffffffffffffffff\n  and\n  mul\n  or\n  swap1\n  sstore\n  pop\n  0x20\n  dup3\n  add\n  mload\n  dup2\n  0x01\n  add\n  sstore\n  0x40\n  dup3\n  add\n  mload\n  dup2\n  0x02\n  add\n  sstore\n  0x60\n  dup3\n  add\n  mload\n  dup2\n  0x03\n  add\n  sstore\n  0x80\n  dup3\n  add\n  mload\n  dup2\n  0x04\n  add\n  sstore\n  pop\n  pop\n    /* \"contracts/Dividends/SwapRewardsChef.sol\":2807:2828  _wrappedNativeAddress */\n  dup1\n    /* \"contracts/Dividends/SwapRewardsChef.sol\":2784:2804  wrappedNativeAddress */\n  0x02\n  0x00\n    /* \"contracts/Dividends/SwapRewardsChef.sol\":2784:2828  wrappedNativeAddress = _wrappedNativeAddress */\n  0x0100\n  exp\n  dup2\n  sload\n  dup2\n  0xffffffffffffffffffffffffffffffffffffffff\n  mul\n  not\n  and\n  swap1\n  dup4\n  0xffffffffffffffffffffffffffffffffffffffff\n  and\n  mul\n  or\n  swap1\n  sstore\n  pop\n    /* \"contracts/Dividends/SwapRewardsChef.sol\":2865:2868  100 */\n  0x64\n    /* \"contracts/Dividends/SwapRewardsChef.sol\":2847:2862  totalAllocPoint */\n  0x0a\n    /* \"contracts/Dividends/SwapRewardsChef.sol\":2847:2868  totalAllocPoint = 100 */\n  dup2\n  swap1\n  sstore\n  pop\n    /* \"contracts/Dividends/SwapRewardsChef.sol\":2420:2875  constructor(IERC20 _stakeToken, IERC20 _rewardToken, address _wrappedNativeAddress) public {... */\n  pop\n  pop\n  pop\n    /* \"contracts/Dividends/SwapRewardsChef.sol\":432:10681  contract SwapRewardsChef is Ownable, ReentrancyGuard {... */\n  jump(tag_12)\n    /* \"@openzeppelin/contracts/utils/Context.sol\":598:702  function _msgSender() internal view virtual returns (address payable) {... */\ntag_8:\n    /* \"@openzeppelin/contracts/utils/Context.sol\":651:666  address payable */\n  0x00\n    /* \"@openzeppelin/contracts/utils/Context.sol\":685:695  msg.sender */\n  caller\n    /* \"@openzeppelin/contracts/utils/Context.sol\":678:695  return msg.sender */\n  swap1\n  pop\n    /* \"@openzeppelin/contracts/utils/Context.sol\":598:702  function _msgSender() internal view virtual returns (address payable) {... */\n  swap1\n  jump\t// out\n    /* \"contracts/Dividends/SwapRewardsChef.sol\":432:10681  contract SwapRewardsChef is Ownable, ReentrancyGuard {... */\ntag_12:\n  dataSize(sub_0)\n  dup1\n  dataOffset(sub_0)\n  0x00\n  codecopy\n  0x00\n  return\nstop\n\nsub_0: assembly {\n        /* \"contracts/Dividends/SwapRewardsChef.sol\":432:10681  contract SwapRewardsChef is Ownable, ReentrancyGuard {... */\n      mstore(0x40, 0x80)\n      jumpi(tag_1, lt(calldatasize, 0x04))\n      shr(0xe0, calldataload(0x00))\n      dup1\n      0x84ed8c56\n      gt\n      tag_26\n      jumpi\n      dup1\n      0xdd599844\n      gt\n      tag_27\n      jumpi\n      dup1\n      0xdd599844\n      eq\n      tag_20\n      jumpi\n      dup1\n      0xe3161ddd\n      eq\n      tag_21\n      jumpi\n      dup1\n      0xeebf65f3\n      eq\n      tag_22\n      jumpi\n      dup1\n      0xf2fde38b\n      eq\n      tag_23\n      jumpi\n      dup1\n      0xf7c618c1\n      eq\n      tag_24\n      jumpi\n      dup1\n      0xfbe1ebec\n      eq\n      tag_25\n      jumpi\n      jump(tag_2)\n    tag_27:\n      dup1\n      0x84ed8c56\n      eq\n      tag_14\n      jumpi\n      dup1\n      0x8b1c0d1b\n      eq\n      tag_15\n      jumpi\n      dup1\n      0x8da5cb5b\n      eq\n      tag_16\n      jumpi\n      dup1\n      0xafb62e56\n      eq\n      tag_17\n      jumpi\n      dup1\n      0xb6b55f25\n      eq\n      tag_18\n      jumpi\n      dup1\n      0xdb2e21bc\n      eq\n      tag_19\n      jumpi\n      jump(tag_2)\n    tag_26:\n      dup1\n      0x46f0cfba\n      gt\n      tag_28\n      jumpi\n      dup1\n      0x46f0cfba\n      eq\n      tag_8\n      jumpi\n      dup1\n      0x4707d000\n      eq\n      tag_9\n      jumpi\n      dup1\n      0x48cd4cb1\n      eq\n      tag_10\n      jumpi\n      dup1\n      0x5eeb6710\n      eq\n      tag_11\n      jumpi\n      dup1\n      0x715018a6\n      eq\n      tag_12\n      jumpi\n      dup1\n      0x76ab8136\n      eq\n      tag_13\n      jumpi\n      jump(tag_2)\n    tag_28:\n      dup1\n      0x1526fe27\n      eq\n      tag_3\n      jumpi\n      dup1\n      0x17caf6f1\n      eq\n      tag_4\n      jumpi\n      dup1\n      0x1959a002\n      eq\n      tag_5\n      jumpi\n      dup1\n      0x2e1a7d4d\n      eq\n      tag_6\n      jumpi\n      dup1\n      0x31d7a262\n      eq\n      tag_7\n      jumpi\n      jump(tag_2)\n    tag_1:\n      jumpi(tag_2, calldatasize)\n      stop\n    tag_2:\n      0x00\n      dup1\n      revert\n        /* \"contracts/Dividends/SwapRewardsChef.sol\":1583:1609  PoolInfo[] public poolInfo */\n    tag_3:\n      callvalue\n      dup1\n      iszero\n      tag_31\n      jumpi\n      0x00\n      dup1\n      revert\n    tag_31:\n      pop\n      tag_32\n      0x04\n      dup1\n      calldatasize\n      sub\n      0x20\n      dup2\n      lt\n      iszero\n      tag_33\n      jumpi\n      0x00\n      dup1\n      revert\n    tag_33:\n      dup2\n      add\n      swap1\n      dup1\n      dup1\n      calldataload\n      swap1\n      0x20\n      add\n      swap1\n      swap3\n      swap2\n      swap1\n      pop\n      pop\n      pop\n      tag_34\n      jump\t// in\n    tag_32:\n      mload(0x40)\n      dup1\n      dup7\n      0xffffffffffffffffffffffffffffffffffffffff\n      and\n      dup2\n      mstore\n      0x20\n      add\n      dup6\n      dup2\n      mstore\n      0x20\n      add\n      dup5\n      dup2\n      mstore\n      0x20\n      add\n      dup4\n      dup2\n      mstore\n      0x20\n      add\n      dup3\n      dup2\n      mstore\n      0x20\n      add\n      swap6\n      pop\n      pop\n      pop\n      pop\n      pop\n      pop\n      mload(0x40)\n      dup1\n      swap2\n      sub\n      swap1\n      return\n        /* \"contracts/Dividends/SwapRewardsChef.sol\":1800:1834  uint256 public totalAllocPoint = 0 */\n    tag_4:\n      callvalue\n      dup1\n      iszero\n      tag_35\n      jumpi\n      0x00\n      dup1\n      revert\n    tag_35:\n      pop\n      tag_36\n      tag_37\n      jump\t// in\n    tag_36:\n      mload(0x40)\n      dup1\n      dup3\n      dup2\n      mstore\n      0x20\n      add\n      swap2\n      pop\n      pop\n      mload(0x40)\n      dup1\n      swap2\n      sub\n      swap1\n      return\n        /* \"contracts/Dividends/SwapRewardsChef.sol\":1663:1707  mapping(address => UserInfo) public userInfo */\n    tag_5:\n      callvalue\n      dup1\n      iszero\n      tag_38\n      jumpi\n      0x00\n      dup1\n      revert\n    tag_38:\n      pop\n      tag_39\n      0x04\n      dup1\n      calldatasize\n      sub\n      0x20\n      dup2\n      lt\n      iszero\n      tag_40\n      jumpi\n      0x00\n      dup1\n      revert\n    tag_40:\n      dup2\n      add\n      swap1\n      dup1\n      dup1\n      calldataload\n      0xffffffffffffffffffffffffffffffffffffffff\n      and\n      swap1\n      0x20\n      add\n      swap1\n      swap3\n      swap2\n      swap1\n      pop\n      pop\n      pop\n      tag_41\n      jump\t// in\n    tag_39:\n      mload(0x40)\n      dup1\n      dup4\n      dup2\n      mstore\n      0x20\n      add\n      dup3\n      dup2\n      mstore\n      0x20\n      add\n      swap3\n      pop\n      pop\n      pop\n      mload(0x40)\n      dup1\n      swap2\n      sub\n      swap1\n      return\n        /* \"contracts/Dividends/SwapRewardsChef.sol\":6678:7509  function withdraw(uint256 _amount) public nonReentrant {... */\n    tag_6:\n      callvalue\n      dup1\n      iszero\n      tag_42\n      jumpi\n      0x00\n      dup1\n      revert\n    tag_42:\n      pop\n      tag_43\n      0x04\n      dup1\n      calldatasize\n      sub\n      0x20\n      dup2\n      lt\n      iszero\n      tag_44\n      jumpi\n      0x00\n      dup1\n      revert\n    tag_44:\n      dup2\n      add\n      swap1\n      dup1\n      dup1\n      calldataload\n      swap1\n      0x20\n      add\n      swap1\n      swap3\n      swap2\n      swap1\n      pop\n      pop\n      pop\n      tag_45\n      jump\t// in\n    tag_43:\n      stop\n        /* \"contracts/Dividends/SwapRewardsChef.sol\":3131:4066  function pendingRewards(address _user) external view returns (uint256) {... */\n    tag_7:\n      callvalue\n      dup1\n      iszero\n      tag_46\n      jumpi\n      0x00\n      dup1\n      revert\n    tag_46:\n      pop\n      tag_47\n      0x04\n      dup1\n      calldatasize\n      sub\n      0x20\n      dup2\n      lt\n      iszero\n      tag_48\n      jumpi\n      0x00\n      dup1\n      revert\n    tag_48:\n      dup2\n      add\n      swap1\n      dup1\n      dup1\n      calldataload\n      0xffffffffffffffffffffffffffffffffffffffff\n      and\n      swap1\n      0x20\n      add\n      swap1\n      swap3\n      swap2\n      swap1\n      pop\n      pop\n      pop\n      tag_49\n      jump\t// in\n    tag_47:\n      mload(0x40)\n      dup1\n      dup3\n      dup2\n      mstore\n      0x20\n      add\n      swap2\n      pop\n      pop\n      mload(0x40)\n      dup1\n      swap2\n      sub\n      swap1\n      return\n        /* \"contracts/Dividends/SwapRewardsChef.sol\":1359:1405  uint256 public denominationEmitAmount = 403200 */\n    tag_8:\n      callvalue\n      dup1\n      iszero\n      tag_50\n      jumpi\n      0x00\n      dup1\n      revert\n    tag_50:\n      pop\n      tag_51\n      tag_52\n      jump\t// in\n    tag_51:\n      mload(0x40)\n      dup1\n      dup3\n      dup2\n      mstore\n      0x20\n      add\n      swap2\n      pop\n      pop\n      mload(0x40)\n      dup1\n      swap2\n      sub\n      swap1\n      return\n        /* \"contracts/Dividends/SwapRewardsChef.sol\":10405:10679  function rescueToken(address token, address addressForReceive) external onlyOwner {... */\n    tag_9:\n      callvalue\n      dup1\n      iszero\n      tag_53\n      jumpi\n      0x00\n      dup1\n      revert\n    tag_53:\n      pop\n      tag_54\n      0x04\n      dup1\n      calldatasize\n      sub\n      0x40\n      dup2\n      lt\n      iszero\n      tag_55\n      jumpi\n      0x00\n      dup1\n      revert\n    tag_55:\n      dup2\n      add\n      swap1\n      dup1\n      dup1\n      calldataload\n      0xffffffffffffffffffffffffffffffffffffffff\n      and\n      swap1\n      0x20\n      add\n      swap1\n      swap3\n      swap2\n      swap1\n      dup1\n      calldataload\n      0xffffffffffffffffffffffffffffffffffffffff\n      and\n      swap1\n      0x20\n      add\n      swap1\n      swap3\n      swap2\n      swap1\n      pop\n      pop\n      pop\n      tag_56\n      jump\t// in\n    tag_54:\n      stop\n        /* \"contracts/Dividends/SwapRewardsChef.sol\":1884:1909  uint256 public startBlock */\n    tag_10:\n      callvalue\n      dup1\n      iszero\n      tag_57\n      jumpi\n      0x00\n      dup1\n      revert\n    tag_57:\n      pop\n      tag_58\n      tag_59\n      jump\t// in\n    tag_58:\n      mload(0x40)\n      dup1\n      dup3\n      dup2\n      mstore\n      0x20\n      add\n      swap2\n      pop\n      pop\n      mload(0x40)\n      dup1\n      swap2\n      sub\n      swap1\n      return\n        /* \"contracts/Dividends/SwapRewardsChef.sol\":1297:1327  uint256 public rewardsPerBlock */\n    tag_11:\n      callvalue\n      dup1\n      iszero\n      tag_60\n      jumpi\n      0x00\n      dup1\n      revert\n    tag_60:\n      pop\n      tag_61\n      tag_62\n      jump\t// in\n    tag_61:\n      mload(0x40)\n      dup1\n      dup3\n      dup2\n      mstore\n      0x20\n      add\n      swap2\n      pop\n      pop\n      mload(0x40)\n      dup1\n      swap2\n      sub\n      swap1\n      return\n        /* \"@openzeppelin/contracts/access/Ownable.sol\":1717:1862  function renounceOwnership() public virtual onlyOwner {... */\n    tag_12:\n      callvalue\n      dup1\n      iszero\n      tag_63\n      jumpi\n      0x00\n      dup1\n      revert\n    tag_63:\n      pop\n      tag_64\n      tag_65\n      jump\t// in\n    tag_64:\n      stop\n        /* \"contracts/Dividends/SwapRewardsChef.sol\":1160:1195  address public wrappedNativeAddress */\n    tag_13:\n      callvalue\n      dup1\n      iszero\n      tag_66\n      jumpi\n      0x00\n      dup1\n      revert\n    tag_66:\n      pop\n      tag_67\n      tag_68\n      jump\t// in\n    tag_67:\n      mload(0x40)\n      dup1\n      dup3\n      0xffffffffffffffffffffffffffffffffffffffff\n      and\n      dup2\n      mstore\n      0x20\n      add\n      swap2\n      pop\n      pop\n      mload(0x40)\n      dup1\n      swap2\n      sub\n      swap1\n      return\n        /* \"contracts/Dividends/SwapRewardsChef.sol\":5129:5375  function income(uint256 _amount) external nonReentrant {... */\n    tag_14:\n      callvalue\n      dup1\n      iszero\n      tag_69\n      jumpi\n      0x00\n      dup1\n      revert\n    tag_69:\n      pop\n      tag_70\n      0x04\n      dup1\n      calldatasize\n      sub\n      0x20\n      dup2\n      lt\n      iszero\n      tag_71\n      jumpi\n      0x00\n      dup1\n      revert\n    tag_71:\n      dup2\n      add\n      swap1\n      dup1\n      dup1\n      calldataload\n      swap1\n      0x20\n      add\n      swap1\n      swap3\n      swap2\n      swap1\n      pop\n      pop\n      pop\n      tag_72\n      jump\t// in\n    tag_70:\n      stop\n        /* \"contracts/Dividends/SwapRewardsChef.sol\":1485:1527  uint256 public maximumEmitAmount = 1 ether */\n    tag_15:\n      callvalue\n      dup1\n      iszero\n      tag_73\n      jumpi\n      0x00\n      dup1\n      revert\n    tag_73:\n      pop\n      tag_74\n      tag_75\n      jump\t// in\n    tag_74:\n      mload(0x40)\n      dup1\n      dup3\n      dup2\n      mstore\n      0x20\n      add\n      swap2\n      pop\n      pop\n      mload(0x40)\n      dup1\n      swap2\n      sub\n      swap1\n      return\n        /* \"@openzeppelin/contracts/access/Ownable.sol\":1085:1170  function owner() public view virtual returns (address) {... */\n    tag_16:\n      callvalue\n      dup1\n      iszero\n      tag_76\n      jumpi\n      0x00\n      dup1\n      revert\n    tag_76:\n      pop\n      tag_77\n      tag_78\n      jump\t// in\n    tag_77:\n      mload(0x40)\n      dup1\n      dup3\n      0xffffffffffffffffffffffffffffffffffffffff\n      and\n      dup2\n      mstore\n      0x20\n      add\n      swap2\n      pop\n      pop\n      mload(0x40)\n      dup1\n      swap2\n      sub\n      swap1\n      return\n        /* \"contracts/Dividends/SwapRewardsChef.sol\":1916:1951  uint256 public remainingRewards = 0 */\n    tag_17:\n      callvalue\n      dup1\n      iszero\n      tag_79\n      jumpi\n      0x00\n      dup1\n      revert\n    tag_79:\n      pop\n      tag_80\n      tag_81\n      jump\t// in\n    tag_80:\n      mload(0x40)\n      dup1\n      dup3\n      dup2\n      mstore\n      0x20\n      add\n      swap2\n      pop\n      pop\n      mload(0x40)\n      dup1\n      swap2\n      sub\n      swap1\n      return\n        /* \"contracts/Dividends/SwapRewardsChef.sol\":5789:6635  function deposit(uint256 _amount) public nonReentrant {... */\n    tag_18:\n      callvalue\n      dup1\n      iszero\n      tag_82\n      jumpi\n      0x00\n      dup1\n      revert\n    tag_82:\n      pop\n      tag_83\n      0x04\n      dup1\n      calldatasize\n      sub\n      0x20\n      dup2\n      lt\n      iszero\n      tag_84\n      jumpi\n      0x00\n      dup1\n      revert\n    tag_84:\n      dup2\n      add\n      swap1\n      dup1\n      dup1\n      calldataload\n      swap1\n      0x20\n      add\n      swap1\n      swap3\n      swap2\n      swap1\n      pop\n      pop\n      pop\n      tag_85\n      jump\t// in\n    tag_83:\n      stop\n        /* \"contracts/Dividends/SwapRewardsChef.sol\":7577:8006  function emergencyWithdraw() public nonReentrant {... */\n    tag_19:\n      callvalue\n      dup1\n      iszero\n      tag_86\n      jumpi\n      0x00\n      dup1\n      revert\n    tag_86:\n      pop\n      tag_87\n      tag_88\n      jump\t// in\n    tag_87:\n      stop\n        /* \"contracts/Dividends/SwapRewardsChef.sol\":1420:1456  uint256 public minimumEmitAmount = 0 */\n    tag_20:\n      callvalue\n      dup1\n      iszero\n      tag_89\n      jumpi\n      0x00\n      dup1\n      revert\n    tag_89:\n      pop\n      tag_90\n      tag_91\n      jump\t// in\n    tag_90:\n      mload(0x40)\n      dup1\n      dup3\n      dup2\n      mstore\n      0x20\n      add\n      swap2\n      pop\n      pop\n      mload(0x40)\n      dup1\n      swap2\n      sub\n      swap1\n      return\n        /* \"contracts/Dividends/SwapRewardsChef.sol\":4139:5123  function updatePool() public {... */\n    tag_21:\n      callvalue\n      dup1\n      iszero\n      tag_92\n      jumpi\n      0x00\n      dup1\n      revert\n    tag_92:\n      pop\n      tag_93\n      tag_94\n      jump\t// in\n    tag_93:\n      stop\n        /* \"contracts/Dividends/SwapRewardsChef.sol\":9064:9450  function updateEmissionSettings(uint256 denomination, uint256 minimum, uint256 maximum) external onlyOwner {... */\n    tag_22:\n      callvalue\n      dup1\n      iszero\n      tag_95\n      jumpi\n      0x00\n      dup1\n      revert\n    tag_95:\n      pop\n      tag_96\n      0x04\n      dup1\n      calldatasize\n      sub\n      0x60\n      dup2\n      lt\n      iszero\n      tag_97\n      jumpi\n      0x00\n      dup1\n      revert\n    tag_97:\n      dup2\n      add\n      swap1\n      dup1\n      dup1\n      calldataload\n      swap1\n      0x20\n      add\n      swap1\n      swap3\n      swap2\n      swap1\n      dup1\n      calldataload\n      swap1\n      0x20\n      add\n      swap1\n      swap3\n      swap2\n      swap1\n      dup1\n      calldataload\n      swap1\n      0x20\n      add\n      swap1\n      swap3\n      swap2\n      swap1\n      pop\n      pop\n      pop\n      tag_98\n      jump\t// in\n    tag_96:\n      stop\n        /* \"@openzeppelin/contracts/access/Ownable.sol\":2011:2251  function transferOwnership(address newOwner) public virtual onlyOwner {... */\n    tag_23:\n      callvalue\n      dup1\n      iszero\n      tag_99\n      jumpi\n      0x00\n      dup1\n      revert\n    tag_99:\n      pop\n      tag_100\n      0x04\n      dup1\n      calldatasize\n      sub\n      0x20\n      dup2\n      lt\n      iszero\n      tag_101\n      jumpi\n      0x00\n      dup1\n      revert\n    tag_101:\n      dup2\n      add\n      swap1\n      dup1\n      dup1\n      calldataload\n      0xffffffffffffffffffffffffffffffffffffffff\n      and\n      swap1\n      0x20\n      add\n      swap1\n      swap3\n      swap2\n      swap1\n      pop\n      pop\n      pop\n      tag_102\n      jump\t// in\n    tag_100:\n      stop\n        /* \"contracts/Dividends/SwapRewardsChef.sol\":1226:1251  IERC20 public rewardToken */\n    tag_24:\n      callvalue\n      dup1\n      iszero\n      tag_103\n      jumpi\n      0x00\n      dup1\n      revert\n    tag_103:\n      pop\n      tag_104\n      tag_105\n      jump\t// in\n    tag_104:\n      mload(0x40)\n      dup1\n      dup3\n      0xffffffffffffffffffffffffffffffffffffffff\n      and\n      dup2\n      mstore\n      0x20\n      add\n      swap2\n      pop\n      pop\n      mload(0x40)\n      dup1\n      swap2\n      sub\n      swap1\n      return\n        /* \"contracts/Dividends/SwapRewardsChef.sol\":9689:10399  function harvestFor(address _user) public nonReentrant {... */\n    tag_25:\n      callvalue\n      dup1\n      iszero\n      tag_106\n      jumpi\n      0x00\n      dup1\n      revert\n    tag_106:\n      pop\n      tag_107\n      0x04\n      dup1\n      calldatasize\n      sub\n      0x20\n      dup2\n      lt\n      iszero\n      tag_108\n      jumpi\n      0x00\n      dup1\n      revert\n    tag_108:\n      dup2\n      add\n      swap1\n      dup1\n      dup1\n      calldataload\n      0xffffffffffffffffffffffffffffffffffffffff\n      and\n      swap1\n      0x20\n      add\n      swap1\n      swap3\n      swap2\n      swap1\n      pop\n      pop\n      pop\n      tag_109\n      jump\t// in\n    tag_107:\n      stop\n        /* \"contracts/Dividends/SwapRewardsChef.sol\":1583:1609  PoolInfo[] public poolInfo */\n    tag_34:\n      0x08\n      dup2\n      dup2\n      sload\n      dup2\n      lt\n      tag_110\n      jumpi\n      invalid\n    tag_110:\n      swap1\n      0x00\n      mstore\n      keccak256(0x00, 0x20)\n      swap1\n      0x05\n      mul\n      add\n      0x00\n      swap2\n      pop\n      swap1\n      pop\n      dup1\n      0x00\n      add\n      0x00\n      swap1\n      sload\n      swap1\n      0x0100\n      exp\n      swap1\n      div\n      0xffffffffffffffffffffffffffffffffffffffff\n      and\n      swap1\n      dup1\n      0x01\n      add\n      sload\n      swap1\n      dup1\n      0x02\n      add\n      sload\n      swap1\n      dup1\n      0x03\n      add\n      sload\n      swap1\n      dup1\n      0x04\n      add\n      sload\n      swap1\n      pop\n      dup6\n      jump\t// out\n        /* \"contracts/Dividends/SwapRewardsChef.sol\":1800:1834  uint256 public totalAllocPoint = 0 */\n    tag_37:\n      sload(0x0a)\n      dup2\n      jump\t// out\n        /* \"contracts/Dividends/SwapRewardsChef.sol\":1663:1707  mapping(address => UserInfo) public userInfo */\n    tag_41:\n      mstore(0x20, 0x09)\n      dup1\n      0x00\n      mstore\n      keccak256(0x00, 0x40)\n      0x00\n      swap2\n      pop\n      swap1\n      pop\n      dup1\n      0x00\n      add\n      sload\n      swap1\n      dup1\n      0x01\n      add\n      sload\n      swap1\n      pop\n      dup3\n      jump\t// out\n        /* \"contracts/Dividends/SwapRewardsChef.sol\":6678:7509  function withdraw(uint256 _amount) public nonReentrant {... */\n    tag_45:\n        /* \"@openzeppelin/contracts/utils/ReentrancyGuard.sol\":1688:1689  2 */\n      0x02\n        /* \"@openzeppelin/contracts/utils/ReentrancyGuard.sol\":2277:2284  _status */\n      sload(0x01)\n        /* \"@openzeppelin/contracts/utils/ReentrancyGuard.sol\":2277:2296  _status != _ENTERED */\n      eq\n      iszero\n        /* \"@openzeppelin/contracts/utils/ReentrancyGuard.sol\":2269:2332  require(_status != _ENTERED, \"ReentrancyGuard: reentrant call\") */\n      tag_113\n      jumpi\n      mload(0x40)\n      0x08c379a000000000000000000000000000000000000000000000000000000000\n      dup2\n      mstore\n      0x04\n      add\n      dup1\n      dup1\n      0x20\n      add\n      dup3\n      dup2\n      sub\n      dup3\n      mstore\n      0x1f\n      dup2\n      mstore\n      0x20\n      add\n      dup1\n      0x5265656e7472616e637947756172643a207265656e7472616e742063616c6c00\n      dup2\n      mstore\n      pop\n      0x20\n      add\n      swap2\n      pop\n      pop\n      mload(0x40)\n      dup1\n      swap2\n      sub\n      swap1\n      revert\n    tag_113:\n        /* \"@openzeppelin/contracts/utils/ReentrancyGuard.sol\":1688:1689  2 */\n      0x02\n        /* \"@openzeppelin/contracts/utils/ReentrancyGuard.sol\":2407:2414  _status */\n      0x01\n        /* \"@openzeppelin/contracts/utils/ReentrancyGuard.sol\":2407:2425  _status = _ENTERED */\n      dup2\n      swap1\n      sstore\n      pop\n        /* \"contracts/Dividends/SwapRewardsChef.sol\":6743:6764  PoolInfo storage pool */\n      0x00\n        /* \"contracts/Dividends/SwapRewardsChef.sol\":6767:6775  poolInfo */\n      0x08\n        /* \"contracts/Dividends/SwapRewardsChef.sol\":6776:6777  0 */\n      0x00\n        /* \"contracts/Dividends/SwapRewardsChef.sol\":6767:6778  poolInfo[0] */\n      dup2\n      sload\n      dup2\n      lt\n      tag_115\n      jumpi\n      invalid\n    tag_115:\n      swap1\n      0x00\n      mstore\n      keccak256(0x00, 0x20)\n      swap1\n      0x05\n      mul\n      add\n        /* \"contracts/Dividends/SwapRewardsChef.sol\":6743:6778  PoolInfo storage pool = poolInfo[0] */\n      swap1\n      pop\n        /* \"contracts/Dividends/SwapRewardsChef.sol\":6788:6809  UserInfo storage user */\n      0x00\n        /* \"contracts/Dividends/SwapRewardsChef.sol\":6812:6820  userInfo */\n      0x09\n        /* \"contracts/Dividends/SwapRewardsChef.sol\":6812:6832  userInfo[msg.sender] */\n      0x00\n        /* \"contracts/Dividends/SwapRewardsChef.sol\":6821:6831  msg.sender */\n      caller\n        /* \"contracts/Dividends/SwapRewardsChef.sol\":6812:6832  userInfo[msg.sender] */\n      0xffffffffffffffffffffffffffffffffffffffff\n      and\n      0xffffffffffffffffffffffffffffffffffffffff\n      and\n      dup2\n      mstore\n      0x20\n      add\n      swap1\n      dup2\n      mstore\n      0x20\n      add\n      0x00\n      keccak256\n        /* \"contracts/Dividends/SwapRewardsChef.sol\":6788:6832  UserInfo storage user = userInfo[msg.sender] */\n      swap1\n      pop\n        /* \"contracts/Dividends/SwapRewardsChef.sol\":6865:6872  _amount */\n      dup3\n        /* \"contracts/Dividends/SwapRewardsChef.sol\":6850:6854  user */\n      dup2\n        /* \"contracts/Dividends/SwapRewardsChef.sol\":6850:6861  user.amount */\n      0x00\n      add\n      sload\n        /* \"contracts/Dividends/SwapRewardsChef.sol\":6850:6872  user.amount >= _amount */\n      lt\n      iszero\n        /* \"contracts/Dividends/SwapRewardsChef.sol\":6842:6895  require(user.amount >= _amount, \"withdraw: not good\") */\n      tag_117\n      jumpi\n      mload(0x40)\n      0x08c379a000000000000000000000000000000000000000000000000000000000\n      dup2\n      mstore\n      0x04\n      add\n      dup1\n      dup1\n      0x20\n      add\n      dup3\n      dup2\n      sub\n      dup3\n      mstore\n      0x12\n      dup2\n      mstore\n      0x20\n      add\n      dup1\n      0x77697468647261773a206e6f7420676f6f640000000000000000000000000000\n      dup2\n      mstore\n      pop\n      0x20\n      add\n      swap2\n      pop\n      pop\n      mload(0x40)\n      dup1\n      swap2\n      sub\n      swap1\n      revert\n    tag_117:\n        /* \"contracts/Dividends/SwapRewardsChef.sol\":6905:6917  updatePool() */\n      tag_118\n        /* \"contracts/Dividends/SwapRewardsChef.sol\":6905:6915  updatePool */\n      tag_94\n        /* \"contracts/Dividends/SwapRewardsChef.sol\":6905:6917  updatePool() */\n      jump\t// in\n    tag_118:\n        /* \"contracts/Dividends/SwapRewardsChef.sol\":6927:6942  uint256 pending */\n      0x00\n        /* \"contracts/Dividends/SwapRewardsChef.sol\":6945:7015  user.amount.mul(pool.accRewardPerShare).div(1e18).sub(user.rewardDebt) */\n      tag_119\n        /* \"contracts/Dividends/SwapRewardsChef.sol\":6999:7003  user */\n      dup3\n        /* \"contracts/Dividends/SwapRewardsChef.sol\":6999:7014  user.rewardDebt */\n      0x01\n      add\n      sload\n        /* \"contracts/Dividends/SwapRewardsChef.sol\":6945:6994  user.amount.mul(pool.accRewardPerShare).div(1e18) */\n      tag_120\n        /* \"contracts/Dividends/SwapRewardsChef.sol\":6989:6993  1e18 */\n      0x0de0b6b3a7640000\n        /* \"contracts/Dividends/SwapRewardsChef.sol\":6945:6984  user.amount.mul(pool.accRewardPerShare) */\n      tag_121\n        /* \"contracts/Dividends/SwapRewardsChef.sol\":6961:6965  pool */\n      dup8\n        /* \"contracts/Dividends/SwapRewardsChef.sol\":6961:6983  pool.accRewardPerShare */\n      0x03\n      add\n      sload\n        /* \"contracts/Dividends/SwapRewardsChef.sol\":6945:6949  user */\n      dup8\n        /* \"contracts/Dividends/SwapRewardsChef.sol\":6945:6956  user.amount */\n      0x00\n      add\n      sload\n        /* \"contracts/Dividends/SwapRewardsChef.sol\":6945:6960  user.amount.mul */\n      tag_122\n      swap1\n        /* \"contracts/Dividends/SwapRewardsChef.sol\":6945:6984  user.amount.mul(pool.accRewardPerShare) */\n      swap2\n      swap1\n      0xffffffff\n      and\n      jump\t// in\n    tag_121:\n        /* \"contracts/Dividends/SwapRewardsChef.sol\":6945:6988  user.amount.mul(pool.accRewardPerShare).div */\n      tag_123\n      swap1\n        /* \"contracts/Dividends/SwapRewardsChef.sol\":6945:6994  user.amount.mul(pool.accRewardPerShare).div(1e18) */\n      swap2\n      swap1\n      0xffffffff\n      and\n      jump\t// in\n    tag_120:\n        /* \"contracts/Dividends/SwapRewardsChef.sol\":6945:6998  user.amount.mul(pool.accRewardPerShare).div(1e18).sub */\n      tag_124\n      swap1\n        /* \"contracts/Dividends/SwapRewardsChef.sol\":6945:7015  user.amount.mul(pool.accRewardPerShare).div(1e18).sub(user.rewardDebt) */\n      swap2\n      swap1\n      0xffffffff\n      and\n      jump\t// in\n    tag_119:\n        /* \"contracts/Dividends/SwapRewardsChef.sol\":6927:7015  uint256 pending = user.amount.mul(pool.accRewardPerShare).div(1e18).sub(user.rewardDebt) */\n      swap1\n      pop\n        /* \"contracts/Dividends/SwapRewardsChef.sol\":7039:7040  0 */\n      0x00\n        /* \"contracts/Dividends/SwapRewardsChef.sol\":7029:7036  pending */\n      dup2\n        /* \"contracts/Dividends/SwapRewardsChef.sol\":7029:7040  pending > 0 */\n      gt\n        /* \"contracts/Dividends/SwapRewardsChef.sol\":7025:7153  if (pending > 0) {... */\n      iszero\n      tag_125\n      jumpi\n        /* \"contracts/Dividends/SwapRewardsChef.sol\":7056:7095  safeRewardTransfer(msg.sender, pending) */\n      tag_126\n        /* \"contracts/Dividends/SwapRewardsChef.sol\":7075:7085  msg.sender */\n      caller\n        /* \"contracts/Dividends/SwapRewardsChef.sol\":7087:7094  pending */\n      dup3\n        /* \"contracts/Dividends/SwapRewardsChef.sol\":7056:7074  safeRewardTransfer */\n      tag_127\n        /* \"contracts/Dividends/SwapRewardsChef.sol\":7056:7095  safeRewardTransfer(msg.sender, pending) */\n      jump\t// in\n    tag_126:\n        /* \"contracts/Dividends/SwapRewardsChef.sol\":7122:7132  msg.sender */\n      caller\n        /* \"contracts/Dividends/SwapRewardsChef.sol\":7114:7142  Harvest(msg.sender, pending) */\n      0xffffffffffffffffffffffffffffffffffffffff\n      and\n      0xc9695243a805adb74c91f28311176c65b417e842d5699893cef56d18bfa48cba\n        /* \"contracts/Dividends/SwapRewardsChef.sol\":7134:7141  pending */\n      dup3\n        /* \"contracts/Dividends/SwapRewardsChef.sol\":7114:7142  Harvest(msg.sender, pending) */\n      mload(0x40)\n      dup1\n      dup3\n      dup2\n      mstore\n      0x20\n      add\n      swap2\n      pop\n      pop\n      mload(0x40)\n      dup1\n      swap2\n      sub\n      swap1\n      log2\n        /* \"contracts/Dividends/SwapRewardsChef.sol\":7025:7153  if (pending > 0) {... */\n    tag_125:\n        /* \"contracts/Dividends/SwapRewardsChef.sol\":7176:7177  0 */\n      0x00\n        /* \"contracts/Dividends/SwapRewardsChef.sol\":7166:7173  _amount */\n      dup5\n        /* \"contracts/Dividends/SwapRewardsChef.sol\":7166:7177  _amount > 0 */\n      gt\n        /* \"contracts/Dividends/SwapRewardsChef.sol\":7162:7382  if (_amount > 0) {... */\n      iszero\n      tag_128\n      jumpi\n        /* \"contracts/Dividends/SwapRewardsChef.sol\":7207:7231  user.amount.sub(_amount) */\n      tag_129\n        /* \"contracts/Dividends/SwapRewardsChef.sol\":7223:7230  _amount */\n      dup5\n        /* \"contracts/Dividends/SwapRewardsChef.sol\":7207:7211  user */\n      dup4\n        /* \"contracts/Dividends/SwapRewardsChef.sol\":7207:7218  user.amount */\n      0x00\n      add\n      sload\n        /* \"contracts/Dividends/SwapRewardsChef.sol\":7207:7222  user.amount.sub */\n      tag_124\n      swap1\n        /* \"contracts/Dividends/SwapRewardsChef.sol\":7207:7231  user.amount.sub(_amount) */\n      swap2\n      swap1\n      0xffffffff\n      and\n      jump\t// in\n    tag_129:\n        /* \"contracts/Dividends/SwapRewardsChef.sol\":7193:7197  user */\n      dup3\n        /* \"contracts/Dividends/SwapRewardsChef.sol\":7193:7204  user.amount */\n      0x00\n      add\n        /* \"contracts/Dividends/SwapRewardsChef.sol\":7193:7231  user.amount = user.amount.sub(_amount) */\n      dup2\n      swap1\n      sstore\n      pop\n        /* \"contracts/Dividends/SwapRewardsChef.sol\":7273:7311  pool.currentDepositAmount.sub(_amount) */\n      tag_130\n        /* \"contracts/Dividends/SwapRewardsChef.sol\":7303:7310  _amount */\n      dup5\n        /* \"contracts/Dividends/SwapRewardsChef.sol\":7273:7277  pool */\n      dup5\n        /* \"contracts/Dividends/SwapRewardsChef.sol\":7273:7298  pool.currentDepositAmount */\n      0x04\n      add\n      sload\n        /* \"contracts/Dividends/SwapRewardsChef.sol\":7273:7302  pool.currentDepositAmount.sub */\n      tag_124\n      swap1\n        /* \"contracts/Dividends/SwapRewardsChef.sol\":7273:7311  pool.currentDepositAmount.sub(_amount) */\n      swap2\n      swap1\n      0xffffffff\n      and\n      jump\t// in\n    tag_130:\n        /* \"contracts/Dividends/SwapRewardsChef.sol\":7245:7249  pool */\n      dup4\n        /* \"contracts/Dividends/SwapRewardsChef.sol\":7245:7270  pool.currentDepositAmount */\n      0x04\n      add\n        /* \"contracts/Dividends/SwapRewardsChef.sol\":7245:7311  pool.currentDepositAmount = pool.currentDepositAmount.sub(_amount) */\n      dup2\n      swap1\n      sstore\n      pop\n        /* \"contracts/Dividends/SwapRewardsChef.sol\":7325:7371  pool.lpToken.safeTransfer(msg.sender, _amount) */\n      tag_131\n        /* \"contracts/Dividends/SwapRewardsChef.sol\":7351:7361  msg.sender */\n      caller\n        /* \"contracts/Dividends/SwapRewardsChef.sol\":7363:7370  _amount */\n      dup6\n        /* \"contracts/Dividends/SwapRewardsChef.sol\":7325:7329  pool */\n      dup6\n        /* \"contracts/Dividends/SwapRewardsChef.sol\":7325:7337  pool.lpToken */\n      0x00\n      add\n      0x00\n      swap1\n      sload\n      swap1\n      0x0100\n      exp\n      swap1\n      div\n      0xffffffffffffffffffffffffffffffffffffffff\n      and\n        /* \"contracts/Dividends/SwapRewardsChef.sol\":7325:7350  pool.lpToken.safeTransfer */\n      0xffffffffffffffffffffffffffffffffffffffff\n      and\n      tag_132\n      swap1\n        /* \"contracts/Dividends/SwapRewardsChef.sol\":7325:7371  pool.lpToken.safeTransfer(msg.sender, _amount) */\n      swap3\n      swap2\n      swap1\n      0xffffffff\n      and\n      jump\t// in\n    tag_131:\n        /* \"contracts/Dividends/SwapRewardsChef.sol\":7162:7382  if (_amount > 0) {... */\n    tag_128:\n        /* \"contracts/Dividends/SwapRewardsChef.sol\":7409:7458  user.amount.mul(pool.accRewardPerShare).div(1e18) */\n      tag_133\n        /* \"contracts/Dividends/SwapRewardsChef.sol\":7453:7457  1e18 */\n      0x0de0b6b3a7640000\n        /* \"contracts/Dividends/SwapRewardsChef.sol\":7409:7448  user.amount.mul(pool.accRewardPerShare) */\n      tag_134\n        /* \"contracts/Dividends/SwapRewardsChef.sol\":7425:7429  pool */\n      dup6\n        /* \"contracts/Dividends/SwapRewardsChef.sol\":7425:7447  pool.accRewardPerShare */\n      0x03\n      add\n      sload\n        /* \"contracts/Dividends/SwapRewardsChef.sol\":7409:7413  user */\n      dup6\n        /* \"contracts/Dividends/SwapRewardsChef.sol\":7409:7420  user.amount */\n      0x00\n      add\n      sload\n        /* \"contracts/Dividends/SwapRewardsChef.sol\":7409:7424  user.amount.mul */\n      tag_122\n      swap1\n        /* \"contracts/Dividends/SwapRewardsChef.sol\":7409:7448  user.amount.mul(pool.accRewardPerShare) */\n      swap2\n      swap1\n      0xffffffff\n      and\n      jump\t// in\n    tag_134:\n        /* \"contracts/Dividends/SwapRewardsChef.sol\":7409:7452  user.amount.mul(pool.accRewardPerShare).div */\n      tag_123\n      swap1\n        /* \"contracts/Dividends/SwapRewardsChef.sol\":7409:7458  user.amount.mul(pool.accRewardPerShare).div(1e18) */\n      swap2\n      swap1\n      0xffffffff\n      and\n      jump\t// in\n    tag_133:\n        /* \"contracts/Dividends/SwapRewardsChef.sol\":7391:7395  user */\n      dup3\n        /* \"contracts/Dividends/SwapRewardsChef.sol\":7391:7406  user.rewardDebt */\n      0x01\n      add\n        /* \"contracts/Dividends/SwapRewardsChef.sol\":7391:7458  user.rewardDebt = user.amount.mul(pool.accRewardPerShare).div(1e18) */\n      dup2\n      swap1\n      sstore\n      pop\n        /* \"contracts/Dividends/SwapRewardsChef.sol\":7482:7492  msg.sender */\n      caller\n        /* \"contracts/Dividends/SwapRewardsChef.sol\":7473:7502  Withdraw(msg.sender, _amount) */\n      0xffffffffffffffffffffffffffffffffffffffff\n      and\n      0x884edad9ce6fa2440d8a54cc123490eb96d2768479d49ff9c7366125a9424364\n        /* \"contracts/Dividends/SwapRewardsChef.sol\":7494:7501  _amount */\n      dup6\n        /* \"contracts/Dividends/SwapRewardsChef.sol\":7473:7502  Withdraw(msg.sender, _amount) */\n      mload(0x40)\n      dup1\n      dup3\n      dup2\n      mstore\n      0x20\n      add\n      swap2\n      pop\n      pop\n      mload(0x40)\n      dup1\n      swap2\n      sub\n      swap1\n      log2\n        /* \"@openzeppelin/contracts/utils/ReentrancyGuard.sol\":2436:2437  _ */\n      pop\n      pop\n      pop\n        /* \"@openzeppelin/contracts/utils/ReentrancyGuard.sol\":1645:1646  1 */\n      0x01\n        /* \"@openzeppelin/contracts/utils/ReentrancyGuard.sol\":2580:2587  _status */\n      dup1\n        /* \"@openzeppelin/contracts/utils/ReentrancyGuard.sol\":2580:2602  _status = _NOT_ENTERED */\n      dup2\n      swap1\n      sstore\n      pop\n        /* \"contracts/Dividends/SwapRewardsChef.sol\":6678:7509  function withdraw(uint256 _amount) public nonReentrant {... */\n      pop\n      jump\t// out\n        /* \"contracts/Dividends/SwapRewardsChef.sol\":3131:4066  function pendingRewards(address _user) external view returns (uint256) {... */\n    tag_49:\n        /* \"contracts/Dividends/SwapRewardsChef.sol\":3193:3200  uint256 */\n      0x00\n        /* \"contracts/Dividends/SwapRewardsChef.sol\":3212:3233  PoolInfo storage pool */\n      dup1\n        /* \"contracts/Dividends/SwapRewardsChef.sol\":3236:3244  poolInfo */\n      0x08\n        /* \"contracts/Dividends/SwapRewardsChef.sol\":3245:3246  0 */\n      0x00\n        /* \"contracts/Dividends/SwapRewardsChef.sol\":3236:3247  poolInfo[0] */\n      dup2\n      sload\n      dup2\n      lt\n      tag_136\n      jumpi\n      invalid\n    tag_136:\n      swap1\n      0x00\n      mstore\n      keccak256(0x00, 0x20)\n      swap1\n      0x05\n      mul\n      add\n        /* \"contracts/Dividends/SwapRewardsChef.sol\":3212:3247  PoolInfo storage pool = poolInfo[0] */\n      swap1\n      pop\n        /* \"contracts/Dividends/SwapRewardsChef.sol\":3257:3278  UserInfo storage user */\n      0x00\n        /* \"contracts/Dividends/SwapRewardsChef.sol\":3281:3289  userInfo */\n      0x09\n        /* \"contracts/Dividends/SwapRewardsChef.sol\":3281:3296  userInfo[_user] */\n      0x00\n        /* \"contracts/Dividends/SwapRewardsChef.sol\":3290:3295  _user */\n      dup6\n        /* \"contracts/Dividends/SwapRewardsChef.sol\":3281:3296  userInfo[_user] */\n      0xffffffffffffffffffffffffffffffffffffffff\n      and\n      0xffffffffffffffffffffffffffffffffffffffff\n      and\n      dup2\n      mstore\n      0x20\n      add\n      swap1\n      dup2\n      mstore\n      0x20\n      add\n      0x00\n      keccak256\n        /* \"contracts/Dividends/SwapRewardsChef.sol\":3257:3296  UserInfo storage user = userInfo[_user] */\n      swap1\n      pop\n        /* \"contracts/Dividends/SwapRewardsChef.sol\":3306:3331  uint256 accRewardPerShare */\n      0x00\n        /* \"contracts/Dividends/SwapRewardsChef.sol\":3334:3338  pool */\n      dup3\n        /* \"contracts/Dividends/SwapRewardsChef.sol\":3334:3356  pool.accRewardPerShare */\n      0x03\n      add\n      sload\n        /* \"contracts/Dividends/SwapRewardsChef.sol\":3306:3356  uint256 accRewardPerShare = pool.accRewardPerShare */\n      swap1\n      pop\n        /* \"contracts/Dividends/SwapRewardsChef.sol\":3366:3382  uint256 lpSupply */\n      0x00\n        /* \"contracts/Dividends/SwapRewardsChef.sol\":3385:3389  pool */\n      dup4\n        /* \"contracts/Dividends/SwapRewardsChef.sol\":3385:3410  pool.currentDepositAmount */\n      0x04\n      add\n      sload\n        /* \"contracts/Dividends/SwapRewardsChef.sol\":3366:3410  uint256 lpSupply = pool.currentDepositAmount */\n      swap1\n      pop\n        /* \"contracts/Dividends/SwapRewardsChef.sol\":3439:3443  pool */\n      dup4\n        /* \"contracts/Dividends/SwapRewardsChef.sol\":3439:3459  pool.lastRewardBlock */\n      0x02\n      add\n      sload\n        /* \"contracts/Dividends/SwapRewardsChef.sol\":3424:3436  block.number */\n      number\n        /* \"contracts/Dividends/SwapRewardsChef.sol\":3424:3459  block.number > pool.lastRewardBlock */\n      gt\n        /* \"contracts/Dividends/SwapRewardsChef.sol\":3424:3476  block.number > pool.lastRewardBlock && lpSupply != 0 */\n      dup1\n      iszero\n      tag_138\n      jumpi\n      pop\n        /* \"contracts/Dividends/SwapRewardsChef.sol\":3475:3476  0 */\n      0x00\n        /* \"contracts/Dividends/SwapRewardsChef.sol\":3463:3471  lpSupply */\n      dup2\n        /* \"contracts/Dividends/SwapRewardsChef.sol\":3463:3476  lpSupply != 0 */\n      eq\n      iszero\n        /* \"contracts/Dividends/SwapRewardsChef.sol\":3424:3476  block.number > pool.lastRewardBlock && lpSupply != 0 */\n    tag_138:\n        /* \"contracts/Dividends/SwapRewardsChef.sol\":3420:3978  if (block.number > pool.lastRewardBlock && lpSupply != 0) {... */\n      iszero\n      tag_139\n      jumpi\n        /* \"contracts/Dividends/SwapRewardsChef.sol\":3578:3579  0 */\n      0x00\n        /* \"contracts/Dividends/SwapRewardsChef.sol\":3559:3575  remainingRewards */\n      sload(0x0c)\n        /* \"contracts/Dividends/SwapRewardsChef.sol\":3559:3579  remainingRewards > 0 */\n      gt\n        /* \"contracts/Dividends/SwapRewardsChef.sol\":3555:3968  if (remainingRewards > 0) {... */\n      iszero\n      tag_140\n      jumpi\n        /* \"contracts/Dividends/SwapRewardsChef.sol\":3599:3617  uint256 multiplier */\n      0x00\n        /* \"contracts/Dividends/SwapRewardsChef.sol\":3620:3669  getMultiplier(pool.lastRewardBlock, block.number) */\n      tag_141\n        /* \"contracts/Dividends/SwapRewardsChef.sol\":3634:3638  pool */\n      dup6\n        /* \"contracts/Dividends/SwapRewardsChef.sol\":3634:3654  pool.lastRewardBlock */\n      0x02\n      add\n      sload\n        /* \"contracts/Dividends/SwapRewardsChef.sol\":3656:3668  block.number */\n      number\n        /* \"contracts/Dividends/SwapRewardsChef.sol\":3620:3633  getMultiplier */\n      tag_142\n        /* \"contracts/Dividends/SwapRewardsChef.sol\":3620:3669  getMultiplier(pool.lastRewardBlock, block.number) */\n      jump\t// in\n    tag_141:\n        /* \"contracts/Dividends/SwapRewardsChef.sol\":3599:3669  uint256 multiplier = getMultiplier(pool.lastRewardBlock, block.number) */\n      swap1\n      pop\n        /* \"contracts/Dividends/SwapRewardsChef.sol\":3687:3707  uint256 totalRewards */\n      0x00\n        /* \"contracts/Dividends/SwapRewardsChef.sol\":3710:3783  multiplier.mul(rewardsPerBlock).mul(pool.allocPoint).div(totalAllocPoint) */\n      tag_143\n        /* \"contracts/Dividends/SwapRewardsChef.sol\":3767:3782  totalAllocPoint */\n      sload(0x0a)\n        /* \"contracts/Dividends/SwapRewardsChef.sol\":3710:3762  multiplier.mul(rewardsPerBlock).mul(pool.allocPoint) */\n      tag_144\n        /* \"contracts/Dividends/SwapRewardsChef.sol\":3746:3750  pool */\n      dup9\n        /* \"contracts/Dividends/SwapRewardsChef.sol\":3746:3761  pool.allocPoint */\n      0x01\n      add\n      sload\n        /* \"contracts/Dividends/SwapRewardsChef.sol\":3710:3741  multiplier.mul(rewardsPerBlock) */\n      tag_145\n        /* \"contracts/Dividends/SwapRewardsChef.sol\":3725:3740  rewardsPerBlock */\n      sload(0x04)\n        /* \"contracts/Dividends/SwapRewardsChef.sol\":3710:3720  multiplier */\n      dup8\n        /* \"contracts/Dividends/SwapRewardsChef.sol\":3710:3724  multiplier.mul */\n      tag_122\n      swap1\n        /* \"contracts/Dividends/SwapRewardsChef.sol\":3710:3741  multiplier.mul(rewardsPerBlock) */\n      swap2\n      swap1\n      0xffffffff\n      and\n      jump\t// in\n    tag_145:\n        /* \"contracts/Dividends/SwapRewardsChef.sol\":3710:3745  multiplier.mul(rewardsPerBlock).mul */\n      tag_122\n      swap1\n        /* \"contracts/Dividends/SwapRewardsChef.sol\":3710:3762  multiplier.mul(rewardsPerBlock).mul(pool.allocPoint) */\n      swap2\n      swap1\n      0xffffffff\n      and\n      jump\t// in\n    tag_144:\n        /* \"contracts/Dividends/SwapRewardsChef.sol\":3710:3766  multiplier.mul(rewardsPerBlock).mul(pool.allocPoint).div */\n      tag_123\n      swap1\n        /* \"contracts/Dividends/SwapRewardsChef.sol\":3710:3783  multiplier.mul(rewardsPerBlock).mul(pool.allocPoint).div(totalAllocPoint) */\n      swap2\n      swap1\n      0xffffffff\n      and\n      jump\t// in\n    tag_143:\n        /* \"contracts/Dividends/SwapRewardsChef.sol\":3687:3783  uint256 totalRewards = multiplier.mul(rewardsPerBlock).mul(pool.allocPoint).div(totalAllocPoint) */\n      swap1\n      pop\n        /* \"contracts/Dividends/SwapRewardsChef.sol\":3816:3856  Math.min(totalRewards, remainingRewards) */\n      tag_146\n        /* \"contracts/Dividends/SwapRewardsChef.sol\":3825:3837  totalRewards */\n      dup2\n        /* \"contracts/Dividends/SwapRewardsChef.sol\":3839:3855  remainingRewards */\n      sload(0x0c)\n        /* \"contracts/Dividends/SwapRewardsChef.sol\":3816:3824  Math.min */\n      tag_147\n        /* \"contracts/Dividends/SwapRewardsChef.sol\":3816:3856  Math.min(totalRewards, remainingRewards) */\n      jump\t// in\n    tag_146:\n        /* \"contracts/Dividends/SwapRewardsChef.sol\":3801:3856  totalRewards = Math.min(totalRewards, remainingRewards) */\n      swap1\n      pop\n        /* \"contracts/Dividends/SwapRewardsChef.sol\":3894:3953  accRewardPerShare.add(totalRewards.mul(1e18).div(lpSupply)) */\n      tag_148\n        /* \"contracts/Dividends/SwapRewardsChef.sol\":3916:3952  totalRewards.mul(1e18).div(lpSupply) */\n      tag_149\n        /* \"contracts/Dividends/SwapRewardsChef.sol\":3943:3951  lpSupply */\n      dup5\n        /* \"contracts/Dividends/SwapRewardsChef.sol\":3916:3938  totalRewards.mul(1e18) */\n      tag_150\n        /* \"contracts/Dividends/SwapRewardsChef.sol\":3933:3937  1e18 */\n      0x0de0b6b3a7640000\n        /* \"contracts/Dividends/SwapRewardsChef.sol\":3916:3928  totalRewards */\n      dup6\n        /* \"contracts/Dividends/SwapRewardsChef.sol\":3916:3932  totalRewards.mul */\n      tag_122\n      swap1\n        /* \"contracts/Dividends/SwapRewardsChef.sol\":3916:3938  totalRewards.mul(1e18) */\n      swap2\n      swap1\n      0xffffffff\n      and\n      jump\t// in\n    tag_150:\n        /* \"contracts/Dividends/SwapRewardsChef.sol\":3916:3942  totalRewards.mul(1e18).div */\n      tag_123\n      swap1\n        /* \"contracts/Dividends/SwapRewardsChef.sol\":3916:3952  totalRewards.mul(1e18).div(lpSupply) */\n      swap2\n      swap1\n      0xffffffff\n      and\n      jump\t// in\n    tag_149:\n        /* \"contracts/Dividends/SwapRewardsChef.sol\":3894:3911  accRewardPerShare */\n      dup6\n        /* \"contracts/Dividends/SwapRewardsChef.sol\":3894:3915  accRewardPerShare.add */\n      tag_151\n      swap1\n        /* \"contracts/Dividends/SwapRewardsChef.sol\":3894:3953  accRewardPerShare.add(totalRewards.mul(1e18).div(lpSupply)) */\n      swap2\n      swap1\n      0xffffffff\n      and\n      jump\t// in\n    tag_148:\n        /* \"contracts/Dividends/SwapRewardsChef.sol\":3874:3953  accRewardPerShare = accRewardPerShare.add(totalRewards.mul(1e18).div(lpSupply)) */\n      swap4\n      pop\n        /* \"contracts/Dividends/SwapRewardsChef.sol\":3555:3968  if (remainingRewards > 0) {... */\n      pop\n      pop\n    tag_140:\n        /* \"contracts/Dividends/SwapRewardsChef.sol\":3420:3978  if (block.number > pool.lastRewardBlock && lpSupply != 0) {... */\n    tag_139:\n        /* \"contracts/Dividends/SwapRewardsChef.sol\":3994:4059  user.amount.mul(accRewardPerShare).div(1e18).sub(user.rewardDebt) */\n      tag_152\n        /* \"contracts/Dividends/SwapRewardsChef.sol\":4043:4047  user */\n      dup4\n        /* \"contracts/Dividends/SwapRewardsChef.sol\":4043:4058  user.rewardDebt */\n      0x01\n      add\n      sload\n        /* \"contracts/Dividends/SwapRewardsChef.sol\":3994:4038  user.amount.mul(accRewardPerShare).div(1e18) */\n      tag_153\n        /* \"contracts/Dividends/SwapRewardsChef.sol\":4033:4037  1e18 */\n      0x0de0b6b3a7640000\n        /* \"contracts/Dividends/SwapRewardsChef.sol\":3994:4028  user.amount.mul(accRewardPerShare) */\n      tag_154\n        /* \"contracts/Dividends/SwapRewardsChef.sol\":4010:4027  accRewardPerShare */\n      dup7\n        /* \"contracts/Dividends/SwapRewardsChef.sol\":3994:3998  user */\n      dup9\n        /* \"contracts/Dividends/SwapRewardsChef.sol\":3994:4005  user.amount */\n      0x00\n      add\n      sload\n        /* \"contracts/Dividends/SwapRewardsChef.sol\":3994:4009  user.amount.mul */\n      tag_122\n      swap1\n        /* \"contracts/Dividends/SwapRewardsChef.sol\":3994:4028  user.amount.mul(accRewardPerShare) */\n      swap2\n      swap1\n      0xffffffff\n      and\n      jump\t// in\n    tag_154:\n        /* \"contracts/Dividends/SwapRewardsChef.sol\":3994:4032  user.amount.mul(accRewardPerShare).div */\n      tag_123\n      swap1\n        /* \"contracts/Dividends/SwapRewardsChef.sol\":3994:4038  user.amount.mul(accRewardPerShare).div(1e18) */\n      swap2\n      swap1\n      0xffffffff\n      and\n      jump\t// in\n    tag_153:\n        /* \"contracts/Dividends/SwapRewardsChef.sol\":3994:4042  user.amount.mul(accRewardPerShare).div(1e18).sub */\n      tag_124\n      swap1\n        /* \"contracts/Dividends/SwapRewardsChef.sol\":3994:4059  user.amount.mul(accRewardPerShare).div(1e18).sub(user.rewardDebt) */\n      swap2\n      swap1\n      0xffffffff\n      and\n      jump\t// in\n    tag_152:\n        /* \"contracts/Dividends/SwapRewardsChef.sol\":3987:4059  return user.amount.mul(accRewardPerShare).div(1e18).sub(user.rewardDebt) */\n      swap5\n      pop\n      pop\n      pop\n      pop\n      pop\n        /* \"contracts/Dividends/SwapRewardsChef.sol\":3131:4066  function pendingRewards(address _user) external view returns (uint256) {... */\n      swap2\n      swap1\n      pop\n      jump\t// out\n        /* \"contracts/Dividends/SwapRewardsChef.sol\":1359:1405  uint256 public denominationEmitAmount = 403200 */\n    tag_52:\n      sload(0x05)\n      dup2\n      jump\t// out\n        /* \"contracts/Dividends/SwapRewardsChef.sol\":10405:10679  function rescueToken(address token, address addressForReceive) external onlyOwner {... */\n    tag_56:\n        /* \"@openzeppelin/contracts/access/Ownable.sol\":1308:1320  _msgSender() */\n      tag_156\n        /* \"@openzeppelin/contracts/access/Ownable.sol\":1308:1318  _msgSender */\n      tag_157\n        /* \"@openzeppelin/contracts/access/Ownable.sol\":1308:1320  _msgSender() */\n      jump\t// in\n    tag_156:\n        /* \"@openzeppelin/contracts/access/Ownable.sol\":1297:1320  owner() == _msgSender() */\n      0xffffffffffffffffffffffffffffffffffffffff\n      and\n        /* \"@openzeppelin/contracts/access/Ownable.sol\":1297:1304  owner() */\n      tag_158\n        /* \"@openzeppelin/contracts/access/Ownable.sol\":1297:1302  owner */\n      tag_78\n        /* \"@openzeppelin/contracts/access/Ownable.sol\":1297:1304  owner() */\n      jump\t// in\n    tag_158:\n        /* \"@openzeppelin/contracts/access/Ownable.sol\":1297:1320  owner() == _msgSender() */\n      0xffffffffffffffffffffffffffffffffffffffff\n      and\n      eq\n        /* \"@openzeppelin/contracts/access/Ownable.sol\":1289:1357  require(owner() == _msgSender(), \"Ownable: caller is not the owner\") */\n      tag_159\n      jumpi\n      mload(0x40)\n      0x08c379a000000000000000000000000000000000000000000000000000000000\n      dup2\n      mstore\n      0x04\n      add\n      dup1\n      dup1\n      0x20\n      add\n      dup3\n      dup2\n      sub\n      dup3\n      mstore\n      0x20\n      dup2\n      mstore\n      0x20\n      add\n      dup1\n      0x4f776e61626c653a2063616c6c6572206973206e6f7420746865206f776e6572\n      dup2\n      mstore\n      pop\n      0x20\n      add\n      swap2\n      pop\n      pop\n      mload(0x40)\n      dup1\n      swap2\n      sub\n      swap1\n      revert\n    tag_159:\n        /* \"contracts/Dividends/SwapRewardsChef.sol\":10497:10512  uint256 balance */\n      0x00\n        /* \"contracts/Dividends/SwapRewardsChef.sol\":10522:10527  token */\n      dup3\n        /* \"contracts/Dividends/SwapRewardsChef.sol\":10515:10538  IERC20(token).balanceOf */\n      0xffffffffffffffffffffffffffffffffffffffff\n      and\n      0x70a08231\n        /* \"contracts/Dividends/SwapRewardsChef.sol\":10547:10551  this */\n      address\n        /* \"contracts/Dividends/SwapRewardsChef.sol\":10515:10553  IERC20(token).balanceOf(address(this)) */\n      mload(0x40)\n      dup3\n      0xffffffff\n      and\n      0xe0\n      shl\n      dup2\n      mstore\n      0x04\n      add\n      dup1\n      dup3\n      0xffffffffffffffffffffffffffffffffffffffff\n      and\n      dup2\n      mstore\n      0x20\n      add\n      swap2\n      pop\n      pop\n      0x20\n      mload(0x40)\n      dup1\n      dup4\n      sub\n      dup2\n      dup7\n      dup1\n      extcodesize\n      iszero\n      dup1\n      iszero\n      tag_161\n      jumpi\n      0x00\n      dup1\n      revert\n    tag_161:\n      pop\n      gas\n      staticcall\n      iszero\n      dup1\n      iszero\n      tag_163\n      jumpi\n      returndatasize\n      0x00\n      dup1\n      returndatacopy\n      revert(0x00, returndatasize)\n    tag_163:\n      pop\n      pop\n      pop\n      pop\n      mload(0x40)\n      returndatasize\n      0x20\n      dup2\n      lt\n      iszero\n      tag_164\n      jumpi\n      0x00\n      dup1\n      revert\n    tag_164:\n      dup2\n      add\n      swap1\n      dup1\n      dup1\n      mload\n      swap1\n      0x20\n      add\n      swap1\n      swap3\n      swap2\n      swap1\n      pop\n      pop\n      pop\n        /* \"contracts/Dividends/SwapRewardsChef.sol\":10497:10553  uint256 balance = IERC20(token).balanceOf(address(this)) */\n      swap1\n      pop\n        /* \"contracts/Dividends/SwapRewardsChef.sol\":10563:10617  IERC20(token).safeTransfer(addressForReceive, balance) */\n      tag_165\n        /* \"contracts/Dividends/SwapRewardsChef.sol\":10590:10607  addressForReceive */\n      dup3\n        /* \"contracts/Dividends/SwapRewardsChef.sol\":10609:10616  balance */\n      dup3\n        /* \"contracts/Dividends/SwapRewardsChef.sol\":10570:10575  token */\n      dup6\n        /* \"contracts/Dividends/SwapRewardsChef.sol\":10563:10589  IERC20(token).safeTransfer */\n      0xffffffffffffffffffffffffffffffffffffffff\n      and\n      tag_132\n      swap1\n        /* \"contracts/Dividends/SwapRewardsChef.sol\":10563:10617  IERC20(token).safeTransfer(addressForReceive, balance) */\n      swap3\n      swap2\n      swap1\n      0xffffffff\n      and\n      jump\t// in\n    tag_165:\n        /* \"contracts/Dividends/SwapRewardsChef.sol\":10657:10662  token */\n      dup3\n        /* \"contracts/Dividends/SwapRewardsChef.sol\":10632:10672  RescueTokens(msg.sender, token, balance) */\n      0xffffffffffffffffffffffffffffffffffffffff\n      and\n        /* \"contracts/Dividends/SwapRewardsChef.sol\":10645:10655  msg.sender */\n      caller\n        /* \"contracts/Dividends/SwapRewardsChef.sol\":10632:10672  RescueTokens(msg.sender, token, balance) */\n      0xffffffffffffffffffffffffffffffffffffffff\n      and\n      0x0de377c3f3362540c047602ad996510f81ec5d84f9ad151c7b6ebecce8ea6b7b\n        /* \"contracts/Dividends/SwapRewardsChef.sol\":10664:10671  balance */\n      dup4\n        /* \"contracts/Dividends/SwapRewardsChef.sol\":10632:10672  RescueTokens(msg.sender, token, balance) */\n      mload(0x40)\n      dup1\n      dup3\n      dup2\n      mstore\n      0x20\n      add\n      swap2\n      pop\n      pop\n      mload(0x40)\n      dup1\n      swap2\n      sub\n      swap1\n      log3\n        /* \"@openzeppelin/contracts/access/Ownable.sol\":1367:1368  _ */\n      pop\n        /* \"contracts/Dividends/SwapRewardsChef.sol\":10405:10679  function rescueToken(address token, address addressForReceive) external onlyOwner {... */\n      pop\n      pop\n      jump\t// out\n        /* \"contracts/Dividends/SwapRewardsChef.sol\":1884:1909  uint256 public startBlock */\n    tag_59:\n      sload(0x0b)\n      dup2\n      jump\t// out\n        /* \"contracts/Dividends/SwapRewardsChef.sol\":1297:1327  uint256 public rewardsPerBlock */\n    tag_62:\n      sload(0x04)\n      dup2\n      jump\t// out\n        /* \"@openzeppelin/contracts/access/Ownable.sol\":1717:1862  function renounceOwnership() public virtual onlyOwner {... */\n    tag_65:\n        /* \"@openzeppelin/contracts/access/Ownable.sol\":1308:1320  _msgSender() */\n      tag_167\n        /* \"@openzeppelin/contracts/access/Ownable.sol\":1308:1318  _msgSender */\n      tag_157\n        /* \"@openzeppelin/contracts/access/Ownable.sol\":1308:1320  _msgSender() */\n      jump\t// in\n    tag_167:\n        /* \"@openzeppelin/contracts/access/Ownable.sol\":1297:1320  owner() == _msgSender() */\n      0xffffffffffffffffffffffffffffffffffffffff\n      and\n        /* \"@openzeppelin/contracts/access/Ownable.sol\":1297:1304  owner() */\n      tag_168\n        /* \"@openzeppelin/contracts/access/Ownable.sol\":1297:1302  owner */\n      tag_78\n        /* \"@openzeppelin/contracts/access/Ownable.sol\":1297:1304  owner() */\n      jump\t// in\n    tag_168:\n        /* \"@openzeppelin/contracts/access/Ownable.sol\":1297:1320  owner() == _msgSender() */\n      0xffffffffffffffffffffffffffffffffffffffff\n      and\n      eq\n        /* \"@openzeppelin/contracts/access/Ownable.sol\":1289:1357  require(owner() == _msgSender(), \"Ownable: caller is not the owner\") */\n      tag_169\n      jumpi\n      mload(0x40)\n      0x08c379a000000000000000000000000000000000000000000000000000000000\n      dup2\n      mstore\n      0x04\n      add\n      dup1\n      dup1\n      0x20\n      add\n      dup3\n      dup2\n      sub\n      dup3\n      mstore\n      0x20\n      dup2\n      mstore\n      0x20\n      add\n      dup1\n      0x4f776e61626c653a2063616c6c6572206973206e6f7420746865206f776e6572\n      dup2\n      mstore\n      pop\n      0x20\n      add\n      swap2\n      pop\n      pop\n      mload(0x40)\n      dup1\n      swap2\n      sub\n      swap1\n      revert\n    tag_169:\n        /* \"@openzeppelin/contracts/access/Ownable.sol\":1823:1824  0 */\n      0x00\n        /* \"@openzeppelin/contracts/access/Ownable.sol\":1786:1826  OwnershipTransferred(_owner, address(0)) */\n      0xffffffffffffffffffffffffffffffffffffffff\n      and\n        /* \"@openzeppelin/contracts/access/Ownable.sol\":1807:1813  _owner */\n      0x00\n      dup1\n      sload\n      swap1\n      0x0100\n      exp\n      swap1\n      div\n      0xffffffffffffffffffffffffffffffffffffffff\n      and\n        /* \"@openzeppelin/contracts/access/Ownable.sol\":1786:1826  OwnershipTransferred(_owner, address(0)) */\n      0xffffffffffffffffffffffffffffffffffffffff\n      and\n      0x8be0079c531659141344cd1fd0a4f28419497f9722a3daafe3b4186f6b6457e0\n      mload(0x40)\n      mload(0x40)\n      dup1\n      swap2\n      sub\n      swap1\n      log3\n        /* \"@openzeppelin/contracts/access/Ownable.sol\":1853:1854  0 */\n      0x00\n        /* \"@openzeppelin/contracts/access/Ownable.sol\":1836:1842  _owner */\n      dup1\n      0x00\n        /* \"@openzeppelin/contracts/access/Ownable.sol\":1836:1855  _owner = address(0) */\n      0x0100\n      exp\n      dup2\n      sload\n      dup2\n      0xffffffffffffffffffffffffffffffffffffffff\n      mul\n      not\n      and\n      swap1\n      dup4\n      0xffffffffffffffffffffffffffffffffffffffff\n      and\n      mul\n      or\n      swap1\n      sstore\n      pop\n        /* \"@openzeppelin/contracts/access/Ownable.sol\":1717:1862  function renounceOwnership() public virtual onlyOwner {... */\n      jump\t// out\n        /* \"contracts/Dividends/SwapRewardsChef.sol\":1160:1195  address public wrappedNativeAddress */\n    tag_68:\n      0x02\n      0x00\n      swap1\n      sload\n      swap1\n      0x0100\n      exp\n      swap1\n      div\n      0xffffffffffffffffffffffffffffffffffffffff\n      and\n      dup2\n      jump\t// out\n        /* \"contracts/Dividends/SwapRewardsChef.sol\":5129:5375  function income(uint256 _amount) external nonReentrant {... */\n    tag_72:\n        /* \"@openzeppelin/contracts/utils/ReentrancyGuard.sol\":1688:1689  2 */\n      0x02\n        /* \"@openzeppelin/contracts/utils/ReentrancyGuard.sol\":2277:2284  _status */\n      sload(0x01)\n        /* \"@openzeppelin/contracts/utils/ReentrancyGuard.sol\":2277:2296  _status != _ENTERED */\n      eq\n      iszero\n        /* \"@openzeppelin/contracts/utils/ReentrancyGuard.sol\":2269:2332  require(_status != _ENTERED, \"ReentrancyGuard: reentrant call\") */\n      tag_172\n      jumpi\n      mload(0x40)\n      0x08c379a000000000000000000000000000000000000000000000000000000000\n      dup2\n      mstore\n      0x04\n      add\n      dup1\n      dup1\n      0x20\n      add\n      dup3\n      dup2\n      sub\n      dup3\n      mstore\n      0x1f\n      dup2\n      mstore\n      0x20\n      add\n      dup1\n      0x5265656e7472616e637947756172643a207265656e7472616e742063616c6c00\n      dup2\n      mstore\n      pop\n      0x20\n      add\n      swap2\n      pop\n      pop\n      mload(0x40)\n      dup1\n      swap2\n      sub\n      swap1\n      revert\n    tag_172:\n        /* \"@openzeppelin/contracts/utils/ReentrancyGuard.sol\":1688:1689  2 */\n      0x02\n        /* \"@openzeppelin/contracts/utils/ReentrancyGuard.sol\":2407:2414  _status */\n      0x01\n        /* \"@openzeppelin/contracts/utils/ReentrancyGuard.sol\":2407:2425  _status = _ENTERED */\n      dup2\n      swap1\n      sstore\n      pop\n        /* \"contracts/Dividends/SwapRewardsChef.sol\":5194:5206  updatePool() */\n      tag_174\n        /* \"contracts/Dividends/SwapRewardsChef.sol\":5194:5204  updatePool */\n      tag_94\n        /* \"contracts/Dividends/SwapRewardsChef.sol\":5194:5206  updatePool() */\n      jump\t// in\n    tag_174:\n        /* \"contracts/Dividends/SwapRewardsChef.sol\":5216:5280  rewardToken.safeTransferFrom(msg.sender, address(this), _amount) */\n      tag_175\n        /* \"contracts/Dividends/SwapRewardsChef.sol\":5245:5255  msg.sender */\n      caller\n        /* \"contracts/Dividends/SwapRewardsChef.sol\":5265:5269  this */\n      address\n        /* \"contracts/Dividends/SwapRewardsChef.sol\":5272:5279  _amount */\n      dup4\n        /* \"contracts/Dividends/SwapRewardsChef.sol\":5216:5227  rewardToken */\n      0x03\n      0x00\n      swap1\n      sload\n      swap1\n      0x0100\n      exp\n      swap1\n      div\n      0xffffffffffffffffffffffffffffffffffffffff\n      and\n        /* \"contracts/Dividends/SwapRewardsChef.sol\":5216:5244  rewardToken.safeTransferFrom */\n      0xffffffffffffffffffffffffffffffffffffffff\n      and\n      tag_176\n      swap1\n        /* \"contracts/Dividends/SwapRewardsChef.sol\":5216:5280  rewardToken.safeTransferFrom(msg.sender, address(this), _amount) */\n      swap4\n      swap3\n      swap2\n      swap1\n      0xffffffff\n      and\n      jump\t// in\n    tag_175:\n        /* \"contracts/Dividends/SwapRewardsChef.sol\":5309:5338  remainingRewards.add(_amount) */\n      tag_177\n        /* \"contracts/Dividends/SwapRewardsChef.sol\":5330:5337  _amount */\n      dup2\n        /* \"contracts/Dividends/SwapRewardsChef.sol\":5309:5325  remainingRewards */\n      sload(0x0c)\n        /* \"contracts/Dividends/SwapRewardsChef.sol\":5309:5329  remainingRewards.add */\n      tag_151\n      swap1\n        /* \"contracts/Dividends/SwapRewardsChef.sol\":5309:5338  remainingRewards.add(_amount) */\n      swap2\n      swap1\n      0xffffffff\n      and\n      jump\t// in\n    tag_177:\n        /* \"contracts/Dividends/SwapRewardsChef.sol\":5290:5306  remainingRewards */\n      0x0c\n        /* \"contracts/Dividends/SwapRewardsChef.sol\":5290:5338  remainingRewards = remainingRewards.add(_amount) */\n      dup2\n      swap1\n      sstore\n      pop\n        /* \"contracts/Dividends/SwapRewardsChef.sol\":5348:5368  updateEmissionRate() */\n      tag_178\n        /* \"contracts/Dividends/SwapRewardsChef.sol\":5348:5366  updateEmissionRate */\n      tag_179\n        /* \"contracts/Dividends/SwapRewardsChef.sol\":5348:5368  updateEmissionRate() */\n      jump\t// in\n    tag_178:\n        /* \"@openzeppelin/contracts/utils/ReentrancyGuard.sol\":1645:1646  1 */\n      0x01\n        /* \"@openzeppelin/contracts/utils/ReentrancyGuard.sol\":2580:2587  _status */\n      dup1\n        /* \"@openzeppelin/contracts/utils/ReentrancyGuard.sol\":2580:2602  _status = _NOT_ENTERED */\n      dup2\n      swap1\n      sstore\n      pop\n        /* \"contracts/Dividends/SwapRewardsChef.sol\":5129:5375  function income(uint256 _amount) external nonReentrant {... */\n      pop\n      jump\t// out\n        /* \"contracts/Dividends/SwapRewardsChef.sol\":1485:1527  uint256 public maximumEmitAmount = 1 ether */\n    tag_75:\n      sload(0x07)\n      dup2\n      jump\t// out\n        /* \"@openzeppelin/contracts/access/Ownable.sol\":1085:1170  function owner() public view virtual returns (address) {... */\n    tag_78:\n        /* \"@openzeppelin/contracts/access/Ownable.sol\":1131:1138  address */\n      0x00\n        /* \"@openzeppelin/contracts/access/Ownable.sol\":1157:1163  _owner */\n      dup1\n      0x00\n      swap1\n      sload\n      swap1\n      0x0100\n      exp\n      swap1\n      div\n      0xffffffffffffffffffffffffffffffffffffffff\n      and\n        /* \"@openzeppelin/contracts/access/Ownable.sol\":1150:1163  return _owner */\n      swap1\n      pop\n        /* \"@openzeppelin/contracts/access/Ownable.sol\":1085:1170  function owner() public view virtual returns (address) {... */\n      swap1\n      jump\t// out\n        /* \"contracts/Dividends/SwapRewardsChef.sol\":1916:1951  uint256 public remainingRewards = 0 */\n    tag_81:\n      sload(0x0c)\n      dup2\n      jump\t// out\n        /* \"contracts/Dividends/SwapRewardsChef.sol\":5789:6635  function deposit(uint256 _amount) public nonReentrant {... */\n    tag_85:\n        /* \"@openzeppelin/contracts/utils/ReentrancyGuard.sol\":1688:1689  2 */\n      0x02\n        /* \"@openzeppelin/contracts/utils/ReentrancyGuard.sol\":2277:2284  _status */\n      sload(0x01)\n        /* \"@openzeppelin/contracts/utils/ReentrancyGuard.sol\":2277:2296  _status != _ENTERED */\n      eq\n      iszero\n        /* \"@openzeppelin/contracts/utils/ReentrancyGuard.sol\":2269:2332  require(_status != _ENTERED, \"ReentrancyGuard: reentrant call\") */\n      tag_182\n      jumpi\n      mload(0x40)\n      0x08c379a000000000000000000000000000000000000000000000000000000000\n      dup2\n      mstore\n      0x04\n      add\n      dup1\n      dup1\n      0x20\n      add\n      dup3\n      dup2\n      sub\n      dup3\n      mstore\n      0x1f\n      dup2\n      mstore\n      0x20\n      add\n      dup1\n      0x5265656e7472616e637947756172643a207265656e7472616e742063616c6c00\n      dup2\n      mstore\n      pop\n      0x20\n      add\n      swap2\n      pop\n      pop\n      mload(0x40)\n      dup1\n      swap2\n      sub\n      swap1\n      revert\n    tag_182:\n        /* \"@openzeppelin/contracts/utils/ReentrancyGuard.sol\":1688:1689  2 */\n      0x02\n        /* \"@openzeppelin/contracts/utils/ReentrancyGuard.sol\":2407:2414  _status */\n      0x01\n        /* \"@openzeppelin/contracts/utils/ReentrancyGuard.sol\":2407:2425  _status = _ENTERED */\n      dup2\n      swap1\n      sstore\n      pop\n        /* \"contracts/Dividends/SwapRewardsChef.sol\":5853:5874  PoolInfo storage pool */\n      0x00\n        /* \"contracts/Dividends/SwapRewardsChef.sol\":5877:5885  poolInfo */\n      0x08\n        /* \"contracts/Dividends/SwapRewardsChef.sol\":5886:5887  0 */\n      0x00\n        /* \"contracts/Dividends/SwapRewardsChef.sol\":5877:5888  poolInfo[0] */\n      dup2\n      sload\n      dup2\n      lt\n      tag_184\n      jumpi\n      invalid\n    tag_184:\n      swap1\n      0x00\n      mstore\n      keccak256(0x00, 0x20)\n      swap1\n      0x05\n      mul\n      add\n        /* \"contracts/Dividends/SwapRewardsChef.sol\":5853:5888  PoolInfo storage pool = poolInfo[0] */\n      swap1\n      pop\n        /* \"contracts/Dividends/SwapRewardsChef.sol\":5898:5919  UserInfo storage user */\n      0x00\n        /* \"contracts/Dividends/SwapRewardsChef.sol\":5922:5930  userInfo */\n      0x09\n        /* \"contracts/Dividends/SwapRewardsChef.sol\":5922:5942  userInfo[msg.sender] */\n      0x00\n        /* \"contracts/Dividends/SwapRewardsChef.sol\":5931:5941  msg.sender */\n      caller\n        /* \"contracts/Dividends/SwapRewardsChef.sol\":5922:5942  userInfo[msg.sender] */\n      0xffffffffffffffffffffffffffffffffffffffff\n      and\n      0xffffffffffffffffffffffffffffffffffffffff\n      and\n      dup2\n      mstore\n      0x20\n      add\n      swap1\n      dup2\n      mstore\n      0x20\n      add\n      0x00\n      keccak256\n        /* \"contracts/Dividends/SwapRewardsChef.sol\":5898:5942  UserInfo storage user = userInfo[msg.sender] */\n      swap1\n      pop\n        /* \"contracts/Dividends/SwapRewardsChef.sol\":5952:5964  updatePool() */\n      tag_186\n        /* \"contracts/Dividends/SwapRewardsChef.sol\":5952:5962  updatePool */\n      tag_94\n        /* \"contracts/Dividends/SwapRewardsChef.sol\":5952:5964  updatePool() */\n      jump\t// in\n    tag_186:\n        /* \"contracts/Dividends/SwapRewardsChef.sol\":5992:5993  0 */\n      0x00\n        /* \"contracts/Dividends/SwapRewardsChef.sol\":5978:5982  user */\n      dup2\n        /* \"contracts/Dividends/SwapRewardsChef.sol\":5978:5989  user.amount */\n      0x00\n      add\n      sload\n        /* \"contracts/Dividends/SwapRewardsChef.sol\":5978:5993  user.amount > 0 */\n      gt\n        /* \"contracts/Dividends/SwapRewardsChef.sol\":5974:6261  if (user.amount > 0) {... */\n      iszero\n      tag_187\n      jumpi\n        /* \"contracts/Dividends/SwapRewardsChef.sol\":6009:6024  uint256 pending */\n      0x00\n        /* \"contracts/Dividends/SwapRewardsChef.sol\":6027:6097  user.amount.mul(pool.accRewardPerShare).div(1e18).sub(user.rewardDebt) */\n      tag_188\n        /* \"contracts/Dividends/SwapRewardsChef.sol\":6081:6085  user */\n      dup3\n        /* \"contracts/Dividends/SwapRewardsChef.sol\":6081:6096  user.rewardDebt */\n      0x01\n      add\n      sload\n        /* \"contracts/Dividends/SwapRewardsChef.sol\":6027:6076  user.amount.mul(pool.accRewardPerShare).div(1e18) */\n      tag_189\n        /* \"contracts/Dividends/SwapRewardsChef.sol\":6071:6075  1e18 */\n      0x0de0b6b3a7640000\n        /* \"contracts/Dividends/SwapRewardsChef.sol\":6027:6066  user.amount.mul(pool.accRewardPerShare) */\n      tag_190\n        /* \"contracts/Dividends/SwapRewardsChef.sol\":6043:6047  pool */\n      dup8\n        /* \"contracts/Dividends/SwapRewardsChef.sol\":6043:6065  pool.accRewardPerShare */\n      0x03\n      add\n      sload\n        /* \"contracts/Dividends/SwapRewardsChef.sol\":6027:6031  user */\n      dup8\n        /* \"contracts/Dividends/SwapRewardsChef.sol\":6027:6038  user.amount */\n      0x00\n      add\n      sload\n        /* \"contracts/Dividends/SwapRewardsChef.sol\":6027:6042  user.amount.mul */\n      tag_122\n      swap1\n        /* \"contracts/Dividends/SwapRewardsChef.sol\":6027:6066  user.amount.mul(pool.accRewardPerShare) */\n      swap2\n      swap1\n      0xffffffff\n      and\n      jump\t// in\n    tag_190:\n        /* \"contracts/Dividends/SwapRewardsChef.sol\":6027:6070  user.amount.mul(pool.accRewardPerShare).div */\n      tag_123\n      swap1\n        /* \"contracts/Dividends/SwapRewardsChef.sol\":6027:6076  user.amount.mul(pool.accRewardPerShare).div(1e18) */\n      swap2\n      swap1\n      0xffffffff\n      and\n      jump\t// in\n    tag_189:\n        /* \"contracts/Dividends/SwapRewardsChef.sol\":6027:6080  user.amount.mul(pool.accRewardPerShare).div(1e18).sub */\n      tag_124\n      swap1\n        /* \"contracts/Dividends/SwapRewardsChef.sol\":6027:6097  user.amount.mul(pool.accRewardPerShare).div(1e18).sub(user.rewardDebt) */\n      swap2\n      swap1\n      0xffffffff\n      and\n      jump\t// in\n    tag_188:\n        /* \"contracts/Dividends/SwapRewardsChef.sol\":6009:6097  uint256 pending = user.amount.mul(pool.accRewardPerShare).div(1e18).sub(user.rewardDebt) */\n      swap1\n      pop\n        /* \"contracts/Dividends/SwapRewardsChef.sol\":6125:6126  0 */\n      0x00\n        /* \"contracts/Dividends/SwapRewardsChef.sol\":6115:6122  pending */\n      dup2\n        /* \"contracts/Dividends/SwapRewardsChef.sol\":6115:6126  pending > 0 */\n      gt\n        /* \"contracts/Dividends/SwapRewardsChef.sol\":6111:6251  if (pending > 0) {... */\n      iszero\n      tag_191\n      jumpi\n        /* \"contracts/Dividends/SwapRewardsChef.sol\":6146:6185  safeRewardTransfer(msg.sender, pending) */\n      tag_192\n        /* \"contracts/Dividends/SwapRewardsChef.sol\":6165:6175  msg.sender */\n      caller\n        /* \"contracts/Dividends/SwapRewardsChef.sol\":6177:6184  pending */\n      dup3\n        /* \"contracts/Dividends/SwapRewardsChef.sol\":6146:6164  safeRewardTransfer */\n      tag_127\n        /* \"contracts/Dividends/SwapRewardsChef.sol\":6146:6185  safeRewardTransfer(msg.sender, pending) */\n      jump\t// in\n    tag_192:\n        /* \"contracts/Dividends/SwapRewardsChef.sol\":6216:6226  msg.sender */\n      caller\n        /* \"contracts/Dividends/SwapRewardsChef.sol\":6208:6236  Harvest(msg.sender, pending) */\n      0xffffffffffffffffffffffffffffffffffffffff\n      and\n      0xc9695243a805adb74c91f28311176c65b417e842d5699893cef56d18bfa48cba\n        /* \"contracts/Dividends/SwapRewardsChef.sol\":6228:6235  pending */\n      dup3\n        /* \"contracts/Dividends/SwapRewardsChef.sol\":6208:6236  Harvest(msg.sender, pending) */\n      mload(0x40)\n      dup1\n      dup3\n      dup2\n      mstore\n      0x20\n      add\n      swap2\n      pop\n      pop\n      mload(0x40)\n      dup1\n      swap2\n      sub\n      swap1\n      log2\n        /* \"contracts/Dividends/SwapRewardsChef.sol\":6111:6251  if (pending > 0) {... */\n    tag_191:\n        /* \"contracts/Dividends/SwapRewardsChef.sol\":5974:6261  if (user.amount > 0) {... */\n      pop\n    tag_187:\n        /* \"contracts/Dividends/SwapRewardsChef.sol\":6284:6285  0 */\n      0x00\n        /* \"contracts/Dividends/SwapRewardsChef.sol\":6274:6281  _amount */\n      dup4\n        /* \"contracts/Dividends/SwapRewardsChef.sol\":6274:6285  _amount > 0 */\n      gt\n        /* \"contracts/Dividends/SwapRewardsChef.sol\":6270:6509  if (_amount > 0) {... */\n      iszero\n      tag_193\n      jumpi\n        /* \"contracts/Dividends/SwapRewardsChef.sol\":6301:6366  pool.lpToken.safeTransferFrom(msg.sender, address(this), _amount) */\n      tag_194\n        /* \"contracts/Dividends/SwapRewardsChef.sol\":6331:6341  msg.sender */\n      caller\n        /* \"contracts/Dividends/SwapRewardsChef.sol\":6351:6355  this */\n      address\n        /* \"contracts/Dividends/SwapRewardsChef.sol\":6358:6365  _amount */\n      dup6\n        /* \"contracts/Dividends/SwapRewardsChef.sol\":6301:6305  pool */\n      dup6\n        /* \"contracts/Dividends/SwapRewardsChef.sol\":6301:6313  pool.lpToken */\n      0x00\n      add\n      0x00\n      swap1\n      sload\n      swap1\n      0x0100\n      exp\n      swap1\n      div\n      0xffffffffffffffffffffffffffffffffffffffff\n      and\n        /* \"contracts/Dividends/SwapRewardsChef.sol\":6301:6330  pool.lpToken.safeTransferFrom */\n      0xffffffffffffffffffffffffffffffffffffffff\n      and\n      tag_176\n      swap1\n        /* \"contracts/Dividends/SwapRewardsChef.sol\":6301:6366  pool.lpToken.safeTransferFrom(msg.sender, address(this), _amount) */\n      swap4\n      swap3\n      swap2\n      swap1\n      0xffffffff\n      and\n      jump\t// in\n    tag_194:\n        /* \"contracts/Dividends/SwapRewardsChef.sol\":6394:6418  user.amount.add(_amount) */\n      tag_195\n        /* \"contracts/Dividends/SwapRewardsChef.sol\":6410:6417  _amount */\n      dup4\n        /* \"contracts/Dividends/SwapRewardsChef.sol\":6394:6398  user */\n      dup3\n        /* \"contracts/Dividends/SwapRewardsChef.sol\":6394:6405  user.amount */\n      0x00\n      add\n      sload\n        /* \"contracts/Dividends/SwapRewardsChef.sol\":6394:6409  user.amount.add */\n      tag_151\n      swap1\n        /* \"contracts/Dividends/SwapRewardsChef.sol\":6394:6418  user.amount.add(_amount) */\n      swap2\n      swap1\n      0xffffffff\n      and\n      jump\t// in\n    tag_195:\n        /* \"contracts/Dividends/SwapRewardsChef.sol\":6380:6384  user */\n      dup2\n        /* \"contracts/Dividends/SwapRewardsChef.sol\":6380:6391  user.amount */\n      0x00\n      add\n        /* \"contracts/Dividends/SwapRewardsChef.sol\":6380:6418  user.amount = user.amount.add(_amount) */\n      dup2\n      swap1\n      sstore\n      pop\n        /* \"contracts/Dividends/SwapRewardsChef.sol\":6460:6498  pool.currentDepositAmount.add(_amount) */\n      tag_196\n        /* \"contracts/Dividends/SwapRewardsChef.sol\":6490:6497  _amount */\n      dup4\n        /* \"contracts/Dividends/SwapRewardsChef.sol\":6460:6464  pool */\n      dup4\n        /* \"contracts/Dividends/SwapRewardsChef.sol\":6460:6485  pool.currentDepositAmount */\n      0x04\n      add\n      sload\n        /* \"contracts/Dividends/SwapRewardsChef.sol\":6460:6489  pool.currentDepositAmount.add */\n      tag_151\n      swap1\n        /* \"contracts/Dividends/SwapRewardsChef.sol\":6460:6498  pool.currentDepositAmount.add(_amount) */\n      swap2\n      swap1\n      0xffffffff\n      and\n      jump\t// in\n    tag_196:\n        /* \"contracts/Dividends/SwapRewardsChef.sol\":6432:6436  pool */\n      dup3\n        /* \"contracts/Dividends/SwapRewardsChef.sol\":6432:6457  pool.currentDepositAmount */\n      0x04\n      add\n        /* \"contracts/Dividends/SwapRewardsChef.sol\":6432:6498  pool.currentDepositAmount = pool.currentDepositAmount.add(_amount) */\n      dup2\n      swap1\n      sstore\n      pop\n        /* \"contracts/Dividends/SwapRewardsChef.sol\":6270:6509  if (_amount > 0) {... */\n    tag_193:\n        /* \"contracts/Dividends/SwapRewardsChef.sol\":6536:6585  user.amount.mul(pool.accRewardPerShare).div(1e18) */\n      tag_197\n        /* \"contracts/Dividends/SwapRewardsChef.sol\":6580:6584  1e18 */\n      0x0de0b6b3a7640000\n        /* \"contracts/Dividends/SwapRewardsChef.sol\":6536:6575  user.amount.mul(pool.accRewardPerShare) */\n      tag_198\n        /* \"contracts/Dividends/SwapRewardsChef.sol\":6552:6556  pool */\n      dup5\n        /* \"contracts/Dividends/SwapRewardsChef.sol\":6552:6574  pool.accRewardPerShare */\n      0x03\n      add\n      sload\n        /* \"contracts/Dividends/SwapRewardsChef.sol\":6536:6540  user */\n      dup5\n        /* \"contracts/Dividends/SwapRewardsChef.sol\":6536:6547  user.amount */\n      0x00\n      add\n      sload\n        /* \"contracts/Dividends/SwapRewardsChef.sol\":6536:6551  user.amount.mul */\n      tag_122\n      swap1\n        /* \"contracts/Dividends/SwapRewardsChef.sol\":6536:6575  user.amount.mul(pool.accRewardPerShare) */\n      swap2\n      swap1\n      0xffffffff\n      and\n      jump\t// in\n    tag_198:\n        /* \"contracts/Dividends/SwapRewardsChef.sol\":6536:6579  user.amount.mul(pool.accRewardPerShare).div */\n      tag_123\n      swap1\n        /* \"contracts/Dividends/SwapRewardsChef.sol\":6536:6585  user.amount.mul(pool.accRewardPerShare).div(1e18) */\n      swap2\n      swap1\n      0xffffffff\n      and\n      jump\t// in\n    tag_197:\n        /* \"contracts/Dividends/SwapRewardsChef.sol\":6518:6522  user */\n      dup2\n        /* \"contracts/Dividends/SwapRewardsChef.sol\":6518:6533  user.rewardDebt */\n      0x01\n      add\n        /* \"contracts/Dividends/SwapRewardsChef.sol\":6518:6585  user.rewardDebt = user.amount.mul(pool.accRewardPerShare).div(1e18) */\n      dup2\n      swap1\n      sstore\n      pop\n        /* \"contracts/Dividends/SwapRewardsChef.sol\":6608:6618  msg.sender */\n      caller\n        /* \"contracts/Dividends/SwapRewardsChef.sol\":6600:6628  Deposit(msg.sender, _amount) */\n      0xffffffffffffffffffffffffffffffffffffffff\n      and\n      0xe1fffcc4923d04b559f4d29a8bfc6cda04eb5b0d3c460751c2402c5c5cc9109c\n        /* \"contracts/Dividends/SwapRewardsChef.sol\":6620:6627  _amount */\n      dup5\n        /* \"contracts/Dividends/SwapRewardsChef.sol\":6600:6628  Deposit(msg.sender, _amount) */\n      mload(0x40)\n      dup1\n      dup3\n      dup2\n      mstore\n      0x20\n      add\n      swap2\n      pop\n      pop\n      mload(0x40)\n      dup1\n      swap2\n      sub\n      swap1\n      log2\n        /* \"@openzeppelin/contracts/utils/ReentrancyGuard.sol\":2436:2437  _ */\n      pop\n      pop\n        /* \"@openzeppelin/contracts/utils/ReentrancyGuard.sol\":1645:1646  1 */\n      0x01\n        /* \"@openzeppelin/contracts/utils/ReentrancyGuard.sol\":2580:2587  _status */\n      dup1\n        /* \"@openzeppelin/contracts/utils/ReentrancyGuard.sol\":2580:2602  _status = _NOT_ENTERED */\n      dup2\n      swap1\n      sstore\n      pop\n        /* \"contracts/Dividends/SwapRewardsChef.sol\":5789:6635  function deposit(uint256 _amount) public nonReentrant {... */\n      pop\n      jump\t// out\n        /* \"contracts/Dividends/SwapRewardsChef.sol\":7577:8006  function emergencyWithdraw() public nonReentrant {... */\n    tag_88:\n        /* \"@openzeppelin/contracts/utils/ReentrancyGuard.sol\":1688:1689  2 */\n      0x02\n        /* \"@openzeppelin/contracts/utils/ReentrancyGuard.sol\":2277:2284  _status */\n      sload(0x01)\n        /* \"@openzeppelin/contracts/utils/ReentrancyGuard.sol\":2277:2296  _status != _ENTERED */\n      eq\n      iszero\n        /* \"@openzeppelin/contracts/utils/ReentrancyGuard.sol\":2269:2332  require(_status != _ENTERED, \"ReentrancyGuard: reentrant call\") */\n      tag_200\n      jumpi\n      mload(0x40)\n      0x08c379a000000000000000000000000000000000000000000000000000000000\n      dup2\n      mstore\n      0x04\n      add\n      dup1\n      dup1\n      0x20\n      add\n      dup3\n      dup2\n      sub\n      dup3\n      mstore\n      0x1f\n      dup2\n      mstore\n      0x20\n      add\n      dup1\n      0x5265656e7472616e637947756172643a207265656e7472616e742063616c6c00\n      dup2\n      mstore\n      pop\n      0x20\n      add\n      swap2\n      pop\n      pop\n      mload(0x40)\n      dup1\n      swap2\n      sub\n      swap1\n      revert\n    tag_200:\n        /* \"@openzeppelin/contracts/utils/ReentrancyGuard.sol\":1688:1689  2 */\n      0x02\n        /* \"@openzeppelin/contracts/utils/ReentrancyGuard.sol\":2407:2414  _status */\n      0x01\n        /* \"@openzeppelin/contracts/utils/ReentrancyGuard.sol\":2407:2425  _status = _ENTERED */\n      dup2\n      swap1\n      sstore\n      pop\n        /* \"contracts/Dividends/SwapRewardsChef.sol\":7636:7657  PoolInfo storage pool */\n      0x00\n        /* \"contracts/Dividends/SwapRewardsChef.sol\":7660:7668  poolInfo */\n      0x08\n        /* \"contracts/Dividends/SwapRewardsChef.sol\":7669:7670  0 */\n      0x00\n        /* \"contracts/Dividends/SwapRewardsChef.sol\":7660:7671  poolInfo[0] */\n      dup2\n      sload\n      dup2\n      lt\n      tag_202\n      jumpi\n      invalid\n    tag_202:\n      swap1\n      0x00\n      mstore\n      keccak256(0x00, 0x20)\n      swap1\n      0x05\n      mul\n      add\n        /* \"contracts/Dividends/SwapRewardsChef.sol\":7636:7671  PoolInfo storage pool = poolInfo[0] */\n      swap1\n      pop\n        /* \"contracts/Dividends/SwapRewardsChef.sol\":7681:7702  UserInfo storage user */\n      0x00\n        /* \"contracts/Dividends/SwapRewardsChef.sol\":7705:7713  userInfo */\n      0x09\n        /* \"contracts/Dividends/SwapRewardsChef.sol\":7705:7725  userInfo[msg.sender] */\n      0x00\n        /* \"contracts/Dividends/SwapRewardsChef.sol\":7714:7724  msg.sender */\n      caller\n        /* \"contracts/Dividends/SwapRewardsChef.sol\":7705:7725  userInfo[msg.sender] */\n      0xffffffffffffffffffffffffffffffffffffffff\n      and\n      0xffffffffffffffffffffffffffffffffffffffff\n      and\n      dup2\n      mstore\n      0x20\n      add\n      swap1\n      dup2\n      mstore\n      0x20\n      add\n      0x00\n      keccak256\n        /* \"contracts/Dividends/SwapRewardsChef.sol\":7681:7725  UserInfo storage user = userInfo[msg.sender] */\n      swap1\n      pop\n        /* \"contracts/Dividends/SwapRewardsChef.sol\":7735:7749  uint256 amount */\n      0x00\n        /* \"contracts/Dividends/SwapRewardsChef.sol\":7752:7756  user */\n      dup2\n        /* \"contracts/Dividends/SwapRewardsChef.sol\":7752:7763  user.amount */\n      0x00\n      add\n      sload\n        /* \"contracts/Dividends/SwapRewardsChef.sol\":7735:7763  uint256 amount = user.amount */\n      swap1\n      pop\n        /* \"contracts/Dividends/SwapRewardsChef.sol\":7787:7788  0 */\n      0x00\n        /* \"contracts/Dividends/SwapRewardsChef.sol\":7773:7777  user */\n      dup3\n        /* \"contracts/Dividends/SwapRewardsChef.sol\":7773:7784  user.amount */\n      0x00\n      add\n        /* \"contracts/Dividends/SwapRewardsChef.sol\":7773:7788  user.amount = 0 */\n      dup2\n      swap1\n      sstore\n      pop\n        /* \"contracts/Dividends/SwapRewardsChef.sol\":7816:7817  0 */\n      0x00\n        /* \"contracts/Dividends/SwapRewardsChef.sol\":7798:7802  user */\n      dup3\n        /* \"contracts/Dividends/SwapRewardsChef.sol\":7798:7813  user.rewardDebt */\n      0x01\n      add\n        /* \"contracts/Dividends/SwapRewardsChef.sol\":7798:7817  user.rewardDebt = 0 */\n      dup2\n      swap1\n      sstore\n      pop\n        /* \"contracts/Dividends/SwapRewardsChef.sol\":7855:7892  pool.currentDepositAmount.sub(amount) */\n      tag_204\n        /* \"contracts/Dividends/SwapRewardsChef.sol\":7885:7891  amount */\n      dup2\n        /* \"contracts/Dividends/SwapRewardsChef.sol\":7855:7859  pool */\n      dup5\n        /* \"contracts/Dividends/SwapRewardsChef.sol\":7855:7880  pool.currentDepositAmount */\n      0x04\n      add\n      sload\n        /* \"contracts/Dividends/SwapRewardsChef.sol\":7855:7884  pool.currentDepositAmount.sub */\n      tag_124\n      swap1\n        /* \"contracts/Dividends/SwapRewardsChef.sol\":7855:7892  pool.currentDepositAmount.sub(amount) */\n      swap2\n      swap1\n      0xffffffff\n      and\n      jump\t// in\n    tag_204:\n        /* \"contracts/Dividends/SwapRewardsChef.sol\":7827:7831  pool */\n      dup4\n        /* \"contracts/Dividends/SwapRewardsChef.sol\":7827:7852  pool.currentDepositAmount */\n      0x04\n      add\n        /* \"contracts/Dividends/SwapRewardsChef.sol\":7827:7892  pool.currentDepositAmount = pool.currentDepositAmount.sub(amount) */\n      dup2\n      swap1\n      sstore\n      pop\n        /* \"contracts/Dividends/SwapRewardsChef.sol\":7902:7947  pool.lpToken.safeTransfer(msg.sender, amount) */\n      tag_205\n        /* \"contracts/Dividends/SwapRewardsChef.sol\":7928:7938  msg.sender */\n      caller\n        /* \"contracts/Dividends/SwapRewardsChef.sol\":7940:7946  amount */\n      dup3\n        /* \"contracts/Dividends/SwapRewardsChef.sol\":7902:7906  pool */\n      dup6\n        /* \"contracts/Dividends/SwapRewardsChef.sol\":7902:7914  pool.lpToken */\n      0x00\n      add\n      0x00\n      swap1\n      sload\n      swap1\n      0x0100\n      exp\n      swap1\n      div\n      0xffffffffffffffffffffffffffffffffffffffff\n      and\n        /* \"contracts/Dividends/SwapRewardsChef.sol\":7902:7927  pool.lpToken.safeTransfer */\n      0xffffffffffffffffffffffffffffffffffffffff\n      and\n      tag_132\n      swap1\n        /* \"contracts/Dividends/SwapRewardsChef.sol\":7902:7947  pool.lpToken.safeTransfer(msg.sender, amount) */\n      swap3\n      swap2\n      swap1\n      0xffffffff\n      and\n      jump\t// in\n    tag_205:\n        /* \"contracts/Dividends/SwapRewardsChef.sol\":7980:7990  msg.sender */\n      caller\n        /* \"contracts/Dividends/SwapRewardsChef.sol\":7962:7999  EmergencyWithdraw(msg.sender, amount) */\n      0xffffffffffffffffffffffffffffffffffffffff\n      and\n      0x5fafa99d0643513820be26656b45130b01e1c03062e1266bf36f88cbd3bd9695\n        /* \"contracts/Dividends/SwapRewardsChef.sol\":7992:7998  amount */\n      dup3\n        /* \"contracts/Dividends/SwapRewardsChef.sol\":7962:7999  EmergencyWithdraw(msg.sender, amount) */\n      mload(0x40)\n      dup1\n      dup3\n      dup2\n      mstore\n      0x20\n      add\n      swap2\n      pop\n      pop\n      mload(0x40)\n      dup1\n      swap2\n      sub\n      swap1\n      log2\n        /* \"@openzeppelin/contracts/utils/ReentrancyGuard.sol\":2436:2437  _ */\n      pop\n      pop\n      pop\n        /* \"@openzeppelin/contracts/utils/ReentrancyGuard.sol\":1645:1646  1 */\n      0x01\n        /* \"@openzeppelin/contracts/utils/ReentrancyGuard.sol\":2580:2587  _status */\n      dup1\n        /* \"@openzeppelin/contracts/utils/ReentrancyGuard.sol\":2580:2602  _status = _NOT_ENTERED */\n      dup2\n      swap1\n      sstore\n      pop\n        /* \"contracts/Dividends/SwapRewardsChef.sol\":7577:8006  function emergencyWithdraw() public nonReentrant {... */\n      jump\t// out\n        /* \"contracts/Dividends/SwapRewardsChef.sol\":1420:1456  uint256 public minimumEmitAmount = 0 */\n    tag_91:\n      sload(0x06)\n      dup2\n      jump\t// out\n        /* \"contracts/Dividends/SwapRewardsChef.sol\":4139:5123  function updatePool() public {... */\n    tag_94:\n        /* \"contracts/Dividends/SwapRewardsChef.sol\":4178:4199  PoolInfo storage pool */\n      0x00\n        /* \"contracts/Dividends/SwapRewardsChef.sol\":4202:4210  poolInfo */\n      0x08\n        /* \"contracts/Dividends/SwapRewardsChef.sol\":4211:4212  0 */\n      0x00\n        /* \"contracts/Dividends/SwapRewardsChef.sol\":4202:4213  poolInfo[0] */\n      dup2\n      sload\n      dup2\n      lt\n      tag_207\n      jumpi\n      invalid\n    tag_207:\n      swap1\n      0x00\n      mstore\n      keccak256(0x00, 0x20)\n      swap1\n      0x05\n      mul\n      add\n        /* \"contracts/Dividends/SwapRewardsChef.sol\":4178:4213  PoolInfo storage pool = poolInfo[0] */\n      swap1\n      pop\n        /* \"contracts/Dividends/SwapRewardsChef.sol\":4243:4247  pool */\n      dup1\n        /* \"contracts/Dividends/SwapRewardsChef.sol\":4243:4263  pool.lastRewardBlock */\n      0x02\n      add\n      sload\n        /* \"contracts/Dividends/SwapRewardsChef.sol\":4227:4239  block.number */\n      number\n        /* \"contracts/Dividends/SwapRewardsChef.sol\":4227:4263  block.number <= pool.lastRewardBlock */\n      gt\n        /* \"contracts/Dividends/SwapRewardsChef.sol\":4223:4296  if (block.number <= pool.lastRewardBlock) {... */\n      tag_209\n      jumpi\n        /* \"contracts/Dividends/SwapRewardsChef.sol\":4279:4286  return; */\n      pop\n      jump(tag_206)\n        /* \"contracts/Dividends/SwapRewardsChef.sol\":4223:4296  if (block.number <= pool.lastRewardBlock) {... */\n    tag_209:\n        /* \"contracts/Dividends/SwapRewardsChef.sol\":4305:4321  uint256 lpSupply */\n      0x00\n        /* \"contracts/Dividends/SwapRewardsChef.sol\":4324:4328  pool */\n      dup2\n        /* \"contracts/Dividends/SwapRewardsChef.sol\":4324:4349  pool.currentDepositAmount */\n      0x04\n      add\n      sload\n        /* \"contracts/Dividends/SwapRewardsChef.sol\":4305:4349  uint256 lpSupply = pool.currentDepositAmount */\n      swap1\n      pop\n        /* \"contracts/Dividends/SwapRewardsChef.sol\":4375:4376  0 */\n      0x00\n        /* \"contracts/Dividends/SwapRewardsChef.sol\":4363:4371  lpSupply */\n      dup2\n        /* \"contracts/Dividends/SwapRewardsChef.sol\":4363:4376  lpSupply == 0 */\n      eq\n        /* \"contracts/Dividends/SwapRewardsChef.sol\":4363:4400  lpSupply == 0 || pool.allocPoint == 0 */\n      dup1\n      tag_210\n      jumpi\n      pop\n        /* \"contracts/Dividends/SwapRewardsChef.sol\":4399:4400  0 */\n      0x00\n        /* \"contracts/Dividends/SwapRewardsChef.sol\":4380:4384  pool */\n      dup3\n        /* \"contracts/Dividends/SwapRewardsChef.sol\":4380:4395  pool.allocPoint */\n      0x01\n      add\n      sload\n        /* \"contracts/Dividends/SwapRewardsChef.sol\":4380:4400  pool.allocPoint == 0 */\n      eq\n        /* \"contracts/Dividends/SwapRewardsChef.sol\":4363:4400  lpSupply == 0 || pool.allocPoint == 0 */\n    tag_210:\n        /* \"contracts/Dividends/SwapRewardsChef.sol\":4359:4482  if (lpSupply == 0 || pool.allocPoint == 0) {... */\n      iszero\n      tag_211\n      jumpi\n        /* \"contracts/Dividends/SwapRewardsChef.sol\":4439:4451  block.number */\n      number\n        /* \"contracts/Dividends/SwapRewardsChef.sol\":4416:4420  pool */\n      dup3\n        /* \"contracts/Dividends/SwapRewardsChef.sol\":4416:4436  pool.lastRewardBlock */\n      0x02\n      add\n        /* \"contracts/Dividends/SwapRewardsChef.sol\":4416:4451  pool.lastRewardBlock = block.number */\n      dup2\n      swap1\n      sstore\n      pop\n        /* \"contracts/Dividends/SwapRewardsChef.sol\":4465:4472  return; */\n      pop\n      pop\n      jump(tag_206)\n        /* \"contracts/Dividends/SwapRewardsChef.sol\":4359:4482  if (lpSupply == 0 || pool.allocPoint == 0) {... */\n    tag_211:\n        /* \"contracts/Dividends/SwapRewardsChef.sol\":4516:4517  0 */\n      0x00\n        /* \"contracts/Dividends/SwapRewardsChef.sol\":4496:4512  remainingRewards */\n      sload(0x0c)\n        /* \"contracts/Dividends/SwapRewardsChef.sol\":4496:4517  remainingRewards == 0 */\n      eq\n        /* \"contracts/Dividends/SwapRewardsChef.sol\":4492:4599  if (remainingRewards == 0) {... */\n      iszero\n      tag_212\n      jumpi\n        /* \"contracts/Dividends/SwapRewardsChef.sol\":4556:4568  block.number */\n      number\n        /* \"contracts/Dividends/SwapRewardsChef.sol\":4533:4537  pool */\n      dup3\n        /* \"contracts/Dividends/SwapRewardsChef.sol\":4533:4553  pool.lastRewardBlock */\n      0x02\n      add\n        /* \"contracts/Dividends/SwapRewardsChef.sol\":4533:4568  pool.lastRewardBlock = block.number */\n      dup2\n      swap1\n      sstore\n      pop\n        /* \"contracts/Dividends/SwapRewardsChef.sol\":4582:4589  return; */\n      pop\n      pop\n      jump(tag_206)\n        /* \"contracts/Dividends/SwapRewardsChef.sol\":4492:4599  if (remainingRewards == 0) {... */\n    tag_212:\n        /* \"contracts/Dividends/SwapRewardsChef.sol\":4668:4686  uint256 multiplier */\n      0x00\n        /* \"contracts/Dividends/SwapRewardsChef.sol\":4689:4738  getMultiplier(pool.lastRewardBlock, block.number) */\n      tag_213\n        /* \"contracts/Dividends/SwapRewardsChef.sol\":4703:4707  pool */\n      dup4\n        /* \"contracts/Dividends/SwapRewardsChef.sol\":4703:4723  pool.lastRewardBlock */\n      0x02\n      add\n      sload\n        /* \"contracts/Dividends/SwapRewardsChef.sol\":4725:4737  block.number */\n      number\n        /* \"contracts/Dividends/SwapRewardsChef.sol\":4689:4702  getMultiplier */\n      tag_142\n        /* \"contracts/Dividends/SwapRewardsChef.sol\":4689:4738  getMultiplier(pool.lastRewardBlock, block.number) */\n      jump\t// in\n    tag_213:\n        /* \"contracts/Dividends/SwapRewardsChef.sol\":4668:4738  uint256 multiplier = getMultiplier(pool.lastRewardBlock, block.number) */\n      swap1\n      pop\n        /* \"contracts/Dividends/SwapRewardsChef.sol\":4748:4768  uint256 totalRewards */\n      0x00\n        /* \"contracts/Dividends/SwapRewardsChef.sol\":4771:4844  multiplier.mul(rewardsPerBlock).mul(pool.allocPoint).div(totalAllocPoint) */\n      tag_214\n        /* \"contracts/Dividends/SwapRewardsChef.sol\":4828:4843  totalAllocPoint */\n      sload(0x0a)\n        /* \"contracts/Dividends/SwapRewardsChef.sol\":4771:4823  multiplier.mul(rewardsPerBlock).mul(pool.allocPoint) */\n      tag_215\n        /* \"contracts/Dividends/SwapRewardsChef.sol\":4807:4811  pool */\n      dup7\n        /* \"contracts/Dividends/SwapRewardsChef.sol\":4807:4822  pool.allocPoint */\n      0x01\n      add\n      sload\n        /* \"contracts/Dividends/SwapRewardsChef.sol\":4771:4802  multiplier.mul(rewardsPerBlock) */\n      tag_216\n        /* \"contracts/Dividends/SwapRewardsChef.sol\":4786:4801  rewardsPerBlock */\n      sload(0x04)\n        /* \"contracts/Dividends/SwapRewardsChef.sol\":4771:4781  multiplier */\n      dup8\n        /* \"contracts/Dividends/SwapRewardsChef.sol\":4771:4785  multiplier.mul */\n      tag_122\n      swap1\n        /* \"contracts/Dividends/SwapRewardsChef.sol\":4771:4802  multiplier.mul(rewardsPerBlock) */\n      swap2\n      swap1\n      0xffffffff\n      and\n      jump\t// in\n    tag_216:\n        /* \"contracts/Dividends/SwapRewardsChef.sol\":4771:4806  multiplier.mul(rewardsPerBlock).mul */\n      tag_122\n      swap1\n        /* \"contracts/Dividends/SwapRewardsChef.sol\":4771:4823  multiplier.mul(rewardsPerBlock).mul(pool.allocPoint) */\n      swap2\n      swap1\n      0xffffffff\n      and\n      jump\t// in\n    tag_215:\n        /* \"contracts/Dividends/SwapRewardsChef.sol\":4771:4827  multiplier.mul(rewardsPerBlock).mul(pool.allocPoint).div */\n      tag_123\n      swap1\n        /* \"contracts/Dividends/SwapRewardsChef.sol\":4771:4844  multiplier.mul(rewardsPerBlock).mul(pool.allocPoint).div(totalAllocPoint) */\n      swap2\n      swap1\n      0xffffffff\n      and\n      jump\t// in\n    tag_214:\n        /* \"contracts/Dividends/SwapRewardsChef.sol\":4748:4844  uint256 totalRewards = multiplier.mul(rewardsPerBlock).mul(pool.allocPoint).div(totalAllocPoint) */\n      swap1\n      pop\n        /* \"contracts/Dividends/SwapRewardsChef.sol\":4869:4909  Math.min(totalRewards, remainingRewards) */\n      tag_217\n        /* \"contracts/Dividends/SwapRewardsChef.sol\":4878:4890  totalRewards */\n      dup2\n        /* \"contracts/Dividends/SwapRewardsChef.sol\":4892:4908  remainingRewards */\n      sload(0x0c)\n        /* \"contracts/Dividends/SwapRewardsChef.sol\":4869:4877  Math.min */\n      tag_147\n        /* \"contracts/Dividends/SwapRewardsChef.sol\":4869:4909  Math.min(totalRewards, remainingRewards) */\n      jump\t// in\n    tag_217:\n        /* \"contracts/Dividends/SwapRewardsChef.sol\":4854:4909  totalRewards = Math.min(totalRewards, remainingRewards) */\n      swap1\n      pop\n        /* \"contracts/Dividends/SwapRewardsChef.sol\":4938:4972  remainingRewards.sub(totalRewards) */\n      tag_218\n        /* \"contracts/Dividends/SwapRewardsChef.sol\":4959:4971  totalRewards */\n      dup2\n        /* \"contracts/Dividends/SwapRewardsChef.sol\":4938:4954  remainingRewards */\n      sload(0x0c)\n        /* \"contracts/Dividends/SwapRewardsChef.sol\":4938:4958  remainingRewards.sub */\n      tag_124\n      swap1\n        /* \"contracts/Dividends/SwapRewardsChef.sol\":4938:4972  remainingRewards.sub(totalRewards) */\n      swap2\n      swap1\n      0xffffffff\n      and\n      jump\t// in\n    tag_218:\n        /* \"contracts/Dividends/SwapRewardsChef.sol\":4919:4935  remainingRewards */\n      0x0c\n        /* \"contracts/Dividends/SwapRewardsChef.sol\":4919:4972  remainingRewards = remainingRewards.sub(totalRewards) */\n      dup2\n      swap1\n      sstore\n      pop\n        /* \"contracts/Dividends/SwapRewardsChef.sol\":5007:5071  pool.accRewardPerShare.add(totalRewards.mul(1e18).div(lpSupply)) */\n      tag_219\n        /* \"contracts/Dividends/SwapRewardsChef.sol\":5034:5070  totalRewards.mul(1e18).div(lpSupply) */\n      tag_220\n        /* \"contracts/Dividends/SwapRewardsChef.sol\":5061:5069  lpSupply */\n      dup5\n        /* \"contracts/Dividends/SwapRewardsChef.sol\":5034:5056  totalRewards.mul(1e18) */\n      tag_221\n        /* \"contracts/Dividends/SwapRewardsChef.sol\":5051:5055  1e18 */\n      0x0de0b6b3a7640000\n        /* \"contracts/Dividends/SwapRewardsChef.sol\":5034:5046  totalRewards */\n      dup6\n        /* \"contracts/Dividends/SwapRewardsChef.sol\":5034:5050  totalRewards.mul */\n      tag_122\n      swap1\n        /* \"contracts/Dividends/SwapRewardsChef.sol\":5034:5056  totalRewards.mul(1e18) */\n      swap2\n      swap1\n      0xffffffff\n      and\n      jump\t// in\n    tag_221:\n        /* \"contracts/Dividends/SwapRewardsChef.sol\":5034:5060  totalRewards.mul(1e18).div */\n      tag_123\n      swap1\n        /* \"contracts/Dividends/SwapRewardsChef.sol\":5034:5070  totalRewards.mul(1e18).div(lpSupply) */\n      swap2\n      swap1\n      0xffffffff\n      and\n      jump\t// in\n    tag_220:\n        /* \"contracts/Dividends/SwapRewardsChef.sol\":5007:5011  pool */\n      dup6\n        /* \"contracts/Dividends/SwapRewardsChef.sol\":5007:5029  pool.accRewardPerShare */\n      0x03\n      add\n      sload\n        /* \"contracts/Dividends/SwapRewardsChef.sol\":5007:5033  pool.accRewardPerShare.add */\n      tag_151\n      swap1\n        /* \"contracts/Dividends/SwapRewardsChef.sol\":5007:5071  pool.accRewardPerShare.add(totalRewards.mul(1e18).div(lpSupply)) */\n      swap2\n      swap1\n      0xffffffff\n      and\n      jump\t// in\n    tag_219:\n        /* \"contracts/Dividends/SwapRewardsChef.sol\":4982:4986  pool */\n      dup5\n        /* \"contracts/Dividends/SwapRewardsChef.sol\":4982:5004  pool.accRewardPerShare */\n      0x03\n      add\n        /* \"contracts/Dividends/SwapRewardsChef.sol\":4982:5071  pool.accRewardPerShare = pool.accRewardPerShare.add(totalRewards.mul(1e18).div(lpSupply)) */\n      dup2\n      swap1\n      sstore\n      pop\n        /* \"contracts/Dividends/SwapRewardsChef.sol\":5104:5116  block.number */\n      number\n        /* \"contracts/Dividends/SwapRewardsChef.sol\":5081:5085  pool */\n      dup5\n        /* \"contracts/Dividends/SwapRewardsChef.sol\":5081:5101  pool.lastRewardBlock */\n      0x02\n      add\n        /* \"contracts/Dividends/SwapRewardsChef.sol\":5081:5116  pool.lastRewardBlock = block.number */\n      dup2\n      swap1\n      sstore\n      pop\n        /* \"contracts/Dividends/SwapRewardsChef.sol\":4139:5123  function updatePool() public {... */\n      pop\n      pop\n      pop\n      pop\n    tag_206:\n      jump\t// out\n        /* \"contracts/Dividends/SwapRewardsChef.sol\":9064:9450  function updateEmissionSettings(uint256 denomination, uint256 minimum, uint256 maximum) external onlyOwner {... */\n    tag_98:\n        /* \"@openzeppelin/contracts/access/Ownable.sol\":1308:1320  _msgSender() */\n      tag_223\n        /* \"@openzeppelin/contracts/access/Ownable.sol\":1308:1318  _msgSender */\n      tag_157\n        /* \"@openzeppelin/contracts/access/Ownable.sol\":1308:1320  _msgSender() */\n      jump\t// in\n    tag_223:\n        /* \"@openzeppelin/contracts/access/Ownable.sol\":1297:1320  owner() == _msgSender() */\n      0xffffffffffffffffffffffffffffffffffffffff\n      and\n        /* \"@openzeppelin/contracts/access/Ownable.sol\":1297:1304  owner() */\n      tag_224\n        /* \"@openzeppelin/contracts/access/Ownable.sol\":1297:1302  owner */\n      tag_78\n        /* \"@openzeppelin/contracts/access/Ownable.sol\":1297:1304  owner() */\n      jump\t// in\n    tag_224:\n        /* \"@openzeppelin/contracts/access/Ownable.sol\":1297:1320  owner() == _msgSender() */\n      0xffffffffffffffffffffffffffffffffffffffff\n      and\n      eq\n        /* \"@openzeppelin/contracts/access/Ownable.sol\":1289:1357  require(owner() == _msgSender(), \"Ownable: caller is not the owner\") */\n      tag_225\n      jumpi\n      mload(0x40)\n      0x08c379a000000000000000000000000000000000000000000000000000000000\n      dup2\n      mstore\n      0x04\n      add\n      dup1\n      dup1\n      0x20\n      add\n      dup3\n      dup2\n      sub\n      dup3\n      mstore\n      0x20\n      dup2\n      mstore\n      0x20\n      add\n      dup1\n      0x4f776e61626c653a2063616c6c6572206973206e6f7420746865206f776e6572\n      dup2\n      mstore\n      pop\n      0x20\n      add\n      swap2\n      pop\n      pop\n      mload(0x40)\n      dup1\n      swap2\n      sub\n      swap1\n      revert\n    tag_225:\n        /* \"contracts/Dividends/SwapRewardsChef.sol\":9181:9193  updatePool() */\n      tag_227\n        /* \"contracts/Dividends/SwapRewardsChef.sol\":9181:9191  updatePool */\n      tag_94\n        /* \"contracts/Dividends/SwapRewardsChef.sol\":9181:9193  updatePool() */\n      jump\t// in\n    tag_227:\n        /* \"contracts/Dividends/SwapRewardsChef.sol\":9228:9240  denomination */\n      dup3\n        /* \"contracts/Dividends/SwapRewardsChef.sol\":9203:9225  denominationEmitAmount */\n      0x05\n        /* \"contracts/Dividends/SwapRewardsChef.sol\":9203:9240  denominationEmitAmount = denomination */\n      dup2\n      swap1\n      sstore\n      pop\n        /* \"contracts/Dividends/SwapRewardsChef.sol\":9270:9277  minimum */\n      dup2\n        /* \"contracts/Dividends/SwapRewardsChef.sol\":9250:9267  minimumEmitAmount */\n      0x06\n        /* \"contracts/Dividends/SwapRewardsChef.sol\":9250:9277  minimumEmitAmount = minimum */\n      dup2\n      swap1\n      sstore\n      pop\n        /* \"contracts/Dividends/SwapRewardsChef.sol\":9307:9314  maximum */\n      dup1\n        /* \"contracts/Dividends/SwapRewardsChef.sol\":9287:9304  maximumEmitAmount */\n      0x07\n        /* \"contracts/Dividends/SwapRewardsChef.sol\":9287:9314  maximumEmitAmount = maximum */\n      dup2\n      swap1\n      sstore\n      pop\n        /* \"contracts/Dividends/SwapRewardsChef.sol\":9324:9344  updateEmissionRate() */\n      tag_228\n        /* \"contracts/Dividends/SwapRewardsChef.sol\":9324:9342  updateEmissionRate */\n      tag_179\n        /* \"contracts/Dividends/SwapRewardsChef.sol\":9324:9344  updateEmissionRate() */\n      jump\t// in\n    tag_228:\n        /* \"contracts/Dividends/SwapRewardsChef.sol\":9383:9393  msg.sender */\n      caller\n        /* \"contracts/Dividends/SwapRewardsChef.sol\":9360:9443  UpdateEmissionSettings(msg.sender, denomination, minimum, maximum, rewardsPerBlock) */\n      0xffffffffffffffffffffffffffffffffffffffff\n      and\n      0xa2ccc6b6183e466f6e7b59cc83e6a4a0fd8a4adab25b95ac0fcb805b963ea0f3\n        /* \"contracts/Dividends/SwapRewardsChef.sol\":9395:9407  denomination */\n      dup5\n        /* \"contracts/Dividends/SwapRewardsChef.sol\":9409:9416  minimum */\n      dup5\n        /* \"contracts/Dividends/SwapRewardsChef.sol\":9418:9425  maximum */\n      dup5\n        /* \"contracts/Dividends/SwapRewardsChef.sol\":9427:9442  rewardsPerBlock */\n      sload(0x04)\n        /* \"contracts/Dividends/SwapRewardsChef.sol\":9360:9443  UpdateEmissionSettings(msg.sender, denomination, minimum, maximum, rewardsPerBlock) */\n      mload(0x40)\n      dup1\n      dup6\n      dup2\n      mstore\n      0x20\n      add\n      dup5\n      dup2\n      mstore\n      0x20\n      add\n      dup4\n      dup2\n      mstore\n      0x20\n      add\n      dup3\n      dup2\n      mstore\n      0x20\n      add\n      swap5\n      pop\n      pop\n      pop\n      pop\n      pop\n      mload(0x40)\n      dup1\n      swap2\n      sub\n      swap1\n      log2\n        /* \"contracts/Dividends/SwapRewardsChef.sol\":9064:9450  function updateEmissionSettings(uint256 denomination, uint256 minimum, uint256 maximum) external onlyOwner {... */\n      pop\n      pop\n      pop\n      jump\t// out\n        /* \"@openzeppelin/contracts/access/Ownable.sol\":2011:2251  function transferOwnership(address newOwner) public virtual onlyOwner {... */\n    tag_102:\n        /* \"@openzeppelin/contracts/access/Ownable.sol\":1308:1320  _msgSender() */\n      tag_230\n        /* \"@openzeppelin/contracts/access/Ownable.sol\":1308:1318  _msgSender */\n      tag_157\n        /* \"@openzeppelin/contracts/access/Ownable.sol\":1308:1320  _msgSender() */\n      jump\t// in\n    tag_230:\n        /* \"@openzeppelin/contracts/access/Ownable.sol\":1297:1320  owner() == _msgSender() */\n      0xffffffffffffffffffffffffffffffffffffffff\n      and\n        /* \"@openzeppelin/contracts/access/Ownable.sol\":1297:1304  owner() */\n      tag_231\n        /* \"@openzeppelin/contracts/access/Ownable.sol\":1297:1302  owner */\n      tag_78\n        /* \"@openzeppelin/contracts/access/Ownable.sol\":1297:1304  owner() */\n      jump\t// in\n    tag_231:\n        /* \"@openzeppelin/contracts/access/Ownable.sol\":1297:1320  owner() == _msgSender() */\n      0xffffffffffffffffffffffffffffffffffffffff\n      and\n      eq\n        /* \"@openzeppelin/contracts/access/Ownable.sol\":1289:1357  require(owner() == _msgSender(), \"Ownable: caller is not the owner\") */\n      tag_232\n      jumpi\n      mload(0x40)\n      0x08c379a000000000000000000000000000000000000000000000000000000000\n      dup2\n      mstore\n      0x04\n      add\n      dup1\n      dup1\n      0x20\n      add\n      dup3\n      dup2\n      sub\n      dup3\n      mstore\n      0x20\n      dup2\n      mstore\n      0x20\n      add\n      dup1\n      0x4f776e61626c653a2063616c6c6572206973206e6f7420746865206f776e6572\n      dup2\n      mstore\n      pop\n      0x20\n      add\n      swap2\n      pop\n      pop\n      mload(0x40)\n      dup1\n      swap2\n      sub\n      swap1\n      revert\n    tag_232:\n        /* \"@openzeppelin/contracts/access/Ownable.sol\":2119:2120  0 */\n      0x00\n        /* \"@openzeppelin/contracts/access/Ownable.sol\":2099:2121  newOwner != address(0) */\n      0xffffffffffffffffffffffffffffffffffffffff\n      and\n        /* \"@openzeppelin/contracts/access/Ownable.sol\":2099:2107  newOwner */\n      dup2\n        /* \"@openzeppelin/contracts/access/Ownable.sol\":2099:2121  newOwner != address(0) */\n      0xffffffffffffffffffffffffffffffffffffffff\n      and\n      eq\n      iszero\n        /* \"@openzeppelin/contracts/access/Ownable.sol\":2091:2164  require(newOwner != address(0), \"Ownable: new owner is the zero address\") */\n      tag_234\n      jumpi\n      mload(0x40)\n      0x08c379a000000000000000000000000000000000000000000000000000000000\n      dup2\n      mstore\n      0x04\n      add\n      dup1\n      dup1\n      0x20\n      add\n      dup3\n      dup2\n      sub\n      dup3\n      mstore\n      0x26\n      dup2\n      mstore\n      0x20\n      add\n      dup1\n      data_245f15ff17f551913a7a18385165551503906a406f905ac1c2437281a7cd0cfe\n      0x26\n      swap2\n      codecopy\n      0x40\n      add\n      swap2\n      pop\n      pop\n      mload(0x40)\n      dup1\n      swap2\n      sub\n      swap1\n      revert\n    tag_234:\n        /* \"@openzeppelin/contracts/access/Ownable.sol\":2208:2216  newOwner */\n      dup1\n        /* \"@openzeppelin/contracts/access/Ownable.sol\":2179:2217  OwnershipTransferred(_owner, newOwner) */\n      0xffffffffffffffffffffffffffffffffffffffff\n      and\n        /* \"@openzeppelin/contracts/access/Ownable.sol\":2200:2206  _owner */\n      0x00\n      dup1\n      sload\n      swap1\n      0x0100\n      exp\n      swap1\n      div\n      0xffffffffffffffffffffffffffffffffffffffff\n      and\n        /* \"@openzeppelin/contracts/access/Ownable.sol\":2179:2217  OwnershipTransferred(_owner, newOwner) */\n      0xffffffffffffffffffffffffffffffffffffffff\n      and\n      0x8be0079c531659141344cd1fd0a4f28419497f9722a3daafe3b4186f6b6457e0\n      mload(0x40)\n      mload(0x40)\n      dup1\n      swap2\n      sub\n      swap1\n      log3\n        /* \"@openzeppelin/contracts/access/Ownable.sol\":2236:2244  newOwner */\n      dup1\n        /* \"@openzeppelin/contracts/access/Ownable.sol\":2227:2233  _owner */\n      0x00\n      dup1\n        /* \"@openzeppelin/contracts/access/Ownable.sol\":2227:2244  _owner = newOwner */\n      0x0100\n      exp\n      dup2\n      sload\n      dup2\n      0xffffffffffffffffffffffffffffffffffffffff\n      mul\n      not\n      and\n      swap1\n      dup4\n      0xffffffffffffffffffffffffffffffffffffffff\n      and\n      mul\n      or\n      swap1\n      sstore\n      pop\n        /* \"@openzeppelin/contracts/access/Ownable.sol\":2011:2251  function transferOwnership(address newOwner) public virtual onlyOwner {... */\n      pop\n      jump\t// out\n        /* \"contracts/Dividends/SwapRewardsChef.sol\":1226:1251  IERC20 public rewardToken */\n    tag_105:\n      0x03\n      0x00\n      swap1\n      sload\n      swap1\n      0x0100\n      exp\n      swap1\n      div\n      0xffffffffffffffffffffffffffffffffffffffff\n      and\n      dup2\n      jump\t// out\n        /* \"contracts/Dividends/SwapRewardsChef.sol\":9689:10399  function harvestFor(address _user) public nonReentrant {... */\n    tag_109:\n        /* \"@openzeppelin/contracts/utils/ReentrancyGuard.sol\":1688:1689  2 */\n      0x02\n        /* \"@openzeppelin/contracts/utils/ReentrancyGuard.sol\":2277:2284  _status */\n      sload(0x01)\n        /* \"@openzeppelin/contracts/utils/ReentrancyGuard.sol\":2277:2296  _status != _ENTERED */\n      eq\n      iszero\n        /* \"@openzeppelin/contracts/utils/ReentrancyGuard.sol\":2269:2332  require(_status != _ENTERED, \"ReentrancyGuard: reentrant call\") */\n      tag_236\n      jumpi\n      mload(0x40)\n      0x08c379a000000000000000000000000000000000000000000000000000000000\n      dup2\n      mstore\n      0x04\n      add\n      dup1\n      dup1\n      0x20\n      add\n      dup3\n      dup2\n      sub\n      dup3\n      mstore\n      0x1f\n      dup2\n      mstore\n      0x20\n      add\n      dup1\n      0x5265656e7472616e637947756172643a207265656e7472616e742063616c6c00\n      dup2\n      mstore\n      pop\n      0x20\n      add\n      swap2\n      pop\n      pop\n      mload(0x40)\n      dup1\n      swap2\n      sub\n      swap1\n      revert\n    tag_236:\n        /* \"@openzeppelin/contracts/utils/ReentrancyGuard.sol\":1688:1689  2 */\n      0x02\n        /* \"@openzeppelin/contracts/utils/ReentrancyGuard.sol\":2407:2414  _status */\n      0x01\n        /* \"@openzeppelin/contracts/utils/ReentrancyGuard.sol\":2407:2425  _status = _ENTERED */\n      dup2\n      swap1\n      sstore\n      pop\n        /* \"contracts/Dividends/SwapRewardsChef.sol\":9852:9857  _user */\n      dup1\n        /* \"contracts/Dividends/SwapRewardsChef.sol\":9838:9857  msg.sender == _user */\n      0xffffffffffffffffffffffffffffffffffffffff\n      and\n        /* \"contracts/Dividends/SwapRewardsChef.sol\":9838:9848  msg.sender */\n      caller\n        /* \"contracts/Dividends/SwapRewardsChef.sol\":9838:9857  msg.sender == _user */\n      0xffffffffffffffffffffffffffffffffffffffff\n      and\n      eq\n        /* \"contracts/Dividends/SwapRewardsChef.sol\":9838:9879  msg.sender == _user || tx.origin == _user */\n      dup1\n      tag_238\n      jumpi\n      pop\n        /* \"contracts/Dividends/SwapRewardsChef.sol\":9874:9879  _user */\n      dup1\n        /* \"contracts/Dividends/SwapRewardsChef.sol\":9861:9879  tx.origin == _user */\n      0xffffffffffffffffffffffffffffffffffffffff\n      and\n        /* \"contracts/Dividends/SwapRewardsChef.sol\":9861:9870  tx.origin */\n      origin\n        /* \"contracts/Dividends/SwapRewardsChef.sol\":9861:9879  tx.origin == _user */\n      0xffffffffffffffffffffffffffffffffffffffff\n      and\n      eq\n        /* \"contracts/Dividends/SwapRewardsChef.sol\":9838:9879  msg.sender == _user || tx.origin == _user */\n    tag_238:\n        /* \"contracts/Dividends/SwapRewardsChef.sol\":9830:9905  require(msg.sender == _user || tx.origin == _user, \"harvestFor: FORBIDDEN\") */\n      tag_239\n      jumpi\n      mload(0x40)\n      0x08c379a000000000000000000000000000000000000000000000000000000000\n      dup2\n      mstore\n      0x04\n      add\n      dup1\n      dup1\n      0x20\n      add\n      dup3\n      dup2\n      sub\n      dup3\n      mstore\n      0x15\n      dup2\n      mstore\n      0x20\n      add\n      dup1\n      0x68617276657374466f723a20464f5242494444454e0000000000000000000000\n      dup2\n      mstore\n      pop\n      0x20\n      add\n      swap2\n      pop\n      pop\n      mload(0x40)\n      dup1\n      swap2\n      sub\n      swap1\n      revert\n    tag_239:\n        /* \"contracts/Dividends/SwapRewardsChef.sol\":9915:9936  PoolInfo storage pool */\n      0x00\n        /* \"contracts/Dividends/SwapRewardsChef.sol\":9939:9947  poolInfo */\n      0x08\n        /* \"contracts/Dividends/SwapRewardsChef.sol\":9948:9949  0 */\n      0x00\n        /* \"contracts/Dividends/SwapRewardsChef.sol\":9939:9950  poolInfo[0] */\n      dup2\n      sload\n      dup2\n      lt\n      tag_240\n      jumpi\n      invalid\n    tag_240:\n      swap1\n      0x00\n      mstore\n      keccak256(0x00, 0x20)\n      swap1\n      0x05\n      mul\n      add\n        /* \"contracts/Dividends/SwapRewardsChef.sol\":9915:9950  PoolInfo storage pool = poolInfo[0] */\n      swap1\n      pop\n        /* \"contracts/Dividends/SwapRewardsChef.sol\":9960:9981  UserInfo storage user */\n      0x00\n        /* \"contracts/Dividends/SwapRewardsChef.sol\":9984:9992  userInfo */\n      0x09\n        /* \"contracts/Dividends/SwapRewardsChef.sol\":9984:9999  userInfo[_user] */\n      0x00\n        /* \"contracts/Dividends/SwapRewardsChef.sol\":9993:9998  _user */\n      dup5\n        /* \"contracts/Dividends/SwapRewardsChef.sol\":9984:9999  userInfo[_user] */\n      0xffffffffffffffffffffffffffffffffffffffff\n      and\n      0xffffffffffffffffffffffffffffffffffffffff\n      and\n      dup2\n      mstore\n      0x20\n      add\n      swap1\n      dup2\n      mstore\n      0x20\n      add\n      0x00\n      keccak256\n        /* \"contracts/Dividends/SwapRewardsChef.sol\":9960:9999  UserInfo storage user = userInfo[_user] */\n      swap1\n      pop\n        /* \"contracts/Dividends/SwapRewardsChef.sol\":10009:10021  updatePool() */\n      tag_242\n        /* \"contracts/Dividends/SwapRewardsChef.sol\":10009:10019  updatePool */\n      tag_94\n        /* \"contracts/Dividends/SwapRewardsChef.sol\":10009:10021  updatePool() */\n      jump\t// in\n    tag_242:\n        /* \"contracts/Dividends/SwapRewardsChef.sol\":10049:10050  0 */\n      0x00\n        /* \"contracts/Dividends/SwapRewardsChef.sol\":10035:10039  user */\n      dup2\n        /* \"contracts/Dividends/SwapRewardsChef.sol\":10035:10046  user.amount */\n      0x00\n      add\n      sload\n        /* \"contracts/Dividends/SwapRewardsChef.sol\":10035:10050  user.amount > 0 */\n      gt\n        /* \"contracts/Dividends/SwapRewardsChef.sol\":10031:10393  if (user.amount > 0) {... */\n      iszero\n      tag_243\n      jumpi\n        /* \"contracts/Dividends/SwapRewardsChef.sol\":10066:10081  uint256 pending */\n      0x00\n        /* \"contracts/Dividends/SwapRewardsChef.sol\":10084:10154  user.amount.mul(pool.accRewardPerShare).div(1e18).sub(user.rewardDebt) */\n      tag_244\n        /* \"contracts/Dividends/SwapRewardsChef.sol\":10138:10142  user */\n      dup3\n        /* \"contracts/Dividends/SwapRewardsChef.sol\":10138:10153  user.rewardDebt */\n      0x01\n      add\n      sload\n        /* \"contracts/Dividends/SwapRewardsChef.sol\":10084:10133  user.amount.mul(pool.accRewardPerShare).div(1e18) */\n      tag_245\n        /* \"contracts/Dividends/SwapRewardsChef.sol\":10128:10132  1e18 */\n      0x0de0b6b3a7640000\n        /* \"contracts/Dividends/SwapRewardsChef.sol\":10084:10123  user.amount.mul(pool.accRewardPerShare) */\n      tag_246\n        /* \"contracts/Dividends/SwapRewardsChef.sol\":10100:10104  pool */\n      dup8\n        /* \"contracts/Dividends/SwapRewardsChef.sol\":10100:10122  pool.accRewardPerShare */\n      0x03\n      add\n      sload\n        /* \"contracts/Dividends/SwapRewardsChef.sol\":10084:10088  user */\n      dup8\n        /* \"contracts/Dividends/SwapRewardsChef.sol\":10084:10095  user.amount */\n      0x00\n      add\n      sload\n        /* \"contracts/Dividends/SwapRewardsChef.sol\":10084:10099  user.amount.mul */\n      tag_122\n      swap1\n        /* \"contracts/Dividends/SwapRewardsChef.sol\":10084:10123  user.amount.mul(pool.accRewardPerShare) */\n      swap2\n      swap1\n      0xffffffff\n      and\n      jump\t// in\n    tag_246:\n        /* \"contracts/Dividends/SwapRewardsChef.sol\":10084:10127  user.amount.mul(pool.accRewardPerShare).div */\n      tag_123\n      swap1\n        /* \"contracts/Dividends/SwapRewardsChef.sol\":10084:10133  user.amount.mul(pool.accRewardPerShare).div(1e18) */\n      swap2\n      swap1\n      0xffffffff\n      and\n      jump\t// in\n    tag_245:\n        /* \"contracts/Dividends/SwapRewardsChef.sol\":10084:10137  user.amount.mul(pool.accRewardPerShare).div(1e18).sub */\n      tag_124\n      swap1\n        /* \"contracts/Dividends/SwapRewardsChef.sol\":10084:10154  user.amount.mul(pool.accRewardPerShare).div(1e18).sub(user.rewardDebt) */\n      swap2\n      swap1\n      0xffffffff\n      and\n      jump\t// in\n    tag_244:\n        /* \"contracts/Dividends/SwapRewardsChef.sol\":10066:10154  uint256 pending = user.amount.mul(pool.accRewardPerShare).div(1e18).sub(user.rewardDebt) */\n      swap1\n      pop\n        /* \"contracts/Dividends/SwapRewardsChef.sol\":10182:10183  0 */\n      0x00\n        /* \"contracts/Dividends/SwapRewardsChef.sol\":10172:10179  pending */\n      dup2\n        /* \"contracts/Dividends/SwapRewardsChef.sol\":10172:10183  pending > 0 */\n      gt\n        /* \"contracts/Dividends/SwapRewardsChef.sol\":10168:10383  if (pending > 0) {... */\n      iszero\n      tag_247\n      jumpi\n        /* \"contracts/Dividends/SwapRewardsChef.sol\":10203:10237  safeRewardTransfer(_user, pending) */\n      tag_248\n        /* \"contracts/Dividends/SwapRewardsChef.sol\":10222:10227  _user */\n      dup5\n        /* \"contracts/Dividends/SwapRewardsChef.sol\":10229:10236  pending */\n      dup3\n        /* \"contracts/Dividends/SwapRewardsChef.sol\":10203:10221  safeRewardTransfer */\n      tag_127\n        /* \"contracts/Dividends/SwapRewardsChef.sol\":10203:10237  safeRewardTransfer(_user, pending) */\n      jump\t// in\n    tag_248:\n        /* \"contracts/Dividends/SwapRewardsChef.sol\":10273:10322  user.amount.mul(pool.accRewardPerShare).div(1e18) */\n      tag_249\n        /* \"contracts/Dividends/SwapRewardsChef.sol\":10317:10321  1e18 */\n      0x0de0b6b3a7640000\n        /* \"contracts/Dividends/SwapRewardsChef.sol\":10273:10312  user.amount.mul(pool.accRewardPerShare) */\n      tag_250\n        /* \"contracts/Dividends/SwapRewardsChef.sol\":10289:10293  pool */\n      dup6\n        /* \"contracts/Dividends/SwapRewardsChef.sol\":10289:10311  pool.accRewardPerShare */\n      0x03\n      add\n      sload\n        /* \"contracts/Dividends/SwapRewardsChef.sol\":10273:10277  user */\n      dup6\n        /* \"contracts/Dividends/SwapRewardsChef.sol\":10273:10284  user.amount */\n      0x00\n      add\n      sload\n        /* \"contracts/Dividends/SwapRewardsChef.sol\":10273:10288  user.amount.mul */\n      tag_122\n      swap1\n        /* \"contracts/Dividends/SwapRewardsChef.sol\":10273:10312  user.amount.mul(pool.accRewardPerShare) */\n      swap2\n      swap1\n      0xffffffff\n      and\n      jump\t// in\n    tag_250:\n        /* \"contracts/Dividends/SwapRewardsChef.sol\":10273:10316  user.amount.mul(pool.accRewardPerShare).div */\n      tag_123\n      swap1\n        /* \"contracts/Dividends/SwapRewardsChef.sol\":10273:10322  user.amount.mul(pool.accRewardPerShare).div(1e18) */\n      swap2\n      swap1\n      0xffffffff\n      and\n      jump\t// in\n    tag_249:\n        /* \"contracts/Dividends/SwapRewardsChef.sol\":10255:10259  user */\n      dup3\n        /* \"contracts/Dividends/SwapRewardsChef.sol\":10255:10270  user.rewardDebt */\n      0x01\n      add\n        /* \"contracts/Dividends/SwapRewardsChef.sol\":10255:10322  user.rewardDebt = user.amount.mul(pool.accRewardPerShare).div(1e18) */\n      dup2\n      swap1\n      sstore\n      pop\n        /* \"contracts/Dividends/SwapRewardsChef.sol\":10353:10358  _user */\n      dup4\n        /* \"contracts/Dividends/SwapRewardsChef.sol\":10345:10368  Harvest(_user, pending) */\n      0xffffffffffffffffffffffffffffffffffffffff\n      and\n      0xc9695243a805adb74c91f28311176c65b417e842d5699893cef56d18bfa48cba\n        /* \"contracts/Dividends/SwapRewardsChef.sol\":10360:10367  pending */\n      dup3\n        /* \"contracts/Dividends/SwapRewardsChef.sol\":10345:10368  Harvest(_user, pending) */\n      mload(0x40)\n      dup1\n      dup3\n      dup2\n      mstore\n      0x20\n      add\n      swap2\n      pop\n      pop\n      mload(0x40)\n      dup1\n      swap2\n      sub\n      swap1\n      log2\n        /* \"contracts/Dividends/SwapRewardsChef.sol\":10168:10383  if (pending > 0) {... */\n    tag_247:\n        /* \"contracts/Dividends/SwapRewardsChef.sol\":10031:10393  if (user.amount > 0) {... */\n      pop\n    tag_243:\n        /* \"@openzeppelin/contracts/utils/ReentrancyGuard.sol\":2436:2437  _ */\n      pop\n      pop\n        /* \"@openzeppelin/contracts/utils/ReentrancyGuard.sol\":1645:1646  1 */\n      0x01\n        /* \"@openzeppelin/contracts/utils/ReentrancyGuard.sol\":2580:2587  _status */\n      dup1\n        /* \"@openzeppelin/contracts/utils/ReentrancyGuard.sol\":2580:2602  _status = _NOT_ENTERED */\n      dup2\n      swap1\n      sstore\n      pop\n        /* \"contracts/Dividends/SwapRewardsChef.sol\":9689:10399  function harvestFor(address _user) public nonReentrant {... */\n      pop\n      jump\t// out\n        /* \"@openzeppelin/contracts/math/SafeMath.sol\":3538:3753  function mul(uint256 a, uint256 b) internal pure returns (uint256) {... */\n    tag_122:\n        /* \"@openzeppelin/contracts/math/SafeMath.sol\":3596:3603  uint256 */\n      0x00\n        /* \"@openzeppelin/contracts/math/SafeMath.sol\":3624:3625  0 */\n      dup1\n        /* \"@openzeppelin/contracts/math/SafeMath.sol\":3619:3620  a */\n      dup4\n        /* \"@openzeppelin/contracts/math/SafeMath.sol\":3619:3625  a == 0 */\n      eq\n        /* \"@openzeppelin/contracts/math/SafeMath.sol\":3615:3635  if (a == 0) return 0 */\n      iszero\n      tag_252\n      jumpi\n        /* \"@openzeppelin/contracts/math/SafeMath.sol\":3634:3635  0 */\n      0x00\n        /* \"@openzeppelin/contracts/math/SafeMath.sol\":3627:3635  return 0 */\n      swap1\n      pop\n      jump(tag_251)\n        /* \"@openzeppelin/contracts/math/SafeMath.sol\":3615:3635  if (a == 0) return 0 */\n    tag_252:\n        /* \"@openzeppelin/contracts/math/SafeMath.sol\":3645:3654  uint256 c */\n      0x00\n        /* \"@openzeppelin/contracts/math/SafeMath.sol\":3661:3662  b */\n      dup3\n        /* \"@openzeppelin/contracts/math/SafeMath.sol\":3657:3658  a */\n      dup5\n        /* \"@openzeppelin/contracts/math/SafeMath.sol\":3657:3662  a * b */\n      mul\n        /* \"@openzeppelin/contracts/math/SafeMath.sol\":3645:3662  uint256 c = a * b */\n      swap1\n      pop\n        /* \"@openzeppelin/contracts/math/SafeMath.sol\":3689:3690  b */\n      dup3\n        /* \"@openzeppelin/contracts/math/SafeMath.sol\":3684:3685  a */\n      dup5\n        /* \"@openzeppelin/contracts/math/SafeMath.sol\":3680:3681  c */\n      dup3\n        /* \"@openzeppelin/contracts/math/SafeMath.sol\":3680:3685  c / a */\n      dup2\n      tag_253\n      jumpi\n      invalid\n    tag_253:\n      div\n        /* \"@openzeppelin/contracts/math/SafeMath.sol\":3680:3690  c / a == b */\n      eq\n        /* \"@openzeppelin/contracts/math/SafeMath.sol\":3672:3728  require(c / a == b, \"SafeMath: multiplication overflow\") */\n      tag_254\n      jumpi\n      mload(0x40)\n      0x08c379a000000000000000000000000000000000000000000000000000000000\n      dup2\n      mstore\n      0x04\n      add\n      dup1\n      dup1\n      0x20\n      add\n      dup3\n      dup2\n      sub\n      dup3\n      mstore\n      0x21\n      dup2\n      mstore\n      0x20\n      add\n      dup1\n      data_9113bb53c2876a3805b2c9242029423fc540a728243ce887ab24c82cf119fba3\n      0x21\n      swap2\n      codecopy\n      0x40\n      add\n      swap2\n      pop\n      pop\n      mload(0x40)\n      dup1\n      swap2\n      sub\n      swap1\n      revert\n    tag_254:\n        /* \"@openzeppelin/contracts/math/SafeMath.sol\":3745:3746  c */\n      dup1\n        /* \"@openzeppelin/contracts/math/SafeMath.sol\":3738:3746  return c */\n      swap2\n      pop\n      pop\n        /* \"@openzeppelin/contracts/math/SafeMath.sol\":3538:3753  function mul(uint256 a, uint256 b) internal pure returns (uint256) {... */\n    tag_251:\n      swap3\n      swap2\n      pop\n      pop\n      jump\t// out\n        /* \"@openzeppelin/contracts/math/SafeMath.sol\":4217:4367  function div(uint256 a, uint256 b) internal pure returns (uint256) {... */\n    tag_123:\n        /* \"@openzeppelin/contracts/math/SafeMath.sol\":4275:4282  uint256 */\n      0x00\n        /* \"@openzeppelin/contracts/math/SafeMath.sol\":4306:4307  0 */\n      dup1\n        /* \"@openzeppelin/contracts/math/SafeMath.sol\":4302:4303  b */\n      dup3\n        /* \"@openzeppelin/contracts/math/SafeMath.sol\":4302:4307  b > 0 */\n      gt\n        /* \"@openzeppelin/contracts/math/SafeMath.sol\":4294:4338  require(b > 0, \"SafeMath: division by zero\") */\n      tag_256\n      jumpi\n      mload(0x40)\n      0x08c379a000000000000000000000000000000000000000000000000000000000\n      dup2\n      mstore\n      0x04\n      add\n      dup1\n      dup1\n      0x20\n      add\n      dup3\n      dup2\n      sub\n      dup3\n      mstore\n      0x1a\n      dup2\n      mstore\n      0x20\n      add\n      dup1\n      0x536166654d6174683a206469766973696f6e206279207a65726f000000000000\n      dup2\n      mstore\n      pop\n      0x20\n      add\n      swap2\n      pop\n      pop\n      mload(0x40)\n      dup1\n      swap2\n      sub\n      swap1\n      revert\n    tag_256:\n        /* \"@openzeppelin/contracts/math/SafeMath.sol\":4359:4360  b */\n      dup2\n        /* \"@openzeppelin/contracts/math/SafeMath.sol\":4355:4356  a */\n      dup4\n        /* \"@openzeppelin/contracts/math/SafeMath.sol\":4355:4360  a / b */\n      dup2\n      tag_257\n      jumpi\n      invalid\n    tag_257:\n      div\n        /* \"@openzeppelin/contracts/math/SafeMath.sol\":4348:4360  return a / b */\n      swap1\n      pop\n        /* \"@openzeppelin/contracts/math/SafeMath.sol\":4217:4367  function div(uint256 a, uint256 b) internal pure returns (uint256) {... */\n      swap3\n      swap2\n      pop\n      pop\n      jump\t// out\n        /* \"@openzeppelin/contracts/math/SafeMath.sol\":3136:3291  function sub(uint256 a, uint256 b) internal pure returns (uint256) {... */\n    tag_124:\n        /* \"@openzeppelin/contracts/math/SafeMath.sol\":3194:3201  uint256 */\n      0x00\n        /* \"@openzeppelin/contracts/math/SafeMath.sol\":3226:3227  a */\n      dup3\n        /* \"@openzeppelin/contracts/math/SafeMath.sol\":3221:3222  b */\n      dup3\n        /* \"@openzeppelin/contracts/math/SafeMath.sol\":3221:3227  b <= a */\n      gt\n      iszero\n        /* \"@openzeppelin/contracts/math/SafeMath.sol\":3213:3262  require(b <= a, \"SafeMath: subtraction overflow\") */\n      tag_259\n      jumpi\n      mload(0x40)\n      0x08c379a000000000000000000000000000000000000000000000000000000000\n      dup2\n      mstore\n      0x04\n      add\n      dup1\n      dup1\n      0x20\n      add\n      dup3\n      dup2\n      sub\n      dup3\n      mstore\n      0x1e\n      dup2\n      mstore\n      0x20\n      add\n      dup1\n      0x536166654d6174683a207375627472616374696f6e206f766572666c6f770000\n      dup2\n      mstore\n      pop\n      0x20\n      add\n      swap2\n      pop\n      pop\n      mload(0x40)\n      dup1\n      swap2\n      sub\n      swap1\n      revert\n    tag_259:\n        /* \"@openzeppelin/contracts/math/SafeMath.sol\":3283:3284  b */\n      dup2\n        /* \"@openzeppelin/contracts/math/SafeMath.sol\":3279:3280  a */\n      dup4\n        /* \"@openzeppelin/contracts/math/SafeMath.sol\":3279:3284  a - b */\n      sub\n        /* \"@openzeppelin/contracts/math/SafeMath.sol\":3272:3284  return a - b */\n      swap1\n      pop\n        /* \"@openzeppelin/contracts/math/SafeMath.sol\":3136:3291  function sub(uint256 a, uint256 b) internal pure returns (uint256) {... */\n      swap3\n      swap2\n      pop\n      pop\n      jump\t// out\n        /* \"contracts/Dividends/SwapRewardsChef.sol\":8121:8782  function safeRewardTransfer(address _to, uint256 _amount) internal {... */\n    tag_127:\n        /* \"contracts/Dividends/SwapRewardsChef.sol\":8198:8213  uint256 balance */\n      0x00\n        /* \"contracts/Dividends/SwapRewardsChef.sol\":8216:8227  rewardToken */\n      0x03\n      0x00\n      swap1\n      sload\n      swap1\n      0x0100\n      exp\n      swap1\n      div\n      0xffffffffffffffffffffffffffffffffffffffff\n      and\n        /* \"contracts/Dividends/SwapRewardsChef.sol\":8216:8237  rewardToken.balanceOf */\n      0xffffffffffffffffffffffffffffffffffffffff\n      and\n      0x70a08231\n        /* \"contracts/Dividends/SwapRewardsChef.sol\":8246:8250  this */\n      address\n        /* \"contracts/Dividends/SwapRewardsChef.sol\":8216:8252  rewardToken.balanceOf(address(this)) */\n      mload(0x40)\n      dup3\n      0xffffffff\n      and\n      0xe0\n      shl\n      dup2\n      mstore\n      0x04\n      add\n      dup1\n      dup3\n      0xffffffffffffffffffffffffffffffffffffffff\n      and\n      dup2\n      mstore\n      0x20\n      add\n      swap2\n      pop\n      pop\n      0x20\n      mload(0x40)\n      dup1\n      dup4\n      sub\n      dup2\n      dup7\n      dup1\n      extcodesize\n      iszero\n      dup1\n      iszero\n      tag_261\n      jumpi\n      0x00\n      dup1\n      revert\n    tag_261:\n      pop\n      gas\n      staticcall\n      iszero\n      dup1\n      iszero\n      tag_263\n      jumpi\n      returndatasize\n      0x00\n      dup1\n      returndatacopy\n      revert(0x00, returndatasize)\n    tag_263:\n      pop\n      pop\n      pop\n      pop\n      mload(0x40)\n      returndatasize\n      0x20\n      dup2\n      lt\n      iszero\n      tag_264\n      jumpi\n      0x00\n      dup1\n      revert\n    tag_264:\n      dup2\n      add\n      swap1\n      dup1\n      dup1\n      mload\n      swap1\n      0x20\n      add\n      swap1\n      swap3\n      swap2\n      swap1\n      pop\n      pop\n      pop\n        /* \"contracts/Dividends/SwapRewardsChef.sol\":8198:8252  uint256 balance = rewardToken.balanceOf(address(this)) */\n      swap1\n      pop\n        /* \"contracts/Dividends/SwapRewardsChef.sol\":8262:8284  uint256 transferAmount */\n      0x00\n        /* \"contracts/Dividends/SwapRewardsChef.sol\":8287:8313  Math.min(balance, _amount) */\n      tag_265\n        /* \"contracts/Dividends/SwapRewardsChef.sol\":8296:8303  balance */\n      dup3\n        /* \"contracts/Dividends/SwapRewardsChef.sol\":8305:8312  _amount */\n      dup5\n        /* \"contracts/Dividends/SwapRewardsChef.sol\":8287:8295  Math.min */\n      tag_147\n        /* \"contracts/Dividends/SwapRewardsChef.sol\":8287:8313  Math.min(balance, _amount) */\n      jump\t// in\n    tag_265:\n        /* \"contracts/Dividends/SwapRewardsChef.sol\":8262:8313  uint256 transferAmount = Math.min(balance, _amount) */\n      swap1\n      pop\n        /* \"contracts/Dividends/SwapRewardsChef.sol\":8351:8371  wrappedNativeAddress */\n      0x02\n      0x00\n      swap1\n      sload\n      swap1\n      0x0100\n      exp\n      swap1\n      div\n      0xffffffffffffffffffffffffffffffffffffffff\n      and\n        /* \"contracts/Dividends/SwapRewardsChef.sol\":8327:8371  address(rewardToken) == wrappedNativeAddress */\n      0xffffffffffffffffffffffffffffffffffffffff\n      and\n        /* \"contracts/Dividends/SwapRewardsChef.sol\":8335:8346  rewardToken */\n      0x03\n      0x00\n      swap1\n      sload\n      swap1\n      0x0100\n      exp\n      swap1\n      div\n      0xffffffffffffffffffffffffffffffffffffffff\n      and\n        /* \"contracts/Dividends/SwapRewardsChef.sol\":8327:8371  address(rewardToken) == wrappedNativeAddress */\n      0xffffffffffffffffffffffffffffffffffffffff\n      and\n      eq\n        /* \"contracts/Dividends/SwapRewardsChef.sol\":8323:8776  if (address(rewardToken) == wrappedNativeAddress) {... */\n      iszero\n      tag_266\n      jumpi\n        /* \"contracts/Dividends/SwapRewardsChef.sol\":8497:8517  wrappedNativeAddress */\n      0x02\n      0x00\n      swap1\n      sload\n      swap1\n      0x0100\n      exp\n      swap1\n      div\n      0xffffffffffffffffffffffffffffffffffffffff\n      and\n        /* \"contracts/Dividends/SwapRewardsChef.sol\":8482:8527  IWrappedNative(wrappedNativeAddress).withdraw */\n      0xffffffffffffffffffffffffffffffffffffffff\n      and\n      0x2e1a7d4d\n        /* \"contracts/Dividends/SwapRewardsChef.sol\":8528:8542  transferAmount */\n      dup3\n        /* \"contracts/Dividends/SwapRewardsChef.sol\":8482:8543  IWrappedNative(wrappedNativeAddress).withdraw(transferAmount) */\n      mload(0x40)\n      dup3\n      0xffffffff\n      and\n      0xe0\n      shl\n      dup2\n      mstore\n      0x04\n      add\n      dup1\n      dup3\n      dup2\n      mstore\n      0x20\n      add\n      swap2\n      pop\n      pop\n      0x00\n      mload(0x40)\n      dup1\n      dup4\n      sub\n      dup2\n      0x00\n      dup8\n      dup1\n      extcodesize\n      iszero\n      dup1\n      iszero\n      tag_267\n      jumpi\n      0x00\n      dup1\n      revert\n    tag_267:\n      pop\n      gas\n      call\n      iszero\n      dup1\n      iszero\n      tag_269\n      jumpi\n      returndatasize\n      0x00\n      dup1\n      returndatacopy\n      revert(0x00, returndatasize)\n    tag_269:\n      pop\n      pop\n      pop\n      pop\n        /* \"contracts/Dividends/SwapRewardsChef.sol\":8557:8593  safeTransferETH(_to, transferAmount) */\n      tag_270\n        /* \"contracts/Dividends/SwapRewardsChef.sol\":8573:8576  _to */\n      dup5\n        /* \"contracts/Dividends/SwapRewardsChef.sol\":8578:8592  transferAmount */\n      dup3\n        /* \"contracts/Dividends/SwapRewardsChef.sol\":8557:8572  safeTransferETH */\n      tag_271\n        /* \"contracts/Dividends/SwapRewardsChef.sol\":8557:8593  safeTransferETH(_to, transferAmount) */\n      jump\t// in\n    tag_270:\n        /* \"contracts/Dividends/SwapRewardsChef.sol\":8323:8776  if (address(rewardToken) == wrappedNativeAddress) {... */\n      jump(tag_272)\n    tag_266:\n        /* \"contracts/Dividends/SwapRewardsChef.sol\":8624:8644  bool transferSuccess */\n      0x00\n        /* \"contracts/Dividends/SwapRewardsChef.sol\":8647:8658  rewardToken */\n      0x03\n      0x00\n      swap1\n      sload\n      swap1\n      0x0100\n      exp\n      swap1\n      div\n      0xffffffffffffffffffffffffffffffffffffffff\n      and\n        /* \"contracts/Dividends/SwapRewardsChef.sol\":8647:8667  rewardToken.transfer */\n      0xffffffffffffffffffffffffffffffffffffffff\n      and\n      0xa9059cbb\n        /* \"contracts/Dividends/SwapRewardsChef.sol\":8668:8671  _to */\n      dup7\n        /* \"contracts/Dividends/SwapRewardsChef.sol\":8673:8687  transferAmount */\n      dup5\n        /* \"contracts/Dividends/SwapRewardsChef.sol\":8647:8688  rewardToken.transfer(_to, transferAmount) */\n      mload(0x40)\n      dup4\n      0xffffffff\n      and\n      0xe0\n      shl\n      dup2\n      mstore\n      0x04\n      add\n      dup1\n      dup4\n      0xffffffffffffffffffffffffffffffffffffffff\n      and\n      dup2\n      mstore\n      0x20\n      add\n      dup3\n      dup2\n      mstore\n      0x20\n      add\n      swap3\n      pop\n      pop\n      pop\n      0x20\n      mload(0x40)\n      dup1\n      dup4\n      sub\n      dup2\n      0x00\n      dup8\n      dup1\n      extcodesize\n      iszero\n      dup1\n      iszero\n      tag_273\n      jumpi\n      0x00\n      dup1\n      revert\n    tag_273:\n      pop\n      gas\n      call\n      iszero\n      dup1\n      iszero\n      tag_275\n      jumpi\n      returndatasize\n      0x00\n      dup1\n      returndatacopy\n      revert(0x00, returndatasize)\n    tag_275:\n      pop\n      pop\n      pop\n      pop\n      mload(0x40)\n      returndatasize\n      0x20\n      dup2\n      lt\n      iszero\n      tag_276\n      jumpi\n      0x00\n      dup1\n      revert\n    tag_276:\n      dup2\n      add\n      swap1\n      dup1\n      dup1\n      mload\n      swap1\n      0x20\n      add\n      swap1\n      swap3\n      swap2\n      swap1\n      pop\n      pop\n      pop\n        /* \"contracts/Dividends/SwapRewardsChef.sol\":8624:8688  bool transferSuccess = rewardToken.transfer(_to, transferAmount) */\n      swap1\n      pop\n        /* \"contracts/Dividends/SwapRewardsChef.sol\":8710:8725  transferSuccess */\n      dup1\n        /* \"contracts/Dividends/SwapRewardsChef.sol\":8702:8765  require(transferSuccess, \"safeRewardTransfer: transfer failed\") */\n      tag_277\n      jumpi\n      mload(0x40)\n      0x08c379a000000000000000000000000000000000000000000000000000000000\n      dup2\n      mstore\n      0x04\n      add\n      dup1\n      dup1\n      0x20\n      add\n      dup3\n      dup2\n      sub\n      dup3\n      mstore\n      0x23\n      dup2\n      mstore\n      0x20\n      add\n      dup1\n      data_00ba96a2551cd3f9da55f24ce93dd3904093346a51c20fa13985bf03aa52a45b\n      0x23\n      swap2\n      codecopy\n      0x40\n      add\n      swap2\n      pop\n      pop\n      mload(0x40)\n      dup1\n      swap2\n      sub\n      swap1\n      revert\n    tag_277:\n        /* \"contracts/Dividends/SwapRewardsChef.sol\":8323:8776  if (address(rewardToken) == wrappedNativeAddress) {... */\n      pop\n    tag_272:\n        /* \"contracts/Dividends/SwapRewardsChef.sol\":8121:8782  function safeRewardTransfer(address _to, uint256 _amount) internal {... */\n      pop\n      pop\n      pop\n      pop\n      jump\t// out\n        /* \"@openzeppelin/contracts/token/ERC20/SafeERC20.sol\":704:879  function safeTransfer(IERC20 token, address to, uint256 value) internal {... */\n    tag_132:\n        /* \"@openzeppelin/contracts/token/ERC20/SafeERC20.sol\":786:872  _callOptionalReturn(token, abi.encodeWithSelector(token.transfer.selector, to, value)) */\n      tag_279\n        /* \"@openzeppelin/contracts/token/ERC20/SafeERC20.sol\":806:811  token */\n      dup4\n        /* \"@openzeppelin/contracts/token/ERC20/SafeERC20.sol\":836:859  token.transfer.selector */\n      shl(0xe0, 0xa9059cbb)\n        /* \"@openzeppelin/contracts/token/ERC20/SafeERC20.sol\":861:863  to */\n      dup5\n        /* \"@openzeppelin/contracts/token/ERC20/SafeERC20.sol\":865:870  value */\n      dup5\n        /* \"@openzeppelin/contracts/token/ERC20/SafeERC20.sol\":813:871  abi.encodeWithSelector(token.transfer.selector, to, value) */\n      add(0x24, mload(0x40))\n      dup1\n      dup4\n      0xffffffffffffffffffffffffffffffffffffffff\n      and\n      dup2\n      mstore\n      0x20\n      add\n      dup3\n      dup2\n      mstore\n      0x20\n      add\n      swap3\n      pop\n      pop\n      pop\n      mload(0x40)\n      0x20\n      dup2\n      dup4\n      sub\n      sub\n      dup2\n      mstore\n      swap1\n      0x40\n      mstore\n      swap1\n      not(0xffffffffffffffffffffffffffffffffffffffffffffffffffffffff)\n      and\n      0x20\n      dup3\n      add\n      dup1\n      mload\n      0xffffffffffffffffffffffffffffffffffffffffffffffffffffffff\n      dup4\n      dup2\n      dup4\n      and\n      or\n      dup4\n      mstore\n      pop\n      pop\n      pop\n      pop\n        /* \"@openzeppelin/contracts/token/ERC20/SafeERC20.sol\":786:805  _callOptionalReturn */\n      tag_280\n        /* \"@openzeppelin/contracts/token/ERC20/SafeERC20.sol\":786:872  _callOptionalReturn(token, abi.encodeWithSelector(token.transfer.selector, to, value)) */\n      jump\t// in\n    tag_279:\n        /* \"@openzeppelin/contracts/token/ERC20/SafeERC20.sol\":704:879  function safeTransfer(IERC20 token, address to, uint256 value) internal {... */\n      pop\n      pop\n      pop\n      jump\t// out\n        /* \"contracts/Dividends/SwapRewardsChef.sol\":2948:3068  function getMultiplier(uint256 _from, uint256 _to) private pure returns (uint256) {... */\n    tag_142:\n        /* \"contracts/Dividends/SwapRewardsChef.sol\":3021:3028  uint256 */\n      0x00\n        /* \"contracts/Dividends/SwapRewardsChef.sol\":3047:3061  _to.sub(_from) */\n      tag_282\n        /* \"contracts/Dividends/SwapRewardsChef.sol\":3055:3060  _from */\n      dup4\n        /* \"contracts/Dividends/SwapRewardsChef.sol\":3047:3050  _to */\n      dup4\n        /* \"contracts/Dividends/SwapRewardsChef.sol\":3047:3054  _to.sub */\n      tag_124\n      swap1\n        /* \"contracts/Dividends/SwapRewardsChef.sol\":3047:3061  _to.sub(_from) */\n      swap2\n      swap1\n      0xffffffff\n      and\n      jump\t// in\n    tag_282:\n        /* \"contracts/Dividends/SwapRewardsChef.sol\":3040:3061  return _to.sub(_from) */\n      swap1\n      pop\n        /* \"contracts/Dividends/SwapRewardsChef.sol\":2948:3068  function getMultiplier(uint256 _from, uint256 _to) private pure returns (uint256) {... */\n      swap3\n      swap2\n      pop\n      pop\n      jump\t// out\n        /* \"@openzeppelin/contracts/math/Math.sol\":399:503  function min(uint256 a, uint256 b) internal pure returns (uint256) {... */\n    tag_147:\n        /* \"@openzeppelin/contracts/math/Math.sol\":457:464  uint256 */\n      0x00\n        /* \"@openzeppelin/contracts/math/Math.sol\":487:488  b */\n      dup2\n        /* \"@openzeppelin/contracts/math/Math.sol\":483:484  a */\n      dup4\n        /* \"@openzeppelin/contracts/math/Math.sol\":483:488  a < b */\n      lt\n        /* \"@openzeppelin/contracts/math/Math.sol\":483:496  a < b ? a : b */\n      tag_284\n      jumpi\n        /* \"@openzeppelin/contracts/math/Math.sol\":495:496  b */\n      dup2\n        /* \"@openzeppelin/contracts/math/Math.sol\":483:496  a < b ? a : b */\n      jump(tag_285)\n    tag_284:\n        /* \"@openzeppelin/contracts/math/Math.sol\":491:492  a */\n      dup3\n        /* \"@openzeppelin/contracts/math/Math.sol\":483:496  a < b ? a : b */\n    tag_285:\n        /* \"@openzeppelin/contracts/math/Math.sol\":476:496  return a < b ? a : b */\n      swap1\n      pop\n        /* \"@openzeppelin/contracts/math/Math.sol\":399:503  function min(uint256 a, uint256 b) internal pure returns (uint256) {... */\n      swap3\n      swap2\n      pop\n      pop\n      jump\t// out\n        /* \"@openzeppelin/contracts/math/SafeMath.sol\":2690:2865  function add(uint256 a, uint256 b) internal pure returns (uint256) {... */\n    tag_151:\n        /* \"@openzeppelin/contracts/math/SafeMath.sol\":2748:2755  uint256 */\n      0x00\n        /* \"@openzeppelin/contracts/math/SafeMath.sol\":2767:2776  uint256 c */\n      dup1\n        /* \"@openzeppelin/contracts/math/SafeMath.sol\":2783:2784  b */\n      dup3\n        /* \"@openzeppelin/contracts/math/SafeMath.sol\":2779:2780  a */\n      dup5\n        /* \"@openzeppelin/contracts/math/SafeMath.sol\":2779:2784  a + b */\n      add\n        /* \"@openzeppelin/contracts/math/SafeMath.sol\":2767:2784  uint256 c = a + b */\n      swap1\n      pop\n        /* \"@openzeppelin/contracts/math/SafeMath.sol\":2807:2808  a */\n      dup4\n        /* \"@openzeppelin/contracts/math/SafeMath.sol\":2802:2803  c */\n      dup2\n        /* \"@openzeppelin/contracts/math/SafeMath.sol\":2802:2808  c >= a */\n      lt\n      iszero\n        /* \"@openzeppelin/contracts/math/SafeMath.sol\":2794:2840  require(c >= a, \"SafeMath: addition overflow\") */\n      tag_287\n      jumpi\n      mload(0x40)\n      0x08c379a000000000000000000000000000000000000000000000000000000000\n      dup2\n      mstore\n      0x04\n      add\n      dup1\n      dup1\n      0x20\n      add\n      dup3\n      dup2\n      sub\n      dup3\n      mstore\n      0x1b\n      dup2\n      mstore\n      0x20\n      add\n      dup1\n      0x536166654d6174683a206164646974696f6e206f766572666c6f770000000000\n      dup2\n      mstore\n      pop\n      0x20\n      add\n      swap2\n      pop\n      pop\n      mload(0x40)\n      dup1\n      swap2\n      sub\n      swap1\n      revert\n    tag_287:\n        /* \"@openzeppelin/contracts/math/SafeMath.sol\":2857:2858  c */\n      dup1\n        /* \"@openzeppelin/contracts/math/SafeMath.sol\":2850:2858  return c */\n      swap2\n      pop\n      pop\n        /* \"@openzeppelin/contracts/math/SafeMath.sol\":2690:2865  function add(uint256 a, uint256 b) internal pure returns (uint256) {... */\n      swap3\n      swap2\n      pop\n      pop\n      jump\t// out\n        /* \"@openzeppelin/contracts/utils/Context.sol\":598:702  function _msgSender() internal view virtual returns (address payable) {... */\n    tag_157:\n        /* \"@openzeppelin/contracts/utils/Context.sol\":651:666  address payable */\n      0x00\n        /* \"@openzeppelin/contracts/utils/Context.sol\":685:695  msg.sender */\n      caller\n        /* \"@openzeppelin/contracts/utils/Context.sol\":678:695  return msg.sender */\n      swap1\n      pop\n        /* \"@openzeppelin/contracts/utils/Context.sol\":598:702  function _msgSender() internal view virtual returns (address payable) {... */\n      swap1\n      jump\t// out\n        /* \"@openzeppelin/contracts/token/ERC20/SafeERC20.sol\":885:1088  function safeTransferFrom(IERC20 token, address from, address to, uint256 value) internal {... */\n    tag_176:\n        /* \"@openzeppelin/contracts/token/ERC20/SafeERC20.sol\":985:1081  _callOptionalReturn(token, abi.encodeWithSelector(token.transferFrom.selector, from, to, value)) */\n      tag_290\n        /* \"@openzeppelin/contracts/token/ERC20/SafeERC20.sol\":1005:1010  token */\n      dup5\n        /* \"@openzeppelin/contracts/token/ERC20/SafeERC20.sol\":1035:1062  token.transferFrom.selector */\n      shl(0xe0, 0x23b872dd)\n        /* \"@openzeppelin/contracts/token/ERC20/SafeERC20.sol\":1064:1068  from */\n      dup6\n        /* \"@openzeppelin/contracts/token/ERC20/SafeERC20.sol\":1070:1072  to */\n      dup6\n        /* \"@openzeppelin/contracts/token/ERC20/SafeERC20.sol\":1074:1079  value */\n      dup6\n        /* \"@openzeppelin/contracts/token/ERC20/SafeERC20.sol\":1012:1080  abi.encodeWithSelector(token.transferFrom.selector, from, to, value) */\n      add(0x24, mload(0x40))\n      dup1\n      dup5\n      0xffffffffffffffffffffffffffffffffffffffff\n      and\n      dup2\n      mstore\n      0x20\n      add\n      dup4\n      0xffffffffffffffffffffffffffffffffffffffff\n      and\n      dup2\n      mstore\n      0x20\n      add\n      dup3\n      dup2\n      mstore\n      0x20\n      add\n      swap4\n      pop\n      pop\n      pop\n      pop\n      mload(0x40)\n      0x20\n      dup2\n      dup4\n      sub\n      sub\n      dup2\n      mstore\n      swap1\n      0x40\n      mstore\n      swap1\n      not(0xffffffffffffffffffffffffffffffffffffffffffffffffffffffff)\n      and\n      0x20\n      dup3\n      add\n      dup1\n      mload\n      0xffffffffffffffffffffffffffffffffffffffffffffffffffffffff\n      dup4\n      dup2\n      dup4\n      and\n      or\n      dup4\n      mstore\n      pop\n      pop\n      pop\n      pop\n        /* \"@openzeppelin/contracts/token/ERC20/SafeERC20.sol\":985:1004  _callOptionalReturn */\n      tag_280\n        /* \"@openzeppelin/contracts/token/ERC20/SafeERC20.sol\":985:1081  _callOptionalReturn(token, abi.encodeWithSelector(token.transferFrom.selector, from, to, value)) */\n      jump\t// in\n    tag_290:\n        /* \"@openzeppelin/contracts/token/ERC20/SafeERC20.sol\":885:1088  function safeTransferFrom(IERC20 token, address from, address to, uint256 value) internal {... */\n      pop\n      pop\n      pop\n      pop\n      jump\t// out\n        /* \"contracts/Dividends/SwapRewardsChef.sol\":5381:5750  function updateEmissionRate() private {... */\n    tag_179:\n        /* \"contracts/Dividends/SwapRewardsChef.sol\":5452:5453  0 */\n      0x00\n        /* \"contracts/Dividends/SwapRewardsChef.sol\":5433:5449  remainingRewards */\n      sload(0x0c)\n        /* \"contracts/Dividends/SwapRewardsChef.sol\":5433:5453  remainingRewards > 0 */\n      gt\n        /* \"contracts/Dividends/SwapRewardsChef.sol\":5429:5744  if (remainingRewards > 0) {... */\n      iszero\n      tag_292\n      jumpi\n        /* \"contracts/Dividends/SwapRewardsChef.sol\":5487:5531  remainingRewards.div(denominationEmitAmount) */\n      tag_293\n        /* \"contracts/Dividends/SwapRewardsChef.sol\":5508:5530  denominationEmitAmount */\n      sload(0x05)\n        /* \"contracts/Dividends/SwapRewardsChef.sol\":5487:5503  remainingRewards */\n      sload(0x0c)\n        /* \"contracts/Dividends/SwapRewardsChef.sol\":5487:5507  remainingRewards.div */\n      tag_123\n      swap1\n        /* \"contracts/Dividends/SwapRewardsChef.sol\":5487:5531  remainingRewards.div(denominationEmitAmount) */\n      swap2\n      swap1\n      0xffffffff\n      and\n      jump\t// in\n    tag_293:\n        /* \"contracts/Dividends/SwapRewardsChef.sol\":5469:5484  rewardsPerBlock */\n      0x04\n        /* \"contracts/Dividends/SwapRewardsChef.sol\":5469:5531  rewardsPerBlock = remainingRewards.div(denominationEmitAmount) */\n      dup2\n      swap1\n      sstore\n      pop\n        /* \"contracts/Dividends/SwapRewardsChef.sol\":5563:5607  Math.min(maximumEmitAmount, rewardsPerBlock) */\n      tag_294\n        /* \"contracts/Dividends/SwapRewardsChef.sol\":5572:5589  maximumEmitAmount */\n      sload(0x07)\n        /* \"contracts/Dividends/SwapRewardsChef.sol\":5591:5606  rewardsPerBlock */\n      sload(0x04)\n        /* \"contracts/Dividends/SwapRewardsChef.sol\":5563:5571  Math.min */\n      tag_147\n        /* \"contracts/Dividends/SwapRewardsChef.sol\":5563:5607  Math.min(maximumEmitAmount, rewardsPerBlock) */\n      jump\t// in\n    tag_294:\n        /* \"contracts/Dividends/SwapRewardsChef.sol\":5545:5560  rewardsPerBlock */\n      0x04\n        /* \"contracts/Dividends/SwapRewardsChef.sol\":5545:5607  rewardsPerBlock = Math.min(maximumEmitAmount, rewardsPerBlock) */\n      dup2\n      swap1\n      sstore\n      pop\n        /* \"contracts/Dividends/SwapRewardsChef.sol\":5639:5683  Math.max(minimumEmitAmount, rewardsPerBlock) */\n      tag_295\n        /* \"contracts/Dividends/SwapRewardsChef.sol\":5648:5665  minimumEmitAmount */\n      sload(0x06)\n        /* \"contracts/Dividends/SwapRewardsChef.sol\":5667:5682  rewardsPerBlock */\n      sload(0x04)\n        /* \"contracts/Dividends/SwapRewardsChef.sol\":5639:5647  Math.max */\n      tag_296\n        /* \"contracts/Dividends/SwapRewardsChef.sol\":5639:5683  Math.max(minimumEmitAmount, rewardsPerBlock) */\n      jump\t// in\n    tag_295:\n        /* \"contracts/Dividends/SwapRewardsChef.sol\":5621:5636  rewardsPerBlock */\n      0x04\n        /* \"contracts/Dividends/SwapRewardsChef.sol\":5621:5683  rewardsPerBlock = Math.max(minimumEmitAmount, rewardsPerBlock) */\n      dup2\n      swap1\n      sstore\n      pop\n        /* \"contracts/Dividends/SwapRewardsChef.sol\":5429:5744  if (remainingRewards > 0) {... */\n      jump(tag_297)\n    tag_292:\n        /* \"contracts/Dividends/SwapRewardsChef.sol\":5732:5733  0 */\n      0x00\n        /* \"contracts/Dividends/SwapRewardsChef.sol\":5714:5729  rewardsPerBlock */\n      0x04\n        /* \"contracts/Dividends/SwapRewardsChef.sol\":5714:5733  rewardsPerBlock = 0 */\n      dup2\n      swap1\n      sstore\n      pop\n        /* \"contracts/Dividends/SwapRewardsChef.sol\":5429:5744  if (remainingRewards > 0) {... */\n    tag_297:\n        /* \"contracts/Dividends/SwapRewardsChef.sol\":5381:5750  function updateEmissionRate() private {... */\n      jump\t// out\n        /* \"contracts/Dividends/SwapRewardsChef.sol\":8863:9058  function safeTransferETH(address to, uint value) internal {... */\n    tag_271:\n        /* \"contracts/Dividends/SwapRewardsChef.sol\":8932:8944  bool success */\n      0x00\n        /* \"contracts/Dividends/SwapRewardsChef.sol\":8949:8951  to */\n      dup3\n        /* \"contracts/Dividends/SwapRewardsChef.sol\":8949:8956  to.call */\n      0xffffffffffffffffffffffffffffffffffffffff\n      and\n        /* \"contracts/Dividends/SwapRewardsChef.sol\":8965:8970  value */\n      dup3\n        /* \"contracts/Dividends/SwapRewardsChef.sol\":8982:8983  0 */\n      0x00\n        /* \"contracts/Dividends/SwapRewardsChef.sol\":8972:8984  new bytes(0) */\n      0xffffffffffffffff\n      dup2\n      gt\n      dup1\n      iszero\n      tag_299\n      jumpi\n      0x00\n      dup1\n      revert\n    tag_299:\n      pop\n      mload(0x40)\n      swap1\n      dup1\n      dup3\n      mstore\n      dup1\n      0x1f\n      add\n      not(0x1f)\n      and\n      0x20\n      add\n      dup3\n      add\n      0x40\n      mstore\n      dup1\n      iszero\n      tag_300\n      jumpi\n      dup2\n      0x20\n      add\n      0x01\n      dup3\n      mul\n      dup1\n      calldatasize\n      dup4\n      calldatacopy\n      dup1\n      dup3\n      add\n      swap2\n      pop\n      pop\n      swap1\n      pop\n    tag_300:\n      pop\n        /* \"contracts/Dividends/SwapRewardsChef.sol\":8949:8985  to.call{value : value}(new bytes(0)) */\n      mload(0x40)\n      dup1\n      dup3\n      dup1\n      mload\n      swap1\n      0x20\n      add\n      swap1\n      dup1\n      dup4\n      dup4\n    tag_301:\n      0x20\n      dup4\n      lt\n      tag_303\n      jumpi\n      dup1\n      mload\n      dup3\n      mstore\n      0x20\n      dup3\n      add\n      swap2\n      pop\n      0x20\n      dup2\n      add\n      swap1\n      pop\n      0x20\n      dup4\n      sub\n      swap3\n      pop\n      jump(tag_301)\n    tag_303:\n      0x01\n      dup4\n      0x20\n      sub\n      0x0100\n      exp\n      sub\n      dup1\n      not\n      dup3\n      mload\n      and\n      dup2\n      dup5\n      mload\n      and\n      dup1\n      dup3\n      or\n      dup6\n      mstore\n      pop\n      pop\n      pop\n      pop\n      pop\n      pop\n      swap1\n      pop\n      add\n      swap2\n      pop\n      pop\n      0x00\n      mload(0x40)\n      dup1\n      dup4\n      sub\n      dup2\n      dup6\n      dup8\n      gas\n      call\n      swap3\n      pop\n      pop\n      pop\n      returndatasize\n      dup1\n      0x00\n      dup2\n      eq\n      tag_306\n      jumpi\n      mload(0x40)\n      swap2\n      pop\n      and(add(returndatasize, 0x3f), not(0x1f))\n      dup3\n      add\n      0x40\n      mstore\n      returndatasize\n      dup3\n      mstore\n      returndatasize\n      0x00\n      0x20\n      dup5\n      add\n      returndatacopy\n      jump(tag_305)\n    tag_306:\n      0x60\n      swap2\n      pop\n    tag_305:\n      pop\n        /* \"contracts/Dividends/SwapRewardsChef.sol\":8931:8985  (bool success,) = to.call{value : value}(new bytes(0)) */\n      pop\n      swap1\n      pop\n        /* \"contracts/Dividends/SwapRewardsChef.sol\":9003:9010  success */\n      dup1\n        /* \"contracts/Dividends/SwapRewardsChef.sol\":8995:9051  require(success, 'safeTransferETH: ETH_TRANSFER_FAILED') */\n      tag_307\n      jumpi\n      mload(0x40)\n      0x08c379a000000000000000000000000000000000000000000000000000000000\n      dup2\n      mstore\n      0x04\n      add\n      dup1\n      dup1\n      0x20\n      add\n      dup3\n      dup2\n      sub\n      dup3\n      mstore\n      0x24\n      dup2\n      mstore\n      0x20\n      add\n      dup1\n      data_3b8de14d0ef7c84a7cc5db64daf451b93a8cf078f4a163de6230bf4beaf48bc3\n      0x24\n      swap2\n      codecopy\n      0x40\n      add\n      swap2\n      pop\n      pop\n      mload(0x40)\n      dup1\n      swap2\n      sub\n      swap1\n      revert\n    tag_307:\n        /* \"contracts/Dividends/SwapRewardsChef.sol\":8863:9058  function safeTransferETH(address to, uint value) internal {... */\n      pop\n      pop\n      pop\n      jump\t// out\n        /* \"@openzeppelin/contracts/token/ERC20/SafeERC20.sol\":2967:3718  function _callOptionalReturn(IERC20 token, bytes memory data) private {... */\n    tag_280:\n        /* \"@openzeppelin/contracts/token/ERC20/SafeERC20.sol\":3386:3409  bytes memory returndata */\n      0x60\n        /* \"@openzeppelin/contracts/token/ERC20/SafeERC20.sol\":3412:3481  address(token).functionCall(data, \"SafeERC20: low-level call failed\") */\n      tag_309\n        /* \"@openzeppelin/contracts/token/ERC20/SafeERC20.sol\":3440:3444  data */\n      dup3\n        /* \"@openzeppelin/contracts/token/ERC20/SafeERC20.sol\":3412:3481  address(token).functionCall(data, \"SafeERC20: low-level call failed\") */\n      mload(0x40)\n      dup1\n      0x40\n      add\n      0x40\n      mstore\n      dup1\n      0x20\n      dup2\n      mstore\n      0x20\n      add\n      0x5361666545524332303a206c6f772d6c6576656c2063616c6c206661696c6564\n      dup2\n      mstore\n      pop\n        /* \"@openzeppelin/contracts/token/ERC20/SafeERC20.sol\":3420:3425  token */\n      dup6\n        /* \"@openzeppelin/contracts/token/ERC20/SafeERC20.sol\":3412:3439  address(token).functionCall */\n      0xffffffffffffffffffffffffffffffffffffffff\n      and\n      tag_310\n      swap1\n        /* \"@openzeppelin/contracts/token/ERC20/SafeERC20.sol\":3412:3481  address(token).functionCall(data, \"SafeERC20: low-level call failed\") */\n      swap3\n      swap2\n      swap1\n      0xffffffff\n      and\n      jump\t// in\n    tag_309:\n        /* \"@openzeppelin/contracts/token/ERC20/SafeERC20.sol\":3386:3481  bytes memory returndata = address(token).functionCall(data, \"SafeERC20: low-level call failed\") */\n      swap1\n      pop\n        /* \"@openzeppelin/contracts/token/ERC20/SafeERC20.sol\":3515:3516  0 */\n      0x00\n        /* \"@openzeppelin/contracts/token/ERC20/SafeERC20.sol\":3495:3505  returndata */\n      dup2\n        /* \"@openzeppelin/contracts/token/ERC20/SafeERC20.sol\":3495:3512  returndata.length */\n      mload\n        /* \"@openzeppelin/contracts/token/ERC20/SafeERC20.sol\":3495:3516  returndata.length > 0 */\n      gt\n        /* \"@openzeppelin/contracts/token/ERC20/SafeERC20.sol\":3491:3712  if (returndata.length > 0) { // Return data is optional... */\n      iszero\n      tag_311\n      jumpi\n        /* \"@openzeppelin/contracts/token/ERC20/SafeERC20.sol\":3635:3645  returndata */\n      dup1\n        /* \"@openzeppelin/contracts/token/ERC20/SafeERC20.sol\":3624:3654  abi.decode(returndata, (bool)) */\n      dup1\n      0x20\n      add\n      swap1\n      mload\n      0x20\n      dup2\n      lt\n      iszero\n      tag_312\n      jumpi\n      0x00\n      dup1\n      revert\n    tag_312:\n      dup2\n      add\n      swap1\n      dup1\n      dup1\n      mload\n      swap1\n      0x20\n      add\n      swap1\n      swap3\n      swap2\n      swap1\n      pop\n      pop\n      pop\n        /* \"@openzeppelin/contracts/token/ERC20/SafeERC20.sol\":3616:3701  require(abi.decode(returndata, (bool)), \"SafeERC20: ERC20 operation did not succeed\") */\n      tag_313\n      jumpi\n      mload(0x40)\n      0x08c379a000000000000000000000000000000000000000000000000000000000\n      dup2\n      mstore\n      0x04\n      add\n      dup1\n      dup1\n      0x20\n      add\n      dup3\n      dup2\n      sub\n      dup3\n      mstore\n      0x2a\n      dup2\n      mstore\n      0x20\n      add\n      dup1\n      data_e11ad79d1e4a7f2e5f376964cb99e8e8f7904e3fc16a109f7a7ecb9aa7956dcd\n      0x2a\n      swap2\n      codecopy\n      0x40\n      add\n      swap2\n      pop\n      pop\n      mload(0x40)\n      dup1\n      swap2\n      sub\n      swap1\n      revert\n    tag_313:\n        /* \"@openzeppelin/contracts/token/ERC20/SafeERC20.sol\":3491:3712  if (returndata.length > 0) { // Return data is optional... */\n    tag_311:\n        /* \"@openzeppelin/contracts/token/ERC20/SafeERC20.sol\":2967:3718  function _callOptionalReturn(IERC20 token, bytes memory data) private {... */\n      pop\n      pop\n      pop\n      jump\t// out\n        /* \"@openzeppelin/contracts/math/Math.sol\":223:328  function max(uint256 a, uint256 b) internal pure returns (uint256) {... */\n    tag_296:\n        /* \"@openzeppelin/contracts/math/Math.sol\":281:288  uint256 */\n      0x00\n        /* \"@openzeppelin/contracts/math/Math.sol\":312:313  b */\n      dup2\n        /* \"@openzeppelin/contracts/math/Math.sol\":307:308  a */\n      dup4\n        /* \"@openzeppelin/contracts/math/Math.sol\":307:313  a >= b */\n      lt\n      iszero\n        /* \"@openzeppelin/contracts/math/Math.sol\":307:321  a >= b ? a : b */\n      tag_315\n      jumpi\n        /* \"@openzeppelin/contracts/math/Math.sol\":320:321  b */\n      dup2\n        /* \"@openzeppelin/contracts/math/Math.sol\":307:321  a >= b ? a : b */\n      jump(tag_316)\n    tag_315:\n        /* \"@openzeppelin/contracts/math/Math.sol\":316:317  a */\n      dup3\n        /* \"@openzeppelin/contracts/math/Math.sol\":307:321  a >= b ? a : b */\n    tag_316:\n        /* \"@openzeppelin/contracts/math/Math.sol\":300:321  return a >= b ? a : b */\n      swap1\n      pop\n        /* \"@openzeppelin/contracts/math/Math.sol\":223:328  function max(uint256 a, uint256 b) internal pure returns (uint256) {... */\n      swap3\n      swap2\n      pop\n      pop\n      jump\t// out\n        /* \"@openzeppelin/contracts/utils/Address.sol\":3581:3774  function functionCall(address target, bytes memory data, string memory errorMessage) internal returns (bytes memory) {... */\n    tag_310:\n        /* \"@openzeppelin/contracts/utils/Address.sol\":3684:3696  bytes memory */\n      0x60\n        /* \"@openzeppelin/contracts/utils/Address.sol\":3715:3767  functionCallWithValue(target, data, 0, errorMessage) */\n      tag_318\n        /* \"@openzeppelin/contracts/utils/Address.sol\":3737:3743  target */\n      dup5\n        /* \"@openzeppelin/contracts/utils/Address.sol\":3745:3749  data */\n      dup5\n        /* \"@openzeppelin/contracts/utils/Address.sol\":3751:3752  0 */\n      0x00\n        /* \"@openzeppelin/contracts/utils/Address.sol\":3754:3766  errorMessage */\n      dup6\n        /* \"@openzeppelin/contracts/utils/Address.sol\":3715:3736  functionCallWithValue */\n      tag_319\n        /* \"@openzeppelin/contracts/utils/Address.sol\":3715:3767  functionCallWithValue(target, data, 0, errorMessage) */\n      jump\t// in\n    tag_318:\n        /* \"@openzeppelin/contracts/utils/Address.sol\":3708:3767  return functionCallWithValue(target, data, 0, errorMessage) */\n      swap1\n      pop\n        /* \"@openzeppelin/contracts/utils/Address.sol\":3581:3774  function functionCall(address target, bytes memory data, string memory errorMessage) internal returns (bytes memory) {... */\n      swap4\n      swap3\n      pop\n      pop\n      pop\n      jump\t// out\n        /* \"@openzeppelin/contracts/utils/Address.sol\":4608:5131  function functionCallWithValue(address target, bytes memory data, uint256 value, string memory errorMessage) internal returns (bytes memory) {... */\n    tag_319:\n        /* \"@openzeppelin/contracts/utils/Address.sol\":4735:4747  bytes memory */\n      0x60\n        /* \"@openzeppelin/contracts/utils/Address.sol\":4792:4797  value */\n      dup3\n        /* \"@openzeppelin/contracts/utils/Address.sol\":4767:4788  address(this).balance */\n      selfbalance\n        /* \"@openzeppelin/contracts/utils/Address.sol\":4767:4797  address(this).balance >= value */\n      lt\n      iszero\n        /* \"@openzeppelin/contracts/utils/Address.sol\":4759:4840  require(address(this).balance >= value, \"Address: insufficient balance for call\") */\n      tag_321\n      jumpi\n      mload(0x40)\n      0x08c379a000000000000000000000000000000000000000000000000000000000\n      dup2\n      mstore\n      0x04\n      add\n      dup1\n      dup1\n      0x20\n      add\n      dup3\n      dup2\n      sub\n      dup3\n      mstore\n      0x26\n      dup2\n      mstore\n      0x20\n      add\n      dup1\n      data_565f1a77334fc4792800921178c71e4521acffab18ff9e7885b49377ee80ab4c\n      0x26\n      swap2\n      codecopy\n      0x40\n      add\n      swap2\n      pop\n      pop\n      mload(0x40)\n      dup1\n      swap2\n      sub\n      swap1\n      revert\n    tag_321:\n        /* \"@openzeppelin/contracts/utils/Address.sol\":4858:4876  isContract(target) */\n      tag_322\n        /* \"@openzeppelin/contracts/utils/Address.sol\":4869:4875  target */\n      dup6\n        /* \"@openzeppelin/contracts/utils/Address.sol\":4858:4868  isContract */\n      tag_323\n        /* \"@openzeppelin/contracts/utils/Address.sol\":4858:4876  isContract(target) */\n      jump\t// in\n    tag_322:\n        /* \"@openzeppelin/contracts/utils/Address.sol\":4850:4910  require(isContract(target), \"Address: call to non-contract\") */\n      tag_324\n      jumpi\n      mload(0x40)\n      0x08c379a000000000000000000000000000000000000000000000000000000000\n      dup2\n      mstore\n      0x04\n      add\n      dup1\n      dup1\n      0x20\n      add\n      dup3\n      dup2\n      sub\n      dup3\n      mstore\n      0x1d\n      dup2\n      mstore\n      0x20\n      add\n      dup1\n      0x416464726573733a2063616c6c20746f206e6f6e2d636f6e7472616374000000\n      dup2\n      mstore\n      pop\n      0x20\n      add\n      swap2\n      pop\n      pop\n      mload(0x40)\n      dup1\n      swap2\n      sub\n      swap1\n      revert\n    tag_324:\n        /* \"@openzeppelin/contracts/utils/Address.sol\":4981:4993  bool success */\n      0x00\n        /* \"@openzeppelin/contracts/utils/Address.sol\":4995:5018  bytes memory returndata */\n      0x60\n        /* \"@openzeppelin/contracts/utils/Address.sol\":5022:5028  target */\n      dup7\n        /* \"@openzeppelin/contracts/utils/Address.sol\":5022:5033  target.call */\n      0xffffffffffffffffffffffffffffffffffffffff\n      and\n        /* \"@openzeppelin/contracts/utils/Address.sol\":5042:5047  value */\n      dup6\n        /* \"@openzeppelin/contracts/utils/Address.sol\":5050:5054  data */\n      dup8\n        /* \"@openzeppelin/contracts/utils/Address.sol\":5022:5055  target.call{ value: value }(data) */\n      mload(0x40)\n      dup1\n      dup3\n      dup1\n      mload\n      swap1\n      0x20\n      add\n      swap1\n      dup1\n      dup4\n      dup4\n    tag_325:\n      0x20\n      dup4\n      lt\n      tag_327\n      jumpi\n      dup1\n      mload\n      dup3\n      mstore\n      0x20\n      dup3\n      add\n      swap2\n      pop\n      0x20\n      dup2\n      add\n      swap1\n      pop\n      0x20\n      dup4\n      sub\n      swap3\n      pop\n      jump(tag_325)\n    tag_327:\n      0x01\n      dup4\n      0x20\n      sub\n      0x0100\n      exp\n      sub\n      dup1\n      not\n      dup3\n      mload\n      and\n      dup2\n      dup5\n      mload\n      and\n      dup1\n      dup3\n      or\n      dup6\n      mstore\n      pop\n      pop\n      pop\n      pop\n      pop\n      pop\n      swap1\n      pop\n      add\n      swap2\n      pop\n      pop\n      0x00\n      mload(0x40)\n      dup1\n      dup4\n      sub\n      dup2\n      dup6\n      dup8\n      gas\n      call\n      swap3\n      pop\n      pop\n      pop\n      returndatasize\n      dup1\n      0x00\n      dup2\n      eq\n      tag_330\n      jumpi\n      mload(0x40)\n      swap2\n      pop\n      and(add(returndatasize, 0x3f), not(0x1f))\n      dup3\n      add\n      0x40\n      mstore\n      returndatasize\n      dup3\n      mstore\n      returndatasize\n      0x00\n      0x20\n      dup5\n      add\n      returndatacopy\n      jump(tag_329)\n    tag_330:\n      0x60\n      swap2\n      pop\n    tag_329:\n      pop\n        /* \"@openzeppelin/contracts/utils/Address.sol\":4980:5055  (bool success, bytes memory returndata) = target.call{ value: value }(data) */\n      swap2\n      pop\n      swap2\n      pop\n        /* \"@openzeppelin/contracts/utils/Address.sol\":5072:5124  _verifyCallResult(success, returndata, errorMessage) */\n      tag_331\n        /* \"@openzeppelin/contracts/utils/Address.sol\":5090:5097  success */\n      dup3\n        /* \"@openzeppelin/contracts/utils/Address.sol\":5099:5109  returndata */\n      dup3\n        /* \"@openzeppelin/contracts/utils/Address.sol\":5111:5123  errorMessage */\n      dup7\n        /* \"@openzeppelin/contracts/utils/Address.sol\":5072:5089  _verifyCallResult */\n      tag_332\n        /* \"@openzeppelin/contracts/utils/Address.sol\":5072:5124  _verifyCallResult(success, returndata, errorMessage) */\n      jump\t// in\n    tag_331:\n        /* \"@openzeppelin/contracts/utils/Address.sol\":5065:5124  return _verifyCallResult(success, returndata, errorMessage) */\n      swap3\n      pop\n      pop\n      pop\n        /* \"@openzeppelin/contracts/utils/Address.sol\":4608:5131  function functionCallWithValue(address target, bytes memory data, uint256 value, string memory errorMessage) internal returns (bytes memory) {... */\n      swap5\n      swap4\n      pop\n      pop\n      pop\n      pop\n      jump\t// out\n        /* \"@openzeppelin/contracts/utils/Address.sol\":726:1139  function isContract(address account) internal view returns (bool) {... */\n    tag_323:\n        /* \"@openzeppelin/contracts/utils/Address.sol\":786:790  bool */\n      0x00\n        /* \"@openzeppelin/contracts/utils/Address.sol\":989:1001  uint256 size */\n      dup1\n        /* \"@openzeppelin/contracts/utils/Address.sol\":1098:1105  account */\n      dup3\n        /* \"@openzeppelin/contracts/utils/Address.sol\":1086:1106  extcodesize(account) */\n      extcodesize\n        /* \"@openzeppelin/contracts/utils/Address.sol\":1078:1106  size := extcodesize(account) */\n      swap1\n      pop\n        /* \"@openzeppelin/contracts/utils/Address.sol\":1131:1132  0 */\n      0x00\n        /* \"@openzeppelin/contracts/utils/Address.sol\":1124:1128  size */\n      dup2\n        /* \"@openzeppelin/contracts/utils/Address.sol\":1124:1132  size > 0 */\n      gt\n        /* \"@openzeppelin/contracts/utils/Address.sol\":1117:1132  return size > 0 */\n      swap2\n      pop\n      pop\n        /* \"@openzeppelin/contracts/utils/Address.sol\":726:1139  function isContract(address account) internal view returns (bool) {... */\n      swap2\n      swap1\n      pop\n      jump\t// out\n        /* \"@openzeppelin/contracts/utils/Address.sol\":7091:7816  function _verifyCallResult(bool success, bytes memory returndata, string memory errorMessage) private pure returns(bytes memory) {... */\n    tag_332:\n        /* \"@openzeppelin/contracts/utils/Address.sol\":7206:7218  bytes memory */\n      0x60\n        /* \"@openzeppelin/contracts/utils/Address.sol\":7234:7241  success */\n      dup4\n        /* \"@openzeppelin/contracts/utils/Address.sol\":7230:7810  if (success) {... */\n      iszero\n      tag_335\n      jumpi\n        /* \"@openzeppelin/contracts/utils/Address.sol\":7264:7274  returndata */\n      dup3\n        /* \"@openzeppelin/contracts/utils/Address.sol\":7257:7274  return returndata */\n      swap1\n      pop\n      jump(tag_334)\n        /* \"@openzeppelin/contracts/utils/Address.sol\":7230:7810  if (success) {... */\n    tag_335:\n        /* \"@openzeppelin/contracts/utils/Address.sol\":7395:7396  0 */\n      0x00\n        /* \"@openzeppelin/contracts/utils/Address.sol\":7375:7385  returndata */\n      dup4\n        /* \"@openzeppelin/contracts/utils/Address.sol\":7375:7392  returndata.length */\n      mload\n        /* \"@openzeppelin/contracts/utils/Address.sol\":7375:7396  returndata.length > 0 */\n      gt\n        /* \"@openzeppelin/contracts/utils/Address.sol\":7371:7800  if (returndata.length > 0) {... */\n      iszero\n      tag_337\n      jumpi\n        /* \"@openzeppelin/contracts/utils/Address.sol\":7633:7643  returndata */\n      dup3\n        /* \"@openzeppelin/contracts/utils/Address.sol\":7627:7644  mload(returndata) */\n      mload\n        /* \"@openzeppelin/contracts/utils/Address.sol\":7693:7708  returndata_size */\n      dup1\n        /* \"@openzeppelin/contracts/utils/Address.sol\":7680:7690  returndata */\n      dup5\n        /* \"@openzeppelin/contracts/utils/Address.sol\":7676:7678  32 */\n      0x20\n        /* \"@openzeppelin/contracts/utils/Address.sol\":7672:7691  add(32, returndata) */\n      add\n        /* \"@openzeppelin/contracts/utils/Address.sol\":7665:7709  revert(add(32, returndata), returndata_size) */\n      revert\n        /* \"@openzeppelin/contracts/utils/Address.sol\":7582:7727  {... */\n    tag_337:\n        /* \"@openzeppelin/contracts/utils/Address.sol\":7772:7784  errorMessage */\n      dup2\n        /* \"@openzeppelin/contracts/utils/Address.sol\":7765:7785  revert(errorMessage) */\n      mload(0x40)\n      0x08c379a000000000000000000000000000000000000000000000000000000000\n      dup2\n      mstore\n      0x04\n      add\n      dup1\n      dup1\n      0x20\n      add\n      dup3\n      dup2\n      sub\n      dup3\n      mstore\n      dup4\n      dup2\n      dup2\n      mload\n      dup2\n      mstore\n      0x20\n      add\n      swap2\n      pop\n      dup1\n      mload\n      swap1\n      0x20\n      add\n      swap1\n      dup1\n      dup4\n      dup4\n      0x00\n    tag_339:\n      dup4\n      dup2\n      lt\n      iszero\n      tag_341\n      jumpi\n      dup1\n      dup3\n      add\n      mload\n      dup2\n      dup5\n      add\n      mstore\n      0x20\n      dup2\n      add\n      swap1\n      pop\n      jump(tag_339)\n    tag_341:\n      pop\n      pop\n      pop\n      pop\n      swap1\n      pop\n      swap1\n      dup2\n      add\n      swap1\n      0x1f\n      and\n      dup1\n      iszero\n      tag_342\n      jumpi\n      dup1\n      dup3\n      sub\n      dup1\n      mload\n      0x01\n      dup4\n      0x20\n      sub\n      0x0100\n      exp\n      sub\n      not\n      and\n      dup2\n      mstore\n      0x20\n      add\n      swap2\n      pop\n    tag_342:\n      pop\n      swap3\n      pop\n      pop\n      pop\n      mload(0x40)\n      dup1\n      swap2\n      sub\n      swap1\n      revert\n        /* \"@openzeppelin/contracts/utils/Address.sol\":7091:7816  function _verifyCallResult(bool success, bytes memory returndata, string memory errorMessage) private pure returns(bytes memory) {... */\n    tag_334:\n      swap4\n      swap3\n      pop\n      pop\n      pop\n      jump\t// out\n    stop\n    data_00ba96a2551cd3f9da55f24ce93dd3904093346a51c20fa13985bf03aa52a45b 736166655265776172645472616e736665723a207472616e73666572206661696c6564\n    data_245f15ff17f551913a7a18385165551503906a406f905ac1c2437281a7cd0cfe 4f776e61626c653a206e6577206f776e657220697320746865207a65726f2061646472657373\n    data_3b8de14d0ef7c84a7cc5db64daf451b93a8cf078f4a163de6230bf4beaf48bc3 736166655472616e736665724554483a204554485f5452414e534645525f4641494c4544\n    data_565f1a77334fc4792800921178c71e4521acffab18ff9e7885b49377ee80ab4c 416464726573733a20696e73756666696369656e742062616c616e636520666f722063616c6c\n    data_9113bb53c2876a3805b2c9242029423fc540a728243ce887ab24c82cf119fba3 536166654d6174683a206d756c7469706c69636174696f6e206f766572666c6f77\n    data_e11ad79d1e4a7f2e5f376964cb99e8e8f7904e3fc16a109f7a7ecb9aa7956dcd 5361666545524332303a204552433230206f7065726174696f6e20646964206e6f742073756363656564\n\n    auxdata: 0xa26469706673582212203e9babde24b549916b09941118032ab5454b949ed4b046829549e1cdb10e1af064736f6c634300060c0033\n}\n",
				"bytecode": {
					"linkReferences": {},
					"object": "6080604052620627006005556000600655670de0b6b3a76400006007556000600a556000600c5534801561003257600080fd5b5060405162002d4a38038062002d4a8339818101604052606081101561005757600080fd5b81019080805190602001909291908051906020019092919080519060200190929190505050600061008c6102a160201b60201c565b9050806000806101000a81548173ffffffffffffffffffffffffffffffffffffffff021916908373ffffffffffffffffffffffffffffffffffffffff1602179055508073ffffffffffffffffffffffffffffffffffffffff16600073ffffffffffffffffffffffffffffffffffffffff167f8be0079c531659141344cd1fd0a4f28419497f9722a3daafe3b4186f6b6457e060405160405180910390a3506001808190555081600360006101000a81548173ffffffffffffffffffffffffffffffffffffffff021916908373ffffffffffffffffffffffffffffffffffffffff16021790555060086040518060a001604052808573ffffffffffffffffffffffffffffffffffffffff16815260200160648152602001600b548152602001600081526020016000815250908060018154018082558091505060019003906000526020600020906005020160009091909190915060008201518160000160006101000a81548173ffffffffffffffffffffffffffffffffffffffff021916908373ffffffffffffffffffffffffffffffffffffffff16021790555060208201518160010155604082015181600201556060820151816003015560808201518160040155505080600260006101000a81548173ffffffffffffffffffffffffffffffffffffffff021916908373ffffffffffffffffffffffffffffffffffffffff1602179055506064600a819055505050506102a9565b600033905090565b612a9180620002b96000396000f3fe6080604052600436106101445760003560e01c806384ed8c56116100b6578063dd5998441161006f578063dd59984414610576578063e3161ddd146105a1578063eebf65f3146105b8578063f2fde38b14610607578063f7c618c114610658578063fbe1ebec146106995761014b565b806384ed8c56146104525780638b1c0d1b1461048d5780638da5cb5b146104b8578063afb62e56146104f9578063b6b55f2514610524578063db2e21bc1461055f5761014b565b806346f0cfba1161010857806346f0cfba146103085780634707d0001461033357806348cd4cb1146103a45780635eeb6710146103cf578063715018a6146103fa57806376ab8136146104115761014b565b80631526fe271461015057806317caf6f1146101d15780631959a002146101fc5780632e1a7d4d1461026857806331d7a262146102a35761014b565b3661014b57005b600080fd5b34801561015c57600080fd5b506101896004803603602081101561017357600080fd5b81019080803590602001909291905050506106ea565b604051808673ffffffffffffffffffffffffffffffffffffffff1681526020018581526020018481526020018381526020018281526020019550505050505060405180910390f35b3480156101dd57600080fd5b506101e661074d565b6040518082815260200191505060405180910390f35b34801561020857600080fd5b5061024b6004803603602081101561021f57600080fd5b81019080803573ffffffffffffffffffffffffffffffffffffffff169060200190929190505050610753565b604051808381526020018281526020019250505060405180910390f35b34801561027457600080fd5b506102a16004803603602081101561028b57600080fd5b8101908080359060200190929190505050610777565b005b3480156102af57600080fd5b506102f2600480360360208110156102c657600080fd5b81019080803573ffffffffffffffffffffffffffffffffffffffff169060200190929190505050610abd565b6040518082815260200191505060405180910390f35b34801561031457600080fd5b5061031d610c51565b6040518082815260200191505060405180910390f35b34801561033f57600080fd5b506103a26004803603604081101561035657600080fd5b81019080803573ffffffffffffffffffffffffffffffffffffffff169060200190929190803573ffffffffffffffffffffffffffffffffffffffff169060200190929190505050610c57565b005b3480156103b057600080fd5b506103b9610e41565b6040518082815260200191505060405180910390f35b3480156103db57600080fd5b506103e4610e47565b6040518082815260200191505060405180910390f35b34801561040657600080fd5b5061040f610e4d565b005b34801561041d57600080fd5b50610426610fba565b604051808273ffffffffffffffffffffffffffffffffffffffff16815260200191505060405180910390f35b34801561045e57600080fd5b5061048b6004803603602081101561047557600080fd5b8101908080359060200190929190505050610fe0565b005b34801561049957600080fd5b506104a26110e5565b6040518082815260200191505060405180910390f35b3480156104c457600080fd5b506104cd6110eb565b604051808273ffffffffffffffffffffffffffffffffffffffff16815260200191505060405180910390f35b34801561050557600080fd5b5061050e611114565b6040518082815260200191505060405180910390f35b34801561053057600080fd5b5061055d6004803603602081101561054757600080fd5b810190808035906020019092919050505061111a565b005b34801561056b57600080fd5b506105746113f6565b005b34801561058257600080fd5b5061058b6115bf565b6040518082815260200191505060405180910390f35b3480156105ad57600080fd5b506105b66115c5565b005b3480156105c457600080fd5b50610605600480360360608110156105db57600080fd5b8101908080359060200190929190803590602001909291908035906020019092919050505061171b565b005b34801561061357600080fd5b506106566004803603602081101561062a57600080fd5b81019080803573ffffffffffffffffffffffffffffffffffffffff16906020019092919050505061185c565b005b34801561066457600080fd5b5061066d611a4e565b604051808273ffffffffffffffffffffffffffffffffffffffff16815260200191505060405180910390f35b3480156106a557600080fd5b506106e8600480360360208110156106bc57600080fd5b81019080803573ffffffffffffffffffffffffffffffffffffffff169060200190929190505050611a74565b005b600881815481106106f757fe5b90600052602060002090600502016000915090508060000160009054906101000a900473ffffffffffffffffffffffffffffffffffffffff16908060010154908060020154908060030154908060040154905085565b600a5481565b60096020528060005260406000206000915090508060000154908060010154905082565b600260015414156107f0576040517f08c379a000000000000000000000000000000000000000000000000000000000815260040180806020018281038252601f8152602001807f5265656e7472616e637947756172643a207265656e7472616e742063616c6c0081525060200191505060405180910390fd5b60026001819055506000600860008154811061080857fe5b906000526020600020906005020190506000600960003373ffffffffffffffffffffffffffffffffffffffff1673ffffffffffffffffffffffffffffffffffffffff168152602001908152602001600020905082816000015410156108d5576040517f08c379a00000000000000000000000000000000000000000000000000000000081526004018080602001828103825260128152602001807f77697468647261773a206e6f7420676f6f64000000000000000000000000000081525060200191505060405180910390fd5b6108dd6115c5565b600061092a826001015461091c670de0b6b3a764000061090e87600301548760000154611d4090919063ffffffff16565b611dc690919063ffffffff16565b611e4f90919063ffffffff16565b9050600081111561098e5761093f3382611ed2565b3373ffffffffffffffffffffffffffffffffffffffff167fc9695243a805adb74c91f28311176c65b417e842d5699893cef56d18bfa48cba826040518082815260200191505060405180910390a25b6000841115610a25576109ae848360000154611e4f90919063ffffffff16565b82600001819055506109cd848460040154611e4f90919063ffffffff16565b8360040181905550610a2433858560000160009054906101000a900473ffffffffffffffffffffffffffffffffffffffff1673ffffffffffffffffffffffffffffffffffffffff166121ec9092919063ffffffff16565b5b610a5a670de0b6b3a7640000610a4c85600301548560000154611d4090919063ffffffff16565b611dc690919063ffffffff16565b82600101819055503373ffffffffffffffffffffffffffffffffffffffff167f884edad9ce6fa2440d8a54cc123490eb96d2768479d49ff9c7366125a9424364856040518082815260200191505060405180910390a25050506001808190555050565b6000806008600081548110610ace57fe5b906000526020600020906005020190506000600960008573ffffffffffffffffffffffffffffffffffffffff1673ffffffffffffffffffffffffffffffffffffffff1681526020019081526020016000209050600082600301549050600083600401549050836002015443118015610b47575060008114155b15610bff576000600c541115610bfe576000610b6785600201544361228e565b90506000610baa600a54610b9c8860010154610b8e60045487611d4090919063ffffffff16565b611d4090919063ffffffff16565b611dc690919063ffffffff16565b9050610bb881600c546122ab565b9050610bf9610bea84610bdc670de0b6b3a764000085611d4090919063ffffffff16565b611dc690919063ffffffff16565b856122c490919063ffffffff16565b935050505b5b610c468360010154610c38670de0b6b3a7640000610c2a868860000154611d4090919063ffffffff16565b611dc690919063ffffffff16565b611e4f90919063ffffffff16565b945050505050919050565b60055481565b610c5f61234c565b73ffffffffffffffffffffffffffffffffffffffff16610c7d6110eb565b73ffffffffffffffffffffffffffffffffffffffff1614610d06576040517f08c379a00000000000000000000000000000000000000000000000000000000081526004018080602001828103825260208152602001807f4f776e61626c653a2063616c6c6572206973206e6f7420746865206f776e657281525060200191505060405180910390fd5b60008273ffffffffffffffffffffffffffffffffffffffff166370a08231306040518263ffffffff1660e01b8152600401808273ffffffffffffffffffffffffffffffffffffffff16815260200191505060206040518083038186803b158015610d6f57600080fd5b505afa158015610d83573d6000803e3d6000fd5b505050506040513d6020811015610d9957600080fd5b81019080805190602001909291905050509050610dd782828573ffffffffffffffffffffffffffffffffffffffff166121ec9092919063ffffffff16565b8273ffffffffffffffffffffffffffffffffffffffff163373ffffffffffffffffffffffffffffffffffffffff167f0de377c3f3362540c047602ad996510f81ec5d84f9ad151c7b6ebecce8ea6b7b836040518082815260200191505060405180910390a3505050565b600b5481565b60045481565b610e5561234c565b73ffffffffffffffffffffffffffffffffffffffff16610e736110eb565b73ffffffffffffffffffffffffffffffffffffffff1614610efc576040517f08c379a00000000000000000000000000000000000000000000000000000000081526004018080602001828103825260208152602001807f4f776e61626c653a2063616c6c6572206973206e6f7420746865206f776e657281525060200191505060405180910390fd5b600073ffffffffffffffffffffffffffffffffffffffff1660008054906101000a900473ffffffffffffffffffffffffffffffffffffffff1673ffffffffffffffffffffffffffffffffffffffff167f8be0079c531659141344cd1fd0a4f28419497f9722a3daafe3b4186f6b6457e060405160405180910390a360008060006101000a81548173ffffffffffffffffffffffffffffffffffffffff021916908373ffffffffffffffffffffffffffffffffffffffff160217905550565b600260009054906101000a900473ffffffffffffffffffffffffffffffffffffffff1681565b60026001541415611059576040517f08c379a000000000000000000000000000000000000000000000000000000000815260040180806020018281038252601f8152602001807f5265656e7472616e637947756172643a207265656e7472616e742063616c6c0081525060200191505060405180910390fd5b60026001819055506110696115c5565b6110b8333083600360009054906101000a900473ffffffffffffffffffffffffffffffffffffffff1673ffffffffffffffffffffffffffffffffffffffff16612354909392919063ffffffff16565b6110cd81600c546122c490919063ffffffff16565b600c819055506110db612415565b6001808190555050565b60075481565b60008060009054906101000a900473ffffffffffffffffffffffffffffffffffffffff16905090565b600c5481565b60026001541415611193576040517f08c379a000000000000000000000000000000000000000000000000000000000815260040180806020018281038252601f8152602001807f5265656e7472616e637947756172643a207265656e7472616e742063616c6c0081525060200191505060405180910390fd5b6002600181905550600060086000815481106111ab57fe5b906000526020600020906005020190506000600960003373ffffffffffffffffffffffffffffffffffffffff1673ffffffffffffffffffffffffffffffffffffffff16815260200190815260200160002090506112066115c5565b6000816000015411156112c65760006112608260010154611252670de0b6b3a764000061124487600301548760000154611d4090919063ffffffff16565b611dc690919063ffffffff16565b611e4f90919063ffffffff16565b905060008111156112c4576112753382611ed2565b3373ffffffffffffffffffffffffffffffffffffffff167fc9695243a805adb74c91f28311176c65b417e842d5699893cef56d18bfa48cba826040518082815260200191505060405180910390a25b505b600083111561135f576113203330858560000160009054906101000a900473ffffffffffffffffffffffffffffffffffffffff1673ffffffffffffffffffffffffffffffffffffffff16612354909392919063ffffffff16565b6113378382600001546122c490919063ffffffff16565b81600001819055506113568383600401546122c490919063ffffffff16565b82600401819055505b611394670de0b6b3a764000061138684600301548460000154611d4090919063ffffffff16565b611dc690919063ffffffff16565b81600101819055503373ffffffffffffffffffffffffffffffffffffffff167fe1fffcc4923d04b559f4d29a8bfc6cda04eb5b0d3c460751c2402c5c5cc9109c846040518082815260200191505060405180910390a250506001808190555050565b6002600154141561146f576040517f08c379a000000000000000000000000000000000000000000000000000000000815260040180806020018281038252601f8152602001807f5265656e7472616e637947756172643a207265656e7472616e742063616c6c0081525060200191505060405180910390fd5b60026001819055506000600860008154811061148757fe5b906000526020600020906005020190506000600960003373ffffffffffffffffffffffffffffffffffffffff1673ffffffffffffffffffffffffffffffffffffffff1681526020019081526020016000209050600081600001549050600082600001819055506000826001018190555061150e818460040154611e4f90919063ffffffff16565b836004018190555061156533828560000160009054906101000a900473ffffffffffffffffffffffffffffffffffffffff1673ffffffffffffffffffffffffffffffffffffffff166121ec9092919063ffffffff16565b3373ffffffffffffffffffffffffffffffffffffffff167f5fafa99d0643513820be26656b45130b01e1c03062e1266bf36f88cbd3bd9695826040518082815260200191505060405180910390a250505060018081905550565b60065481565b600060086000815481106115d557fe5b90600052602060002090600502019050806002015443116115f65750611719565b6000816004015490506000811480611612575060008260010154145b15611627574382600201819055505050611719565b6000600c541415611642574382600201819055505050611719565b600061165283600201544361228e565b90506000611695600a54611687866001015461167960045487611d4090919063ffffffff16565b611d4090919063ffffffff16565b611dc690919063ffffffff16565b90506116a381600c546122ab565b90506116ba81600c54611e4f90919063ffffffff16565b600c819055506117036116f0846116e2670de0b6b3a764000085611d4090919063ffffffff16565b611dc690919063ffffffff16565b85600301546122c490919063ffffffff16565b8460030181905550438460020181905550505050505b565b61172361234c565b73ffffffffffffffffffffffffffffffffffffffff166117416110eb565b73ffffffffffffffffffffffffffffffffffffffff16146117ca576040517f08c379a00000000000000000000000000000000000000000000000000000000081526004018080602001828103825260208152602001807f4f776e61626c653a2063616c6c6572206973206e6f7420746865206f776e657281525060200191505060405180910390fd5b6117d26115c5565b8260058190555081600681905550806007819055506117ef612415565b3373ffffffffffffffffffffffffffffffffffffffff167fa2ccc6b6183e466f6e7b59cc83e6a4a0fd8a4adab25b95ac0fcb805b963ea0f38484846004546040518085815260200184815260200183815260200182815260200194505050505060405180910390a2505050565b61186461234c565b73ffffffffffffffffffffffffffffffffffffffff166118826110eb565b73ffffffffffffffffffffffffffffffffffffffff161461190b576040517f08c379a00000000000000000000000000000000000000000000000000000000081526004018080602001828103825260208152602001807f4f776e61626c653a2063616c6c6572206973206e6f7420746865206f776e657281525060200191505060405180910390fd5b600073ffffffffffffffffffffffffffffffffffffffff168173ffffffffffffffffffffffffffffffffffffffff161415611991576040517f08c379a00000000000000000000000000000000000000000000000000000000081526004018080602001828103825260268152602001806129a16026913960400191505060405180910390fd5b8073ffffffffffffffffffffffffffffffffffffffff1660008054906101000a900473ffffffffffffffffffffffffffffffffffffffff1673ffffffffffffffffffffffffffffffffffffffff167f8be0079c531659141344cd1fd0a4f28419497f9722a3daafe3b4186f6b6457e060405160405180910390a3806000806101000a81548173ffffffffffffffffffffffffffffffffffffffff021916908373ffffffffffffffffffffffffffffffffffffffff16021790555050565b600360009054906101000a900473ffffffffffffffffffffffffffffffffffffffff1681565b60026001541415611aed576040517f08c379a000000000000000000000000000000000000000000000000000000000815260040180806020018281038252601f8152602001807f5265656e7472616e637947756172643a207265656e7472616e742063616c6c0081525060200191505060405180910390fd5b60026001819055508073ffffffffffffffffffffffffffffffffffffffff163373ffffffffffffffffffffffffffffffffffffffff161480611b5a57508073ffffffffffffffffffffffffffffffffffffffff163273ffffffffffffffffffffffffffffffffffffffff16145b611bcc576040517f08c379a00000000000000000000000000000000000000000000000000000000081526004018080602001828103825260158152602001807f68617276657374466f723a20464f5242494444454e000000000000000000000081525060200191505060405180910390fd5b60006008600081548110611bdc57fe5b906000526020600020906005020190506000600960008473ffffffffffffffffffffffffffffffffffffffff1673ffffffffffffffffffffffffffffffffffffffff1681526020019081526020016000209050611c376115c5565b600081600001541115611d34576000611c918260010154611c83670de0b6b3a7640000611c7587600301548760000154611d4090919063ffffffff16565b611dc690919063ffffffff16565b611e4f90919063ffffffff16565b90506000811115611d3257611ca68482611ed2565b611cdb670de0b6b3a7640000611ccd85600301548560000154611d4090919063ffffffff16565b611dc690919063ffffffff16565b82600101819055508373ffffffffffffffffffffffffffffffffffffffff167fc9695243a805adb74c91f28311176c65b417e842d5699893cef56d18bfa48cba826040518082815260200191505060405180910390a25b505b50506001808190555050565b600080831415611d535760009050611dc0565b6000828402905082848281611d6457fe5b0414611dbb576040517f08c379a0000000000000000000000000000000000000000000000000000000008152600401808060200182810382526021815260200180612a116021913960400191505060405180910390fd5b809150505b92915050565b6000808211611e3d576040517f08c379a000000000000000000000000000000000000000000000000000000000815260040180806020018281038252601a8152602001807f536166654d6174683a206469766973696f6e206279207a65726f00000000000081525060200191505060405180910390fd5b818381611e4657fe5b04905092915050565b600082821115611ec7576040517f08c379a000000000000000000000000000000000000000000000000000000000815260040180806020018281038252601e8152602001807f536166654d6174683a207375627472616374696f6e206f766572666c6f77000081525060200191505060405180910390fd5b818303905092915050565b6000600360009054906101000a900473ffffffffffffffffffffffffffffffffffffffff1673ffffffffffffffffffffffffffffffffffffffff166370a08231306040518263ffffffff1660e01b8152600401808273ffffffffffffffffffffffffffffffffffffffff16815260200191505060206040518083038186803b158015611f5d57600080fd5b505afa158015611f71573d6000803e3d6000fd5b505050506040513d6020811015611f8757600080fd5b810190808051906020019092919050505090506000611fa682846122ab565b9050600260009054906101000a900473ffffffffffffffffffffffffffffffffffffffff1673ffffffffffffffffffffffffffffffffffffffff16600360009054906101000a900473ffffffffffffffffffffffffffffffffffffffff1673ffffffffffffffffffffffffffffffffffffffff1614156120bc57600260009054906101000a900473ffffffffffffffffffffffffffffffffffffffff1673ffffffffffffffffffffffffffffffffffffffff16632e1a7d4d826040518263ffffffff1660e01b815260040180828152602001915050600060405180830381600087803b15801561209557600080fd5b505af11580156120a9573d6000803e3d6000fd5b505050506120b78482612475565b6121e6565b6000600360009054906101000a900473ffffffffffffffffffffffffffffffffffffffff1673ffffffffffffffffffffffffffffffffffffffff1663a9059cbb86846040518363ffffffff1660e01b8152600401808373ffffffffffffffffffffffffffffffffffffffff16815260200182815260200192505050602060405180830381600087803b15801561215157600080fd5b505af1158015612165573d6000803e3d6000fd5b505050506040513d602081101561217b57600080fd5b81019080805190602001909291905050509050806121e4576040517f08c379a000000000000000000000000000000000000000000000000000000000815260040180806020018281038252602381526020018061297e6023913960400191505060405180910390fd5b505b50505050565b6122898363a9059cbb60e01b8484604051602401808373ffffffffffffffffffffffffffffffffffffffff16815260200182815260200192505050604051602081830303815290604052907bffffffffffffffffffffffffffffffffffffffffffffffffffffffff19166020820180517bffffffffffffffffffffffffffffffffffffffffffffffffffffffff83818316178352505050506125d4565b505050565b60006122a38383611e4f90919063ffffffff16565b905092915050565b60008183106122ba57816122bc565b825b905092915050565b600080828401905083811015612342576040517f08c379a000000000000000000000000000000000000000000000000000000000815260040180806020018281038252601b8152602001807f536166654d6174683a206164646974696f6e206f766572666c6f77000000000081525060200191505060405180910390fd5b8091505092915050565b600033905090565b61240f846323b872dd60e01b858585604051602401808473ffffffffffffffffffffffffffffffffffffffff1681526020018373ffffffffffffffffffffffffffffffffffffffff1681526020018281526020019350505050604051602081830303815290604052907bffffffffffffffffffffffffffffffffffffffffffffffffffffffff19166020820180517bffffffffffffffffffffffffffffffffffffffffffffffffffffffff83818316178352505050506125d4565b50505050565b6000600c54111561246a57612437600554600c54611dc690919063ffffffff16565b60048190555061244b6007546004546122ab565b60048190555061245f6006546004546126c3565b600481905550612473565b60006004819055505b565b60008273ffffffffffffffffffffffffffffffffffffffff1682600067ffffffffffffffff811180156124a757600080fd5b506040519080825280601f01601f1916602001820160405280156124da5781602001600182028036833780820191505090505b506040518082805190602001908083835b6020831061250e57805182526020820191506020810190506020830392506124eb565b6001836020036101000a03801982511681845116808217855250505050505090500191505060006040518083038185875af1925050503d8060008114612570576040519150601f19603f3d011682016040523d82523d6000602084013e612575565b606091505b50509050806125cf576040517f08c379a00000000000000000000000000000000000000000000000000000000081526004018080602001828103825260248152602001806129c76024913960400191505060405180910390fd5b505050565b6060612636826040518060400160405280602081526020017f5361666545524332303a206c6f772d6c6576656c2063616c6c206661696c65648152508573ffffffffffffffffffffffffffffffffffffffff166126dd9092919063ffffffff16565b90506000815111156126be5780806020019051602081101561265757600080fd5b81019080805190602001909291905050506126bd576040517f08c379a000000000000000000000000000000000000000000000000000000000815260040180806020018281038252602a815260200180612a32602a913960400191505060405180910390fd5b5b505050565b6000818310156126d357816126d5565b825b905092915050565b60606126ec84846000856126f5565b90509392505050565b606082471015612750576040517f08c379a00000000000000000000000000000000000000000000000000000000081526004018080602001828103825260268152602001806129eb6026913960400191505060405180910390fd5b6127598561289e565b6127cb576040517f08c379a000000000000000000000000000000000000000000000000000000000815260040180806020018281038252601d8152602001807f416464726573733a2063616c6c20746f206e6f6e2d636f6e747261637400000081525060200191505060405180910390fd5b600060608673ffffffffffffffffffffffffffffffffffffffff1685876040518082805190602001908083835b6020831061281b57805182526020820191506020810190506020830392506127f8565b6001836020036101000a03801982511681845116808217855250505050505090500191505060006040518083038185875af1925050503d806000811461287d576040519150601f19603f3d011682016040523d82523d6000602084013e612882565b606091505b50915091506128928282866128b1565b92505050949350505050565b600080823b905060008111915050919050565b606083156128c157829050612976565b6000835111156128d45782518084602001fd5b816040517f08c379a00000000000000000000000000000000000000000000000000000000081526004018080602001828103825283818151815260200191508051906020019080838360005b8381101561293b578082015181840152602081019050612920565b50505050905090810190601f1680156129685780820380516001836020036101000a031916815260200191505b509250505060405180910390fd5b939250505056fe736166655265776172645472616e736665723a207472616e73666572206661696c65644f776e61626c653a206e6577206f776e657220697320746865207a65726f2061646472657373736166655472616e736665724554483a204554485f5452414e534645525f4641494c4544416464726573733a20696e73756666696369656e742062616c616e636520666f722063616c6c536166654d6174683a206d756c7469706c69636174696f6e206f766572666c6f775361666545524332303a204552433230206f7065726174696f6e20646964206e6f742073756363656564a26469706673582212203e9babde24b549916b09941118032ab5454b949ed4b046829549e1cdb10e1af064736f6c634300060c0033",
					"opcodes": "PUSH1 0x80 PUSH1 0x40 MSTORE PUSH3 0x62700 PUSH1 0x5 SSTORE PUSH1 0x0 PUSH1 0x6 SSTORE PUSH8 0xDE0B6B3A7640000 PUSH1 0x7 SSTORE PUSH1 0x0 PUSH1 0xA SSTORE PUSH1 0x0 PUSH1 0xC SSTORE CALLVALUE DUP1 ISZERO PUSH2 0x32 JUMPI PUSH1 0x0 DUP1 REVERT JUMPDEST POP PUSH1 0x40 MLOAD PUSH3 0x2D4A CODESIZE SUB DUP1 PUSH3 0x2D4A DUP4 CODECOPY DUP2 DUP2 ADD PUSH1 0x40 MSTORE PUSH1 0x60 DUP2 LT ISZERO PUSH2 0x57 JUMPI PUSH1 0x0 DUP1 REVERT JUMPDEST DUP2 ADD SWAP1 DUP1 DUP1 MLOAD SWAP1 PUSH1 0x20 ADD SWAP1 SWAP3 SWAP2 SWAP1 DUP1 MLOAD SWAP1 PUSH1 0x20 ADD SWAP1 SWAP3 SWAP2 SWAP1 DUP1 MLOAD SWAP1 PUSH1 0x20 ADD SWAP1 SWAP3 SWAP2 SWAP1 POP POP POP PUSH1 0x0 PUSH2 0x8C PUSH2 0x2A1 PUSH1 0x20 SHL PUSH1 0x20 SHR JUMP JUMPDEST SWAP1 POP DUP1 PUSH1 0x0 DUP1 PUSH2 0x100 EXP DUP2 SLOAD DUP2 PUSH20 0xFFFFFFFFFFFFFFFFFFFFFFFFFFFFFFFFFFFFFFFF MUL NOT AND SWAP1 DUP4 PUSH20 0xFFFFFFFFFFFFFFFFFFFFFFFFFFFFFFFFFFFFFFFF AND MUL OR SWAP1 SSTORE POP DUP1 PUSH20 0xFFFFFFFFFFFFFFFFFFFFFFFFFFFFFFFFFFFFFFFF AND PUSH1 0x0 PUSH20 0xFFFFFFFFFFFFFFFFFFFFFFFFFFFFFFFFFFFFFFFF AND PUSH32 0x8BE0079C531659141344CD1FD0A4F28419497F9722A3DAAFE3B4186F6B6457E0 PUSH1 0x40 MLOAD PUSH1 0x40 MLOAD DUP1 SWAP2 SUB SWAP1 LOG3 POP PUSH1 0x1 DUP1 DUP2 SWAP1 SSTORE POP DUP2 PUSH1 0x3 PUSH1 0x0 PUSH2 0x100 EXP DUP2 SLOAD DUP2 PUSH20 0xFFFFFFFFFFFFFFFFFFFFFFFFFFFFFFFFFFFFFFFF MUL NOT AND SWAP1 DUP4 PUSH20 0xFFFFFFFFFFFFFFFFFFFFFFFFFFFFFFFFFFFFFFFF AND MUL OR SWAP1 SSTORE POP PUSH1 0x8 PUSH1 0x40 MLOAD DUP1 PUSH1 0xA0 ADD PUSH1 0x40 MSTORE DUP1 DUP6 PUSH20 0xFFFFFFFFFFFFFFFFFFFFFFFFFFFFFFFFFFFFFFFF AND DUP2 MSTORE PUSH1 0x20 ADD PUSH1 0x64 DUP2 MSTORE PUSH1 0x20 ADD PUSH1 0xB SLOAD DUP2 MSTORE PUSH1 0x20 ADD PUSH1 0x0 DUP2 MSTORE PUSH1 0x20 ADD PUSH1 0x0 DUP2 MSTORE POP SWAP1 DUP1 PUSH1 0x1 DUP2 SLOAD ADD DUP1 DUP3 SSTORE DUP1 SWAP2 POP POP PUSH1 0x1 SWAP1 SUB SWAP1 PUSH1 0x0 MSTORE PUSH1 0x20 PUSH1 0x0 KECCAK256 SWAP1 PUSH1 0x5 MUL ADD PUSH1 0x0 SWAP1 SWAP2 SWAP1 SWAP2 SWAP1 SWAP2 POP PUSH1 0x0 DUP3 ADD MLOAD DUP2 PUSH1 0x0 ADD PUSH1 0x0 PUSH2 0x100 EXP DUP2 SLOAD DUP2 PUSH20 0xFFFFFFFFFFFFFFFFFFFFFFFFFFFFFFFFFFFFFFFF MUL NOT AND SWAP1 DUP4 PUSH20 0xFFFFFFFFFFFFFFFFFFFFFFFFFFFFFFFFFFFFFFFF AND MUL OR SWAP1 SSTORE POP PUSH1 0x20 DUP3 ADD MLOAD DUP2 PUSH1 0x1 ADD SSTORE PUSH1 0x40 DUP3 ADD MLOAD DUP2 PUSH1 0x2 ADD SSTORE PUSH1 0x60 DUP3 ADD MLOAD DUP2 PUSH1 0x3 ADD SSTORE PUSH1 0x80 DUP3 ADD MLOAD DUP2 PUSH1 0x4 ADD SSTORE POP POP DUP1 PUSH1 0x2 PUSH1 0x0 PUSH2 0x100 EXP DUP2 SLOAD DUP2 PUSH20 0xFFFFFFFFFFFFFFFFFFFFFFFFFFFFFFFFFFFFFFFF MUL NOT AND SWAP1 DUP4 PUSH20 0xFFFFFFFFFFFFFFFFFFFFFFFFFFFFFFFFFFFFFFFF AND MUL OR SWAP1 SSTORE POP PUSH1 0x64 PUSH1 0xA DUP2 SWAP1 SSTORE POP POP POP POP PUSH2 0x2A9 JUMP JUMPDEST PUSH1 0x0 CALLER SWAP1 POP SWAP1 JUMP JUMPDEST PUSH2 0x2A91 DUP1 PUSH3 0x2B9 PUSH1 0x0 CODECOPY PUSH1 0x0 RETURN INVALID PUSH1 0x80 PUSH1 0x40 MSTORE PUSH1 0x4 CALLDATASIZE LT PUSH2 0x144 JUMPI PUSH1 0x0 CALLDATALOAD PUSH1 0xE0 SHR DUP1 PUSH4 0x84ED8C56 GT PUSH2 0xB6 JUMPI DUP1 PUSH4 0xDD599844 GT PUSH2 0x6F JUMPI DUP1 PUSH4 0xDD599844 EQ PUSH2 0x576 JUMPI DUP1 PUSH4 0xE3161DDD EQ PUSH2 0x5A1 JUMPI DUP1 PUSH4 0xEEBF65F3 EQ PUSH2 0x5B8 JUMPI DUP1 PUSH4 0xF2FDE38B EQ PUSH2 0x607 JUMPI DUP1 PUSH4 0xF7C618C1 EQ PUSH2 0x658 JUMPI DUP1 PUSH4 0xFBE1EBEC EQ PUSH2 0x699 JUMPI PUSH2 0x14B JUMP JUMPDEST DUP1 PUSH4 0x84ED8C56 EQ PUSH2 0x452 JUMPI DUP1 PUSH4 0x8B1C0D1B EQ PUSH2 0x48D JUMPI DUP1 PUSH4 0x8DA5CB5B EQ PUSH2 0x4B8 JUMPI DUP1 PUSH4 0xAFB62E56 EQ PUSH2 0x4F9 JUMPI DUP1 PUSH4 0xB6B55F25 EQ PUSH2 0x524 JUMPI DUP1 PUSH4 0xDB2E21BC EQ PUSH2 0x55F JUMPI PUSH2 0x14B JUMP JUMPDEST DUP1 PUSH4 0x46F0CFBA GT PUSH2 0x108 JUMPI DUP1 PUSH4 0x46F0CFBA EQ PUSH2 0x308 JUMPI DUP1 PUSH4 0x4707D000 EQ PUSH2 0x333 JUMPI DUP1 PUSH4 0x48CD4CB1 EQ PUSH2 0x3A4 JUMPI DUP1 PUSH4 0x5EEB6710 EQ PUSH2 0x3CF JUMPI DUP1 PUSH4 0x715018A6 EQ PUSH2 0x3FA JUMPI DUP1 PUSH4 0x76AB8136 EQ PUSH2 0x411 JUMPI PUSH2 0x14B JUMP JUMPDEST DUP1 PUSH4 0x1526FE27 EQ PUSH2 0x150 JUMPI DUP1 PUSH4 0x17CAF6F1 EQ PUSH2 0x1D1 JUMPI DUP1 PUSH4 0x1959A002 EQ PUSH2 0x1FC JUMPI DUP1 PUSH4 0x2E1A7D4D EQ PUSH2 0x268 JUMPI DUP1 PUSH4 0x31D7A262 EQ PUSH2 0x2A3 JUMPI PUSH2 0x14B JUMP JUMPDEST CALLDATASIZE PUSH2 0x14B JUMPI STOP JUMPDEST PUSH1 0x0 DUP1 REVERT JUMPDEST CALLVALUE DUP1 ISZERO PUSH2 0x15C JUMPI PUSH1 0x0 DUP1 REVERT JUMPDEST POP PUSH2 0x189 PUSH1 0x4 DUP1 CALLDATASIZE SUB PUSH1 0x20 DUP2 LT ISZERO PUSH2 0x173 JUMPI PUSH1 0x0 DUP1 REVERT JUMPDEST DUP2 ADD SWAP1 DUP1 DUP1 CALLDATALOAD SWAP1 PUSH1 0x20 ADD SWAP1 SWAP3 SWAP2 SWAP1 POP POP POP PUSH2 0x6EA JUMP JUMPDEST PUSH1 0x40 MLOAD DUP1 DUP7 PUSH20 0xFFFFFFFFFFFFFFFFFFFFFFFFFFFFFFFFFFFFFFFF AND DUP2 MSTORE PUSH1 0x20 ADD DUP6 DUP2 MSTORE PUSH1 0x20 ADD DUP5 DUP2 MSTORE PUSH1 0x20 ADD DUP4 DUP2 MSTORE PUSH1 0x20 ADD DUP3 DUP2 MSTORE PUSH1 0x20 ADD SWAP6 POP POP POP POP POP POP PUSH1 0x40 MLOAD DUP1 SWAP2 SUB SWAP1 RETURN JUMPDEST CALLVALUE DUP1 ISZERO PUSH2 0x1DD JUMPI PUSH1 0x0 DUP1 REVERT JUMPDEST POP PUSH2 0x1E6 PUSH2 0x74D JUMP JUMPDEST PUSH1 0x40 MLOAD DUP1 DUP3 DUP2 MSTORE PUSH1 0x20 ADD SWAP2 POP POP PUSH1 0x40 MLOAD DUP1 SWAP2 SUB SWAP1 RETURN JUMPDEST CALLVALUE DUP1 ISZERO PUSH2 0x208 JUMPI PUSH1 0x0 DUP1 REVERT JUMPDEST POP PUSH2 0x24B PUSH1 0x4 DUP1 CALLDATASIZE SUB PUSH1 0x20 DUP2 LT ISZERO PUSH2 0x21F JUMPI PUSH1 0x0 DUP1 REVERT JUMPDEST DUP2 ADD SWAP1 DUP1 DUP1 CALLDATALOAD PUSH20 0xFFFFFFFFFFFFFFFFFFFFFFFFFFFFFFFFFFFFFFFF AND SWAP1 PUSH1 0x20 ADD SWAP1 SWAP3 SWAP2 SWAP1 POP POP POP PUSH2 0x753 JUMP JUMPDEST PUSH1 0x40 MLOAD DUP1 DUP4 DUP2 MSTORE PUSH1 0x20 ADD DUP3 DUP2 MSTORE PUSH1 0x20 ADD SWAP3 POP POP POP PUSH1 0x40 MLOAD DUP1 SWAP2 SUB SWAP1 RETURN JUMPDEST CALLVALUE DUP1 ISZERO PUSH2 0x274 JUMPI PUSH1 0x0 DUP1 REVERT JUMPDEST POP PUSH2 0x2A1 PUSH1 0x4 DUP1 CALLDATASIZE SUB PUSH1 0x20 DUP2 LT ISZERO PUSH2 0x28B JUMPI PUSH1 0x0 DUP1 REVERT JUMPDEST DUP2 ADD SWAP1 DUP1 DUP1 CALLDATALOAD SWAP1 PUSH1 0x20 ADD SWAP1 SWAP3 SWAP2 SWAP1 POP POP POP PUSH2 0x777 JUMP JUMPDEST STOP JUMPDEST CALLVALUE DUP1 ISZERO PUSH2 0x2AF JUMPI PUSH1 0x0 DUP1 REVERT JUMPDEST POP PUSH2 0x2F2 PUSH1 0x4 DUP1 CALLDATASIZE SUB PUSH1 0x20 DUP2 LT ISZERO PUSH2 0x2C6 JUMPI PUSH1 0x0 DUP1 REVERT JUMPDEST DUP2 ADD SWAP1 DUP1 DUP1 CALLDATALOAD PUSH20 0xFFFFFFFFFFFFFFFFFFFFFFFFFFFFFFFFFFFFFFFF AND SWAP1 PUSH1 0x20 ADD SWAP1 SWAP3 SWAP2 SWAP1 POP POP POP PUSH2 0xABD JUMP JUMPDEST PUSH1 0x40 MLOAD DUP1 DUP3 DUP2 MSTORE PUSH1 0x20 ADD SWAP2 POP POP PUSH1 0x40 MLOAD DUP1 SWAP2 SUB SWAP1 RETURN JUMPDEST CALLVALUE DUP1 ISZERO PUSH2 0x314 JUMPI PUSH1 0x0 DUP1 REVERT JUMPDEST POP PUSH2 0x31D PUSH2 0xC51 JUMP JUMPDEST PUSH1 0x40 MLOAD DUP1 DUP3 DUP2 MSTORE PUSH1 0x20 ADD SWAP2 POP POP PUSH1 0x40 MLOAD DUP1 SWAP2 SUB SWAP1 RETURN JUMPDEST CALLVALUE DUP1 ISZERO PUSH2 0x33F JUMPI PUSH1 0x0 DUP1 REVERT JUMPDEST POP PUSH2 0x3A2 PUSH1 0x4 DUP1 CALLDATASIZE SUB PUSH1 0x40 DUP2 LT ISZERO PUSH2 0x356 JUMPI PUSH1 0x0 DUP1 REVERT JUMPDEST DUP2 ADD SWAP1 DUP1 DUP1 CALLDATALOAD PUSH20 0xFFFFFFFFFFFFFFFFFFFFFFFFFFFFFFFFFFFFFFFF AND SWAP1 PUSH1 0x20 ADD SWAP1 SWAP3 SWAP2 SWAP1 DUP1 CALLDATALOAD PUSH20 0xFFFFFFFFFFFFFFFFFFFFFFFFFFFFFFFFFFFFFFFF AND SWAP1 PUSH1 0x20 ADD SWAP1 SWAP3 SWAP2 SWAP1 POP POP POP PUSH2 0xC57 JUMP JUMPDEST STOP JUMPDEST CALLVALUE DUP1 ISZERO PUSH2 0x3B0 JUMPI PUSH1 0x0 DUP1 REVERT JUMPDEST POP PUSH2 0x3B9 PUSH2 0xE41 JUMP JUMPDEST PUSH1 0x40 MLOAD DUP1 DUP3 DUP2 MSTORE PUSH1 0x20 ADD SWAP2 POP POP PUSH1 0x40 MLOAD DUP1 SWAP2 SUB SWAP1 RETURN JUMPDEST CALLVALUE DUP1 ISZERO PUSH2 0x3DB JUMPI PUSH1 0x0 DUP1 REVERT JUMPDEST POP PUSH2 0x3E4 PUSH2 0xE47 JUMP JUMPDEST PUSH1 0x40 MLOAD DUP1 DUP3 DUP2 MSTORE PUSH1 0x20 ADD SWAP2 POP POP PUSH1 0x40 MLOAD DUP1 SWAP2 SUB SWAP1 RETURN JUMPDEST CALLVALUE DUP1 ISZERO PUSH2 0x406 JUMPI PUSH1 0x0 DUP1 REVERT JUMPDEST POP PUSH2 0x40F PUSH2 0xE4D JUMP JUMPDEST STOP JUMPDEST CALLVALUE DUP1 ISZERO PUSH2 0x41D JUMPI PUSH1 0x0 DUP1 REVERT JUMPDEST POP PUSH2 0x426 PUSH2 0xFBA JUMP JUMPDEST PUSH1 0x40 MLOAD DUP1 DUP3 PUSH20 0xFFFFFFFFFFFFFFFFFFFFFFFFFFFFFFFFFFFFFFFF AND DUP2 MSTORE PUSH1 0x20 ADD SWAP2 POP POP PUSH1 0x40 MLOAD DUP1 SWAP2 SUB SWAP1 RETURN JUMPDEST CALLVALUE DUP1 ISZERO PUSH2 0x45E JUMPI PUSH1 0x0 DUP1 REVERT JUMPDEST POP PUSH2 0x48B PUSH1 0x4 DUP1 CALLDATASIZE SUB PUSH1 0x20 DUP2 LT ISZERO PUSH2 0x475 JUMPI PUSH1 0x0 DUP1 REVERT JUMPDEST DUP2 ADD SWAP1 DUP1 DUP1 CALLDATALOAD SWAP1 PUSH1 0x20 ADD SWAP1 SWAP3 SWAP2 SWAP1 POP POP POP PUSH2 0xFE0 JUMP JUMPDEST STOP JUMPDEST CALLVALUE DUP1 ISZERO PUSH2 0x499 JUMPI PUSH1 0x0 DUP1 REVERT JUMPDEST POP PUSH2 0x4A2 PUSH2 0x10E5 JUMP JUMPDEST PUSH1 0x40 MLOAD DUP1 DUP3 DUP2 MSTORE PUSH1 0x20 ADD SWAP2 POP POP PUSH1 0x40 MLOAD DUP1 SWAP2 SUB SWAP1 RETURN JUMPDEST CALLVALUE DUP1 ISZERO PUSH2 0x4C4 JUMPI PUSH1 0x0 DUP1 REVERT JUMPDEST POP PUSH2 0x4CD PUSH2 0x10EB JUMP JUMPDEST PUSH1 0x40 MLOAD DUP1 DUP3 PUSH20 0xFFFFFFFFFFFFFFFFFFFFFFFFFFFFFFFFFFFFFFFF AND DUP2 MSTORE PUSH1 0x20 ADD SWAP2 POP POP PUSH1 0x40 MLOAD DUP1 SWAP2 SUB SWAP1 RETURN JUMPDEST CALLVALUE DUP1 ISZERO PUSH2 0x505 JUMPI PUSH1 0x0 DUP1 REVERT JUMPDEST POP PUSH2 0x50E PUSH2 0x1114 JUMP JUMPDEST PUSH1 0x40 MLOAD DUP1 DUP3 DUP2 MSTORE PUSH1 0x20 ADD SWAP2 POP POP PUSH1 0x40 MLOAD DUP1 SWAP2 SUB SWAP1 RETURN JUMPDEST CALLVALUE DUP1 ISZERO PUSH2 0x530 JUMPI PUSH1 0x0 DUP1 REVERT JUMPDEST POP PUSH2 0x55D PUSH1 0x4 DUP1 CALLDATASIZE SUB PUSH1 0x20 DUP2 LT ISZERO PUSH2 0x547 JUMPI PUSH1 0x0 DUP1 REVERT JUMPDEST DUP2 ADD SWAP1 DUP1 DUP1 CALLDATALOAD SWAP1 PUSH1 0x20 ADD SWAP1 SWAP3 SWAP2 SWAP1 POP POP POP PUSH2 0x111A JUMP JUMPDEST STOP JUMPDEST CALLVALUE DUP1 ISZERO PUSH2 0x56B JUMPI PUSH1 0x0 DUP1 REVERT JUMPDEST POP PUSH2 0x574 PUSH2 0x13F6 JUMP JUMPDEST STOP JUMPDEST CALLVALUE DUP1 ISZERO PUSH2 0x582 JUMPI PUSH1 0x0 DUP1 REVERT JUMPDEST POP PUSH2 0x58B PUSH2 0x15BF JUMP JUMPDEST PUSH1 0x40 MLOAD DUP1 DUP3 DUP2 MSTORE PUSH1 0x20 ADD SWAP2 POP POP PUSH1 0x40 MLOAD DUP1 SWAP2 SUB SWAP1 RETURN JUMPDEST CALLVALUE DUP1 ISZERO PUSH2 0x5AD JUMPI PUSH1 0x0 DUP1 REVERT JUMPDEST POP PUSH2 0x5B6 PUSH2 0x15C5 JUMP JUMPDEST STOP JUMPDEST CALLVALUE DUP1 ISZERO PUSH2 0x5C4 JUMPI PUSH1 0x0 DUP1 REVERT JUMPDEST POP PUSH2 0x605 PUSH1 0x4 DUP1 CALLDATASIZE SUB PUSH1 0x60 DUP2 LT ISZERO PUSH2 0x5DB JUMPI PUSH1 0x0 DUP1 REVERT JUMPDEST DUP2 ADD SWAP1 DUP1 DUP1 CALLDATALOAD SWAP1 PUSH1 0x20 ADD SWAP1 SWAP3 SWAP2 SWAP1 DUP1 CALLDATALOAD SWAP1 PUSH1 0x20 ADD SWAP1 SWAP3 SWAP2 SWAP1 DUP1 CALLDATALOAD SWAP1 PUSH1 0x20 ADD SWAP1 SWAP3 SWAP2 SWAP1 POP POP POP PUSH2 0x171B JUMP JUMPDEST STOP JUMPDEST CALLVALUE DUP1 ISZERO PUSH2 0x613 JUMPI PUSH1 0x0 DUP1 REVERT JUMPDEST POP PUSH2 0x656 PUSH1 0x4 DUP1 CALLDATASIZE SUB PUSH1 0x20 DUP2 LT ISZERO PUSH2 0x62A JUMPI PUSH1 0x0 DUP1 REVERT JUMPDEST DUP2 ADD SWAP1 DUP1 DUP1 CALLDATALOAD PUSH20 0xFFFFFFFFFFFFFFFFFFFFFFFFFFFFFFFFFFFFFFFF AND SWAP1 PUSH1 0x20 ADD SWAP1 SWAP3 SWAP2 SWAP1 POP POP POP PUSH2 0x185C JUMP JUMPDEST STOP JUMPDEST CALLVALUE DUP1 ISZERO PUSH2 0x664 JUMPI PUSH1 0x0 DUP1 REVERT JUMPDEST POP PUSH2 0x66D PUSH2 0x1A4E JUMP JUMPDEST PUSH1 0x40 MLOAD DUP1 DUP3 PUSH20 0xFFFFFFFFFFFFFFFFFFFFFFFFFFFFFFFFFFFFFFFF AND DUP2 MSTORE PUSH1 0x20 ADD SWAP2 POP POP PUSH1 0x40 MLOAD DUP1 SWAP2 SUB SWAP1 RETURN JUMPDEST CALLVALUE DUP1 ISZERO PUSH2 0x6A5 JUMPI PUSH1 0x0 DUP1 REVERT JUMPDEST POP PUSH2 0x6E8 PUSH1 0x4 DUP1 CALLDATASIZE SUB PUSH1 0x20 DUP2 LT ISZERO PUSH2 0x6BC JUMPI PUSH1 0x0 DUP1 REVERT JUMPDEST DUP2 ADD SWAP1 DUP1 DUP1 CALLDATALOAD PUSH20 0xFFFFFFFFFFFFFFFFFFFFFFFFFFFFFFFFFFFFFFFF AND SWAP1 PUSH1 0x20 ADD SWAP1 SWAP3 SWAP2 SWAP1 POP POP POP PUSH2 0x1A74 JUMP JUMPDEST STOP JUMPDEST PUSH1 0x8 DUP2 DUP2 SLOAD DUP2 LT PUSH2 0x6F7 JUMPI INVALID JUMPDEST SWAP1 PUSH1 0x0 MSTORE PUSH1 0x20 PUSH1 0x0 KECCAK256 SWAP1 PUSH1 0x5 MUL ADD PUSH1 0x0 SWAP2 POP SWAP1 POP DUP1 PUSH1 0x0 ADD PUSH1 0x0 SWAP1 SLOAD SWAP1 PUSH2 0x100 EXP SWAP1 DIV PUSH20 0xFFFFFFFFFFFFFFFFFFFFFFFFFFFFFFFFFFFFFFFF AND SWAP1 DUP1 PUSH1 0x1 ADD SLOAD SWAP1 DUP1 PUSH1 0x2 ADD SLOAD SWAP1 DUP1 PUSH1 0x3 ADD SLOAD SWAP1 DUP1 PUSH1 0x4 ADD SLOAD SWAP1 POP DUP6 JUMP JUMPDEST PUSH1 0xA SLOAD DUP2 JUMP JUMPDEST PUSH1 0x9 PUSH1 0x20 MSTORE DUP1 PUSH1 0x0 MSTORE PUSH1 0x40 PUSH1 0x0 KECCAK256 PUSH1 0x0 SWAP2 POP SWAP1 POP DUP1 PUSH1 0x0 ADD SLOAD SWAP1 DUP1 PUSH1 0x1 ADD SLOAD SWAP1 POP DUP3 JUMP JUMPDEST PUSH1 0x2 PUSH1 0x1 SLOAD EQ ISZERO PUSH2 0x7F0 JUMPI PUSH1 0x40 MLOAD PUSH32 0x8C379A000000000000000000000000000000000000000000000000000000000 DUP2 MSTORE PUSH1 0x4 ADD DUP1 DUP1 PUSH1 0x20 ADD DUP3 DUP2 SUB DUP3 MSTORE PUSH1 0x1F DUP2 MSTORE PUSH1 0x20 ADD DUP1 PUSH32 0x5265656E7472616E637947756172643A207265656E7472616E742063616C6C00 DUP2 MSTORE POP PUSH1 0x20 ADD SWAP2 POP POP PUSH1 0x40 MLOAD DUP1 SWAP2 SUB SWAP1 REVERT JUMPDEST PUSH1 0x2 PUSH1 0x1 DUP2 SWAP1 SSTORE POP PUSH1 0x0 PUSH1 0x8 PUSH1 0x0 DUP2 SLOAD DUP2 LT PUSH2 0x808 JUMPI INVALID JUMPDEST SWAP1 PUSH1 0x0 MSTORE PUSH1 0x20 PUSH1 0x0 KECCAK256 SWAP1 PUSH1 0x5 MUL ADD SWAP1 POP PUSH1 0x0 PUSH1 0x9 PUSH1 0x0 CALLER PUSH20 0xFFFFFFFFFFFFFFFFFFFFFFFFFFFFFFFFFFFFFFFF AND PUSH20 0xFFFFFFFFFFFFFFFFFFFFFFFFFFFFFFFFFFFFFFFF AND DUP2 MSTORE PUSH1 0x20 ADD SWAP1 DUP2 MSTORE PUSH1 0x20 ADD PUSH1 0x0 KECCAK256 SWAP1 POP DUP3 DUP2 PUSH1 0x0 ADD SLOAD LT ISZERO PUSH2 0x8D5 JUMPI PUSH1 0x40 MLOAD PUSH32 0x8C379A000000000000000000000000000000000000000000000000000000000 DUP2 MSTORE PUSH1 0x4 ADD DUP1 DUP1 PUSH1 0x20 ADD DUP3 DUP2 SUB DUP3 MSTORE PUSH1 0x12 DUP2 MSTORE PUSH1 0x20 ADD DUP1 PUSH32 0x77697468647261773A206E6F7420676F6F640000000000000000000000000000 DUP2 MSTORE POP PUSH1 0x20 ADD SWAP2 POP POP PUSH1 0x40 MLOAD DUP1 SWAP2 SUB SWAP1 REVERT JUMPDEST PUSH2 0x8DD PUSH2 0x15C5 JUMP JUMPDEST PUSH1 0x0 PUSH2 0x92A DUP3 PUSH1 0x1 ADD SLOAD PUSH2 0x91C PUSH8 0xDE0B6B3A7640000 PUSH2 0x90E DUP8 PUSH1 0x3 ADD SLOAD DUP8 PUSH1 0x0 ADD SLOAD PUSH2 0x1D40 SWAP1 SWAP2 SWAP1 PUSH4 0xFFFFFFFF AND JUMP JUMPDEST PUSH2 0x1DC6 SWAP1 SWAP2 SWAP1 PUSH4 0xFFFFFFFF AND JUMP JUMPDEST PUSH2 0x1E4F SWAP1 SWAP2 SWAP1 PUSH4 0xFFFFFFFF AND JUMP JUMPDEST SWAP1 POP PUSH1 0x0 DUP2 GT ISZERO PUSH2 0x98E JUMPI PUSH2 0x93F CALLER DUP3 PUSH2 0x1ED2 JUMP JUMPDEST CALLER PUSH20 0xFFFFFFFFFFFFFFFFFFFFFFFFFFFFFFFFFFFFFFFF AND PUSH32 0xC9695243A805ADB74C91F28311176C65B417E842D5699893CEF56D18BFA48CBA DUP3 PUSH1 0x40 MLOAD DUP1 DUP3 DUP2 MSTORE PUSH1 0x20 ADD SWAP2 POP POP PUSH1 0x40 MLOAD DUP1 SWAP2 SUB SWAP1 LOG2 JUMPDEST PUSH1 0x0 DUP5 GT ISZERO PUSH2 0xA25 JUMPI PUSH2 0x9AE DUP5 DUP4 PUSH1 0x0 ADD SLOAD PUSH2 0x1E4F SWAP1 SWAP2 SWAP1 PUSH4 0xFFFFFFFF AND JUMP JUMPDEST DUP3 PUSH1 0x0 ADD DUP2 SWAP1 SSTORE POP PUSH2 0x9CD DUP5 DUP5 PUSH1 0x4 ADD SLOAD PUSH2 0x1E4F SWAP1 SWAP2 SWAP1 PUSH4 0xFFFFFFFF AND JUMP JUMPDEST DUP4 PUSH1 0x4 ADD DUP2 SWAP1 SSTORE POP PUSH2 0xA24 CALLER DUP6 DUP6 PUSH1 0x0 ADD PUSH1 0x0 SWAP1 SLOAD SWAP1 PUSH2 0x100 EXP SWAP1 DIV PUSH20 0xFFFFFFFFFFFFFFFFFFFFFFFFFFFFFFFFFFFFFFFF AND PUSH20 0xFFFFFFFFFFFFFFFFFFFFFFFFFFFFFFFFFFFFFFFF AND PUSH2 0x21EC SWAP1 SWAP3 SWAP2 SWAP1 PUSH4 0xFFFFFFFF AND JUMP JUMPDEST JUMPDEST PUSH2 0xA5A PUSH8 0xDE0B6B3A7640000 PUSH2 0xA4C DUP6 PUSH1 0x3 ADD SLOAD DUP6 PUSH1 0x0 ADD SLOAD PUSH2 0x1D40 SWAP1 SWAP2 SWAP1 PUSH4 0xFFFFFFFF AND JUMP JUMPDEST PUSH2 0x1DC6 SWAP1 SWAP2 SWAP1 PUSH4 0xFFFFFFFF AND JUMP JUMPDEST DUP3 PUSH1 0x1 ADD DUP2 SWAP1 SSTORE POP CALLER PUSH20 0xFFFFFFFFFFFFFFFFFFFFFFFFFFFFFFFFFFFFFFFF AND PUSH32 0x884EDAD9CE6FA2440D8A54CC123490EB96D2768479D49FF9C7366125A9424364 DUP6 PUSH1 0x40 MLOAD DUP1 DUP3 DUP2 MSTORE PUSH1 0x20 ADD SWAP2 POP POP PUSH1 0x40 MLOAD DUP1 SWAP2 SUB SWAP1 LOG2 POP POP POP PUSH1 0x1 DUP1 DUP2 SWAP1 SSTORE POP POP JUMP JUMPDEST PUSH1 0x0 DUP1 PUSH1 0x8 PUSH1 0x0 DUP2 SLOAD DUP2 LT PUSH2 0xACE JUMPI INVALID JUMPDEST SWAP1 PUSH1 0x0 MSTORE PUSH1 0x20 PUSH1 0x0 KECCAK256 SWAP1 PUSH1 0x5 MUL ADD SWAP1 POP PUSH1 0x0 PUSH1 0x9 PUSH1 0x0 DUP6 PUSH20 0xFFFFFFFFFFFFFFFFFFFFFFFFFFFFFFFFFFFFFFFF AND PUSH20 0xFFFFFFFFFFFFFFFFFFFFFFFFFFFFFFFFFFFFFFFF AND DUP2 MSTORE PUSH1 0x20 ADD SWAP1 DUP2 MSTORE PUSH1 0x20 ADD PUSH1 0x0 KECCAK256 SWAP1 POP PUSH1 0x0 DUP3 PUSH1 0x3 ADD SLOAD SWAP1 POP PUSH1 0x0 DUP4 PUSH1 0x4 ADD SLOAD SWAP1 POP DUP4 PUSH1 0x2 ADD SLOAD NUMBER GT DUP1 ISZERO PUSH2 0xB47 JUMPI POP PUSH1 0x0 DUP2 EQ ISZERO JUMPDEST ISZERO PUSH2 0xBFF JUMPI PUSH1 0x0 PUSH1 0xC SLOAD GT ISZERO PUSH2 0xBFE JUMPI PUSH1 0x0 PUSH2 0xB67 DUP6 PUSH1 0x2 ADD SLOAD NUMBER PUSH2 0x228E JUMP JUMPDEST SWAP1 POP PUSH1 0x0 PUSH2 0xBAA PUSH1 0xA SLOAD PUSH2 0xB9C DUP9 PUSH1 0x1 ADD SLOAD PUSH2 0xB8E PUSH1 0x4 SLOAD DUP8 PUSH2 0x1D40 SWAP1 SWAP2 SWAP1 PUSH4 0xFFFFFFFF AND JUMP JUMPDEST PUSH2 0x1D40 SWAP1 SWAP2 SWAP1 PUSH4 0xFFFFFFFF AND JUMP JUMPDEST PUSH2 0x1DC6 SWAP1 SWAP2 SWAP1 PUSH4 0xFFFFFFFF AND JUMP JUMPDEST SWAP1 POP PUSH2 0xBB8 DUP2 PUSH1 0xC SLOAD PUSH2 0x22AB JUMP JUMPDEST SWAP1 POP PUSH2 0xBF9 PUSH2 0xBEA DUP5 PUSH2 0xBDC PUSH8 0xDE0B6B3A7640000 DUP6 PUSH2 0x1D40 SWAP1 SWAP2 SWAP1 PUSH4 0xFFFFFFFF AND JUMP JUMPDEST PUSH2 0x1DC6 SWAP1 SWAP2 SWAP1 PUSH4 0xFFFFFFFF AND JUMP JUMPDEST DUP6 PUSH2 0x22C4 SWAP1 SWAP2 SWAP1 PUSH4 0xFFFFFFFF AND JUMP JUMPDEST SWAP4 POP POP POP JUMPDEST JUMPDEST PUSH2 0xC46 DUP4 PUSH1 0x1 ADD SLOAD PUSH2 0xC38 PUSH8 0xDE0B6B3A7640000 PUSH2 0xC2A DUP7 DUP9 PUSH1 0x0 ADD SLOAD PUSH2 0x1D40 SWAP1 SWAP2 SWAP1 PUSH4 0xFFFFFFFF AND JUMP JUMPDEST PUSH2 0x1DC6 SWAP1 SWAP2 SWAP1 PUSH4 0xFFFFFFFF AND JUMP JUMPDEST PUSH2 0x1E4F SWAP1 SWAP2 SWAP1 PUSH4 0xFFFFFFFF AND JUMP JUMPDEST SWAP5 POP POP POP POP POP SWAP2 SWAP1 POP JUMP JUMPDEST PUSH1 0x5 SLOAD DUP2 JUMP JUMPDEST PUSH2 0xC5F PUSH2 0x234C JUMP JUMPDEST PUSH20 0xFFFFFFFFFFFFFFFFFFFFFFFFFFFFFFFFFFFFFFFF AND PUSH2 0xC7D PUSH2 0x10EB JUMP JUMPDEST PUSH20 0xFFFFFFFFFFFFFFFFFFFFFFFFFFFFFFFFFFFFFFFF AND EQ PUSH2 0xD06 JUMPI PUSH1 0x40 MLOAD PUSH32 0x8C379A000000000000000000000000000000000000000000000000000000000 DUP2 MSTORE PUSH1 0x4 ADD DUP1 DUP1 PUSH1 0x20 ADD DUP3 DUP2 SUB DUP3 MSTORE PUSH1 0x20 DUP2 MSTORE PUSH1 0x20 ADD DUP1 PUSH32 0x4F776E61626C653A2063616C6C6572206973206E6F7420746865206F776E6572 DUP2 MSTORE POP PUSH1 0x20 ADD SWAP2 POP POP PUSH1 0x40 MLOAD DUP1 SWAP2 SUB SWAP1 REVERT JUMPDEST PUSH1 0x0 DUP3 PUSH20 0xFFFFFFFFFFFFFFFFFFFFFFFFFFFFFFFFFFFFFFFF AND PUSH4 0x70A08231 ADDRESS PUSH1 0x40 MLOAD DUP3 PUSH4 0xFFFFFFFF AND PUSH1 0xE0 SHL DUP2 MSTORE PUSH1 0x4 ADD DUP1 DUP3 PUSH20 0xFFFFFFFFFFFFFFFFFFFFFFFFFFFFFFFFFFFFFFFF AND DUP2 MSTORE PUSH1 0x20 ADD SWAP2 POP POP PUSH1 0x20 PUSH1 0x40 MLOAD DUP1 DUP4 SUB DUP2 DUP7 DUP1 EXTCODESIZE ISZERO DUP1 ISZERO PUSH2 0xD6F JUMPI PUSH1 0x0 DUP1 REVERT JUMPDEST POP GAS STATICCALL ISZERO DUP1 ISZERO PUSH2 0xD83 JUMPI RETURNDATASIZE PUSH1 0x0 DUP1 RETURNDATACOPY RETURNDATASIZE PUSH1 0x0 REVERT JUMPDEST POP POP POP POP PUSH1 0x40 MLOAD RETURNDATASIZE PUSH1 0x20 DUP2 LT ISZERO PUSH2 0xD99 JUMPI PUSH1 0x0 DUP1 REVERT JUMPDEST DUP2 ADD SWAP1 DUP1 DUP1 MLOAD SWAP1 PUSH1 0x20 ADD SWAP1 SWAP3 SWAP2 SWAP1 POP POP POP SWAP1 POP PUSH2 0xDD7 DUP3 DUP3 DUP6 PUSH20 0xFFFFFFFFFFFFFFFFFFFFFFFFFFFFFFFFFFFFFFFF AND PUSH2 0x21EC SWAP1 SWAP3 SWAP2 SWAP1 PUSH4 0xFFFFFFFF AND JUMP JUMPDEST DUP3 PUSH20 0xFFFFFFFFFFFFFFFFFFFFFFFFFFFFFFFFFFFFFFFF AND CALLER PUSH20 0xFFFFFFFFFFFFFFFFFFFFFFFFFFFFFFFFFFFFFFFF AND PUSH32 0xDE377C3F3362540C047602AD996510F81EC5D84F9AD151C7B6EBECCE8EA6B7B DUP4 PUSH1 0x40 MLOAD DUP1 DUP3 DUP2 MSTORE PUSH1 0x20 ADD SWAP2 POP POP PUSH1 0x40 MLOAD DUP1 SWAP2 SUB SWAP1 LOG3 POP POP POP JUMP JUMPDEST PUSH1 0xB SLOAD DUP2 JUMP JUMPDEST PUSH1 0x4 SLOAD DUP2 JUMP JUMPDEST PUSH2 0xE55 PUSH2 0x234C JUMP JUMPDEST PUSH20 0xFFFFFFFFFFFFFFFFFFFFFFFFFFFFFFFFFFFFFFFF AND PUSH2 0xE73 PUSH2 0x10EB JUMP JUMPDEST PUSH20 0xFFFFFFFFFFFFFFFFFFFFFFFFFFFFFFFFFFFFFFFF AND EQ PUSH2 0xEFC JUMPI PUSH1 0x40 MLOAD PUSH32 0x8C379A000000000000000000000000000000000000000000000000000000000 DUP2 MSTORE PUSH1 0x4 ADD DUP1 DUP1 PUSH1 0x20 ADD DUP3 DUP2 SUB DUP3 MSTORE PUSH1 0x20 DUP2 MSTORE PUSH1 0x20 ADD DUP1 PUSH32 0x4F776E61626C653A2063616C6C6572206973206E6F7420746865206F776E6572 DUP2 MSTORE POP PUSH1 0x20 ADD SWAP2 POP POP PUSH1 0x40 MLOAD DUP1 SWAP2 SUB SWAP1 REVERT JUMPDEST PUSH1 0x0 PUSH20 0xFFFFFFFFFFFFFFFFFFFFFFFFFFFFFFFFFFFFFFFF AND PUSH1 0x0 DUP1 SLOAD SWAP1 PUSH2 0x100 EXP SWAP1 DIV PUSH20 0xFFFFFFFFFFFFFFFFFFFFFFFFFFFFFFFFFFFFFFFF AND PUSH20 0xFFFFFFFFFFFFFFFFFFFFFFFFFFFFFFFFFFFFFFFF AND PUSH32 0x8BE0079C531659141344CD1FD0A4F28419497F9722A3DAAFE3B4186F6B6457E0 PUSH1 0x40 MLOAD PUSH1 0x40 MLOAD DUP1 SWAP2 SUB SWAP1 LOG3 PUSH1 0x0 DUP1 PUSH1 0x0 PUSH2 0x100 EXP DUP2 SLOAD DUP2 PUSH20 0xFFFFFFFFFFFFFFFFFFFFFFFFFFFFFFFFFFFFFFFF MUL NOT AND SWAP1 DUP4 PUSH20 0xFFFFFFFFFFFFFFFFFFFFFFFFFFFFFFFFFFFFFFFF AND MUL OR SWAP1 SSTORE POP JUMP JUMPDEST PUSH1 0x2 PUSH1 0x0 SWAP1 SLOAD SWAP1 PUSH2 0x100 EXP SWAP1 DIV PUSH20 0xFFFFFFFFFFFFFFFFFFFFFFFFFFFFFFFFFFFFFFFF AND DUP2 JUMP JUMPDEST PUSH1 0x2 PUSH1 0x1 SLOAD EQ ISZERO PUSH2 0x1059 JUMPI PUSH1 0x40 MLOAD PUSH32 0x8C379A000000000000000000000000000000000000000000000000000000000 DUP2 MSTORE PUSH1 0x4 ADD DUP1 DUP1 PUSH1 0x20 ADD DUP3 DUP2 SUB DUP3 MSTORE PUSH1 0x1F DUP2 MSTORE PUSH1 0x20 ADD DUP1 PUSH32 0x5265656E7472616E637947756172643A207265656E7472616E742063616C6C00 DUP2 MSTORE POP PUSH1 0x20 ADD SWAP2 POP POP PUSH1 0x40 MLOAD DUP1 SWAP2 SUB SWAP1 REVERT JUMPDEST PUSH1 0x2 PUSH1 0x1 DUP2 SWAP1 SSTORE POP PUSH2 0x1069 PUSH2 0x15C5 JUMP JUMPDEST PUSH2 0x10B8 CALLER ADDRESS DUP4 PUSH1 0x3 PUSH1 0x0 SWAP1 SLOAD SWAP1 PUSH2 0x100 EXP SWAP1 DIV PUSH20 0xFFFFFFFFFFFFFFFFFFFFFFFFFFFFFFFFFFFFFFFF AND PUSH20 0xFFFFFFFFFFFFFFFFFFFFFFFFFFFFFFFFFFFFFFFF AND PUSH2 0x2354 SWAP1 SWAP4 SWAP3 SWAP2 SWAP1 PUSH4 0xFFFFFFFF AND JUMP JUMPDEST PUSH2 0x10CD DUP2 PUSH1 0xC SLOAD PUSH2 0x22C4 SWAP1 SWAP2 SWAP1 PUSH4 0xFFFFFFFF AND JUMP JUMPDEST PUSH1 0xC DUP2 SWAP1 SSTORE POP PUSH2 0x10DB PUSH2 0x2415 JUMP JUMPDEST PUSH1 0x1 DUP1 DUP2 SWAP1 SSTORE POP POP JUMP JUMPDEST PUSH1 0x7 SLOAD DUP2 JUMP JUMPDEST PUSH1 0x0 DUP1 PUSH1 0x0 SWAP1 SLOAD SWAP1 PUSH2 0x100 EXP SWAP1 DIV PUSH20 0xFFFFFFFFFFFFFFFFFFFFFFFFFFFFFFFFFFFFFFFF AND SWAP1 POP SWAP1 JUMP JUMPDEST PUSH1 0xC SLOAD DUP2 JUMP JUMPDEST PUSH1 0x2 PUSH1 0x1 SLOAD EQ ISZERO PUSH2 0x1193 JUMPI PUSH1 0x40 MLOAD PUSH32 0x8C379A000000000000000000000000000000000000000000000000000000000 DUP2 MSTORE PUSH1 0x4 ADD DUP1 DUP1 PUSH1 0x20 ADD DUP3 DUP2 SUB DUP3 MSTORE PUSH1 0x1F DUP2 MSTORE PUSH1 0x20 ADD DUP1 PUSH32 0x5265656E7472616E637947756172643A207265656E7472616E742063616C6C00 DUP2 MSTORE POP PUSH1 0x20 ADD SWAP2 POP POP PUSH1 0x40 MLOAD DUP1 SWAP2 SUB SWAP1 REVERT JUMPDEST PUSH1 0x2 PUSH1 0x1 DUP2 SWAP1 SSTORE POP PUSH1 0x0 PUSH1 0x8 PUSH1 0x0 DUP2 SLOAD DUP2 LT PUSH2 0x11AB JUMPI INVALID JUMPDEST SWAP1 PUSH1 0x0 MSTORE PUSH1 0x20 PUSH1 0x0 KECCAK256 SWAP1 PUSH1 0x5 MUL ADD SWAP1 POP PUSH1 0x0 PUSH1 0x9 PUSH1 0x0 CALLER PUSH20 0xFFFFFFFFFFFFFFFFFFFFFFFFFFFFFFFFFFFFFFFF AND PUSH20 0xFFFFFFFFFFFFFFFFFFFFFFFFFFFFFFFFFFFFFFFF AND DUP2 MSTORE PUSH1 0x20 ADD SWAP1 DUP2 MSTORE PUSH1 0x20 ADD PUSH1 0x0 KECCAK256 SWAP1 POP PUSH2 0x1206 PUSH2 0x15C5 JUMP JUMPDEST PUSH1 0x0 DUP2 PUSH1 0x0 ADD SLOAD GT ISZERO PUSH2 0x12C6 JUMPI PUSH1 0x0 PUSH2 0x1260 DUP3 PUSH1 0x1 ADD SLOAD PUSH2 0x1252 PUSH8 0xDE0B6B3A7640000 PUSH2 0x1244 DUP8 PUSH1 0x3 ADD SLOAD DUP8 PUSH1 0x0 ADD SLOAD PUSH2 0x1D40 SWAP1 SWAP2 SWAP1 PUSH4 0xFFFFFFFF AND JUMP JUMPDEST PUSH2 0x1DC6 SWAP1 SWAP2 SWAP1 PUSH4 0xFFFFFFFF AND JUMP JUMPDEST PUSH2 0x1E4F SWAP1 SWAP2 SWAP1 PUSH4 0xFFFFFFFF AND JUMP JUMPDEST SWAP1 POP PUSH1 0x0 DUP2 GT ISZERO PUSH2 0x12C4 JUMPI PUSH2 0x1275 CALLER DUP3 PUSH2 0x1ED2 JUMP JUMPDEST CALLER PUSH20 0xFFFFFFFFFFFFFFFFFFFFFFFFFFFFFFFFFFFFFFFF AND PUSH32 0xC9695243A805ADB74C91F28311176C65B417E842D5699893CEF56D18BFA48CBA DUP3 PUSH1 0x40 MLOAD DUP1 DUP3 DUP2 MSTORE PUSH1 0x20 ADD SWAP2 POP POP PUSH1 0x40 MLOAD DUP1 SWAP2 SUB SWAP1 LOG2 JUMPDEST POP JUMPDEST PUSH1 0x0 DUP4 GT ISZERO PUSH2 0x135F JUMPI PUSH2 0x1320 CALLER ADDRESS DUP6 DUP6 PUSH1 0x0 ADD PUSH1 0x0 SWAP1 SLOAD SWAP1 PUSH2 0x100 EXP SWAP1 DIV PUSH20 0xFFFFFFFFFFFFFFFFFFFFFFFFFFFFFFFFFFFFFFFF AND PUSH20 0xFFFFFFFFFFFFFFFFFFFFFFFFFFFFFFFFFFFFFFFF AND PUSH2 0x2354 SWAP1 SWAP4 SWAP3 SWAP2 SWAP1 PUSH4 0xFFFFFFFF AND JUMP JUMPDEST PUSH2 0x1337 DUP4 DUP3 PUSH1 0x0 ADD SLOAD PUSH2 0x22C4 SWAP1 SWAP2 SWAP1 PUSH4 0xFFFFFFFF AND JUMP JUMPDEST DUP2 PUSH1 0x0 ADD DUP2 SWAP1 SSTORE POP PUSH2 0x1356 DUP4 DUP4 PUSH1 0x4 ADD SLOAD PUSH2 0x22C4 SWAP1 SWAP2 SWAP1 PUSH4 0xFFFFFFFF AND JUMP JUMPDEST DUP3 PUSH1 0x4 ADD DUP2 SWAP1 SSTORE POP JUMPDEST PUSH2 0x1394 PUSH8 0xDE0B6B3A7640000 PUSH2 0x1386 DUP5 PUSH1 0x3 ADD SLOAD DUP5 PUSH1 0x0 ADD SLOAD PUSH2 0x1D40 SWAP1 SWAP2 SWAP1 PUSH4 0xFFFFFFFF AND JUMP JUMPDEST PUSH2 0x1DC6 SWAP1 SWAP2 SWAP1 PUSH4 0xFFFFFFFF AND JUMP JUMPDEST DUP2 PUSH1 0x1 ADD DUP2 SWAP1 SSTORE POP CALLER PUSH20 0xFFFFFFFFFFFFFFFFFFFFFFFFFFFFFFFFFFFFFFFF AND PUSH32 0xE1FFFCC4923D04B559F4D29A8BFC6CDA04EB5B0D3C460751C2402C5C5CC9109C DUP5 PUSH1 0x40 MLOAD DUP1 DUP3 DUP2 MSTORE PUSH1 0x20 ADD SWAP2 POP POP PUSH1 0x40 MLOAD DUP1 SWAP2 SUB SWAP1 LOG2 POP POP PUSH1 0x1 DUP1 DUP2 SWAP1 SSTORE POP POP JUMP JUMPDEST PUSH1 0x2 PUSH1 0x1 SLOAD EQ ISZERO PUSH2 0x146F JUMPI PUSH1 0x40 MLOAD PUSH32 0x8C379A000000000000000000000000000000000000000000000000000000000 DUP2 MSTORE PUSH1 0x4 ADD DUP1 DUP1 PUSH1 0x20 ADD DUP3 DUP2 SUB DUP3 MSTORE PUSH1 0x1F DUP2 MSTORE PUSH1 0x20 ADD DUP1 PUSH32 0x5265656E7472616E637947756172643A207265656E7472616E742063616C6C00 DUP2 MSTORE POP PUSH1 0x20 ADD SWAP2 POP POP PUSH1 0x40 MLOAD DUP1 SWAP2 SUB SWAP1 REVERT JUMPDEST PUSH1 0x2 PUSH1 0x1 DUP2 SWAP1 SSTORE POP PUSH1 0x0 PUSH1 0x8 PUSH1 0x0 DUP2 SLOAD DUP2 LT PUSH2 0x1487 JUMPI INVALID JUMPDEST SWAP1 PUSH1 0x0 MSTORE PUSH1 0x20 PUSH1 0x0 KECCAK256 SWAP1 PUSH1 0x5 MUL ADD SWAP1 POP PUSH1 0x0 PUSH1 0x9 PUSH1 0x0 CALLER PUSH20 0xFFFFFFFFFFFFFFFFFFFFFFFFFFFFFFFFFFFFFFFF AND PUSH20 0xFFFFFFFFFFFFFFFFFFFFFFFFFFFFFFFFFFFFFFFF AND DUP2 MSTORE PUSH1 0x20 ADD SWAP1 DUP2 MSTORE PUSH1 0x20 ADD PUSH1 0x0 KECCAK256 SWAP1 POP PUSH1 0x0 DUP2 PUSH1 0x0 ADD SLOAD SWAP1 POP PUSH1 0x0 DUP3 PUSH1 0x0 ADD DUP2 SWAP1 SSTORE POP PUSH1 0x0 DUP3 PUSH1 0x1 ADD DUP2 SWAP1 SSTORE POP PUSH2 0x150E DUP2 DUP5 PUSH1 0x4 ADD SLOAD PUSH2 0x1E4F SWAP1 SWAP2 SWAP1 PUSH4 0xFFFFFFFF AND JUMP JUMPDEST DUP4 PUSH1 0x4 ADD DUP2 SWAP1 SSTORE POP PUSH2 0x1565 CALLER DUP3 DUP6 PUSH1 0x0 ADD PUSH1 0x0 SWAP1 SLOAD SWAP1 PUSH2 0x100 EXP SWAP1 DIV PUSH20 0xFFFFFFFFFFFFFFFFFFFFFFFFFFFFFFFFFFFFFFFF AND PUSH20 0xFFFFFFFFFFFFFFFFFFFFFFFFFFFFFFFFFFFFFFFF AND PUSH2 0x21EC SWAP1 SWAP3 SWAP2 SWAP1 PUSH4 0xFFFFFFFF AND JUMP JUMPDEST CALLER PUSH20 0xFFFFFFFFFFFFFFFFFFFFFFFFFFFFFFFFFFFFFFFF AND PUSH32 0x5FAFA99D0643513820BE26656B45130B01E1C03062E1266BF36F88CBD3BD9695 DUP3 PUSH1 0x40 MLOAD DUP1 DUP3 DUP2 MSTORE PUSH1 0x20 ADD SWAP2 POP POP PUSH1 0x40 MLOAD DUP1 SWAP2 SUB SWAP1 LOG2 POP POP POP PUSH1 0x1 DUP1 DUP2 SWAP1 SSTORE POP JUMP JUMPDEST PUSH1 0x6 SLOAD DUP2 JUMP JUMPDEST PUSH1 0x0 PUSH1 0x8 PUSH1 0x0 DUP2 SLOAD DUP2 LT PUSH2 0x15D5 JUMPI INVALID JUMPDEST SWAP1 PUSH1 0x0 MSTORE PUSH1 0x20 PUSH1 0x0 KECCAK256 SWAP1 PUSH1 0x5 MUL ADD SWAP1 POP DUP1 PUSH1 0x2 ADD SLOAD NUMBER GT PUSH2 0x15F6 JUMPI POP PUSH2 0x1719 JUMP JUMPDEST PUSH1 0x0 DUP2 PUSH1 0x4 ADD SLOAD SWAP1 POP PUSH1 0x0 DUP2 EQ DUP1 PUSH2 0x1612 JUMPI POP PUSH1 0x0 DUP3 PUSH1 0x1 ADD SLOAD EQ JUMPDEST ISZERO PUSH2 0x1627 JUMPI NUMBER DUP3 PUSH1 0x2 ADD DUP2 SWAP1 SSTORE POP POP POP PUSH2 0x1719 JUMP JUMPDEST PUSH1 0x0 PUSH1 0xC SLOAD EQ ISZERO PUSH2 0x1642 JUMPI NUMBER DUP3 PUSH1 0x2 ADD DUP2 SWAP1 SSTORE POP POP POP PUSH2 0x1719 JUMP JUMPDEST PUSH1 0x0 PUSH2 0x1652 DUP4 PUSH1 0x2 ADD SLOAD NUMBER PUSH2 0x228E JUMP JUMPDEST SWAP1 POP PUSH1 0x0 PUSH2 0x1695 PUSH1 0xA SLOAD PUSH2 0x1687 DUP7 PUSH1 0x1 ADD SLOAD PUSH2 0x1679 PUSH1 0x4 SLOAD DUP8 PUSH2 0x1D40 SWAP1 SWAP2 SWAP1 PUSH4 0xFFFFFFFF AND JUMP JUMPDEST PUSH2 0x1D40 SWAP1 SWAP2 SWAP1 PUSH4 0xFFFFFFFF AND JUMP JUMPDEST PUSH2 0x1DC6 SWAP1 SWAP2 SWAP1 PUSH4 0xFFFFFFFF AND JUMP JUMPDEST SWAP1 POP PUSH2 0x16A3 DUP2 PUSH1 0xC SLOAD PUSH2 0x22AB JUMP JUMPDEST SWAP1 POP PUSH2 0x16BA DUP2 PUSH1 0xC SLOAD PUSH2 0x1E4F SWAP1 SWAP2 SWAP1 PUSH4 0xFFFFFFFF AND JUMP JUMPDEST PUSH1 0xC DUP2 SWAP1 SSTORE POP PUSH2 0x1703 PUSH2 0x16F0 DUP5 PUSH2 0x16E2 PUSH8 0xDE0B6B3A7640000 DUP6 PUSH2 0x1D40 SWAP1 SWAP2 SWAP1 PUSH4 0xFFFFFFFF AND JUMP JUMPDEST PUSH2 0x1DC6 SWAP1 SWAP2 SWAP1 PUSH4 0xFFFFFFFF AND JUMP JUMPDEST DUP6 PUSH1 0x3 ADD SLOAD PUSH2 0x22C4 SWAP1 SWAP2 SWAP1 PUSH4 0xFFFFFFFF AND JUMP JUMPDEST DUP5 PUSH1 0x3 ADD DUP2 SWAP1 SSTORE POP NUMBER DUP5 PUSH1 0x2 ADD DUP2 SWAP1 SSTORE POP POP POP POP POP JUMPDEST JUMP JUMPDEST PUSH2 0x1723 PUSH2 0x234C JUMP JUMPDEST PUSH20 0xFFFFFFFFFFFFFFFFFFFFFFFFFFFFFFFFFFFFFFFF AND PUSH2 0x1741 PUSH2 0x10EB JUMP JUMPDEST PUSH20 0xFFFFFFFFFFFFFFFFFFFFFFFFFFFFFFFFFFFFFFFF AND EQ PUSH2 0x17CA JUMPI PUSH1 0x40 MLOAD PUSH32 0x8C379A000000000000000000000000000000000000000000000000000000000 DUP2 MSTORE PUSH1 0x4 ADD DUP1 DUP1 PUSH1 0x20 ADD DUP3 DUP2 SUB DUP3 MSTORE PUSH1 0x20 DUP2 MSTORE PUSH1 0x20 ADD DUP1 PUSH32 0x4F776E61626C653A2063616C6C6572206973206E6F7420746865206F776E6572 DUP2 MSTORE POP PUSH1 0x20 ADD SWAP2 POP POP PUSH1 0x40 MLOAD DUP1 SWAP2 SUB SWAP1 REVERT JUMPDEST PUSH2 0x17D2 PUSH2 0x15C5 JUMP JUMPDEST DUP3 PUSH1 0x5 DUP2 SWAP1 SSTORE POP DUP2 PUSH1 0x6 DUP2 SWAP1 SSTORE POP DUP1 PUSH1 0x7 DUP2 SWAP1 SSTORE POP PUSH2 0x17EF PUSH2 0x2415 JUMP JUMPDEST CALLER PUSH20 0xFFFFFFFFFFFFFFFFFFFFFFFFFFFFFFFFFFFFFFFF AND PUSH32 0xA2CCC6B6183E466F6E7B59CC83E6A4A0FD8A4ADAB25B95AC0FCB805B963EA0F3 DUP5 DUP5 DUP5 PUSH1 0x4 SLOAD PUSH1 0x40 MLOAD DUP1 DUP6 DUP2 MSTORE PUSH1 0x20 ADD DUP5 DUP2 MSTORE PUSH1 0x20 ADD DUP4 DUP2 MSTORE PUSH1 0x20 ADD DUP3 DUP2 MSTORE PUSH1 0x20 ADD SWAP5 POP POP POP POP POP PUSH1 0x40 MLOAD DUP1 SWAP2 SUB SWAP1 LOG2 POP POP POP JUMP JUMPDEST PUSH2 0x1864 PUSH2 0x234C JUMP JUMPDEST PUSH20 0xFFFFFFFFFFFFFFFFFFFFFFFFFFFFFFFFFFFFFFFF AND PUSH2 0x1882 PUSH2 0x10EB JUMP JUMPDEST PUSH20 0xFFFFFFFFFFFFFFFFFFFFFFFFFFFFFFFFFFFFFFFF AND EQ PUSH2 0x190B JUMPI PUSH1 0x40 MLOAD PUSH32 0x8C379A000000000000000000000000000000000000000000000000000000000 DUP2 MSTORE PUSH1 0x4 ADD DUP1 DUP1 PUSH1 0x20 ADD DUP3 DUP2 SUB DUP3 MSTORE PUSH1 0x20 DUP2 MSTORE PUSH1 0x20 ADD DUP1 PUSH32 0x4F776E61626C653A2063616C6C6572206973206E6F7420746865206F776E6572 DUP2 MSTORE POP PUSH1 0x20 ADD SWAP2 POP POP PUSH1 0x40 MLOAD DUP1 SWAP2 SUB SWAP1 REVERT JUMPDEST PUSH1 0x0 PUSH20 0xFFFFFFFFFFFFFFFFFFFFFFFFFFFFFFFFFFFFFFFF AND DUP2 PUSH20 0xFFFFFFFFFFFFFFFFFFFFFFFFFFFFFFFFFFFFFFFF AND EQ ISZERO PUSH2 0x1991 JUMPI PUSH1 0x40 MLOAD PUSH32 0x8C379A000000000000000000000000000000000000000000000000000000000 DUP2 MSTORE PUSH1 0x4 ADD DUP1 DUP1 PUSH1 0x20 ADD DUP3 DUP2 SUB DUP3 MSTORE PUSH1 0x26 DUP2 MSTORE PUSH1 0x20 ADD DUP1 PUSH2 0x29A1 PUSH1 0x26 SWAP2 CODECOPY PUSH1 0x40 ADD SWAP2 POP POP PUSH1 0x40 MLOAD DUP1 SWAP2 SUB SWAP1 REVERT JUMPDEST DUP1 PUSH20 0xFFFFFFFFFFFFFFFFFFFFFFFFFFFFFFFFFFFFFFFF AND PUSH1 0x0 DUP1 SLOAD SWAP1 PUSH2 0x100 EXP SWAP1 DIV PUSH20 0xFFFFFFFFFFFFFFFFFFFFFFFFFFFFFFFFFFFFFFFF AND PUSH20 0xFFFFFFFFFFFFFFFFFFFFFFFFFFFFFFFFFFFFFFFF AND PUSH32 0x8BE0079C531659141344CD1FD0A4F28419497F9722A3DAAFE3B4186F6B6457E0 PUSH1 0x40 MLOAD PUSH1 0x40 MLOAD DUP1 SWAP2 SUB SWAP1 LOG3 DUP1 PUSH1 0x0 DUP1 PUSH2 0x100 EXP DUP2 SLOAD DUP2 PUSH20 0xFFFFFFFFFFFFFFFFFFFFFFFFFFFFFFFFFFFFFFFF MUL NOT AND SWAP1 DUP4 PUSH20 0xFFFFFFFFFFFFFFFFFFFFFFFFFFFFFFFFFFFFFFFF AND MUL OR SWAP1 SSTORE POP POP JUMP JUMPDEST PUSH1 0x3 PUSH1 0x0 SWAP1 SLOAD SWAP1 PUSH2 0x100 EXP SWAP1 DIV PUSH20 0xFFFFFFFFFFFFFFFFFFFFFFFFFFFFFFFFFFFFFFFF AND DUP2 JUMP JUMPDEST PUSH1 0x2 PUSH1 0x1 SLOAD EQ ISZERO PUSH2 0x1AED JUMPI PUSH1 0x40 MLOAD PUSH32 0x8C379A000000000000000000000000000000000000000000000000000000000 DUP2 MSTORE PUSH1 0x4 ADD DUP1 DUP1 PUSH1 0x20 ADD DUP3 DUP2 SUB DUP3 MSTORE PUSH1 0x1F DUP2 MSTORE PUSH1 0x20 ADD DUP1 PUSH32 0x5265656E7472616E637947756172643A207265656E7472616E742063616C6C00 DUP2 MSTORE POP PUSH1 0x20 ADD SWAP2 POP POP PUSH1 0x40 MLOAD DUP1 SWAP2 SUB SWAP1 REVERT JUMPDEST PUSH1 0x2 PUSH1 0x1 DUP2 SWAP1 SSTORE POP DUP1 PUSH20 0xFFFFFFFFFFFFFFFFFFFFFFFFFFFFFFFFFFFFFFFF AND CALLER PUSH20 0xFFFFFFFFFFFFFFFFFFFFFFFFFFFFFFFFFFFFFFFF AND EQ DUP1 PUSH2 0x1B5A JUMPI POP DUP1 PUSH20 0xFFFFFFFFFFFFFFFFFFFFFFFFFFFFFFFFFFFFFFFF AND ORIGIN PUSH20 0xFFFFFFFFFFFFFFFFFFFFFFFFFFFFFFFFFFFFFFFF AND EQ JUMPDEST PUSH2 0x1BCC JUMPI PUSH1 0x40 MLOAD PUSH32 0x8C379A000000000000000000000000000000000000000000000000000000000 DUP2 MSTORE PUSH1 0x4 ADD DUP1 DUP1 PUSH1 0x20 ADD DUP3 DUP2 SUB DUP3 MSTORE PUSH1 0x15 DUP2 MSTORE PUSH1 0x20 ADD DUP1 PUSH32 0x68617276657374466F723A20464F5242494444454E0000000000000000000000 DUP2 MSTORE POP PUSH1 0x20 ADD SWAP2 POP POP PUSH1 0x40 MLOAD DUP1 SWAP2 SUB SWAP1 REVERT JUMPDEST PUSH1 0x0 PUSH1 0x8 PUSH1 0x0 DUP2 SLOAD DUP2 LT PUSH2 0x1BDC JUMPI INVALID JUMPDEST SWAP1 PUSH1 0x0 MSTORE PUSH1 0x20 PUSH1 0x0 KECCAK256 SWAP1 PUSH1 0x5 MUL ADD SWAP1 POP PUSH1 0x0 PUSH1 0x9 PUSH1 0x0 DUP5 PUSH20 0xFFFFFFFFFFFFFFFFFFFFFFFFFFFFFFFFFFFFFFFF AND PUSH20 0xFFFFFFFFFFFFFFFFFFFFFFFFFFFFFFFFFFFFFFFF AND DUP2 MSTORE PUSH1 0x20 ADD SWAP1 DUP2 MSTORE PUSH1 0x20 ADD PUSH1 0x0 KECCAK256 SWAP1 POP PUSH2 0x1C37 PUSH2 0x15C5 JUMP JUMPDEST PUSH1 0x0 DUP2 PUSH1 0x0 ADD SLOAD GT ISZERO PUSH2 0x1D34 JUMPI PUSH1 0x0 PUSH2 0x1C91 DUP3 PUSH1 0x1 ADD SLOAD PUSH2 0x1C83 PUSH8 0xDE0B6B3A7640000 PUSH2 0x1C75 DUP8 PUSH1 0x3 ADD SLOAD DUP8 PUSH1 0x0 ADD SLOAD PUSH2 0x1D40 SWAP1 SWAP2 SWAP1 PUSH4 0xFFFFFFFF AND JUMP JUMPDEST PUSH2 0x1DC6 SWAP1 SWAP2 SWAP1 PUSH4 0xFFFFFFFF AND JUMP JUMPDEST PUSH2 0x1E4F SWAP1 SWAP2 SWAP1 PUSH4 0xFFFFFFFF AND JUMP JUMPDEST SWAP1 POP PUSH1 0x0 DUP2 GT ISZERO PUSH2 0x1D32 JUMPI PUSH2 0x1CA6 DUP5 DUP3 PUSH2 0x1ED2 JUMP JUMPDEST PUSH2 0x1CDB PUSH8 0xDE0B6B3A7640000 PUSH2 0x1CCD DUP6 PUSH1 0x3 ADD SLOAD DUP6 PUSH1 0x0 ADD SLOAD PUSH2 0x1D40 SWAP1 SWAP2 SWAP1 PUSH4 0xFFFFFFFF AND JUMP JUMPDEST PUSH2 0x1DC6 SWAP1 SWAP2 SWAP1 PUSH4 0xFFFFFFFF AND JUMP JUMPDEST DUP3 PUSH1 0x1 ADD DUP2 SWAP1 SSTORE POP DUP4 PUSH20 0xFFFFFFFFFFFFFFFFFFFFFFFFFFFFFFFFFFFFFFFF AND PUSH32 0xC9695243A805ADB74C91F28311176C65B417E842D5699893CEF56D18BFA48CBA DUP3 PUSH1 0x40 MLOAD DUP1 DUP3 DUP2 MSTORE PUSH1 0x20 ADD SWAP2 POP POP PUSH1 0x40 MLOAD DUP1 SWAP2 SUB SWAP1 LOG2 JUMPDEST POP JUMPDEST POP POP PUSH1 0x1 DUP1 DUP2 SWAP1 SSTORE POP POP JUMP JUMPDEST PUSH1 0x0 DUP1 DUP4 EQ ISZERO PUSH2 0x1D53 JUMPI PUSH1 0x0 SWAP1 POP PUSH2 0x1DC0 JUMP JUMPDEST PUSH1 0x0 DUP3 DUP5 MUL SWAP1 POP DUP3 DUP5 DUP3 DUP2 PUSH2 0x1D64 JUMPI INVALID JUMPDEST DIV EQ PUSH2 0x1DBB JUMPI PUSH1 0x40 MLOAD PUSH32 0x8C379A000000000000000000000000000000000000000000000000000000000 DUP2 MSTORE PUSH1 0x4 ADD DUP1 DUP1 PUSH1 0x20 ADD DUP3 DUP2 SUB DUP3 MSTORE PUSH1 0x21 DUP2 MSTORE PUSH1 0x20 ADD DUP1 PUSH2 0x2A11 PUSH1 0x21 SWAP2 CODECOPY PUSH1 0x40 ADD SWAP2 POP POP PUSH1 0x40 MLOAD DUP1 SWAP2 SUB SWAP1 REVERT JUMPDEST DUP1 SWAP2 POP POP JUMPDEST SWAP3 SWAP2 POP POP JUMP JUMPDEST PUSH1 0x0 DUP1 DUP3 GT PUSH2 0x1E3D JUMPI PUSH1 0x40 MLOAD PUSH32 0x8C379A000000000000000000000000000000000000000000000000000000000 DUP2 MSTORE PUSH1 0x4 ADD DUP1 DUP1 PUSH1 0x20 ADD DUP3 DUP2 SUB DUP3 MSTORE PUSH1 0x1A DUP2 MSTORE PUSH1 0x20 ADD DUP1 PUSH32 0x536166654D6174683A206469766973696F6E206279207A65726F000000000000 DUP2 MSTORE POP PUSH1 0x20 ADD SWAP2 POP POP PUSH1 0x40 MLOAD DUP1 SWAP2 SUB SWAP1 REVERT JUMPDEST DUP2 DUP4 DUP2 PUSH2 0x1E46 JUMPI INVALID JUMPDEST DIV SWAP1 POP SWAP3 SWAP2 POP POP JUMP JUMPDEST PUSH1 0x0 DUP3 DUP3 GT ISZERO PUSH2 0x1EC7 JUMPI PUSH1 0x40 MLOAD PUSH32 0x8C379A000000000000000000000000000000000000000000000000000000000 DUP2 MSTORE PUSH1 0x4 ADD DUP1 DUP1 PUSH1 0x20 ADD DUP3 DUP2 SUB DUP3 MSTORE PUSH1 0x1E DUP2 MSTORE PUSH1 0x20 ADD DUP1 PUSH32 0x536166654D6174683A207375627472616374696F6E206F766572666C6F770000 DUP2 MSTORE POP PUSH1 0x20 ADD SWAP2 POP POP PUSH1 0x40 MLOAD DUP1 SWAP2 SUB SWAP1 REVERT JUMPDEST DUP2 DUP4 SUB SWAP1 POP SWAP3 SWAP2 POP POP JUMP JUMPDEST PUSH1 0x0 PUSH1 0x3 PUSH1 0x0 SWAP1 SLOAD SWAP1 PUSH2 0x100 EXP SWAP1 DIV PUSH20 0xFFFFFFFFFFFFFFFFFFFFFFFFFFFFFFFFFFFFFFFF AND PUSH20 0xFFFFFFFFFFFFFFFFFFFFFFFFFFFFFFFFFFFFFFFF AND PUSH4 0x70A08231 ADDRESS PUSH1 0x40 MLOAD DUP3 PUSH4 0xFFFFFFFF AND PUSH1 0xE0 SHL DUP2 MSTORE PUSH1 0x4 ADD DUP1 DUP3 PUSH20 0xFFFFFFFFFFFFFFFFFFFFFFFFFFFFFFFFFFFFFFFF AND DUP2 MSTORE PUSH1 0x20 ADD SWAP2 POP POP PUSH1 0x20 PUSH1 0x40 MLOAD DUP1 DUP4 SUB DUP2 DUP7 DUP1 EXTCODESIZE ISZERO DUP1 ISZERO PUSH2 0x1F5D JUMPI PUSH1 0x0 DUP1 REVERT JUMPDEST POP GAS STATICCALL ISZERO DUP1 ISZERO PUSH2 0x1F71 JUMPI RETURNDATASIZE PUSH1 0x0 DUP1 RETURNDATACOPY RETURNDATASIZE PUSH1 0x0 REVERT JUMPDEST POP POP POP POP PUSH1 0x40 MLOAD RETURNDATASIZE PUSH1 0x20 DUP2 LT ISZERO PUSH2 0x1F87 JUMPI PUSH1 0x0 DUP1 REVERT JUMPDEST DUP2 ADD SWAP1 DUP1 DUP1 MLOAD SWAP1 PUSH1 0x20 ADD SWAP1 SWAP3 SWAP2 SWAP1 POP POP POP SWAP1 POP PUSH1 0x0 PUSH2 0x1FA6 DUP3 DUP5 PUSH2 0x22AB JUMP JUMPDEST SWAP1 POP PUSH1 0x2 PUSH1 0x0 SWAP1 SLOAD SWAP1 PUSH2 0x100 EXP SWAP1 DIV PUSH20 0xFFFFFFFFFFFFFFFFFFFFFFFFFFFFFFFFFFFFFFFF AND PUSH20 0xFFFFFFFFFFFFFFFFFFFFFFFFFFFFFFFFFFFFFFFF AND PUSH1 0x3 PUSH1 0x0 SWAP1 SLOAD SWAP1 PUSH2 0x100 EXP SWAP1 DIV PUSH20 0xFFFFFFFFFFFFFFFFFFFFFFFFFFFFFFFFFFFFFFFF AND PUSH20 0xFFFFFFFFFFFFFFFFFFFFFFFFFFFFFFFFFFFFFFFF AND EQ ISZERO PUSH2 0x20BC JUMPI PUSH1 0x2 PUSH1 0x0 SWAP1 SLOAD SWAP1 PUSH2 0x100 EXP SWAP1 DIV PUSH20 0xFFFFFFFFFFFFFFFFFFFFFFFFFFFFFFFFFFFFFFFF AND PUSH20 0xFFFFFFFFFFFFFFFFFFFFFFFFFFFFFFFFFFFFFFFF AND PUSH4 0x2E1A7D4D DUP3 PUSH1 0x40 MLOAD DUP3 PUSH4 0xFFFFFFFF AND PUSH1 0xE0 SHL DUP2 MSTORE PUSH1 0x4 ADD DUP1 DUP3 DUP2 MSTORE PUSH1 0x20 ADD SWAP2 POP POP PUSH1 0x0 PUSH1 0x40 MLOAD DUP1 DUP4 SUB DUP2 PUSH1 0x0 DUP8 DUP1 EXTCODESIZE ISZERO DUP1 ISZERO PUSH2 0x2095 JUMPI PUSH1 0x0 DUP1 REVERT JUMPDEST POP GAS CALL ISZERO DUP1 ISZERO PUSH2 0x20A9 JUMPI RETURNDATASIZE PUSH1 0x0 DUP1 RETURNDATACOPY RETURNDATASIZE PUSH1 0x0 REVERT JUMPDEST POP POP POP POP PUSH2 0x20B7 DUP5 DUP3 PUSH2 0x2475 JUMP JUMPDEST PUSH2 0x21E6 JUMP JUMPDEST PUSH1 0x0 PUSH1 0x3 PUSH1 0x0 SWAP1 SLOAD SWAP1 PUSH2 0x100 EXP SWAP1 DIV PUSH20 0xFFFFFFFFFFFFFFFFFFFFFFFFFFFFFFFFFFFFFFFF AND PUSH20 0xFFFFFFFFFFFFFFFFFFFFFFFFFFFFFFFFFFFFFFFF AND PUSH4 0xA9059CBB DUP7 DUP5 PUSH1 0x40 MLOAD DUP4 PUSH4 0xFFFFFFFF AND PUSH1 0xE0 SHL DUP2 MSTORE PUSH1 0x4 ADD DUP1 DUP4 PUSH20 0xFFFFFFFFFFFFFFFFFFFFFFFFFFFFFFFFFFFFFFFF AND DUP2 MSTORE PUSH1 0x20 ADD DUP3 DUP2 MSTORE PUSH1 0x20 ADD SWAP3 POP POP POP PUSH1 0x20 PUSH1 0x40 MLOAD DUP1 DUP4 SUB DUP2 PUSH1 0x0 DUP8 DUP1 EXTCODESIZE ISZERO DUP1 ISZERO PUSH2 0x2151 JUMPI PUSH1 0x0 DUP1 REVERT JUMPDEST POP GAS CALL ISZERO DUP1 ISZERO PUSH2 0x2165 JUMPI RETURNDATASIZE PUSH1 0x0 DUP1 RETURNDATACOPY RETURNDATASIZE PUSH1 0x0 REVERT JUMPDEST POP POP POP POP PUSH1 0x40 MLOAD RETURNDATASIZE PUSH1 0x20 DUP2 LT ISZERO PUSH2 0x217B JUMPI PUSH1 0x0 DUP1 REVERT JUMPDEST DUP2 ADD SWAP1 DUP1 DUP1 MLOAD SWAP1 PUSH1 0x20 ADD SWAP1 SWAP3 SWAP2 SWAP1 POP POP POP SWAP1 POP DUP1 PUSH2 0x21E4 JUMPI PUSH1 0x40 MLOAD PUSH32 0x8C379A000000000000000000000000000000000000000000000000000000000 DUP2 MSTORE PUSH1 0x4 ADD DUP1 DUP1 PUSH1 0x20 ADD DUP3 DUP2 SUB DUP3 MSTORE PUSH1 0x23 DUP2 MSTORE PUSH1 0x20 ADD DUP1 PUSH2 0x297E PUSH1 0x23 SWAP2 CODECOPY PUSH1 0x40 ADD SWAP2 POP POP PUSH1 0x40 MLOAD DUP1 SWAP2 SUB SWAP1 REVERT JUMPDEST POP JUMPDEST POP POP POP POP JUMP JUMPDEST PUSH2 0x2289 DUP4 PUSH4 0xA9059CBB PUSH1 0xE0 SHL DUP5 DUP5 PUSH1 0x40 MLOAD PUSH1 0x24 ADD DUP1 DUP4 PUSH20 0xFFFFFFFFFFFFFFFFFFFFFFFFFFFFFFFFFFFFFFFF AND DUP2 MSTORE PUSH1 0x20 ADD DUP3 DUP2 MSTORE PUSH1 0x20 ADD SWAP3 POP POP POP PUSH1 0x40 MLOAD PUSH1 0x20 DUP2 DUP4 SUB SUB DUP2 MSTORE SWAP1 PUSH1 0x40 MSTORE SWAP1 PUSH28 0xFFFFFFFFFFFFFFFFFFFFFFFFFFFFFFFFFFFFFFFFFFFFFFFFFFFFFFFF NOT AND PUSH1 0x20 DUP3 ADD DUP1 MLOAD PUSH28 0xFFFFFFFFFFFFFFFFFFFFFFFFFFFFFFFFFFFFFFFFFFFFFFFFFFFFFFFF DUP4 DUP2 DUP4 AND OR DUP4 MSTORE POP POP POP POP PUSH2 0x25D4 JUMP JUMPDEST POP POP POP JUMP JUMPDEST PUSH1 0x0 PUSH2 0x22A3 DUP4 DUP4 PUSH2 0x1E4F SWAP1 SWAP2 SWAP1 PUSH4 0xFFFFFFFF AND JUMP JUMPDEST SWAP1 POP SWAP3 SWAP2 POP POP JUMP JUMPDEST PUSH1 0x0 DUP2 DUP4 LT PUSH2 0x22BA JUMPI DUP2 PUSH2 0x22BC JUMP JUMPDEST DUP3 JUMPDEST SWAP1 POP SWAP3 SWAP2 POP POP JUMP JUMPDEST PUSH1 0x0 DUP1 DUP3 DUP5 ADD SWAP1 POP DUP4 DUP2 LT ISZERO PUSH2 0x2342 JUMPI PUSH1 0x40 MLOAD PUSH32 0x8C379A000000000000000000000000000000000000000000000000000000000 DUP2 MSTORE PUSH1 0x4 ADD DUP1 DUP1 PUSH1 0x20 ADD DUP3 DUP2 SUB DUP3 MSTORE PUSH1 0x1B DUP2 MSTORE PUSH1 0x20 ADD DUP1 PUSH32 0x536166654D6174683A206164646974696F6E206F766572666C6F770000000000 DUP2 MSTORE POP PUSH1 0x20 ADD SWAP2 POP POP PUSH1 0x40 MLOAD DUP1 SWAP2 SUB SWAP1 REVERT JUMPDEST DUP1 SWAP2 POP POP SWAP3 SWAP2 POP POP JUMP JUMPDEST PUSH1 0x0 CALLER SWAP1 POP SWAP1 JUMP JUMPDEST PUSH2 0x240F DUP5 PUSH4 0x23B872DD PUSH1 0xE0 SHL DUP6 DUP6 DUP6 PUSH1 0x40 MLOAD PUSH1 0x24 ADD DUP1 DUP5 PUSH20 0xFFFFFFFFFFFFFFFFFFFFFFFFFFFFFFFFFFFFFFFF AND DUP2 MSTORE PUSH1 0x20 ADD DUP4 PUSH20 0xFFFFFFFFFFFFFFFFFFFFFFFFFFFFFFFFFFFFFFFF AND DUP2 MSTORE PUSH1 0x20 ADD DUP3 DUP2 MSTORE PUSH1 0x20 ADD SWAP4 POP POP POP POP PUSH1 0x40 MLOAD PUSH1 0x20 DUP2 DUP4 SUB SUB DUP2 MSTORE SWAP1 PUSH1 0x40 MSTORE SWAP1 PUSH28 0xFFFFFFFFFFFFFFFFFFFFFFFFFFFFFFFFFFFFFFFFFFFFFFFFFFFFFFFF NOT AND PUSH1 0x20 DUP3 ADD DUP1 MLOAD PUSH28 0xFFFFFFFFFFFFFFFFFFFFFFFFFFFFFFFFFFFFFFFFFFFFFFFFFFFFFFFF DUP4 DUP2 DUP4 AND OR DUP4 MSTORE POP POP POP POP PUSH2 0x25D4 JUMP JUMPDEST POP POP POP POP JUMP JUMPDEST PUSH1 0x0 PUSH1 0xC SLOAD GT ISZERO PUSH2 0x246A JUMPI PUSH2 0x2437 PUSH1 0x5 SLOAD PUSH1 0xC SLOAD PUSH2 0x1DC6 SWAP1 SWAP2 SWAP1 PUSH4 0xFFFFFFFF AND JUMP JUMPDEST PUSH1 0x4 DUP2 SWAP1 SSTORE POP PUSH2 0x244B PUSH1 0x7 SLOAD PUSH1 0x4 SLOAD PUSH2 0x22AB JUMP JUMPDEST PUSH1 0x4 DUP2 SWAP1 SSTORE POP PUSH2 0x245F PUSH1 0x6 SLOAD PUSH1 0x4 SLOAD PUSH2 0x26C3 JUMP JUMPDEST PUSH1 0x4 DUP2 SWAP1 SSTORE POP PUSH2 0x2473 JUMP JUMPDEST PUSH1 0x0 PUSH1 0x4 DUP2 SWAP1 SSTORE POP JUMPDEST JUMP JUMPDEST PUSH1 0x0 DUP3 PUSH20 0xFFFFFFFFFFFFFFFFFFFFFFFFFFFFFFFFFFFFFFFF AND DUP3 PUSH1 0x0 PUSH8 0xFFFFFFFFFFFFFFFF DUP2 GT DUP1 ISZERO PUSH2 0x24A7 JUMPI PUSH1 0x0 DUP1 REVERT JUMPDEST POP PUSH1 0x40 MLOAD SWAP1 DUP1 DUP3 MSTORE DUP1 PUSH1 0x1F ADD PUSH1 0x1F NOT AND PUSH1 0x20 ADD DUP3 ADD PUSH1 0x40 MSTORE DUP1 ISZERO PUSH2 0x24DA JUMPI DUP2 PUSH1 0x20 ADD PUSH1 0x1 DUP3 MUL DUP1 CALLDATASIZE DUP4 CALLDATACOPY DUP1 DUP3 ADD SWAP2 POP POP SWAP1 POP JUMPDEST POP PUSH1 0x40 MLOAD DUP1 DUP3 DUP1 MLOAD SWAP1 PUSH1 0x20 ADD SWAP1 DUP1 DUP4 DUP4 JUMPDEST PUSH1 0x20 DUP4 LT PUSH2 0x250E JUMPI DUP1 MLOAD DUP3 MSTORE PUSH1 0x20 DUP3 ADD SWAP2 POP PUSH1 0x20 DUP2 ADD SWAP1 POP PUSH1 0x20 DUP4 SUB SWAP3 POP PUSH2 0x24EB JUMP JUMPDEST PUSH1 0x1 DUP4 PUSH1 0x20 SUB PUSH2 0x100 EXP SUB DUP1 NOT DUP3 MLOAD AND DUP2 DUP5 MLOAD AND DUP1 DUP3 OR DUP6 MSTORE POP POP POP POP POP POP SWAP1 POP ADD SWAP2 POP POP PUSH1 0x0 PUSH1 0x40 MLOAD DUP1 DUP4 SUB DUP2 DUP6 DUP8 GAS CALL SWAP3 POP POP POP RETURNDATASIZE DUP1 PUSH1 0x0 DUP2 EQ PUSH2 0x2570 JUMPI PUSH1 0x40 MLOAD SWAP2 POP PUSH1 0x1F NOT PUSH1 0x3F RETURNDATASIZE ADD AND DUP3 ADD PUSH1 0x40 MSTORE RETURNDATASIZE DUP3 MSTORE RETURNDATASIZE PUSH1 0x0 PUSH1 0x20 DUP5 ADD RETURNDATACOPY PUSH2 0x2575 JUMP JUMPDEST PUSH1 0x60 SWAP2 POP JUMPDEST POP POP SWAP1 POP DUP1 PUSH2 0x25CF JUMPI PUSH1 0x40 MLOAD PUSH32 0x8C379A000000000000000000000000000000000000000000000000000000000 DUP2 MSTORE PUSH1 0x4 ADD DUP1 DUP1 PUSH1 0x20 ADD DUP3 DUP2 SUB DUP3 MSTORE PUSH1 0x24 DUP2 MSTORE PUSH1 0x20 ADD DUP1 PUSH2 0x29C7 PUSH1 0x24 SWAP2 CODECOPY PUSH1 0x40 ADD SWAP2 POP POP PUSH1 0x40 MLOAD DUP1 SWAP2 SUB SWAP1 REVERT JUMPDEST POP POP POP JUMP JUMPDEST PUSH1 0x60 PUSH2 0x2636 DUP3 PUSH1 0x40 MLOAD DUP1 PUSH1 0x40 ADD PUSH1 0x40 MSTORE DUP1 PUSH1 0x20 DUP2 MSTORE PUSH1 0x20 ADD PUSH32 0x5361666545524332303A206C6F772D6C6576656C2063616C6C206661696C6564 DUP2 MSTORE POP DUP6 PUSH20 0xFFFFFFFFFFFFFFFFFFFFFFFFFFFFFFFFFFFFFFFF AND PUSH2 0x26DD SWAP1 SWAP3 SWAP2 SWAP1 PUSH4 0xFFFFFFFF AND JUMP JUMPDEST SWAP1 POP PUSH1 0x0 DUP2 MLOAD GT ISZERO PUSH2 0x26BE JUMPI DUP1 DUP1 PUSH1 0x20 ADD SWAP1 MLOAD PUSH1 0x20 DUP2 LT ISZERO PUSH2 0x2657 JUMPI PUSH1 0x0 DUP1 REVERT JUMPDEST DUP2 ADD SWAP1 DUP1 DUP1 MLOAD SWAP1 PUSH1 0x20 ADD SWAP1 SWAP3 SWAP2 SWAP1 POP POP POP PUSH2 0x26BD JUMPI PUSH1 0x40 MLOAD PUSH32 0x8C379A000000000000000000000000000000000000000000000000000000000 DUP2 MSTORE PUSH1 0x4 ADD DUP1 DUP1 PUSH1 0x20 ADD DUP3 DUP2 SUB DUP3 MSTORE PUSH1 0x2A DUP2 MSTORE PUSH1 0x20 ADD DUP1 PUSH2 0x2A32 PUSH1 0x2A SWAP2 CODECOPY PUSH1 0x40 ADD SWAP2 POP POP PUSH1 0x40 MLOAD DUP1 SWAP2 SUB SWAP1 REVERT JUMPDEST JUMPDEST POP POP POP JUMP JUMPDEST PUSH1 0x0 DUP2 DUP4 LT ISZERO PUSH2 0x26D3 JUMPI DUP2 PUSH2 0x26D5 JUMP JUMPDEST DUP3 JUMPDEST SWAP1 POP SWAP3 SWAP2 POP POP JUMP JUMPDEST PUSH1 0x60 PUSH2 0x26EC DUP5 DUP5 PUSH1 0x0 DUP6 PUSH2 0x26F5 JUMP JUMPDEST SWAP1 POP SWAP4 SWAP3 POP POP POP JUMP JUMPDEST PUSH1 0x60 DUP3 SELFBALANCE LT ISZERO PUSH2 0x2750 JUMPI PUSH1 0x40 MLOAD PUSH32 0x8C379A000000000000000000000000000000000000000000000000000000000 DUP2 MSTORE PUSH1 0x4 ADD DUP1 DUP1 PUSH1 0x20 ADD DUP3 DUP2 SUB DUP3 MSTORE PUSH1 0x26 DUP2 MSTORE PUSH1 0x20 ADD DUP1 PUSH2 0x29EB PUSH1 0x26 SWAP2 CODECOPY PUSH1 0x40 ADD SWAP2 POP POP PUSH1 0x40 MLOAD DUP1 SWAP2 SUB SWAP1 REVERT JUMPDEST PUSH2 0x2759 DUP6 PUSH2 0x289E JUMP JUMPDEST PUSH2 0x27CB JUMPI PUSH1 0x40 MLOAD PUSH32 0x8C379A000000000000000000000000000000000000000000000000000000000 DUP2 MSTORE PUSH1 0x4 ADD DUP1 DUP1 PUSH1 0x20 ADD DUP3 DUP2 SUB DUP3 MSTORE PUSH1 0x1D DUP2 MSTORE PUSH1 0x20 ADD DUP1 PUSH32 0x416464726573733A2063616C6C20746F206E6F6E2D636F6E7472616374000000 DUP2 MSTORE POP PUSH1 0x20 ADD SWAP2 POP POP PUSH1 0x40 MLOAD DUP1 SWAP2 SUB SWAP1 REVERT JUMPDEST PUSH1 0x0 PUSH1 0x60 DUP7 PUSH20 0xFFFFFFFFFFFFFFFFFFFFFFFFFFFFFFFFFFFFFFFF AND DUP6 DUP8 PUSH1 0x40 MLOAD DUP1 DUP3 DUP1 MLOAD SWAP1 PUSH1 0x20 ADD SWAP1 DUP1 DUP4 DUP4 JUMPDEST PUSH1 0x20 DUP4 LT PUSH2 0x281B JUMPI DUP1 MLOAD DUP3 MSTORE PUSH1 0x20 DUP3 ADD SWAP2 POP PUSH1 0x20 DUP2 ADD SWAP1 POP PUSH1 0x20 DUP4 SUB SWAP3 POP PUSH2 0x27F8 JUMP JUMPDEST PUSH1 0x1 DUP4 PUSH1 0x20 SUB PUSH2 0x100 EXP SUB DUP1 NOT DUP3 MLOAD AND DUP2 DUP5 MLOAD AND DUP1 DUP3 OR DUP6 MSTORE POP POP POP POP POP POP SWAP1 POP ADD SWAP2 POP POP PUSH1 0x0 PUSH1 0x40 MLOAD DUP1 DUP4 SUB DUP2 DUP6 DUP8 GAS CALL SWAP3 POP POP POP RETURNDATASIZE DUP1 PUSH1 0x0 DUP2 EQ PUSH2 0x287D JUMPI PUSH1 0x40 MLOAD SWAP2 POP PUSH1 0x1F NOT PUSH1 0x3F RETURNDATASIZE ADD AND DUP3 ADD PUSH1 0x40 MSTORE RETURNDATASIZE DUP3 MSTORE RETURNDATASIZE PUSH1 0x0 PUSH1 0x20 DUP5 ADD RETURNDATACOPY PUSH2 0x2882 JUMP JUMPDEST PUSH1 0x60 SWAP2 POP JUMPDEST POP SWAP2 POP SWAP2 POP PUSH2 0x2892 DUP3 DUP3 DUP7 PUSH2 0x28B1 JUMP JUMPDEST SWAP3 POP POP POP SWAP5 SWAP4 POP POP POP POP JUMP JUMPDEST PUSH1 0x0 DUP1 DUP3 EXTCODESIZE SWAP1 POP PUSH1 0x0 DUP2 GT SWAP2 POP POP SWAP2 SWAP1 POP JUMP JUMPDEST PUSH1 0x60 DUP4 ISZERO PUSH2 0x28C1 JUMPI DUP3 SWAP1 POP PUSH2 0x2976 JUMP JUMPDEST PUSH1 0x0 DUP4 MLOAD GT ISZERO PUSH2 0x28D4 JUMPI DUP3 MLOAD DUP1 DUP5 PUSH1 0x20 ADD REVERT JUMPDEST DUP2 PUSH1 0x40 MLOAD PUSH32 0x8C379A000000000000000000000000000000000000000000000000000000000 DUP2 MSTORE PUSH1 0x4 ADD DUP1 DUP1 PUSH1 0x20 ADD DUP3 DUP2 SUB DUP3 MSTORE DUP4 DUP2 DUP2 MLOAD DUP2 MSTORE PUSH1 0x20 ADD SWAP2 POP DUP1 MLOAD SWAP1 PUSH1 0x20 ADD SWAP1 DUP1 DUP4 DUP4 PUSH1 0x0 JUMPDEST DUP4 DUP2 LT ISZERO PUSH2 0x293B JUMPI DUP1 DUP3 ADD MLOAD DUP2 DUP5 ADD MSTORE PUSH1 0x20 DUP2 ADD SWAP1 POP PUSH2 0x2920 JUMP JUMPDEST POP POP POP POP SWAP1 POP SWAP1 DUP2 ADD SWAP1 PUSH1 0x1F AND DUP1 ISZERO PUSH2 0x2968 JUMPI DUP1 DUP3 SUB DUP1 MLOAD PUSH1 0x1 DUP4 PUSH1 0x20 SUB PUSH2 0x100 EXP SUB NOT AND DUP2 MSTORE PUSH1 0x20 ADD SWAP2 POP JUMPDEST POP SWAP3 POP POP POP PUSH1 0x40 MLOAD DUP1 SWAP2 SUB SWAP1 REVERT JUMPDEST SWAP4 SWAP3 POP POP POP JUMP INVALID PUSH20 0x6166655265776172645472616E736665723A2074 PUSH19 0x616E73666572206661696C65644F776E61626C PUSH6 0x3A206E657720 PUSH16 0x776E657220697320746865207A65726F KECCAK256 PUSH2 0x6464 PUSH19 0x657373736166655472616E736665724554483A KECCAK256 GASLIMIT SLOAD 0x48 0x5F SLOAD MSTORE COINBASE 0x4E MSTORE8 CHAINID GASLIMIT MSTORE 0x5F CHAINID COINBASE 0x49 0x4C GASLIMIT DIFFICULTY COINBASE PUSH5 0x6472657373 GASPRICE KECCAK256 PUSH10 0x6E73756666696369656E PUSH21 0x2062616C616E636520666F722063616C6C53616665 0x4D PUSH2 0x7468 GASPRICE KECCAK256 PUSH14 0x756C7469706C69636174696F6E20 PUSH16 0x766572666C6F77536166654552433230 GASPRICE KECCAK256 GASLIMIT MSTORE NUMBER ORIGIN ADDRESS KECCAK256 PUSH16 0x7065726174696F6E20646964206E6F74 KECCAK256 PUSH20 0x756363656564A26469706673582212203E9BABDE 0x24 0xB5 0x49 SWAP2 PUSH12 0x9941118032AB5454B949ED4 0xB0 CHAINID DUP3 SWAP6 0x49 0xE1 0xCD 0xB1 0xE BYTE CREATE PUSH5 0x736F6C6343 STOP MOD 0xC STOP CALLER "
				},
				"gasEstimates": {
					"creation": {
						"codeDepositCost": "2179400",
						"executionCost": "infinite",
						"totalCost": "infinite"
					},
					"external": {
						"denominationEmitAmount()": "1028",
						"deposit(uint256)": "infinite",
						"emergencyWithdraw()": "infinite",
						"harvestFor(address)": "infinite",
						"income(uint256)": "infinite",
						"maximumEmitAmount()": "1050",
						"minimumEmitAmount()": "1027",
						"owner()": "1122",
						"pendingRewards(address)": "infinite",
						"poolInfo(uint256)": "5399",
						"remainingRewards()": "1094",
						"renounceOwnership()": "24440",
						"rescueToken(address,address)": "infinite",
						"rewardToken()": "1157",
						"rewardsPerBlock()": "1094",
						"startBlock()": "1072",
						"totalAllocPoint()": "1051",
						"transferOwnership(address)": "infinite",
						"updateEmissionSettings(uint256,uint256,uint256)": "infinite",
						"updatePool()": "infinite",
						"userInfo(address)": "2083",
						"withdraw(uint256)": "infinite",
						"wrappedNativeAddress()": "1180"
					},
					"internal": {
						"getMultiplier(uint256,uint256)": "infinite",
						"safeRewardTransfer(address,uint256)": "infinite",
						"safeTransferETH(address,uint256)": "infinite",
						"updateEmissionRate()": "infinite"
					}
				},
				"methodIdentifiers": {
					"denominationEmitAmount()": "46f0cfba",
					"deposit(uint256)": "b6b55f25",
					"emergencyWithdraw()": "db2e21bc",
					"harvestFor(address)": "fbe1ebec",
					"income(uint256)": "84ed8c56",
					"maximumEmitAmount()": "8b1c0d1b",
					"minimumEmitAmount()": "dd599844",
					"owner()": "8da5cb5b",
					"pendingRewards(address)": "31d7a262",
					"poolInfo(uint256)": "1526fe27",
					"remainingRewards()": "afb62e56",
					"renounceOwnership()": "715018a6",
					"rescueToken(address,address)": "4707d000",
					"rewardToken()": "f7c618c1",
					"rewardsPerBlock()": "5eeb6710",
					"startBlock()": "48cd4cb1",
					"totalAllocPoint()": "17caf6f1",
					"transferOwnership(address)": "f2fde38b",
					"updateEmissionSettings(uint256,uint256,uint256)": "eebf65f3",
					"updatePool()": "e3161ddd",
					"userInfo(address)": "1959a002",
					"withdraw(uint256)": "2e1a7d4d",
					"wrappedNativeAddress()": "76ab8136"
				}
			},
			"userdoc": {
				"kind": "user",
				"methods": {},
				"version": 1
			}
		}
	}
}