{
	"data": {
		"bytecode": {
			"linkReferences": {},
			"object": "60e060405260006007553480156200001657600080fd5b50604051620034bd380380620034bd833981810160405260e08110156200003c57600080fd5b508051602082015160408301516060840151608085015160a086015160c090960151949593949293919290919060006200007562000255565b600080546001600160a01b0319166001600160a01b0383169081178255604051929350917f8be0079c531659141344cd1fd0a4f28419497f9722a3daafe3b4186f6b6457e0908290a35060018080556001600160601b0319606089811b8216608090815298811b821660a0908152600380546001600160a01b039a8b166001600160a01b03199182161790915597821b90921660c052600495909555600884905560028054938816938716939093179092556040805192830181529786168083526103e86020808501828152858c0196875260009786018881529a8601888152600580548088018255818b52975197027f036b6384b5eca791c62761152d0c79bb0604c104a5fb6f4eb0703f3154bb3db08101805498909c1697909a169690961790995597517f036b6384b5eca791c62761152d0c79bb0604c104a5fb6f4eb0703f3154bb3db188015593517f036b6384b5eca791c62761152d0c79bb0604c104a5fb6f4eb0703f3154bb3db287015596517f036b6384b5eca791c62761152d0c79bb0604c104a5fb6f4eb0703f3154bb3db386015590517f036b6384b5eca791c62761152d0c79bb0604c104a5fb6f4eb0703f3154bb3db4909401939093559381526009909252929020805460ff191690921790915560075562000259565b3390565b60805160601c60a05160601c60c05160601c6131de620002df600039806117cd5280611d52525080610a1b528061105a5280611690528061195b5280611e6d5280612991525080610b2b52806113c2528061146552806114e8528061159e52806116615280611738528061179e5280611f0a528061213752806121da52506131de6000f3fe608060405234801561001057600080fd5b50600436106102d35760003560e01c8063630b5ba111610186578063ba624f44116100e3578063da6dfb8011610097578063f2fde38b11610071578063f2fde38b146106cc578063f35e4a6e146106f2578063f958d1f91461070f576102d3565b8063da6dfb8014610657578063e2bbb15814610683578063f0ce0dff146106a6576102d3565b8063cbd258b5116100c8578063cbd258b5146105ef578063d0d41fe114610629578063d49e77cd1461064f576102d3565b8063ba624f44146105c1578063bd7418b3146105c9576102d3565b80638da5cb5b1161013a578063a0e0e13c1161011f578063a0e0e13c14610594578063a9fb763c1461059c578063b1c9fe6e146105b9576102d3565b80638da5cb5b1461054757806393f1a40b1461054f576102d3565b80636e99b75e1161016b5780636e99b75e1461052f578063715018a614610537578063897b96ff1461053f576102d3565b8063630b5ba1146104fc57806364482f7914610504576102d3565b806341441d3b116102345780634af4a127116101e85780635312ea8e116101cd5780635312ea8e1461049f5780635d2af1b7146104bc5780635d5ebf16146104df576102d3565b80634af4a1271461047a57806351eb05a614610482576102d3565b8063441a3e7011610219578063441a3e701461043257806347cf5b591461045557806348cd4cb114610472576102d3565b806341441d3b1461040d578063436cc3d61461042a576102d3565b80631526fe271161028b5780631eaaa045116102705780631eaaa045146103c9578063228cb733146103fd5780632deedf4214610405576102d3565b80631526fe271461036f57806317caf6f1146103c1576102d3565b80631058d281116102bc5780631058d28114610311578063135f8aa71461032e578063141398051461034b576102d3565b8063081e3eda146102d85780630ba84cd2146102f2575b600080fd5b6102e0610717565b60408051918252519081900360200190f35b61030f6004803603602081101561030857600080fd5b503561071d565b005b61030f6004803603602081101561032757600080fd5b5035610834565b6102e06004803603602081101561034457600080fd5b5035610abc565b610353610b29565b604080516001600160a01b039092168252519081900360200190f35b61038c6004803603602081101561038557600080fd5b5035610b4d565b604080516001600160a01b03909616865260208601949094528484019290925260608401526080830152519081900360a00190f35b6102e0610b95565b61030f600480360360608110156103df57600080fd5b508035906001600160a01b0360208201351690604001351515610b9b565b6102e0610eae565b610353610ebe565b61030f6004803603602081101561042357600080fd5b5035610ecd565b6102e06110fa565b61030f6004803603604081101561044857600080fd5b5080359060200135611106565b6102e06004803603602081101561046b57600080fd5b503561131b565b6102e061132d565b6102e0611333565b61030f6004803603602081101561049857600080fd5b503561133a565b61030f600480360360208110156104b557600080fd5b503561188b565b6102e0600480360360408110156104d257600080fd5b5080359060200135611a3e565b6102e0600480360360208110156104f557600080fd5b5035611b70565b61030f611be2565b61030f6004803603606081101561051a57600080fd5b50803590602081013590604001351515611c05565b610353611d50565b61030f611d74565b6102e0611e32565b610353611e38565b61057b6004803603604081101561056557600080fd5b50803590602001356001600160a01b0316611e47565b6040805192835260208301919091528051918290030190f35b610353611e6b565b6102e0600480360360208110156105b257600080fd5b5035611e8f565b6102e0611ead565b6102e0611eb8565b61030f600480360360208110156105df57600080fd5b50356001600160a01b0316611ebf565b6106156004803603602081101561060557600080fd5b50356001600160a01b0316611fc8565b604080519115158252519081900360200190f35b61030f6004803603602081101561063f57600080fd5b50356001600160a01b0316611fdd565b6103536120a3565b6102e06004803603604081101561066d57600080fd5b50803590602001356001600160a01b03166120b2565b61030f6004803603604081101561069957600080fd5b50803590602001356122b5565b61030f600480360360208110156106bc57600080fd5b50356001600160a01b0316612589565b61030f600480360360208110156106e257600080fd5b50356001600160a01b031661261e565b61030f6004803603602081101561070857600080fd5b5035612732565b6102e0612867565b60055490565b61072561286e565b6001600160a01b0316610736611e38565b6001600160a01b031614610791576040805162461bcd60e51b815260206004820181905260248201527f4f776e61626c653a2063616c6c6572206973206e6f7420746865206f776e6572604482015290519081900360640190fd5b674563918244f400008111156107ee576040805162461bcd60e51b815260206004820152601460248201527f4d6173746572436865663a20216f7665726d6178000000000000000000000000604482015290519081900360640190fd5b6107f6611be2565b600481905560408051828152905133917fe2492e003bbe8afa53088b406f0c1cb5d9e280370fc72a74cf116ffd343c4053919081900360200190a250565b6002600154141561088c576040805162461bcd60e51b815260206004820152601f60248201527f5265656e7472616e637947756172643a207265656e7472616e742063616c6c00604482015290519081900360640190fd5b6002600181905550600060056000815481106108a457fe5b600091825260208083203384527f54cdd369e4e8a8515e52ca72ec816c2101831ad1f18bf44102ed171459c9b4f8909152604090922080546005909202909201925083111561093a576040805162461bcd60e51b815260206004820152601e60248201527f4d6173746572436865663a2077697468647261773a206e6f7420676f6f640000604482015290519081900360640190fd5b610944600061133a565b6000610981826001015461097b670de0b6b3a76400006109758760030154876000015461287290919063ffffffff16565b906128cb565b90612932565b9050801561099357610993338261298f565b83156109d15781546109a59085612932565b825560048301546109b69085612932565b600484015582546109d1906001600160a01b03163386612a22565b600383015482546109ef91670de0b6b3a76400009161097591612872565b600183015560408051632770a7eb60e21b81523360048201526024810186905290516001600160a01b037f00000000000000000000000000000000000000000000000000000000000000001691639dc29fac91604480830192600092919082900301818387803b158015610a6257600080fd5b505af1158015610a76573d6000803e3d6000fd5b5050604080518781529051600093503392507ff279e6a1f5e320cca91135676d9cb6e44ca8a08c0b88342bcdb1144f6511b5689181900360200190a35050600180555050565b60006008548210610b20576000610ade6008548461293290919063ffffffff16565b90506217fe808111610af4576001915050610b24565b610b186002610b12622ffd00610975600161097b876217fe80612932565b90612aa7565b915050610b24565b5060005b919050565b7f000000000000000000000000000000000000000000000000000000000000000081565b60058181548110610b5a57fe5b6000918252602090912060059091020180546001820154600283015460038401546004909401546001600160a01b0390931694509092909185565b60075481565b610ba361286e565b6001600160a01b0316610bb4611e38565b6001600160a01b031614610c0f576040805162461bcd60e51b815260206004820181905260248201527f4f776e61626c653a2063616c6c6572206973206e6f7420746865206f776e6572604482015290519081900360640190fd5b6001600160a01b038216600090815260096020526040902054829060ff1615610c695760405162461bcd60e51b8152600401808060200182810382526025815260200180612f916025913960400191505060405180910390fd5b604080516370a0823160e01b815230600482015290516001600160a01b038516916370a08231916024808301926020929190829003018186803b158015610caf57600080fd5b505afa158015610cc3573d6000803e3d6000fd5b505050506040513d6020811015610cd957600080fd5b5050620186a0841115610d33576040805162461bcd60e51b815260206004820152601460248201527f4d6173746572436865663a20216f7665726d6178000000000000000000000000604482015290519081900360640190fd5b8115610d4157610d41611be2565b60006008544311610d5457600854610d56565b435b600754909150610d669086612aa7565b6007556040805160a0810182526001600160a01b0380871680835260208084018a81528486018781526000606087018181526080880182815260058054600181810183558286529a5191027f036b6384b5eca791c62761152d0c79bb0604c104a5fb6f4eb0703f3154bb3db08101805492909a166001600160a01b03199092169190911790985593517f036b6384b5eca791c62761152d0c79bb0604c104a5fb6f4eb0703f3154bb3db188015591517f036b6384b5eca791c62761152d0c79bb0604c104a5fb6f4eb0703f3154bb3db287015590517f036b6384b5eca791c62761152d0c79bb0604c104a5fb6f4eb0703f3154bb3db386015590517f036b6384b5eca791c62761152d0c79bb0604c104a5fb6f4eb0703f3154bb3db4909401939093559082526009905291909120805460ff19169091179055610ea7612b01565b5050505050565b6000610eb943611e8f565b905090565b6002546001600160a01b031681565b60026001541415610f25576040805162461bcd60e51b815260206004820152601f60248201527f5265656e7472616e637947756172643a207265656e7472616e742063616c6c00604482015290519081900360640190fd5b600260018190555060006005600081548110610f3d57fe5b600091825260208083203384527f54cdd369e4e8a8515e52ca72ec816c2101831ad1f18bf44102ed171459c9b4f890915260408320600590920201925090610f849061133a565b805415610fd0576000610fbc826001015461097b670de0b6b3a76400006109758760030154876000015461287290919063ffffffff16565b90508015610fce57610fce338261298f565b505b8215611010578154610fed906001600160a01b0316333086612bc6565b8054610ff99084612aa7565b8155600482015461100a9084612aa7565b60048301555b6003820154815461102e91670de0b6b3a76400009161097591612872565b6001820155604080516340c10f1960e01b81523360048201526024810185905290516001600160a01b037f000000000000000000000000000000000000000000000000000000000000000016916340c10f1991604480830192600092919082900301818387803b1580156110a157600080fd5b505af11580156110b5573d6000803e3d6000fd5b5050604080518681529051600093503392507f90890809c654f11d6e72a28fa60149770a0d11ec6c92319d6ceb2bb0a4ea1a159181900360200190a350506001805550565b674563918244f4000081565b6002600154141561115e576040805162461bcd60e51b815260206004820152601f60248201527f5265656e7472616e637947756172643a207265656e7472616e742063616c6c00604482015290519081900360640190fd5b60026001558161119f5760405162461bcd60e51b81526004018080602001828103825260278152602001806130866027913960400191505060405180910390fd5b6000600583815481106111ae57fe5b60009182526020808320868452600682526040808520338652909252922080546005909202909201925083111561122c576040805162461bcd60e51b815260206004820152601e60248201527f4d6173746572436865663a2077697468647261773a206e6f7420676f6f640000604482015290519081900360640190fd5b6112358461133a565b6000611266826001015461097b670de0b6b3a76400006109758760030154876000015461287290919063ffffffff16565b9050801561127857611278338261298f565b83156112b657815461128a9085612932565b8255600483015461129b9085612932565b600484015582546112b6906001600160a01b03163386612a22565b600383015482546112d491670de0b6b3a76400009161097591612872565b6001830155604080518581529051869133917ff279e6a1f5e320cca91135676d9cb6e44ca8a08c0b88342bcdb1144f6511b5689181900360200190a3505060018055505050565b60006113278243611a3e565b92915050565b60085481565b6217fe8081565b60006005828154811061134957fe5b906000526020600020906005020190508060020154431161136a5750611888565b6004810154158061137d57506001810154155b1561138e5743600290910155611888565b600061139d826002015461131b565b905060006113be60075461097585600101548561287290919063ffffffff16565b90507f00000000000000000000000000000000000000000000000000000000000000006001600160a01b0316635db30bb16040518163ffffffff1660e01b815260040160206040518083038186803b15801561141957600080fd5b505afa15801561142d573d6000803e3d6000fd5b505050506040513d602081101561144357600080fd5b5051604080516318160ddd60e01b815290516114dd9184916001600160a01b037f000000000000000000000000000000000000000000000000000000000000000016916318160ddd916004808301926020929190829003018186803b1580156114ab57600080fd5b505afa1580156114bf573d6000803e3d6000fd5b505050506040513d60208110156114d557600080fd5b505190612aa7565b1115611619576116167f00000000000000000000000000000000000000000000000000000000000000006001600160a01b03166318160ddd6040518163ffffffff1660e01b815260040160206040518083038186803b15801561153f57600080fd5b505afa158015611553573d6000803e3d6000fd5b505050506040513d602081101561156957600080fd5b5051604080517f5db30bb100000000000000000000000000000000000000000000000000000000815290516001600160a01b037f00000000000000000000000000000000000000000000000000000000000000001691635db30bb1916004808301926020929190829003018186803b1580156115e457600080fd5b505afa1580156115f8573d6000803e3d6000fd5b505050506040513d602081101561160e57600080fd5b505190612932565b90505b80156118845760006116336103e86109758461028a612872565b905060006116486103e861097585607d612872565b9050600061165d6103e86109758660e1612872565b90507f00000000000000000000000000000000000000000000000000000000000000006001600160a01b03166340c10f197f0000000000000000000000000000000000000000000000000000000000000000856040518363ffffffff1660e01b815260040180836001600160a01b0316815260200182815260200192505050600060405180830381600087803b1580156116f657600080fd5b505af115801561170a573d6000803e3d6000fd5b5050600354604080516340c10f1960e01b81526001600160a01b0392831660048201526024810187905290517f000000000000000000000000000000000000000000000000000000000000000090921693506340c10f19925060448082019260009290919082900301818387803b15801561178457600080fd5b505af1158015611798573d6000803e3d6000fd5b505050507f00000000000000000000000000000000000000000000000000000000000000006001600160a01b03166340c10f197f0000000000000000000000000000000000000000000000000000000000000000836040518363ffffffff1660e01b815260040180836001600160a01b0316815260200182815260200192505050600060405180830381600087803b15801561183357600080fd5b505af1158015611847573d6000803e3d6000fd5b5050506004870154611875915061186a9061097586670de0b6b3a7640000612872565b600388015490612aa7565b60038701555050436002850155505b5050505b50565b600260015414156118e3576040805162461bcd60e51b815260206004820152601f60248201527f5265656e7472616e637947756172643a207265656e7472616e742063616c6c00604482015290519081900360640190fd5b60026001819055506000600582815481106118fa57fe5b6000918252602080832085845260068252604080852033865290925290832080548482556001820194909455600590920201925090836119bb5760408051632770a7eb60e21b81523360048201526024810183905290516001600160a01b037f00000000000000000000000000000000000000000000000000000000000000001691639dc29fac91604480830192600092919082900301818387803b1580156119a257600080fd5b505af11580156119b6573d6000803e3d6000fd5b505050505b82546119d1906001600160a01b03163383612a22565b808360040154106119f55760048301546119eb9082612932565b60048401556119fd565b600060048401555b604080518281529051859133917fbb757047c2b5f3974fe26b7c10f732e7bce710b0952a71082702781e62ae05959181900360200190a35050600180555050565b600081831115611a7f5760405162461bcd60e51b81526004018080602001828103825260358152602001806130ad6035913960400191505060405180910390fd5b600854831015611ac05760405162461bcd60e51b8152600401808060200182810382526032815260200180612fdc6032913960400191505060405180910390fd5b600080611acc85610abc565b90506000611ad985610abc565b90505b80821015611b46576000611b146217fe80610b12600854610b12622ffd00611b0e60018a61293290919063ffffffff16565b90612872565b9050611b36611b2f611b2583611e8f565b611b0e848b612932565b8590612aa7565b9096509250600190910190611adc565b611b66611b5f611b5587611e8f565b611b0e888a612932565b8490612aa7565b9695505050505050565b6000811580611b7f5750601982115b15611b8c57506000610b24565b8160011415611b9e5750600454610b24565b611bdb611bac836002612932565b60640a610975611bbd856002612932565b60550a611b0e6064610975604b60045461287290919063ffffffff16565b9050610b24565b60055460005b81811015611c0157611bf98161133a565b600101611be8565b5050565b611c0d61286e565b6001600160a01b0316611c1e611e38565b6001600160a01b031614611c79576040805162461bcd60e51b815260206004820181905260248201527f4f776e61626c653a2063616c6c6572206973206e6f7420746865206f776e6572604482015290519081900360640190fd5b620186a0821115611cd1576040805162461bcd60e51b815260206004820152601460248201527f4d6173746572436865663a20216f7665726d6178000000000000000000000000604482015290519081900360640190fd5b8015611cdf57611cdf611be2565b600060058481548110611cee57fe5b90600052602060002090600502016001015490508260058581548110611d1057fe5b90600052602060002090600502016001018190555082811461188457611d4583610b128360075461293290919063ffffffff16565b600755611884612b01565b7f000000000000000000000000000000000000000000000000000000000000000081565b611d7c61286e565b6001600160a01b0316611d8d611e38565b6001600160a01b031614611de8576040805162461bcd60e51b815260206004820181905260248201527f4f776e61626c653a2063616c6c6572206973206e6f7420746865206f776e6572604482015290519081900360640190fd5b600080546040516001600160a01b03909116907f8be0079c531659141344cd1fd0a4f28419497f9722a3daafe3b4186f6b6457e0908390a3600080546001600160a01b0319169055565b60045481565b6000546001600160a01b031690565b60066020908152600092835260408084209091529082529020805460019091015482565b7f000000000000000000000000000000000000000000000000000000000000000081565b600080611e9b83610abc565b9050611ea681611b70565b9392505050565b6000610eb943610abc565b622ffd0081565b6002546001600160a01b03163314611f085760405162461bcd60e51b815260040180806020018281038252602e815260200180612f63602e913960400191505060405180910390fd5b7f00000000000000000000000000000000000000000000000000000000000000006001600160a01b031663f2fde38b826040518263ffffffff1660e01b815260040180826001600160a01b03168152602001915050600060405180830381600087803b158015611f7757600080fd5b505af1158015611f8b573d6000803e3d6000fd5b50506040516001600160a01b03841692503391507fa860724f603a0e186a7b16740ca3c96b8457a2329bc4126c8db7490de85af99a90600090a350565b60096020526000908152604090205460ff1681565b6001600160a01b038116612038576040805162461bcd60e51b815260206004820152601360248201527f4d6173746572436865663a216e6f6e7a65726f00000000000000000000000000604482015290519081900360640190fd5b6003546001600160a01b031633146120815760405162461bcd60e51b815260040180806020018281038252602a81526020018061300e602a913960400191505060405180910390fd5b600380546001600160a01b0319166001600160a01b0392909216919091179055565b6003546001600160a01b031681565b600080600584815481106120c257fe5b600091825260208083208784526006825260408085206001600160a01b038916865290925292206003600590920290920190810154600282015491935090431180156121115750600483015415155b801561211f57506000600754115b1561228a576000612133846002015461131b565b90507f00000000000000000000000000000000000000000000000000000000000000006001600160a01b0316635db30bb16040518163ffffffff1660e01b815260040160206040518083038186803b15801561218e57600080fd5b505afa1580156121a2573d6000803e3d6000fd5b505050506040513d60208110156121b857600080fd5b5051604080516318160ddd60e01b815290516122209184916001600160a01b037f000000000000000000000000000000000000000000000000000000000000000016916318160ddd916004808301926020929190829003018186803b1580156114ab57600080fd5b101561228857600061224560075461097587600101548561287290919063ffffffff16565b9050600061225b6103e86109758461028a612872565b9050612283611b2f8760040154610975670de0b6b3a76400008561287290919063ffffffff16565b935050505b505b611b66826001015461097b670de0b6b3a764000061097585876000015461287290919063ffffffff16565b6002600154141561230d576040805162461bcd60e51b815260206004820152601f60248201527f5265656e7472616e637947756172643a207265656e7472616e742063616c6c00604482015290519081900360640190fd5b60026001558161234e5760405162461bcd60e51b8152600401808060200182810382526024815260200180612f196024913960400191505060405180910390fd5b60006005838154811061235d57fe5b6000918252602080832086845260068252604080852033865290925292206005909102909101915061238e8461133a565b8054156123da5760006123c6826001015461097b670de0b6b3a76400006109758760030154876000015461287290919063ffffffff16565b905080156123d8576123d8338261298f565b505b8215612525578154604080516370a0823160e01b815230600482015290516000926001600160a01b0316916370a08231916024808301926020929190829003018186803b15801561242a57600080fd5b505afa15801561243e573d6000803e3d6000fd5b505050506040513d602081101561245457600080fd5b50518354909150612470906001600160a01b0316333087612bc6565b8254604080516370a0823160e01b815230600482015290516124c09284926001600160a01b03909116916370a0823191602480820192602092909190829003018186803b1580156115e457600080fd5b9350600084116125015760405162461bcd60e51b815260040180806020018281038252602d815260200180613038602d913960400191505060405180910390fd5b815461250d9085612aa7565b8255600483015461251e9085612aa7565b6004840155505b6003820154815461254391670de0b6b3a76400009161097591612872565b6001820155604080518481529051859133917f90890809c654f11d6e72a28fa60149770a0d11ec6c92319d6ceb2bb0a4ea1a159181900360200190a35050600180555050565b6002546001600160a01b031633146125d25760405162461bcd60e51b815260040180806020018281038252602e8152602001806130e2602e913960400191505060405180910390fd5b600280546001600160a01b0319166001600160a01b03831690811790915560405133907f5cd2081d2ae057c10db58af06a3447337403b9d888774eb5ae1eb629afe83ae190600090a350565b61262661286e565b6001600160a01b0316612637611e38565b6001600160a01b031614612692576040805162461bcd60e51b815260206004820181905260248201527f4f776e61626c653a2063616c6c6572206973206e6f7420746865206f776e6572604482015290519081900360640190fd5b6001600160a01b0381166126d75760405162461bcd60e51b8152600401808060200182810382526026815260200180612f3d6026913960400191505060405180910390fd5b600080546040516001600160a01b03808516939216917f8be0079c531659141344cd1fd0a4f28419497f9722a3daafe3b4186f6b6457e091a3600080546001600160a01b0319166001600160a01b0392909216919091179055565b61273a61286e565b6001600160a01b031661274b611e38565b6001600160a01b0316146127a6576040805162461bcd60e51b815260206004820181905260248201527f4f776e61626c653a2063616c6c6572206973206e6f7420746865206f776e6572604482015290519081900360640190fd5b60085443106127e65760405162461bcd60e51b81526004018080602001828103825260418152602001806131106041913960600191505060405180910390fd5b8043106128245760405162461bcd60e51b815260040180806020018281038252602e81526020018061317b602e913960400191505060405180910390fd5b60055460005b818110156128605760006005828154811061284157fe5b600091825260209091206002600590920201018490555060010161282a565b5050600855565b620186a081565b3390565b60008261288157506000611327565b8282028284828161288e57fe5b0414611ea65760405162461bcd60e51b81526004018080602001828103825260218152602001806130656021913960400191505060405180910390fd5b6000808211612921576040805162461bcd60e51b815260206004820152601a60248201527f536166654d6174683a206469766973696f6e206279207a65726f000000000000604482015290519081900360640190fd5b81838161292a57fe5b049392505050565b600082821115612989576040805162461bcd60e51b815260206004820152601e60248201527f536166654d6174683a207375627472616374696f6e206f766572666c6f770000604482015290519081900360640190fd5b50900390565b7f00000000000000000000000000000000000000000000000000000000000000006001600160a01b031663b918be3c83836040518363ffffffff1660e01b815260040180836001600160a01b0316815260200182815260200192505050600060405180830381600087803b158015612a0657600080fd5b505af1158015612a1a573d6000803e3d6000fd5b505050505050565b604080516001600160a01b038416602482015260448082018490528251808303909101815260649091019091526020810180517bffffffffffffffffffffffffffffffffffffffffffffffffffffffff167fa9059cbb00000000000000000000000000000000000000000000000000000000179052612aa2908490612c4a565b505050565b600082820183811015611ea6576040805162461bcd60e51b815260206004820152601b60248201527f536166654d6174683a206164646974696f6e206f766572666c6f770000000000604482015290519081900360640190fd5b600554600060015b82811015612b4c57612b4260058281548110612b2157fe5b90600052602060002090600502016001015483612aa790919063ffffffff16565b9150600101612b09565b508015611c0157612b5e8160036128cb565b9050612b9881610b126005600081548110612b7557fe5b90600052602060002090600502016001015460075461293290919063ffffffff16565b600781905550806005600081548110612bad57fe5b9060005260206000209060050201600101819055505050565b604080516001600160a01b0380861660248301528416604482015260648082018490528251808303909101815260849091019091526020810180517bffffffffffffffffffffffffffffffffffffffffffffffffffffffff167f23b872dd000000000000000000000000000000000000000000000000000000001790526118849085905b6060612c9f826040518060400160405280602081526020017f5361666545524332303a206c6f772d6c6576656c2063616c6c206661696c6564815250856001600160a01b0316612cfb9092919063ffffffff16565b805190915015612aa257808060200190516020811015612cbe57600080fd5b5051612aa25760405162461bcd60e51b815260040180806020018281038252602a815260200180613151602a913960400191505060405180910390fd5b6060612d0a8484600085612d12565b949350505050565b606082471015612d535760405162461bcd60e51b8152600401808060200182810382526026815260200180612fb66026913960400191505060405180910390fd5b612d5c85612e6e565b612dad576040805162461bcd60e51b815260206004820152601d60248201527f416464726573733a2063616c6c20746f206e6f6e2d636f6e7472616374000000604482015290519081900360640190fd5b60006060866001600160a01b031685876040518082805190602001908083835b60208310612dec5780518252601f199092019160209182019101612dcd565b6001836020036101000a03801982511681845116808217855250505050505090500191505060006040518083038185875af1925050503d8060008114612e4e576040519150601f19603f3d011682016040523d82523d6000602084013e612e53565b606091505b5091509150612e63828286612e74565b979650505050505050565b3b151590565b60608315612e83575081611ea6565b825115612e935782518084602001fd5b8160405162461bcd60e51b81526004018080602001828103825283818151815260200191508051906020019080838360005b83811015612edd578181015183820152602001612ec5565b50505050905090810190601f168015612f0a5780820380516001836020036101000a031916815260200191505b509250505060405180910390fdfe4d6173746572436865663a206465706f73697420474c494445206279207374616b696e674f776e61626c653a206e6577206f776e657220697320746865207a65726f20616464726573734d6173746572436865663a2073656e646572206973206e6f742042756e6e79207472616e73666572206f776e65724d6173746572436865663a206e6f6e4475706c6963617465643a206475706c696361746564416464726573733a20696e73756666696369656e742062616c616e636520666f722063616c6c4d6173746572436865663a206d7573742062652073616d65206f72206c6172676572207468656e207374617274426c6f636b4d6173746572436865663a2073656e646572206973206e6f742073616d652061732064657620616464724d6173746572436865663a20776520646f6e7420616363657074206465706f73697473206f6620302073697a65536166654d6174683a206d756c7469706c69636174696f6e206f766572666c6f774d6173746572436865663a20776974686472617720474c49444520627920756e7374616b696e674d6173746572436865663a206d757374206c6974746c65207468616e207468652063757272656e7420626c6f636b206e756d6265724d6173746572436865663a2073656e646572206973206e6f7420676c696465207472616e73666572206f776e65724d6173746572436865663a2063616e6e6f74206368616e676520737461727420626c6f636b206966206661726d2068617320616c726561647920737461727465645361666545524332303a204552433230206f7065726174696f6e20646964206e6f7420737563636565644d6173746572436865663a2063616e6e6f742073657420737461727420626c6f636b20696e207468652070617374a26469706673582212200a8bb4eb58bf83ca69f5c342dbdd8efd52a5eb8c2233144b1247a520a09a5c7564736f6c634300060c0033",
			"opcodes": "PUSH1 0xE0 PUSH1 0x40 MSTORE PUSH1 0x0 PUSH1 0x7 SSTORE CALLVALUE DUP1 ISZERO PUSH3 0x16 JUMPI PUSH1 0x0 DUP1 REVERT JUMPDEST POP PUSH1 0x40 MLOAD PUSH3 0x34BD CODESIZE SUB DUP1 PUSH3 0x34BD DUP4 CODECOPY DUP2 DUP2 ADD PUSH1 0x40 MSTORE PUSH1 0xE0 DUP2 LT ISZERO PUSH3 0x3C JUMPI PUSH1 0x0 DUP1 REVERT JUMPDEST POP DUP1 MLOAD PUSH1 0x20 DUP3 ADD MLOAD PUSH1 0x40 DUP4 ADD MLOAD PUSH1 0x60 DUP5 ADD MLOAD PUSH1 0x80 DUP6 ADD MLOAD PUSH1 0xA0 DUP7 ADD MLOAD PUSH1 0xC0 SWAP1 SWAP7 ADD MLOAD SWAP5 SWAP6 SWAP4 SWAP5 SWAP3 SWAP4 SWAP2 SWAP3 SWAP1 SWAP2 SWAP1 PUSH1 0x0 PUSH3 0x75 PUSH3 0x255 JUMP JUMPDEST PUSH1 0x0 DUP1 SLOAD PUSH1 0x1 PUSH1 0x1 PUSH1 0xA0 SHL SUB NOT AND PUSH1 0x1 PUSH1 0x1 PUSH1 0xA0 SHL SUB DUP4 AND SWAP1 DUP2 OR DUP3 SSTORE PUSH1 0x40 MLOAD SWAP3 SWAP4 POP SWAP2 PUSH32 0x8BE0079C531659141344CD1FD0A4F28419497F9722A3DAAFE3B4186F6B6457E0 SWAP1 DUP3 SWAP1 LOG3 POP PUSH1 0x1 DUP1 DUP1 SSTORE PUSH1 0x1 PUSH1 0x1 PUSH1 0x60 SHL SUB NOT PUSH1 0x60 DUP10 DUP2 SHL DUP3 AND PUSH1 0x80 SWAP1 DUP2 MSTORE SWAP9 DUP2 SHL DUP3 AND PUSH1 0xA0 SWAP1 DUP2 MSTORE PUSH1 0x3 DUP1 SLOAD PUSH1 0x1 PUSH1 0x1 PUSH1 0xA0 SHL SUB SWAP11 DUP12 AND PUSH1 0x1 PUSH1 0x1 PUSH1 0xA0 SHL SUB NOT SWAP2 DUP3 AND OR SWAP1 SWAP2 SSTORE SWAP8 DUP3 SHL SWAP1 SWAP3 AND PUSH1 0xC0 MSTORE PUSH1 0x4 SWAP6 SWAP1 SWAP6 SSTORE PUSH1 0x8 DUP5 SWAP1 SSTORE PUSH1 0x2 DUP1 SLOAD SWAP4 DUP9 AND SWAP4 DUP8 AND SWAP4 SWAP1 SWAP4 OR SWAP1 SWAP3 SSTORE PUSH1 0x40 DUP1 MLOAD SWAP3 DUP4 ADD DUP2 MSTORE SWAP8 DUP7 AND DUP1 DUP4 MSTORE PUSH2 0x3E8 PUSH1 0x20 DUP1 DUP6 ADD DUP3 DUP2 MSTORE DUP6 DUP13 ADD SWAP7 DUP8 MSTORE PUSH1 0x0 SWAP8 DUP7 ADD DUP9 DUP2 MSTORE SWAP11 DUP7 ADD DUP9 DUP2 MSTORE PUSH1 0x5 DUP1 SLOAD DUP1 DUP9 ADD DUP3 SSTORE DUP2 DUP12 MSTORE SWAP8 MLOAD SWAP8 MUL PUSH32 0x36B6384B5ECA791C62761152D0C79BB0604C104A5FB6F4EB0703F3154BB3DB0 DUP2 ADD DUP1 SLOAD SWAP9 SWAP1 SWAP13 AND SWAP8 SWAP1 SWAP11 AND SWAP7 SWAP1 SWAP7 OR SWAP1 SWAP10 SSTORE SWAP8 MLOAD PUSH32 0x36B6384B5ECA791C62761152D0C79BB0604C104A5FB6F4EB0703F3154BB3DB1 DUP9 ADD SSTORE SWAP4 MLOAD PUSH32 0x36B6384B5ECA791C62761152D0C79BB0604C104A5FB6F4EB0703F3154BB3DB2 DUP8 ADD SSTORE SWAP7 MLOAD PUSH32 0x36B6384B5ECA791C62761152D0C79BB0604C104A5FB6F4EB0703F3154BB3DB3 DUP7 ADD SSTORE SWAP1 MLOAD PUSH32 0x36B6384B5ECA791C62761152D0C79BB0604C104A5FB6F4EB0703F3154BB3DB4 SWAP1 SWAP5 ADD SWAP4 SWAP1 SWAP4 SSTORE SWAP4 DUP2 MSTORE PUSH1 0x9 SWAP1 SWAP3 MSTORE SWAP3 SWAP1 KECCAK256 DUP1 SLOAD PUSH1 0xFF NOT AND SWAP1 SWAP3 OR SWAP1 SWAP2 SSTORE PUSH1 0x7 SSTORE PUSH3 0x259 JUMP JUMPDEST CALLER SWAP1 JUMP JUMPDEST PUSH1 0x80 MLOAD PUSH1 0x60 SHR PUSH1 0xA0 MLOAD PUSH1 0x60 SHR PUSH1 0xC0 MLOAD PUSH1 0x60 SHR PUSH2 0x31DE PUSH3 0x2DF PUSH1 0x0 CODECOPY DUP1 PUSH2 0x17CD MSTORE DUP1 PUSH2 0x1D52 MSTORE POP DUP1 PUSH2 0xA1B MSTORE DUP1 PUSH2 0x105A MSTORE DUP1 PUSH2 0x1690 MSTORE DUP1 PUSH2 0x195B MSTORE DUP1 PUSH2 0x1E6D MSTORE DUP1 PUSH2 0x2991 MSTORE POP DUP1 PUSH2 0xB2B MSTORE DUP1 PUSH2 0x13C2 MSTORE DUP1 PUSH2 0x1465 MSTORE DUP1 PUSH2 0x14E8 MSTORE DUP1 PUSH2 0x159E MSTORE DUP1 PUSH2 0x1661 MSTORE DUP1 PUSH2 0x1738 MSTORE DUP1 PUSH2 0x179E MSTORE DUP1 PUSH2 0x1F0A MSTORE DUP1 PUSH2 0x2137 MSTORE DUP1 PUSH2 0x21DA MSTORE POP PUSH2 0x31DE PUSH1 0x0 RETURN INVALID PUSH1 0x80 PUSH1 0x40 MSTORE CALLVALUE DUP1 ISZERO PUSH2 0x10 JUMPI PUSH1 0x0 DUP1 REVERT JUMPDEST POP PUSH1 0x4 CALLDATASIZE LT PUSH2 0x2D3 JUMPI PUSH1 0x0 CALLDATALOAD PUSH1 0xE0 SHR DUP1 PUSH4 0x630B5BA1 GT PUSH2 0x186 JUMPI DUP1 PUSH4 0xBA624F44 GT PUSH2 0xE3 JUMPI DUP1 PUSH4 0xDA6DFB80 GT PUSH2 0x97 JUMPI DUP1 PUSH4 0xF2FDE38B GT PUSH2 0x71 JUMPI DUP1 PUSH4 0xF2FDE38B EQ PUSH2 0x6CC JUMPI DUP1 PUSH4 0xF35E4A6E EQ PUSH2 0x6F2 JUMPI DUP1 PUSH4 0xF958D1F9 EQ PUSH2 0x70F JUMPI PUSH2 0x2D3 JUMP JUMPDEST DUP1 PUSH4 0xDA6DFB80 EQ PUSH2 0x657 JUMPI DUP1 PUSH4 0xE2BBB158 EQ PUSH2 0x683 JUMPI DUP1 PUSH4 0xF0CE0DFF EQ PUSH2 0x6A6 JUMPI PUSH2 0x2D3 JUMP JUMPDEST DUP1 PUSH4 0xCBD258B5 GT PUSH2 0xC8 JUMPI DUP1 PUSH4 0xCBD258B5 EQ PUSH2 0x5EF JUMPI DUP1 PUSH4 0xD0D41FE1 EQ PUSH2 0x629 JUMPI DUP1 PUSH4 0xD49E77CD EQ PUSH2 0x64F JUMPI PUSH2 0x2D3 JUMP JUMPDEST DUP1 PUSH4 0xBA624F44 EQ PUSH2 0x5C1 JUMPI DUP1 PUSH4 0xBD7418B3 EQ PUSH2 0x5C9 JUMPI PUSH2 0x2D3 JUMP JUMPDEST DUP1 PUSH4 0x8DA5CB5B GT PUSH2 0x13A JUMPI DUP1 PUSH4 0xA0E0E13C GT PUSH2 0x11F JUMPI DUP1 PUSH4 0xA0E0E13C EQ PUSH2 0x594 JUMPI DUP1 PUSH4 0xA9FB763C EQ PUSH2 0x59C JUMPI DUP1 PUSH4 0xB1C9FE6E EQ PUSH2 0x5B9 JUMPI PUSH2 0x2D3 JUMP JUMPDEST DUP1 PUSH4 0x8DA5CB5B EQ PUSH2 0x547 JUMPI DUP1 PUSH4 0x93F1A40B EQ PUSH2 0x54F JUMPI PUSH2 0x2D3 JUMP JUMPDEST DUP1 PUSH4 0x6E99B75E GT PUSH2 0x16B JUMPI DUP1 PUSH4 0x6E99B75E EQ PUSH2 0x52F JUMPI DUP1 PUSH4 0x715018A6 EQ PUSH2 0x537 JUMPI DUP1 PUSH4 0x897B96FF EQ PUSH2 0x53F JUMPI PUSH2 0x2D3 JUMP JUMPDEST DUP1 PUSH4 0x630B5BA1 EQ PUSH2 0x4FC JUMPI DUP1 PUSH4 0x64482F79 EQ PUSH2 0x504 JUMPI PUSH2 0x2D3 JUMP JUMPDEST DUP1 PUSH4 0x41441D3B GT PUSH2 0x234 JUMPI DUP1 PUSH4 0x4AF4A127 GT PUSH2 0x1E8 JUMPI DUP1 PUSH4 0x5312EA8E GT PUSH2 0x1CD JUMPI DUP1 PUSH4 0x5312EA8E EQ PUSH2 0x49F JUMPI DUP1 PUSH4 0x5D2AF1B7 EQ PUSH2 0x4BC JUMPI DUP1 PUSH4 0x5D5EBF16 EQ PUSH2 0x4DF JUMPI PUSH2 0x2D3 JUMP JUMPDEST DUP1 PUSH4 0x4AF4A127 EQ PUSH2 0x47A JUMPI DUP1 PUSH4 0x51EB05A6 EQ PUSH2 0x482 JUMPI PUSH2 0x2D3 JUMP JUMPDEST DUP1 PUSH4 0x441A3E70 GT PUSH2 0x219 JUMPI DUP1 PUSH4 0x441A3E70 EQ PUSH2 0x432 JUMPI DUP1 PUSH4 0x47CF5B59 EQ PUSH2 0x455 JUMPI DUP1 PUSH4 0x48CD4CB1 EQ PUSH2 0x472 JUMPI PUSH2 0x2D3 JUMP JUMPDEST DUP1 PUSH4 0x41441D3B EQ PUSH2 0x40D JUMPI DUP1 PUSH4 0x436CC3D6 EQ PUSH2 0x42A JUMPI PUSH2 0x2D3 JUMP JUMPDEST DUP1 PUSH4 0x1526FE27 GT PUSH2 0x28B JUMPI DUP1 PUSH4 0x1EAAA045 GT PUSH2 0x270 JUMPI DUP1 PUSH4 0x1EAAA045 EQ PUSH2 0x3C9 JUMPI DUP1 PUSH4 0x228CB733 EQ PUSH2 0x3FD JUMPI DUP1 PUSH4 0x2DEEDF42 EQ PUSH2 0x405 JUMPI PUSH2 0x2D3 JUMP JUMPDEST DUP1 PUSH4 0x1526FE27 EQ PUSH2 0x36F JUMPI DUP1 PUSH4 0x17CAF6F1 EQ PUSH2 0x3C1 JUMPI PUSH2 0x2D3 JUMP JUMPDEST DUP1 PUSH4 0x1058D281 GT PUSH2 0x2BC JUMPI DUP1 PUSH4 0x1058D281 EQ PUSH2 0x311 JUMPI DUP1 PUSH4 0x135F8AA7 EQ PUSH2 0x32E JUMPI DUP1 PUSH4 0x14139805 EQ PUSH2 0x34B JUMPI PUSH2 0x2D3 JUMP JUMPDEST DUP1 PUSH4 0x81E3EDA EQ PUSH2 0x2D8 JUMPI DUP1 PUSH4 0xBA84CD2 EQ PUSH2 0x2F2 JUMPI JUMPDEST PUSH1 0x0 DUP1 REVERT JUMPDEST PUSH2 0x2E0 PUSH2 0x717 JUMP JUMPDEST PUSH1 0x40 DUP1 MLOAD SWAP2 DUP3 MSTORE MLOAD SWAP1 DUP2 SWAP1 SUB PUSH1 0x20 ADD SWAP1 RETURN JUMPDEST PUSH2 0x30F PUSH1 0x4 DUP1 CALLDATASIZE SUB PUSH1 0x20 DUP2 LT ISZERO PUSH2 0x308 JUMPI PUSH1 0x0 DUP1 REVERT JUMPDEST POP CALLDATALOAD PUSH2 0x71D JUMP JUMPDEST STOP JUMPDEST PUSH2 0x30F PUSH1 0x4 DUP1 CALLDATASIZE SUB PUSH1 0x20 DUP2 LT ISZERO PUSH2 0x327 JUMPI PUSH1 0x0 DUP1 REVERT JUMPDEST POP CALLDATALOAD PUSH2 0x834 JUMP JUMPDEST PUSH2 0x2E0 PUSH1 0x4 DUP1 CALLDATASIZE SUB PUSH1 0x20 DUP2 LT ISZERO PUSH2 0x344 JUMPI PUSH1 0x0 DUP1 REVERT JUMPDEST POP CALLDATALOAD PUSH2 0xABC JUMP JUMPDEST PUSH2 0x353 PUSH2 0xB29 JUMP JUMPDEST PUSH1 0x40 DUP1 MLOAD PUSH1 0x1 PUSH1 0x1 PUSH1 0xA0 SHL SUB SWAP1 SWAP3 AND DUP3 MSTORE MLOAD SWAP1 DUP2 SWAP1 SUB PUSH1 0x20 ADD SWAP1 RETURN JUMPDEST PUSH2 0x38C PUSH1 0x4 DUP1 CALLDATASIZE SUB PUSH1 0x20 DUP2 LT ISZERO PUSH2 0x385 JUMPI PUSH1 0x0 DUP1 REVERT JUMPDEST POP CALLDATALOAD PUSH2 0xB4D JUMP JUMPDEST PUSH1 0x40 DUP1 MLOAD PUSH1 0x1 PUSH1 0x1 PUSH1 0xA0 SHL SUB SWAP1 SWAP7 AND DUP7 MSTORE PUSH1 0x20 DUP7 ADD SWAP5 SWAP1 SWAP5 MSTORE DUP5 DUP5 ADD SWAP3 SWAP1 SWAP3 MSTORE PUSH1 0x60 DUP5 ADD MSTORE PUSH1 0x80 DUP4 ADD MSTORE MLOAD SWAP1 DUP2 SWAP1 SUB PUSH1 0xA0 ADD SWAP1 RETURN JUMPDEST PUSH2 0x2E0 PUSH2 0xB95 JUMP JUMPDEST PUSH2 0x30F PUSH1 0x4 DUP1 CALLDATASIZE SUB PUSH1 0x60 DUP2 LT ISZERO PUSH2 0x3DF JUMPI PUSH1 0x0 DUP1 REVERT JUMPDEST POP DUP1 CALLDATALOAD SWAP1 PUSH1 0x1 PUSH1 0x1 PUSH1 0xA0 SHL SUB PUSH1 0x20 DUP3 ADD CALLDATALOAD AND SWAP1 PUSH1 0x40 ADD CALLDATALOAD ISZERO ISZERO PUSH2 0xB9B JUMP JUMPDEST PUSH2 0x2E0 PUSH2 0xEAE JUMP JUMPDEST PUSH2 0x353 PUSH2 0xEBE JUMP JUMPDEST PUSH2 0x30F PUSH1 0x4 DUP1 CALLDATASIZE SUB PUSH1 0x20 DUP2 LT ISZERO PUSH2 0x423 JUMPI PUSH1 0x0 DUP1 REVERT JUMPDEST POP CALLDATALOAD PUSH2 0xECD JUMP JUMPDEST PUSH2 0x2E0 PUSH2 0x10FA JUMP JUMPDEST PUSH2 0x30F PUSH1 0x4 DUP1 CALLDATASIZE SUB PUSH1 0x40 DUP2 LT ISZERO PUSH2 0x448 JUMPI PUSH1 0x0 DUP1 REVERT JUMPDEST POP DUP1 CALLDATALOAD SWAP1 PUSH1 0x20 ADD CALLDATALOAD PUSH2 0x1106 JUMP JUMPDEST PUSH2 0x2E0 PUSH1 0x4 DUP1 CALLDATASIZE SUB PUSH1 0x20 DUP2 LT ISZERO PUSH2 0x46B JUMPI PUSH1 0x0 DUP1 REVERT JUMPDEST POP CALLDATALOAD PUSH2 0x131B JUMP JUMPDEST PUSH2 0x2E0 PUSH2 0x132D JUMP JUMPDEST PUSH2 0x2E0 PUSH2 0x1333 JUMP JUMPDEST PUSH2 0x30F PUSH1 0x4 DUP1 CALLDATASIZE SUB PUSH1 0x20 DUP2 LT ISZERO PUSH2 0x498 JUMPI PUSH1 0x0 DUP1 REVERT JUMPDEST POP CALLDATALOAD PUSH2 0x133A JUMP JUMPDEST PUSH2 0x30F PUSH1 0x4 DUP1 CALLDATASIZE SUB PUSH1 0x20 DUP2 LT ISZERO PUSH2 0x4B5 JUMPI PUSH1 0x0 DUP1 REVERT JUMPDEST POP CALLDATALOAD PUSH2 0x188B JUMP JUMPDEST PUSH2 0x2E0 PUSH1 0x4 DUP1 CALLDATASIZE SUB PUSH1 0x40 DUP2 LT ISZERO PUSH2 0x4D2 JUMPI PUSH1 0x0 DUP1 REVERT JUMPDEST POP DUP1 CALLDATALOAD SWAP1 PUSH1 0x20 ADD CALLDATALOAD PUSH2 0x1A3E JUMP JUMPDEST PUSH2 0x2E0 PUSH1 0x4 DUP1 CALLDATASIZE SUB PUSH1 0x20 DUP2 LT ISZERO PUSH2 0x4F5 JUMPI PUSH1 0x0 DUP1 REVERT JUMPDEST POP CALLDATALOAD PUSH2 0x1B70 JUMP JUMPDEST PUSH2 0x30F PUSH2 0x1BE2 JUMP JUMPDEST PUSH2 0x30F PUSH1 0x4 DUP1 CALLDATASIZE SUB PUSH1 0x60 DUP2 LT ISZERO PUSH2 0x51A JUMPI PUSH1 0x0 DUP1 REVERT JUMPDEST POP DUP1 CALLDATALOAD SWAP1 PUSH1 0x20 DUP2 ADD CALLDATALOAD SWAP1 PUSH1 0x40 ADD CALLDATALOAD ISZERO ISZERO PUSH2 0x1C05 JUMP JUMPDEST PUSH2 0x353 PUSH2 0x1D50 JUMP JUMPDEST PUSH2 0x30F PUSH2 0x1D74 JUMP JUMPDEST PUSH2 0x2E0 PUSH2 0x1E32 JUMP JUMPDEST PUSH2 0x353 PUSH2 0x1E38 JUMP JUMPDEST PUSH2 0x57B PUSH1 0x4 DUP1 CALLDATASIZE SUB PUSH1 0x40 DUP2 LT ISZERO PUSH2 0x565 JUMPI PUSH1 0x0 DUP1 REVERT JUMPDEST POP DUP1 CALLDATALOAD SWAP1 PUSH1 0x20 ADD CALLDATALOAD PUSH1 0x1 PUSH1 0x1 PUSH1 0xA0 SHL SUB AND PUSH2 0x1E47 JUMP JUMPDEST PUSH1 0x40 DUP1 MLOAD SWAP3 DUP4 MSTORE PUSH1 0x20 DUP4 ADD SWAP2 SWAP1 SWAP2 MSTORE DUP1 MLOAD SWAP2 DUP3 SWAP1 SUB ADD SWAP1 RETURN JUMPDEST PUSH2 0x353 PUSH2 0x1E6B JUMP JUMPDEST PUSH2 0x2E0 PUSH1 0x4 DUP1 CALLDATASIZE SUB PUSH1 0x20 DUP2 LT ISZERO PUSH2 0x5B2 JUMPI PUSH1 0x0 DUP1 REVERT JUMPDEST POP CALLDATALOAD PUSH2 0x1E8F JUMP JUMPDEST PUSH2 0x2E0 PUSH2 0x1EAD JUMP JUMPDEST PUSH2 0x2E0 PUSH2 0x1EB8 JUMP JUMPDEST PUSH2 0x30F PUSH1 0x4 DUP1 CALLDATASIZE SUB PUSH1 0x20 DUP2 LT ISZERO PUSH2 0x5DF JUMPI PUSH1 0x0 DUP1 REVERT JUMPDEST POP CALLDATALOAD PUSH1 0x1 PUSH1 0x1 PUSH1 0xA0 SHL SUB AND PUSH2 0x1EBF JUMP JUMPDEST PUSH2 0x615 PUSH1 0x4 DUP1 CALLDATASIZE SUB PUSH1 0x20 DUP2 LT ISZERO PUSH2 0x605 JUMPI PUSH1 0x0 DUP1 REVERT JUMPDEST POP CALLDATALOAD PUSH1 0x1 PUSH1 0x1 PUSH1 0xA0 SHL SUB AND PUSH2 0x1FC8 JUMP JUMPDEST PUSH1 0x40 DUP1 MLOAD SWAP2 ISZERO ISZERO DUP3 MSTORE MLOAD SWAP1 DUP2 SWAP1 SUB PUSH1 0x20 ADD SWAP1 RETURN JUMPDEST PUSH2 0x30F PUSH1 0x4 DUP1 CALLDATASIZE SUB PUSH1 0x20 DUP2 LT ISZERO PUSH2 0x63F JUMPI PUSH1 0x0 DUP1 REVERT JUMPDEST POP CALLDATALOAD PUSH1 0x1 PUSH1 0x1 PUSH1 0xA0 SHL SUB AND PUSH2 0x1FDD JUMP JUMPDEST PUSH2 0x353 PUSH2 0x20A3 JUMP JUMPDEST PUSH2 0x2E0 PUSH1 0x4 DUP1 CALLDATASIZE SUB PUSH1 0x40 DUP2 LT ISZERO PUSH2 0x66D JUMPI PUSH1 0x0 DUP1 REVERT JUMPDEST POP DUP1 CALLDATALOAD SWAP1 PUSH1 0x20 ADD CALLDATALOAD PUSH1 0x1 PUSH1 0x1 PUSH1 0xA0 SHL SUB AND PUSH2 0x20B2 JUMP JUMPDEST PUSH2 0x30F PUSH1 0x4 DUP1 CALLDATASIZE SUB PUSH1 0x40 DUP2 LT ISZERO PUSH2 0x699 JUMPI PUSH1 0x0 DUP1 REVERT JUMPDEST POP DUP1 CALLDATALOAD SWAP1 PUSH1 0x20 ADD CALLDATALOAD PUSH2 0x22B5 JUMP JUMPDEST PUSH2 0x30F PUSH1 0x4 DUP1 CALLDATASIZE SUB PUSH1 0x20 DUP2 LT ISZERO PUSH2 0x6BC JUMPI PUSH1 0x0 DUP1 REVERT JUMPDEST POP CALLDATALOAD PUSH1 0x1 PUSH1 0x1 PUSH1 0xA0 SHL SUB AND PUSH2 0x2589 JUMP JUMPDEST PUSH2 0x30F PUSH1 0x4 DUP1 CALLDATASIZE SUB PUSH1 0x20 DUP2 LT ISZERO PUSH2 0x6E2 JUMPI PUSH1 0x0 DUP1 REVERT JUMPDEST POP CALLDATALOAD PUSH1 0x1 PUSH1 0x1 PUSH1 0xA0 SHL SUB AND PUSH2 0x261E JUMP JUMPDEST PUSH2 0x30F PUSH1 0x4 DUP1 CALLDATASIZE SUB PUSH1 0x20 DUP2 LT ISZERO PUSH2 0x708 JUMPI PUSH1 0x0 DUP1 REVERT JUMPDEST POP CALLDATALOAD PUSH2 0x2732 JUMP JUMPDEST PUSH2 0x2E0 PUSH2 0x2867 JUMP JUMPDEST PUSH1 0x5 SLOAD SWAP1 JUMP JUMPDEST PUSH2 0x725 PUSH2 0x286E JUMP JUMPDEST PUSH1 0x1 PUSH1 0x1 PUSH1 0xA0 SHL SUB AND PUSH2 0x736 PUSH2 0x1E38 JUMP JUMPDEST PUSH1 0x1 PUSH1 0x1 PUSH1 0xA0 SHL SUB AND EQ PUSH2 0x791 JUMPI PUSH1 0x40 DUP1 MLOAD PUSH3 0x461BCD PUSH1 0xE5 SHL DUP2 MSTORE PUSH1 0x20 PUSH1 0x4 DUP3 ADD DUP2 SWAP1 MSTORE PUSH1 0x24 DUP3 ADD MSTORE PUSH32 0x4F776E61626C653A2063616C6C6572206973206E6F7420746865206F776E6572 PUSH1 0x44 DUP3 ADD MSTORE SWAP1 MLOAD SWAP1 DUP2 SWAP1 SUB PUSH1 0x64 ADD SWAP1 REVERT JUMPDEST PUSH8 0x4563918244F40000 DUP2 GT ISZERO PUSH2 0x7EE JUMPI PUSH1 0x40 DUP1 MLOAD PUSH3 0x461BCD PUSH1 0xE5 SHL DUP2 MSTORE PUSH1 0x20 PUSH1 0x4 DUP3 ADD MSTORE PUSH1 0x14 PUSH1 0x24 DUP3 ADD MSTORE PUSH32 0x4D6173746572436865663A20216F7665726D6178000000000000000000000000 PUSH1 0x44 DUP3 ADD MSTORE SWAP1 MLOAD SWAP1 DUP2 SWAP1 SUB PUSH1 0x64 ADD SWAP1 REVERT JUMPDEST PUSH2 0x7F6 PUSH2 0x1BE2 JUMP JUMPDEST PUSH1 0x4 DUP2 SWAP1 SSTORE PUSH1 0x40 DUP1 MLOAD DUP3 DUP2 MSTORE SWAP1 MLOAD CALLER SWAP2 PUSH32 0xE2492E003BBE8AFA53088B406F0C1CB5D9E280370FC72A74CF116FFD343C4053 SWAP2 SWAP1 DUP2 SWAP1 SUB PUSH1 0x20 ADD SWAP1 LOG2 POP JUMP JUMPDEST PUSH1 0x2 PUSH1 0x1 SLOAD EQ ISZERO PUSH2 0x88C JUMPI PUSH1 0x40 DUP1 MLOAD PUSH3 0x461BCD PUSH1 0xE5 SHL DUP2 MSTORE PUSH1 0x20 PUSH1 0x4 DUP3 ADD MSTORE PUSH1 0x1F PUSH1 0x24 DUP3 ADD MSTORE PUSH32 0x5265656E7472616E637947756172643A207265656E7472616E742063616C6C00 PUSH1 0x44 DUP3 ADD MSTORE SWAP1 MLOAD SWAP1 DUP2 SWAP1 SUB PUSH1 0x64 ADD SWAP1 REVERT JUMPDEST PUSH1 0x2 PUSH1 0x1 DUP2 SWAP1 SSTORE POP PUSH1 0x0 PUSH1 0x5 PUSH1 0x0 DUP2 SLOAD DUP2 LT PUSH2 0x8A4 JUMPI INVALID JUMPDEST PUSH1 0x0 SWAP2 DUP3 MSTORE PUSH1 0x20 DUP1 DUP4 KECCAK256 CALLER DUP5 MSTORE PUSH32 0x54CDD369E4E8A8515E52CA72EC816C2101831AD1F18BF44102ED171459C9B4F8 SWAP1 SWAP2 MSTORE PUSH1 0x40 SWAP1 SWAP3 KECCAK256 DUP1 SLOAD PUSH1 0x5 SWAP1 SWAP3 MUL SWAP1 SWAP3 ADD SWAP3 POP DUP4 GT ISZERO PUSH2 0x93A JUMPI PUSH1 0x40 DUP1 MLOAD PUSH3 0x461BCD PUSH1 0xE5 SHL DUP2 MSTORE PUSH1 0x20 PUSH1 0x4 DUP3 ADD MSTORE PUSH1 0x1E PUSH1 0x24 DUP3 ADD MSTORE PUSH32 0x4D6173746572436865663A2077697468647261773A206E6F7420676F6F640000 PUSH1 0x44 DUP3 ADD MSTORE SWAP1 MLOAD SWAP1 DUP2 SWAP1 SUB PUSH1 0x64 ADD SWAP1 REVERT JUMPDEST PUSH2 0x944 PUSH1 0x0 PUSH2 0x133A JUMP JUMPDEST PUSH1 0x0 PUSH2 0x981 DUP3 PUSH1 0x1 ADD SLOAD PUSH2 0x97B PUSH8 0xDE0B6B3A7640000 PUSH2 0x975 DUP8 PUSH1 0x3 ADD SLOAD DUP8 PUSH1 0x0 ADD SLOAD PUSH2 0x2872 SWAP1 SWAP2 SWAP1 PUSH4 0xFFFFFFFF AND JUMP JUMPDEST SWAP1 PUSH2 0x28CB JUMP JUMPDEST SWAP1 PUSH2 0x2932 JUMP JUMPDEST SWAP1 POP DUP1 ISZERO PUSH2 0x993 JUMPI PUSH2 0x993 CALLER DUP3 PUSH2 0x298F JUMP JUMPDEST DUP4 ISZERO PUSH2 0x9D1 JUMPI DUP2 SLOAD PUSH2 0x9A5 SWAP1 DUP6 PUSH2 0x2932 JUMP JUMPDEST DUP3 SSTORE PUSH1 0x4 DUP4 ADD SLOAD PUSH2 0x9B6 SWAP1 DUP6 PUSH2 0x2932 JUMP JUMPDEST PUSH1 0x4 DUP5 ADD SSTORE DUP3 SLOAD PUSH2 0x9D1 SWAP1 PUSH1 0x1 PUSH1 0x1 PUSH1 0xA0 SHL SUB AND CALLER DUP7 PUSH2 0x2A22 JUMP JUMPDEST PUSH1 0x3 DUP4 ADD SLOAD DUP3 SLOAD PUSH2 0x9EF SWAP2 PUSH8 0xDE0B6B3A7640000 SWAP2 PUSH2 0x975 SWAP2 PUSH2 0x2872 JUMP JUMPDEST PUSH1 0x1 DUP4 ADD SSTORE PUSH1 0x40 DUP1 MLOAD PUSH4 0x2770A7EB PUSH1 0xE2 SHL DUP2 MSTORE CALLER PUSH1 0x4 DUP3 ADD MSTORE PUSH1 0x24 DUP2 ADD DUP7 SWAP1 MSTORE SWAP1 MLOAD PUSH1 0x1 PUSH1 0x1 PUSH1 0xA0 SHL SUB PUSH32 0x0 AND SWAP2 PUSH4 0x9DC29FAC SWAP2 PUSH1 0x44 DUP1 DUP4 ADD SWAP3 PUSH1 0x0 SWAP3 SWAP2 SWAP1 DUP3 SWAP1 SUB ADD DUP2 DUP4 DUP8 DUP1 EXTCODESIZE ISZERO DUP1 ISZERO PUSH2 0xA62 JUMPI PUSH1 0x0 DUP1 REVERT JUMPDEST POP GAS CALL ISZERO DUP1 ISZERO PUSH2 0xA76 JUMPI RETURNDATASIZE PUSH1 0x0 DUP1 RETURNDATACOPY RETURNDATASIZE PUSH1 0x0 REVERT JUMPDEST POP POP PUSH1 0x40 DUP1 MLOAD DUP8 DUP2 MSTORE SWAP1 MLOAD PUSH1 0x0 SWAP4 POP CALLER SWAP3 POP PUSH32 0xF279E6A1F5E320CCA91135676D9CB6E44CA8A08C0B88342BCDB1144F6511B568 SWAP2 DUP2 SWAP1 SUB PUSH1 0x20 ADD SWAP1 LOG3 POP POP PUSH1 0x1 DUP1 SSTORE POP POP JUMP JUMPDEST PUSH1 0x0 PUSH1 0x8 SLOAD DUP3 LT PUSH2 0xB20 JUMPI PUSH1 0x0 PUSH2 0xADE PUSH1 0x8 SLOAD DUP5 PUSH2 0x2932 SWAP1 SWAP2 SWAP1 PUSH4 0xFFFFFFFF AND JUMP JUMPDEST SWAP1 POP PUSH3 0x17FE80 DUP2 GT PUSH2 0xAF4 JUMPI PUSH1 0x1 SWAP2 POP POP PUSH2 0xB24 JUMP JUMPDEST PUSH2 0xB18 PUSH1 0x2 PUSH2 0xB12 PUSH3 0x2FFD00 PUSH2 0x975 PUSH1 0x1 PUSH2 0x97B DUP8 PUSH3 0x17FE80 PUSH2 0x2932 JUMP JUMPDEST SWAP1 PUSH2 0x2AA7 JUMP JUMPDEST SWAP2 POP POP PUSH2 0xB24 JUMP JUMPDEST POP PUSH1 0x0 JUMPDEST SWAP2 SWAP1 POP JUMP JUMPDEST PUSH32 0x0 DUP2 JUMP JUMPDEST PUSH1 0x5 DUP2 DUP2 SLOAD DUP2 LT PUSH2 0xB5A JUMPI INVALID JUMPDEST PUSH1 0x0 SWAP2 DUP3 MSTORE PUSH1 0x20 SWAP1 SWAP2 KECCAK256 PUSH1 0x5 SWAP1 SWAP2 MUL ADD DUP1 SLOAD PUSH1 0x1 DUP3 ADD SLOAD PUSH1 0x2 DUP4 ADD SLOAD PUSH1 0x3 DUP5 ADD SLOAD PUSH1 0x4 SWAP1 SWAP5 ADD SLOAD PUSH1 0x1 PUSH1 0x1 PUSH1 0xA0 SHL SUB SWAP1 SWAP4 AND SWAP5 POP SWAP1 SWAP3 SWAP1 SWAP2 DUP6 JUMP JUMPDEST PUSH1 0x7 SLOAD DUP2 JUMP JUMPDEST PUSH2 0xBA3 PUSH2 0x286E JUMP JUMPDEST PUSH1 0x1 PUSH1 0x1 PUSH1 0xA0 SHL SUB AND PUSH2 0xBB4 PUSH2 0x1E38 JUMP JUMPDEST PUSH1 0x1 PUSH1 0x1 PUSH1 0xA0 SHL SUB AND EQ PUSH2 0xC0F JUMPI PUSH1 0x40 DUP1 MLOAD PUSH3 0x461BCD PUSH1 0xE5 SHL DUP2 MSTORE PUSH1 0x20 PUSH1 0x4 DUP3 ADD DUP2 SWAP1 MSTORE PUSH1 0x24 DUP3 ADD MSTORE PUSH32 0x4F776E61626C653A2063616C6C6572206973206E6F7420746865206F776E6572 PUSH1 0x44 DUP3 ADD MSTORE SWAP1 MLOAD SWAP1 DUP2 SWAP1 SUB PUSH1 0x64 ADD SWAP1 REVERT JUMPDEST PUSH1 0x1 PUSH1 0x1 PUSH1 0xA0 SHL SUB DUP3 AND PUSH1 0x0 SWAP1 DUP2 MSTORE PUSH1 0x9 PUSH1 0x20 MSTORE PUSH1 0x40 SWAP1 KECCAK256 SLOAD DUP3 SWAP1 PUSH1 0xFF AND ISZERO PUSH2 0xC69 JUMPI PUSH1 0x40 MLOAD PUSH3 0x461BCD PUSH1 0xE5 SHL DUP2 MSTORE PUSH1 0x4 ADD DUP1 DUP1 PUSH1 0x20 ADD DUP3 DUP2 SUB DUP3 MSTORE PUSH1 0x25 DUP2 MSTORE PUSH1 0x20 ADD DUP1 PUSH2 0x2F91 PUSH1 0x25 SWAP2 CODECOPY PUSH1 0x40 ADD SWAP2 POP POP PUSH1 0x40 MLOAD DUP1 SWAP2 SUB SWAP1 REVERT JUMPDEST PUSH1 0x40 DUP1 MLOAD PUSH4 0x70A08231 PUSH1 0xE0 SHL DUP2 MSTORE ADDRESS PUSH1 0x4 DUP3 ADD MSTORE SWAP1 MLOAD PUSH1 0x1 PUSH1 0x1 PUSH1 0xA0 SHL SUB DUP6 AND SWAP2 PUSH4 0x70A08231 SWAP2 PUSH1 0x24 DUP1 DUP4 ADD SWAP3 PUSH1 0x20 SWAP3 SWAP2 SWAP1 DUP3 SWAP1 SUB ADD DUP2 DUP7 DUP1 EXTCODESIZE ISZERO DUP1 ISZERO PUSH2 0xCAF JUMPI PUSH1 0x0 DUP1 REVERT JUMPDEST POP GAS STATICCALL ISZERO DUP1 ISZERO PUSH2 0xCC3 JUMPI RETURNDATASIZE PUSH1 0x0 DUP1 RETURNDATACOPY RETURNDATASIZE PUSH1 0x0 REVERT JUMPDEST POP POP POP POP PUSH1 0x40 MLOAD RETURNDATASIZE PUSH1 0x20 DUP2 LT ISZERO PUSH2 0xCD9 JUMPI PUSH1 0x0 DUP1 REVERT JUMPDEST POP POP PUSH3 0x186A0 DUP5 GT ISZERO PUSH2 0xD33 JUMPI PUSH1 0x40 DUP1 MLOAD PUSH3 0x461BCD PUSH1 0xE5 SHL DUP2 MSTORE PUSH1 0x20 PUSH1 0x4 DUP3 ADD MSTORE PUSH1 0x14 PUSH1 0x24 DUP3 ADD MSTORE PUSH32 0x4D6173746572436865663A20216F7665726D6178000000000000000000000000 PUSH1 0x44 DUP3 ADD MSTORE SWAP1 MLOAD SWAP1 DUP2 SWAP1 SUB PUSH1 0x64 ADD SWAP1 REVERT JUMPDEST DUP2 ISZERO PUSH2 0xD41 JUMPI PUSH2 0xD41 PUSH2 0x1BE2 JUMP JUMPDEST PUSH1 0x0 PUSH1 0x8 SLOAD NUMBER GT PUSH2 0xD54 JUMPI PUSH1 0x8 SLOAD PUSH2 0xD56 JUMP JUMPDEST NUMBER JUMPDEST PUSH1 0x7 SLOAD SWAP1 SWAP2 POP PUSH2 0xD66 SWAP1 DUP7 PUSH2 0x2AA7 JUMP JUMPDEST PUSH1 0x7 SSTORE PUSH1 0x40 DUP1 MLOAD PUSH1 0xA0 DUP2 ADD DUP3 MSTORE PUSH1 0x1 PUSH1 0x1 PUSH1 0xA0 SHL SUB DUP1 DUP8 AND DUP1 DUP4 MSTORE PUSH1 0x20 DUP1 DUP5 ADD DUP11 DUP2 MSTORE DUP5 DUP7 ADD DUP8 DUP2 MSTORE PUSH1 0x0 PUSH1 0x60 DUP8 ADD DUP2 DUP2 MSTORE PUSH1 0x80 DUP9 ADD DUP3 DUP2 MSTORE PUSH1 0x5 DUP1 SLOAD PUSH1 0x1 DUP2 DUP2 ADD DUP4 SSTORE DUP3 DUP7 MSTORE SWAP11 MLOAD SWAP2 MUL PUSH32 0x36B6384B5ECA791C62761152D0C79BB0604C104A5FB6F4EB0703F3154BB3DB0 DUP2 ADD DUP1 SLOAD SWAP3 SWAP1 SWAP11 AND PUSH1 0x1 PUSH1 0x1 PUSH1 0xA0 SHL SUB NOT SWAP1 SWAP3 AND SWAP2 SWAP1 SWAP2 OR SWAP1 SWAP9 SSTORE SWAP4 MLOAD PUSH32 0x36B6384B5ECA791C62761152D0C79BB0604C104A5FB6F4EB0703F3154BB3DB1 DUP9 ADD SSTORE SWAP2 MLOAD PUSH32 0x36B6384B5ECA791C62761152D0C79BB0604C104A5FB6F4EB0703F3154BB3DB2 DUP8 ADD SSTORE SWAP1 MLOAD PUSH32 0x36B6384B5ECA791C62761152D0C79BB0604C104A5FB6F4EB0703F3154BB3DB3 DUP7 ADD SSTORE SWAP1 MLOAD PUSH32 0x36B6384B5ECA791C62761152D0C79BB0604C104A5FB6F4EB0703F3154BB3DB4 SWAP1 SWAP5 ADD SWAP4 SWAP1 SWAP4 SSTORE SWAP1 DUP3 MSTORE PUSH1 0x9 SWAP1 MSTORE SWAP2 SWAP1 SWAP2 KECCAK256 DUP1 SLOAD PUSH1 0xFF NOT AND SWAP1 SWAP2 OR SWAP1 SSTORE PUSH2 0xEA7 PUSH2 0x2B01 JUMP JUMPDEST POP POP POP POP POP JUMP JUMPDEST PUSH1 0x0 PUSH2 0xEB9 NUMBER PUSH2 0x1E8F JUMP JUMPDEST SWAP1 POP SWAP1 JUMP JUMPDEST PUSH1 0x2 SLOAD PUSH1 0x1 PUSH1 0x1 PUSH1 0xA0 SHL SUB AND DUP2 JUMP JUMPDEST PUSH1 0x2 PUSH1 0x1 SLOAD EQ ISZERO PUSH2 0xF25 JUMPI PUSH1 0x40 DUP1 MLOAD PUSH3 0x461BCD PUSH1 0xE5 SHL DUP2 MSTORE PUSH1 0x20 PUSH1 0x4 DUP3 ADD MSTORE PUSH1 0x1F PUSH1 0x24 DUP3 ADD MSTORE PUSH32 0x5265656E7472616E637947756172643A207265656E7472616E742063616C6C00 PUSH1 0x44 DUP3 ADD MSTORE SWAP1 MLOAD SWAP1 DUP2 SWAP1 SUB PUSH1 0x64 ADD SWAP1 REVERT JUMPDEST PUSH1 0x2 PUSH1 0x1 DUP2 SWAP1 SSTORE POP PUSH1 0x0 PUSH1 0x5 PUSH1 0x0 DUP2 SLOAD DUP2 LT PUSH2 0xF3D JUMPI INVALID JUMPDEST PUSH1 0x0 SWAP2 DUP3 MSTORE PUSH1 0x20 DUP1 DUP4 KECCAK256 CALLER DUP5 MSTORE PUSH32 0x54CDD369E4E8A8515E52CA72EC816C2101831AD1F18BF44102ED171459C9B4F8 SWAP1 SWAP2 MSTORE PUSH1 0x40 DUP4 KECCAK256 PUSH1 0x5 SWAP1 SWAP3 MUL ADD SWAP3 POP SWAP1 PUSH2 0xF84 SWAP1 PUSH2 0x133A JUMP JUMPDEST DUP1 SLOAD ISZERO PUSH2 0xFD0 JUMPI PUSH1 0x0 PUSH2 0xFBC DUP3 PUSH1 0x1 ADD SLOAD PUSH2 0x97B PUSH8 0xDE0B6B3A7640000 PUSH2 0x975 DUP8 PUSH1 0x3 ADD SLOAD DUP8 PUSH1 0x0 ADD SLOAD PUSH2 0x2872 SWAP1 SWAP2 SWAP1 PUSH4 0xFFFFFFFF AND JUMP JUMPDEST SWAP1 POP DUP1 ISZERO PUSH2 0xFCE JUMPI PUSH2 0xFCE CALLER DUP3 PUSH2 0x298F JUMP JUMPDEST POP JUMPDEST DUP3 ISZERO PUSH2 0x1010 JUMPI DUP2 SLOAD PUSH2 0xFED SWAP1 PUSH1 0x1 PUSH1 0x1 PUSH1 0xA0 SHL SUB AND CALLER ADDRESS DUP7 PUSH2 0x2BC6 JUMP JUMPDEST DUP1 SLOAD PUSH2 0xFF9 SWAP1 DUP5 PUSH2 0x2AA7 JUMP JUMPDEST DUP2 SSTORE PUSH1 0x4 DUP3 ADD SLOAD PUSH2 0x100A SWAP1 DUP5 PUSH2 0x2AA7 JUMP JUMPDEST PUSH1 0x4 DUP4 ADD SSTORE JUMPDEST PUSH1 0x3 DUP3 ADD SLOAD DUP2 SLOAD PUSH2 0x102E SWAP2 PUSH8 0xDE0B6B3A7640000 SWAP2 PUSH2 0x975 SWAP2 PUSH2 0x2872 JUMP JUMPDEST PUSH1 0x1 DUP3 ADD SSTORE PUSH1 0x40 DUP1 MLOAD PUSH4 0x40C10F19 PUSH1 0xE0 SHL DUP2 MSTORE CALLER PUSH1 0x4 DUP3 ADD MSTORE PUSH1 0x24 DUP2 ADD DUP6 SWAP1 MSTORE SWAP1 MLOAD PUSH1 0x1 PUSH1 0x1 PUSH1 0xA0 SHL SUB PUSH32 0x0 AND SWAP2 PUSH4 0x40C10F19 SWAP2 PUSH1 0x44 DUP1 DUP4 ADD SWAP3 PUSH1 0x0 SWAP3 SWAP2 SWAP1 DUP3 SWAP1 SUB ADD DUP2 DUP4 DUP8 DUP1 EXTCODESIZE ISZERO DUP1 ISZERO PUSH2 0x10A1 JUMPI PUSH1 0x0 DUP1 REVERT JUMPDEST POP GAS CALL ISZERO DUP1 ISZERO PUSH2 0x10B5 JUMPI RETURNDATASIZE PUSH1 0x0 DUP1 RETURNDATACOPY RETURNDATASIZE PUSH1 0x0 REVERT JUMPDEST POP POP PUSH1 0x40 DUP1 MLOAD DUP7 DUP2 MSTORE SWAP1 MLOAD PUSH1 0x0 SWAP4 POP CALLER SWAP3 POP PUSH32 0x90890809C654F11D6E72A28FA60149770A0D11EC6C92319D6CEB2BB0A4EA1A15 SWAP2 DUP2 SWAP1 SUB PUSH1 0x20 ADD SWAP1 LOG3 POP POP PUSH1 0x1 DUP1 SSTORE POP JUMP JUMPDEST PUSH8 0x4563918244F40000 DUP2 JUMP JUMPDEST PUSH1 0x2 PUSH1 0x1 SLOAD EQ ISZERO PUSH2 0x115E JUMPI PUSH1 0x40 DUP1 MLOAD PUSH3 0x461BCD PUSH1 0xE5 SHL DUP2 MSTORE PUSH1 0x20 PUSH1 0x4 DUP3 ADD MSTORE PUSH1 0x1F PUSH1 0x24 DUP3 ADD MSTORE PUSH32 0x5265656E7472616E637947756172643A207265656E7472616E742063616C6C00 PUSH1 0x44 DUP3 ADD MSTORE SWAP1 MLOAD SWAP1 DUP2 SWAP1 SUB PUSH1 0x64 ADD SWAP1 REVERT JUMPDEST PUSH1 0x2 PUSH1 0x1 SSTORE DUP2 PUSH2 0x119F JUMPI PUSH1 0x40 MLOAD PUSH3 0x461BCD PUSH1 0xE5 SHL DUP2 MSTORE PUSH1 0x4 ADD DUP1 DUP1 PUSH1 0x20 ADD DUP3 DUP2 SUB DUP3 MSTORE PUSH1 0x27 DUP2 MSTORE PUSH1 0x20 ADD DUP1 PUSH2 0x3086 PUSH1 0x27 SWAP2 CODECOPY PUSH1 0x40 ADD SWAP2 POP POP PUSH1 0x40 MLOAD DUP1 SWAP2 SUB SWAP1 REVERT JUMPDEST PUSH1 0x0 PUSH1 0x5 DUP4 DUP2 SLOAD DUP2 LT PUSH2 0x11AE JUMPI INVALID JUMPDEST PUSH1 0x0 SWAP2 DUP3 MSTORE PUSH1 0x20 DUP1 DUP4 KECCAK256 DUP7 DUP5 MSTORE PUSH1 0x6 DUP3 MSTORE PUSH1 0x40 DUP1 DUP6 KECCAK256 CALLER DUP7 MSTORE SWAP1 SWAP3 MSTORE SWAP3 KECCAK256 DUP1 SLOAD PUSH1 0x5 SWAP1 SWAP3 MUL SWAP1 SWAP3 ADD SWAP3 POP DUP4 GT ISZERO PUSH2 0x122C JUMPI PUSH1 0x40 DUP1 MLOAD PUSH3 0x461BCD PUSH1 0xE5 SHL DUP2 MSTORE PUSH1 0x20 PUSH1 0x4 DUP3 ADD MSTORE PUSH1 0x1E PUSH1 0x24 DUP3 ADD MSTORE PUSH32 0x4D6173746572436865663A2077697468647261773A206E6F7420676F6F640000 PUSH1 0x44 DUP3 ADD MSTORE SWAP1 MLOAD SWAP1 DUP2 SWAP1 SUB PUSH1 0x64 ADD SWAP1 REVERT JUMPDEST PUSH2 0x1235 DUP5 PUSH2 0x133A JUMP JUMPDEST PUSH1 0x0 PUSH2 0x1266 DUP3 PUSH1 0x1 ADD SLOAD PUSH2 0x97B PUSH8 0xDE0B6B3A7640000 PUSH2 0x975 DUP8 PUSH1 0x3 ADD SLOAD DUP8 PUSH1 0x0 ADD SLOAD PUSH2 0x2872 SWAP1 SWAP2 SWAP1 PUSH4 0xFFFFFFFF AND JUMP JUMPDEST SWAP1 POP DUP1 ISZERO PUSH2 0x1278 JUMPI PUSH2 0x1278 CALLER DUP3 PUSH2 0x298F JUMP JUMPDEST DUP4 ISZERO PUSH2 0x12B6 JUMPI DUP2 SLOAD PUSH2 0x128A SWAP1 DUP6 PUSH2 0x2932 JUMP JUMPDEST DUP3 SSTORE PUSH1 0x4 DUP4 ADD SLOAD PUSH2 0x129B SWAP1 DUP6 PUSH2 0x2932 JUMP JUMPDEST PUSH1 0x4 DUP5 ADD SSTORE DUP3 SLOAD PUSH2 0x12B6 SWAP1 PUSH1 0x1 PUSH1 0x1 PUSH1 0xA0 SHL SUB AND CALLER DUP7 PUSH2 0x2A22 JUMP JUMPDEST PUSH1 0x3 DUP4 ADD SLOAD DUP3 SLOAD PUSH2 0x12D4 SWAP2 PUSH8 0xDE0B6B3A7640000 SWAP2 PUSH2 0x975 SWAP2 PUSH2 0x2872 JUMP JUMPDEST PUSH1 0x1 DUP4 ADD SSTORE PUSH1 0x40 DUP1 MLOAD DUP6 DUP2 MSTORE SWAP1 MLOAD DUP7 SWAP2 CALLER SWAP2 PUSH32 0xF279E6A1F5E320CCA91135676D9CB6E44CA8A08C0B88342BCDB1144F6511B568 SWAP2 DUP2 SWAP1 SUB PUSH1 0x20 ADD SWAP1 LOG3 POP POP PUSH1 0x1 DUP1 SSTORE POP POP POP JUMP JUMPDEST PUSH1 0x0 PUSH2 0x1327 DUP3 NUMBER PUSH2 0x1A3E JUMP JUMPDEST SWAP3 SWAP2 POP POP JUMP JUMPDEST PUSH1 0x8 SLOAD DUP2 JUMP JUMPDEST PUSH3 0x17FE80 DUP2 JUMP JUMPDEST PUSH1 0x0 PUSH1 0x5 DUP3 DUP2 SLOAD DUP2 LT PUSH2 0x1349 JUMPI INVALID JUMPDEST SWAP1 PUSH1 0x0 MSTORE PUSH1 0x20 PUSH1 0x0 KECCAK256 SWAP1 PUSH1 0x5 MUL ADD SWAP1 POP DUP1 PUSH1 0x2 ADD SLOAD NUMBER GT PUSH2 0x136A JUMPI POP PUSH2 0x1888 JUMP JUMPDEST PUSH1 0x4 DUP2 ADD SLOAD ISZERO DUP1 PUSH2 0x137D JUMPI POP PUSH1 0x1 DUP2 ADD SLOAD ISZERO JUMPDEST ISZERO PUSH2 0x138E JUMPI NUMBER PUSH1 0x2 SWAP1 SWAP2 ADD SSTORE PUSH2 0x1888 JUMP JUMPDEST PUSH1 0x0 PUSH2 0x139D DUP3 PUSH1 0x2 ADD SLOAD PUSH2 0x131B JUMP JUMPDEST SWAP1 POP PUSH1 0x0 PUSH2 0x13BE PUSH1 0x7 SLOAD PUSH2 0x975 DUP6 PUSH1 0x1 ADD SLOAD DUP6 PUSH2 0x2872 SWAP1 SWAP2 SWAP1 PUSH4 0xFFFFFFFF AND JUMP JUMPDEST SWAP1 POP PUSH32 0x0 PUSH1 0x1 PUSH1 0x1 PUSH1 0xA0 SHL SUB AND PUSH4 0x5DB30BB1 PUSH1 0x40 MLOAD DUP2 PUSH4 0xFFFFFFFF AND PUSH1 0xE0 SHL DUP2 MSTORE PUSH1 0x4 ADD PUSH1 0x20 PUSH1 0x40 MLOAD DUP1 DUP4 SUB DUP2 DUP7 DUP1 EXTCODESIZE ISZERO DUP1 ISZERO PUSH2 0x1419 JUMPI PUSH1 0x0 DUP1 REVERT JUMPDEST POP GAS STATICCALL ISZERO DUP1 ISZERO PUSH2 0x142D JUMPI RETURNDATASIZE PUSH1 0x0 DUP1 RETURNDATACOPY RETURNDATASIZE PUSH1 0x0 REVERT JUMPDEST POP POP POP POP PUSH1 0x40 MLOAD RETURNDATASIZE PUSH1 0x20 DUP2 LT ISZERO PUSH2 0x1443 JUMPI PUSH1 0x0 DUP1 REVERT JUMPDEST POP MLOAD PUSH1 0x40 DUP1 MLOAD PUSH4 0x18160DDD PUSH1 0xE0 SHL DUP2 MSTORE SWAP1 MLOAD PUSH2 0x14DD SWAP2 DUP5 SWAP2 PUSH1 0x1 PUSH1 0x1 PUSH1 0xA0 SHL SUB PUSH32 0x0 AND SWAP2 PUSH4 0x18160DDD SWAP2 PUSH1 0x4 DUP1 DUP4 ADD SWAP3 PUSH1 0x20 SWAP3 SWAP2 SWAP1 DUP3 SWAP1 SUB ADD DUP2 DUP7 DUP1 EXTCODESIZE ISZERO DUP1 ISZERO PUSH2 0x14AB JUMPI PUSH1 0x0 DUP1 REVERT JUMPDEST POP GAS STATICCALL ISZERO DUP1 ISZERO PUSH2 0x14BF JUMPI RETURNDATASIZE PUSH1 0x0 DUP1 RETURNDATACOPY RETURNDATASIZE PUSH1 0x0 REVERT JUMPDEST POP POP POP POP PUSH1 0x40 MLOAD RETURNDATASIZE PUSH1 0x20 DUP2 LT ISZERO PUSH2 0x14D5 JUMPI PUSH1 0x0 DUP1 REVERT JUMPDEST POP MLOAD SWAP1 PUSH2 0x2AA7 JUMP JUMPDEST GT ISZERO PUSH2 0x1619 JUMPI PUSH2 0x1616 PUSH32 0x0 PUSH1 0x1 PUSH1 0x1 PUSH1 0xA0 SHL SUB AND PUSH4 0x18160DDD PUSH1 0x40 MLOAD DUP2 PUSH4 0xFFFFFFFF AND PUSH1 0xE0 SHL DUP2 MSTORE PUSH1 0x4 ADD PUSH1 0x20 PUSH1 0x40 MLOAD DUP1 DUP4 SUB DUP2 DUP7 DUP1 EXTCODESIZE ISZERO DUP1 ISZERO PUSH2 0x153F JUMPI PUSH1 0x0 DUP1 REVERT JUMPDEST POP GAS STATICCALL ISZERO DUP1 ISZERO PUSH2 0x1553 JUMPI RETURNDATASIZE PUSH1 0x0 DUP1 RETURNDATACOPY RETURNDATASIZE PUSH1 0x0 REVERT JUMPDEST POP POP POP POP PUSH1 0x40 MLOAD RETURNDATASIZE PUSH1 0x20 DUP2 LT ISZERO PUSH2 0x1569 JUMPI PUSH1 0x0 DUP1 REVERT JUMPDEST POP MLOAD PUSH1 0x40 DUP1 MLOAD PUSH32 0x5DB30BB100000000000000000000000000000000000000000000000000000000 DUP2 MSTORE SWAP1 MLOAD PUSH1 0x1 PUSH1 0x1 PUSH1 0xA0 SHL SUB PUSH32 0x0 AND SWAP2 PUSH4 0x5DB30BB1 SWAP2 PUSH1 0x4 DUP1 DUP4 ADD SWAP3 PUSH1 0x20 SWAP3 SWAP2 SWAP1 DUP3 SWAP1 SUB ADD DUP2 DUP7 DUP1 EXTCODESIZE ISZERO DUP1 ISZERO PUSH2 0x15E4 JUMPI PUSH1 0x0 DUP1 REVERT JUMPDEST POP GAS STATICCALL ISZERO DUP1 ISZERO PUSH2 0x15F8 JUMPI RETURNDATASIZE PUSH1 0x0 DUP1 RETURNDATACOPY RETURNDATASIZE PUSH1 0x0 REVERT JUMPDEST POP POP POP POP PUSH1 0x40 MLOAD RETURNDATASIZE PUSH1 0x20 DUP2 LT ISZERO PUSH2 0x160E JUMPI PUSH1 0x0 DUP1 REVERT JUMPDEST POP MLOAD SWAP1 PUSH2 0x2932 JUMP JUMPDEST SWAP1 POP JUMPDEST DUP1 ISZERO PUSH2 0x1884 JUMPI PUSH1 0x0 PUSH2 0x1633 PUSH2 0x3E8 PUSH2 0x975 DUP5 PUSH2 0x28A PUSH2 0x2872 JUMP JUMPDEST SWAP1 POP PUSH1 0x0 PUSH2 0x1648 PUSH2 0x3E8 PUSH2 0x975 DUP6 PUSH1 0x7D PUSH2 0x2872 JUMP JUMPDEST SWAP1 POP PUSH1 0x0 PUSH2 0x165D PUSH2 0x3E8 PUSH2 0x975 DUP7 PUSH1 0xE1 PUSH2 0x2872 JUMP JUMPDEST SWAP1 POP PUSH32 0x0 PUSH1 0x1 PUSH1 0x1 PUSH1 0xA0 SHL SUB AND PUSH4 0x40C10F19 PUSH32 0x0 DUP6 PUSH1 0x40 MLOAD DUP4 PUSH4 0xFFFFFFFF AND PUSH1 0xE0 SHL DUP2 MSTORE PUSH1 0x4 ADD DUP1 DUP4 PUSH1 0x1 PUSH1 0x1 PUSH1 0xA0 SHL SUB AND DUP2 MSTORE PUSH1 0x20 ADD DUP3 DUP2 MSTORE PUSH1 0x20 ADD SWAP3 POP POP POP PUSH1 0x0 PUSH1 0x40 MLOAD DUP1 DUP4 SUB DUP2 PUSH1 0x0 DUP8 DUP1 EXTCODESIZE ISZERO DUP1 ISZERO PUSH2 0x16F6 JUMPI PUSH1 0x0 DUP1 REVERT JUMPDEST POP GAS CALL ISZERO DUP1 ISZERO PUSH2 0x170A JUMPI RETURNDATASIZE PUSH1 0x0 DUP1 RETURNDATACOPY RETURNDATASIZE PUSH1 0x0 REVERT JUMPDEST POP POP PUSH1 0x3 SLOAD PUSH1 0x40 DUP1 MLOAD PUSH4 0x40C10F19 PUSH1 0xE0 SHL DUP2 MSTORE PUSH1 0x1 PUSH1 0x1 PUSH1 0xA0 SHL SUB SWAP3 DUP4 AND PUSH1 0x4 DUP3 ADD MSTORE PUSH1 0x24 DUP2 ADD DUP8 SWAP1 MSTORE SWAP1 MLOAD PUSH32 0x0 SWAP1 SWAP3 AND SWAP4 POP PUSH4 0x40C10F19 SWAP3 POP PUSH1 0x44 DUP1 DUP3 ADD SWAP3 PUSH1 0x0 SWAP3 SWAP1 SWAP2 SWAP1 DUP3 SWAP1 SUB ADD DUP2 DUP4 DUP8 DUP1 EXTCODESIZE ISZERO DUP1 ISZERO PUSH2 0x1784 JUMPI PUSH1 0x0 DUP1 REVERT JUMPDEST POP GAS CALL ISZERO DUP1 ISZERO PUSH2 0x1798 JUMPI RETURNDATASIZE PUSH1 0x0 DUP1 RETURNDATACOPY RETURNDATASIZE PUSH1 0x0 REVERT JUMPDEST POP POP POP POP PUSH32 0x0 PUSH1 0x1 PUSH1 0x1 PUSH1 0xA0 SHL SUB AND PUSH4 0x40C10F19 PUSH32 0x0 DUP4 PUSH1 0x40 MLOAD DUP4 PUSH4 0xFFFFFFFF AND PUSH1 0xE0 SHL DUP2 MSTORE PUSH1 0x4 ADD DUP1 DUP4 PUSH1 0x1 PUSH1 0x1 PUSH1 0xA0 SHL SUB AND DUP2 MSTORE PUSH1 0x20 ADD DUP3 DUP2 MSTORE PUSH1 0x20 ADD SWAP3 POP POP POP PUSH1 0x0 PUSH1 0x40 MLOAD DUP1 DUP4 SUB DUP2 PUSH1 0x0 DUP8 DUP1 EXTCODESIZE ISZERO DUP1 ISZERO PUSH2 0x1833 JUMPI PUSH1 0x0 DUP1 REVERT JUMPDEST POP GAS CALL ISZERO DUP1 ISZERO PUSH2 0x1847 JUMPI RETURNDATASIZE PUSH1 0x0 DUP1 RETURNDATACOPY RETURNDATASIZE PUSH1 0x0 REVERT JUMPDEST POP POP POP PUSH1 0x4 DUP8 ADD SLOAD PUSH2 0x1875 SWAP2 POP PUSH2 0x186A SWAP1 PUSH2 0x975 DUP7 PUSH8 0xDE0B6B3A7640000 PUSH2 0x2872 JUMP JUMPDEST PUSH1 0x3 DUP9 ADD SLOAD SWAP1 PUSH2 0x2AA7 JUMP JUMPDEST PUSH1 0x3 DUP8 ADD SSTORE POP POP NUMBER PUSH1 0x2 DUP6 ADD SSTORE POP JUMPDEST POP POP POP JUMPDEST POP JUMP JUMPDEST PUSH1 0x2 PUSH1 0x1 SLOAD EQ ISZERO PUSH2 0x18E3 JUMPI PUSH1 0x40 DUP1 MLOAD PUSH3 0x461BCD PUSH1 0xE5 SHL DUP2 MSTORE PUSH1 0x20 PUSH1 0x4 DUP3 ADD MSTORE PUSH1 0x1F PUSH1 0x24 DUP3 ADD MSTORE PUSH32 0x5265656E7472616E637947756172643A207265656E7472616E742063616C6C00 PUSH1 0x44 DUP3 ADD MSTORE SWAP1 MLOAD SWAP1 DUP2 SWAP1 SUB PUSH1 0x64 ADD SWAP1 REVERT JUMPDEST PUSH1 0x2 PUSH1 0x1 DUP2 SWAP1 SSTORE POP PUSH1 0x0 PUSH1 0x5 DUP3 DUP2 SLOAD DUP2 LT PUSH2 0x18FA JUMPI INVALID JUMPDEST PUSH1 0x0 SWAP2 DUP3 MSTORE PUSH1 0x20 DUP1 DUP4 KECCAK256 DUP6 DUP5 MSTORE PUSH1 0x6 DUP3 MSTORE PUSH1 0x40 DUP1 DUP6 KECCAK256 CALLER DUP7 MSTORE SWAP1 SWAP3 MSTORE SWAP1 DUP4 KECCAK256 DUP1 SLOAD DUP5 DUP3 SSTORE PUSH1 0x1 DUP3 ADD SWAP5 SWAP1 SWAP5 SSTORE PUSH1 0x5 SWAP1 SWAP3 MUL ADD SWAP3 POP SWAP1 DUP4 PUSH2 0x19BB JUMPI PUSH1 0x40 DUP1 MLOAD PUSH4 0x2770A7EB PUSH1 0xE2 SHL DUP2 MSTORE CALLER PUSH1 0x4 DUP3 ADD MSTORE PUSH1 0x24 DUP2 ADD DUP4 SWAP1 MSTORE SWAP1 MLOAD PUSH1 0x1 PUSH1 0x1 PUSH1 0xA0 SHL SUB PUSH32 0x0 AND SWAP2 PUSH4 0x9DC29FAC SWAP2 PUSH1 0x44 DUP1 DUP4 ADD SWAP3 PUSH1 0x0 SWAP3 SWAP2 SWAP1 DUP3 SWAP1 SUB ADD DUP2 DUP4 DUP8 DUP1 EXTCODESIZE ISZERO DUP1 ISZERO PUSH2 0x19A2 JUMPI PUSH1 0x0 DUP1 REVERT JUMPDEST POP GAS CALL ISZERO DUP1 ISZERO PUSH2 0x19B6 JUMPI RETURNDATASIZE PUSH1 0x0 DUP1 RETURNDATACOPY RETURNDATASIZE PUSH1 0x0 REVERT JUMPDEST POP POP POP POP JUMPDEST DUP3 SLOAD PUSH2 0x19D1 SWAP1 PUSH1 0x1 PUSH1 0x1 PUSH1 0xA0 SHL SUB AND CALLER DUP4 PUSH2 0x2A22 JUMP JUMPDEST DUP1 DUP4 PUSH1 0x4 ADD SLOAD LT PUSH2 0x19F5 JUMPI PUSH1 0x4 DUP4 ADD SLOAD PUSH2 0x19EB SWAP1 DUP3 PUSH2 0x2932 JUMP JUMPDEST PUSH1 0x4 DUP5 ADD SSTORE PUSH2 0x19FD JUMP JUMPDEST PUSH1 0x0 PUSH1 0x4 DUP5 ADD SSTORE JUMPDEST PUSH1 0x40 DUP1 MLOAD DUP3 DUP2 MSTORE SWAP1 MLOAD DUP6 SWAP2 CALLER SWAP2 PUSH32 0xBB757047C2B5F3974FE26B7C10F732E7BCE710B0952A71082702781E62AE0595 SWAP2 DUP2 SWAP1 SUB PUSH1 0x20 ADD SWAP1 LOG3 POP POP PUSH1 0x1 DUP1 SSTORE POP POP JUMP JUMPDEST PUSH1 0x0 DUP2 DUP4 GT ISZERO PUSH2 0x1A7F JUMPI PUSH1 0x40 MLOAD PUSH3 0x461BCD PUSH1 0xE5 SHL DUP2 MSTORE PUSH1 0x4 ADD DUP1 DUP1 PUSH1 0x20 ADD DUP3 DUP2 SUB DUP3 MSTORE PUSH1 0x35 DUP2 MSTORE PUSH1 0x20 ADD DUP1 PUSH2 0x30AD PUSH1 0x35 SWAP2 CODECOPY PUSH1 0x40 ADD SWAP2 POP POP PUSH1 0x40 MLOAD DUP1 SWAP2 SUB SWAP1 REVERT JUMPDEST PUSH1 0x8 SLOAD DUP4 LT ISZERO PUSH2 0x1AC0 JUMPI PUSH1 0x40 MLOAD PUSH3 0x461BCD PUSH1 0xE5 SHL DUP2 MSTORE PUSH1 0x4 ADD DUP1 DUP1 PUSH1 0x20 ADD DUP3 DUP2 SUB DUP3 MSTORE PUSH1 0x32 DUP2 MSTORE PUSH1 0x20 ADD DUP1 PUSH2 0x2FDC PUSH1 0x32 SWAP2 CODECOPY PUSH1 0x40 ADD SWAP2 POP POP PUSH1 0x40 MLOAD DUP1 SWAP2 SUB SWAP1 REVERT JUMPDEST PUSH1 0x0 DUP1 PUSH2 0x1ACC DUP6 PUSH2 0xABC JUMP JUMPDEST SWAP1 POP PUSH1 0x0 PUSH2 0x1AD9 DUP6 PUSH2 0xABC JUMP JUMPDEST SWAP1 POP JUMPDEST DUP1 DUP3 LT ISZERO PUSH2 0x1B46 JUMPI PUSH1 0x0 PUSH2 0x1B14 PUSH3 0x17FE80 PUSH2 0xB12 PUSH1 0x8 SLOAD PUSH2 0xB12 PUSH3 0x2FFD00 PUSH2 0x1B0E PUSH1 0x1 DUP11 PUSH2 0x2932 SWAP1 SWAP2 SWAP1 PUSH4 0xFFFFFFFF AND JUMP JUMPDEST SWAP1 PUSH2 0x2872 JUMP JUMPDEST SWAP1 POP PUSH2 0x1B36 PUSH2 0x1B2F PUSH2 0x1B25 DUP4 PUSH2 0x1E8F JUMP JUMPDEST PUSH2 0x1B0E DUP5 DUP12 PUSH2 0x2932 JUMP JUMPDEST DUP6 SWAP1 PUSH2 0x2AA7 JUMP JUMPDEST SWAP1 SWAP7 POP SWAP3 POP PUSH1 0x1 SWAP1 SWAP2 ADD SWAP1 PUSH2 0x1ADC JUMP JUMPDEST PUSH2 0x1B66 PUSH2 0x1B5F PUSH2 0x1B55 DUP8 PUSH2 0x1E8F JUMP JUMPDEST PUSH2 0x1B0E DUP9 DUP11 PUSH2 0x2932 JUMP JUMPDEST DUP5 SWAP1 PUSH2 0x2AA7 JUMP JUMPDEST SWAP7 SWAP6 POP POP POP POP POP POP JUMP JUMPDEST PUSH1 0x0 DUP2 ISZERO DUP1 PUSH2 0x1B7F JUMPI POP PUSH1 0x19 DUP3 GT JUMPDEST ISZERO PUSH2 0x1B8C JUMPI POP PUSH1 0x0 PUSH2 0xB24 JUMP JUMPDEST DUP2 PUSH1 0x1 EQ ISZERO PUSH2 0x1B9E JUMPI POP PUSH1 0x4 SLOAD PUSH2 0xB24 JUMP JUMPDEST PUSH2 0x1BDB PUSH2 0x1BAC DUP4 PUSH1 0x2 PUSH2 0x2932 JUMP JUMPDEST PUSH1 0x64 EXP PUSH2 0x975 PUSH2 0x1BBD DUP6 PUSH1 0x2 PUSH2 0x2932 JUMP JUMPDEST PUSH1 0x55 EXP PUSH2 0x1B0E PUSH1 0x64 PUSH2 0x975 PUSH1 0x4B PUSH1 0x4 SLOAD PUSH2 0x2872 SWAP1 SWAP2 SWAP1 PUSH4 0xFFFFFFFF AND JUMP JUMPDEST SWAP1 POP PUSH2 0xB24 JUMP JUMPDEST PUSH1 0x5 SLOAD PUSH1 0x0 JUMPDEST DUP2 DUP2 LT ISZERO PUSH2 0x1C01 JUMPI PUSH2 0x1BF9 DUP2 PUSH2 0x133A JUMP JUMPDEST PUSH1 0x1 ADD PUSH2 0x1BE8 JUMP JUMPDEST POP POP JUMP JUMPDEST PUSH2 0x1C0D PUSH2 0x286E JUMP JUMPDEST PUSH1 0x1 PUSH1 0x1 PUSH1 0xA0 SHL SUB AND PUSH2 0x1C1E PUSH2 0x1E38 JUMP JUMPDEST PUSH1 0x1 PUSH1 0x1 PUSH1 0xA0 SHL SUB AND EQ PUSH2 0x1C79 JUMPI PUSH1 0x40 DUP1 MLOAD PUSH3 0x461BCD PUSH1 0xE5 SHL DUP2 MSTORE PUSH1 0x20 PUSH1 0x4 DUP3 ADD DUP2 SWAP1 MSTORE PUSH1 0x24 DUP3 ADD MSTORE PUSH32 0x4F776E61626C653A2063616C6C6572206973206E6F7420746865206F776E6572 PUSH1 0x44 DUP3 ADD MSTORE SWAP1 MLOAD SWAP1 DUP2 SWAP1 SUB PUSH1 0x64 ADD SWAP1 REVERT JUMPDEST PUSH3 0x186A0 DUP3 GT ISZERO PUSH2 0x1CD1 JUMPI PUSH1 0x40 DUP1 MLOAD PUSH3 0x461BCD PUSH1 0xE5 SHL DUP2 MSTORE PUSH1 0x20 PUSH1 0x4 DUP3 ADD MSTORE PUSH1 0x14 PUSH1 0x24 DUP3 ADD MSTORE PUSH32 0x4D6173746572436865663A20216F7665726D6178000000000000000000000000 PUSH1 0x44 DUP3 ADD MSTORE SWAP1 MLOAD SWAP1 DUP2 SWAP1 SUB PUSH1 0x64 ADD SWAP1 REVERT JUMPDEST DUP1 ISZERO PUSH2 0x1CDF JUMPI PUSH2 0x1CDF PUSH2 0x1BE2 JUMP JUMPDEST PUSH1 0x0 PUSH1 0x5 DUP5 DUP2 SLOAD DUP2 LT PUSH2 0x1CEE JUMPI INVALID JUMPDEST SWAP1 PUSH1 0x0 MSTORE PUSH1 0x20 PUSH1 0x0 KECCAK256 SWAP1 PUSH1 0x5 MUL ADD PUSH1 0x1 ADD SLOAD SWAP1 POP DUP3 PUSH1 0x5 DUP6 DUP2 SLOAD DUP2 LT PUSH2 0x1D10 JUMPI INVALID JUMPDEST SWAP1 PUSH1 0x0 MSTORE PUSH1 0x20 PUSH1 0x0 KECCAK256 SWAP1 PUSH1 0x5 MUL ADD PUSH1 0x1 ADD DUP2 SWAP1 SSTORE POP DUP3 DUP2 EQ PUSH2 0x1884 JUMPI PUSH2 0x1D45 DUP4 PUSH2 0xB12 DUP4 PUSH1 0x7 SLOAD PUSH2 0x2932 SWAP1 SWAP2 SWAP1 PUSH4 0xFFFFFFFF AND JUMP JUMPDEST PUSH1 0x7 SSTORE PUSH2 0x1884 PUSH2 0x2B01 JUMP JUMPDEST PUSH32 0x0 DUP2 JUMP JUMPDEST PUSH2 0x1D7C PUSH2 0x286E JUMP JUMPDEST PUSH1 0x1 PUSH1 0x1 PUSH1 0xA0 SHL SUB AND PUSH2 0x1D8D PUSH2 0x1E38 JUMP JUMPDEST PUSH1 0x1 PUSH1 0x1 PUSH1 0xA0 SHL SUB AND EQ PUSH2 0x1DE8 JUMPI PUSH1 0x40 DUP1 MLOAD PUSH3 0x461BCD PUSH1 0xE5 SHL DUP2 MSTORE PUSH1 0x20 PUSH1 0x4 DUP3 ADD DUP2 SWAP1 MSTORE PUSH1 0x24 DUP3 ADD MSTORE PUSH32 0x4F776E61626C653A2063616C6C6572206973206E6F7420746865206F776E6572 PUSH1 0x44 DUP3 ADD MSTORE SWAP1 MLOAD SWAP1 DUP2 SWAP1 SUB PUSH1 0x64 ADD SWAP1 REVERT JUMPDEST PUSH1 0x0 DUP1 SLOAD PUSH1 0x40 MLOAD PUSH1 0x1 PUSH1 0x1 PUSH1 0xA0 SHL SUB SWAP1 SWAP2 AND SWAP1 PUSH32 0x8BE0079C531659141344CD1FD0A4F28419497F9722A3DAAFE3B4186F6B6457E0 SWAP1 DUP4 SWAP1 LOG3 PUSH1 0x0 DUP1 SLOAD PUSH1 0x1 PUSH1 0x1 PUSH1 0xA0 SHL SUB NOT AND SWAP1 SSTORE JUMP JUMPDEST PUSH1 0x4 SLOAD DUP2 JUMP JUMPDEST PUSH1 0x0 SLOAD PUSH1 0x1 PUSH1 0x1 PUSH1 0xA0 SHL SUB AND SWAP1 JUMP JUMPDEST PUSH1 0x6 PUSH1 0x20 SWAP1 DUP2 MSTORE PUSH1 0x0 SWAP3 DUP4 MSTORE PUSH1 0x40 DUP1 DUP5 KECCAK256 SWAP1 SWAP2 MSTORE SWAP1 DUP3 MSTORE SWAP1 KECCAK256 DUP1 SLOAD PUSH1 0x1 SWAP1 SWAP2 ADD SLOAD DUP3 JUMP JUMPDEST PUSH32 0x0 DUP2 JUMP JUMPDEST PUSH1 0x0 DUP1 PUSH2 0x1E9B DUP4 PUSH2 0xABC JUMP JUMPDEST SWAP1 POP PUSH2 0x1EA6 DUP2 PUSH2 0x1B70 JUMP JUMPDEST SWAP4 SWAP3 POP POP POP JUMP JUMPDEST PUSH1 0x0 PUSH2 0xEB9 NUMBER PUSH2 0xABC JUMP JUMPDEST PUSH3 0x2FFD00 DUP2 JUMP JUMPDEST PUSH1 0x2 SLOAD PUSH1 0x1 PUSH1 0x1 PUSH1 0xA0 SHL SUB AND CALLER EQ PUSH2 0x1F08 JUMPI PUSH1 0x40 MLOAD PUSH3 0x461BCD PUSH1 0xE5 SHL DUP2 MSTORE PUSH1 0x4 ADD DUP1 DUP1 PUSH1 0x20 ADD DUP3 DUP2 SUB DUP3 MSTORE PUSH1 0x2E DUP2 MSTORE PUSH1 0x20 ADD DUP1 PUSH2 0x2F63 PUSH1 0x2E SWAP2 CODECOPY PUSH1 0x40 ADD SWAP2 POP POP PUSH1 0x40 MLOAD DUP1 SWAP2 SUB SWAP1 REVERT JUMPDEST PUSH32 0x0 PUSH1 0x1 PUSH1 0x1 PUSH1 0xA0 SHL SUB AND PUSH4 0xF2FDE38B DUP3 PUSH1 0x40 MLOAD DUP3 PUSH4 0xFFFFFFFF AND PUSH1 0xE0 SHL DUP2 MSTORE PUSH1 0x4 ADD DUP1 DUP3 PUSH1 0x1 PUSH1 0x1 PUSH1 0xA0 SHL SUB AND DUP2 MSTORE PUSH1 0x20 ADD SWAP2 POP POP PUSH1 0x0 PUSH1 0x40 MLOAD DUP1 DUP4 SUB DUP2 PUSH1 0x0 DUP8 DUP1 EXTCODESIZE ISZERO DUP1 ISZERO PUSH2 0x1F77 JUMPI PUSH1 0x0 DUP1 REVERT JUMPDEST POP GAS CALL ISZERO DUP1 ISZERO PUSH2 0x1F8B JUMPI RETURNDATASIZE PUSH1 0x0 DUP1 RETURNDATACOPY RETURNDATASIZE PUSH1 0x0 REVERT JUMPDEST POP POP PUSH1 0x40 MLOAD PUSH1 0x1 PUSH1 0x1 PUSH1 0xA0 SHL SUB DUP5 AND SWAP3 POP CALLER SWAP2 POP PUSH32 0xA860724F603A0E186A7B16740CA3C96B8457A2329BC4126C8DB7490DE85AF99A SWAP1 PUSH1 0x0 SWAP1 LOG3 POP JUMP JUMPDEST PUSH1 0x9 PUSH1 0x20 MSTORE PUSH1 0x0 SWAP1 DUP2 MSTORE PUSH1 0x40 SWAP1 KECCAK256 SLOAD PUSH1 0xFF AND DUP2 JUMP JUMPDEST PUSH1 0x1 PUSH1 0x1 PUSH1 0xA0 SHL SUB DUP2 AND PUSH2 0x2038 JUMPI PUSH1 0x40 DUP1 MLOAD PUSH3 0x461BCD PUSH1 0xE5 SHL DUP2 MSTORE PUSH1 0x20 PUSH1 0x4 DUP3 ADD MSTORE PUSH1 0x13 PUSH1 0x24 DUP3 ADD MSTORE PUSH32 0x4D6173746572436865663A216E6F6E7A65726F00000000000000000000000000 PUSH1 0x44 DUP3 ADD MSTORE SWAP1 MLOAD SWAP1 DUP2 SWAP1 SUB PUSH1 0x64 ADD SWAP1 REVERT JUMPDEST PUSH1 0x3 SLOAD PUSH1 0x1 PUSH1 0x1 PUSH1 0xA0 SHL SUB AND CALLER EQ PUSH2 0x2081 JUMPI PUSH1 0x40 MLOAD PUSH3 0x461BCD PUSH1 0xE5 SHL DUP2 MSTORE PUSH1 0x4 ADD DUP1 DUP1 PUSH1 0x20 ADD DUP3 DUP2 SUB DUP3 MSTORE PUSH1 0x2A DUP2 MSTORE PUSH1 0x20 ADD DUP1 PUSH2 0x300E PUSH1 0x2A SWAP2 CODECOPY PUSH1 0x40 ADD SWAP2 POP POP PUSH1 0x40 MLOAD DUP1 SWAP2 SUB SWAP1 REVERT JUMPDEST PUSH1 0x3 DUP1 SLOAD PUSH1 0x1 PUSH1 0x1 PUSH1 0xA0 SHL SUB NOT AND PUSH1 0x1 PUSH1 0x1 PUSH1 0xA0 SHL SUB SWAP3 SWAP1 SWAP3 AND SWAP2 SWAP1 SWAP2 OR SWAP1 SSTORE JUMP JUMPDEST PUSH1 0x3 SLOAD PUSH1 0x1 PUSH1 0x1 PUSH1 0xA0 SHL SUB AND DUP2 JUMP JUMPDEST PUSH1 0x0 DUP1 PUSH1 0x5 DUP5 DUP2 SLOAD DUP2 LT PUSH2 0x20C2 JUMPI INVALID JUMPDEST PUSH1 0x0 SWAP2 DUP3 MSTORE PUSH1 0x20 DUP1 DUP4 KECCAK256 DUP8 DUP5 MSTORE PUSH1 0x6 DUP3 MSTORE PUSH1 0x40 DUP1 DUP6 KECCAK256 PUSH1 0x1 PUSH1 0x1 PUSH1 0xA0 SHL SUB DUP10 AND DUP7 MSTORE SWAP1 SWAP3 MSTORE SWAP3 KECCAK256 PUSH1 0x3 PUSH1 0x5 SWAP1 SWAP3 MUL SWAP1 SWAP3 ADD SWAP1 DUP2 ADD SLOAD PUSH1 0x2 DUP3 ADD SLOAD SWAP2 SWAP4 POP SWAP1 NUMBER GT DUP1 ISZERO PUSH2 0x2111 JUMPI POP PUSH1 0x4 DUP4 ADD SLOAD ISZERO ISZERO JUMPDEST DUP1 ISZERO PUSH2 0x211F JUMPI POP PUSH1 0x0 PUSH1 0x7 SLOAD GT JUMPDEST ISZERO PUSH2 0x228A JUMPI PUSH1 0x0 PUSH2 0x2133 DUP5 PUSH1 0x2 ADD SLOAD PUSH2 0x131B JUMP JUMPDEST SWAP1 POP PUSH32 0x0 PUSH1 0x1 PUSH1 0x1 PUSH1 0xA0 SHL SUB AND PUSH4 0x5DB30BB1 PUSH1 0x40 MLOAD DUP2 PUSH4 0xFFFFFFFF AND PUSH1 0xE0 SHL DUP2 MSTORE PUSH1 0x4 ADD PUSH1 0x20 PUSH1 0x40 MLOAD DUP1 DUP4 SUB DUP2 DUP7 DUP1 EXTCODESIZE ISZERO DUP1 ISZERO PUSH2 0x218E JUMPI PUSH1 0x0 DUP1 REVERT JUMPDEST POP GAS STATICCALL ISZERO DUP1 ISZERO PUSH2 0x21A2 JUMPI RETURNDATASIZE PUSH1 0x0 DUP1 RETURNDATACOPY RETURNDATASIZE PUSH1 0x0 REVERT JUMPDEST POP POP POP POP PUSH1 0x40 MLOAD RETURNDATASIZE PUSH1 0x20 DUP2 LT ISZERO PUSH2 0x21B8 JUMPI PUSH1 0x0 DUP1 REVERT JUMPDEST POP MLOAD PUSH1 0x40 DUP1 MLOAD PUSH4 0x18160DDD PUSH1 0xE0 SHL DUP2 MSTORE SWAP1 MLOAD PUSH2 0x2220 SWAP2 DUP5 SWAP2 PUSH1 0x1 PUSH1 0x1 PUSH1 0xA0 SHL SUB PUSH32 0x0 AND SWAP2 PUSH4 0x18160DDD SWAP2 PUSH1 0x4 DUP1 DUP4 ADD SWAP3 PUSH1 0x20 SWAP3 SWAP2 SWAP1 DUP3 SWAP1 SUB ADD DUP2 DUP7 DUP1 EXTCODESIZE ISZERO DUP1 ISZERO PUSH2 0x14AB JUMPI PUSH1 0x0 DUP1 REVERT JUMPDEST LT ISZERO PUSH2 0x2288 JUMPI PUSH1 0x0 PUSH2 0x2245 PUSH1 0x7 SLOAD PUSH2 0x975 DUP8 PUSH1 0x1 ADD SLOAD DUP6 PUSH2 0x2872 SWAP1 SWAP2 SWAP1 PUSH4 0xFFFFFFFF AND JUMP JUMPDEST SWAP1 POP PUSH1 0x0 PUSH2 0x225B PUSH2 0x3E8 PUSH2 0x975 DUP5 PUSH2 0x28A PUSH2 0x2872 JUMP JUMPDEST SWAP1 POP PUSH2 0x2283 PUSH2 0x1B2F DUP8 PUSH1 0x4 ADD SLOAD PUSH2 0x975 PUSH8 0xDE0B6B3A7640000 DUP6 PUSH2 0x2872 SWAP1 SWAP2 SWAP1 PUSH4 0xFFFFFFFF AND JUMP JUMPDEST SWAP4 POP POP POP JUMPDEST POP JUMPDEST PUSH2 0x1B66 DUP3 PUSH1 0x1 ADD SLOAD PUSH2 0x97B PUSH8 0xDE0B6B3A7640000 PUSH2 0x975 DUP6 DUP8 PUSH1 0x0 ADD SLOAD PUSH2 0x2872 SWAP1 SWAP2 SWAP1 PUSH4 0xFFFFFFFF AND JUMP JUMPDEST PUSH1 0x2 PUSH1 0x1 SLOAD EQ ISZERO PUSH2 0x230D JUMPI PUSH1 0x40 DUP1 MLOAD PUSH3 0x461BCD PUSH1 0xE5 SHL DUP2 MSTORE PUSH1 0x20 PUSH1 0x4 DUP3 ADD MSTORE PUSH1 0x1F PUSH1 0x24 DUP3 ADD MSTORE PUSH32 0x5265656E7472616E637947756172643A207265656E7472616E742063616C6C00 PUSH1 0x44 DUP3 ADD MSTORE SWAP1 MLOAD SWAP1 DUP2 SWAP1 SUB PUSH1 0x64 ADD SWAP1 REVERT JUMPDEST PUSH1 0x2 PUSH1 0x1 SSTORE DUP2 PUSH2 0x234E JUMPI PUSH1 0x40 MLOAD PUSH3 0x461BCD PUSH1 0xE5 SHL DUP2 MSTORE PUSH1 0x4 ADD DUP1 DUP1 PUSH1 0x20 ADD DUP3 DUP2 SUB DUP3 MSTORE PUSH1 0x24 DUP2 MSTORE PUSH1 0x20 ADD DUP1 PUSH2 0x2F19 PUSH1 0x24 SWAP2 CODECOPY PUSH1 0x40 ADD SWAP2 POP POP PUSH1 0x40 MLOAD DUP1 SWAP2 SUB SWAP1 REVERT JUMPDEST PUSH1 0x0 PUSH1 0x5 DUP4 DUP2 SLOAD DUP2 LT PUSH2 0x235D JUMPI INVALID JUMPDEST PUSH1 0x0 SWAP2 DUP3 MSTORE PUSH1 0x20 DUP1 DUP4 KECCAK256 DUP7 DUP5 MSTORE PUSH1 0x6 DUP3 MSTORE PUSH1 0x40 DUP1 DUP6 KECCAK256 CALLER DUP7 MSTORE SWAP1 SWAP3 MSTORE SWAP3 KECCAK256 PUSH1 0x5 SWAP1 SWAP2 MUL SWAP1 SWAP2 ADD SWAP2 POP PUSH2 0x238E DUP5 PUSH2 0x133A JUMP JUMPDEST DUP1 SLOAD ISZERO PUSH2 0x23DA JUMPI PUSH1 0x0 PUSH2 0x23C6 DUP3 PUSH1 0x1 ADD SLOAD PUSH2 0x97B PUSH8 0xDE0B6B3A7640000 PUSH2 0x975 DUP8 PUSH1 0x3 ADD SLOAD DUP8 PUSH1 0x0 ADD SLOAD PUSH2 0x2872 SWAP1 SWAP2 SWAP1 PUSH4 0xFFFFFFFF AND JUMP JUMPDEST SWAP1 POP DUP1 ISZERO PUSH2 0x23D8 JUMPI PUSH2 0x23D8 CALLER DUP3 PUSH2 0x298F JUMP JUMPDEST POP JUMPDEST DUP3 ISZERO PUSH2 0x2525 JUMPI DUP2 SLOAD PUSH1 0x40 DUP1 MLOAD PUSH4 0x70A08231 PUSH1 0xE0 SHL DUP2 MSTORE ADDRESS PUSH1 0x4 DUP3 ADD MSTORE SWAP1 MLOAD PUSH1 0x0 SWAP3 PUSH1 0x1 PUSH1 0x1 PUSH1 0xA0 SHL SUB AND SWAP2 PUSH4 0x70A08231 SWAP2 PUSH1 0x24 DUP1 DUP4 ADD SWAP3 PUSH1 0x20 SWAP3 SWAP2 SWAP1 DUP3 SWAP1 SUB ADD DUP2 DUP7 DUP1 EXTCODESIZE ISZERO DUP1 ISZERO PUSH2 0x242A JUMPI PUSH1 0x0 DUP1 REVERT JUMPDEST POP GAS STATICCALL ISZERO DUP1 ISZERO PUSH2 0x243E JUMPI RETURNDATASIZE PUSH1 0x0 DUP1 RETURNDATACOPY RETURNDATASIZE PUSH1 0x0 REVERT JUMPDEST POP POP POP POP PUSH1 0x40 MLOAD RETURNDATASIZE PUSH1 0x20 DUP2 LT ISZERO PUSH2 0x2454 JUMPI PUSH1 0x0 DUP1 REVERT JUMPDEST POP MLOAD DUP4 SLOAD SWAP1 SWAP2 POP PUSH2 0x2470 SWAP1 PUSH1 0x1 PUSH1 0x1 PUSH1 0xA0 SHL SUB AND CALLER ADDRESS DUP8 PUSH2 0x2BC6 JUMP JUMPDEST DUP3 SLOAD PUSH1 0x40 DUP1 MLOAD PUSH4 0x70A08231 PUSH1 0xE0 SHL DUP2 MSTORE ADDRESS PUSH1 0x4 DUP3 ADD MSTORE SWAP1 MLOAD PUSH2 0x24C0 SWAP3 DUP5 SWAP3 PUSH1 0x1 PUSH1 0x1 PUSH1 0xA0 SHL SUB SWAP1 SWAP2 AND SWAP2 PUSH4 0x70A08231 SWAP2 PUSH1 0x24 DUP1 DUP3 ADD SWAP3 PUSH1 0x20 SWAP3 SWAP1 SWAP2 SWAP1 DUP3 SWAP1 SUB ADD DUP2 DUP7 DUP1 EXTCODESIZE ISZERO DUP1 ISZERO PUSH2 0x15E4 JUMPI PUSH1 0x0 DUP1 REVERT JUMPDEST SWAP4 POP PUSH1 0x0 DUP5 GT PUSH2 0x2501 JUMPI PUSH1 0x40 MLOAD PUSH3 0x461BCD PUSH1 0xE5 SHL DUP2 MSTORE PUSH1 0x4 ADD DUP1 DUP1 PUSH1 0x20 ADD DUP3 DUP2 SUB DUP3 MSTORE PUSH1 0x2D DUP2 MSTORE PUSH1 0x20 ADD DUP1 PUSH2 0x3038 PUSH1 0x2D SWAP2 CODECOPY PUSH1 0x40 ADD SWAP2 POP POP PUSH1 0x40 MLOAD DUP1 SWAP2 SUB SWAP1 REVERT JUMPDEST DUP2 SLOAD PUSH2 0x250D SWAP1 DUP6 PUSH2 0x2AA7 JUMP JUMPDEST DUP3 SSTORE PUSH1 0x4 DUP4 ADD SLOAD PUSH2 0x251E SWAP1 DUP6 PUSH2 0x2AA7 JUMP JUMPDEST PUSH1 0x4 DUP5 ADD SSTORE POP JUMPDEST PUSH1 0x3 DUP3 ADD SLOAD DUP2 SLOAD PUSH2 0x2543 SWAP2 PUSH8 0xDE0B6B3A7640000 SWAP2 PUSH2 0x975 SWAP2 PUSH2 0x2872 JUMP JUMPDEST PUSH1 0x1 DUP3 ADD SSTORE PUSH1 0x40 DUP1 MLOAD DUP5 DUP2 MSTORE SWAP1 MLOAD DUP6 SWAP2 CALLER SWAP2 PUSH32 0x90890809C654F11D6E72A28FA60149770A0D11EC6C92319D6CEB2BB0A4EA1A15 SWAP2 DUP2 SWAP1 SUB PUSH1 0x20 ADD SWAP1 LOG3 POP POP PUSH1 0x1 DUP1 SSTORE POP POP JUMP JUMPDEST PUSH1 0x2 SLOAD PUSH1 0x1 PUSH1 0x1 PUSH1 0xA0 SHL SUB AND CALLER EQ PUSH2 0x25D2 JUMPI PUSH1 0x40 MLOAD PUSH3 0x461BCD PUSH1 0xE5 SHL DUP2 MSTORE PUSH1 0x4 ADD DUP1 DUP1 PUSH1 0x20 ADD DUP3 DUP2 SUB DUP3 MSTORE PUSH1 0x2E DUP2 MSTORE PUSH1 0x20 ADD DUP1 PUSH2 0x30E2 PUSH1 0x2E SWAP2 CODECOPY PUSH1 0x40 ADD SWAP2 POP POP PUSH1 0x40 MLOAD DUP1 SWAP2 SUB SWAP1 REVERT JUMPDEST PUSH1 0x2 DUP1 SLOAD PUSH1 0x1 PUSH1 0x1 PUSH1 0xA0 SHL SUB NOT AND PUSH1 0x1 PUSH1 0x1 PUSH1 0xA0 SHL SUB DUP4 AND SWAP1 DUP2 OR SWAP1 SWAP2 SSTORE PUSH1 0x40 MLOAD CALLER SWAP1 PUSH32 0x5CD2081D2AE057C10DB58AF06A3447337403B9D888774EB5AE1EB629AFE83AE1 SWAP1 PUSH1 0x0 SWAP1 LOG3 POP JUMP JUMPDEST PUSH2 0x2626 PUSH2 0x286E JUMP JUMPDEST PUSH1 0x1 PUSH1 0x1 PUSH1 0xA0 SHL SUB AND PUSH2 0x2637 PUSH2 0x1E38 JUMP JUMPDEST PUSH1 0x1 PUSH1 0x1 PUSH1 0xA0 SHL SUB AND EQ PUSH2 0x2692 JUMPI PUSH1 0x40 DUP1 MLOAD PUSH3 0x461BCD PUSH1 0xE5 SHL DUP2 MSTORE PUSH1 0x20 PUSH1 0x4 DUP3 ADD DUP2 SWAP1 MSTORE PUSH1 0x24 DUP3 ADD MSTORE PUSH32 0x4F776E61626C653A2063616C6C6572206973206E6F7420746865206F776E6572 PUSH1 0x44 DUP3 ADD MSTORE SWAP1 MLOAD SWAP1 DUP2 SWAP1 SUB PUSH1 0x64 ADD SWAP1 REVERT JUMPDEST PUSH1 0x1 PUSH1 0x1 PUSH1 0xA0 SHL SUB DUP2 AND PUSH2 0x26D7 JUMPI PUSH1 0x40 MLOAD PUSH3 0x461BCD PUSH1 0xE5 SHL DUP2 MSTORE PUSH1 0x4 ADD DUP1 DUP1 PUSH1 0x20 ADD DUP3 DUP2 SUB DUP3 MSTORE PUSH1 0x26 DUP2 MSTORE PUSH1 0x20 ADD DUP1 PUSH2 0x2F3D PUSH1 0x26 SWAP2 CODECOPY PUSH1 0x40 ADD SWAP2 POP POP PUSH1 0x40 MLOAD DUP1 SWAP2 SUB SWAP1 REVERT JUMPDEST PUSH1 0x0 DUP1 SLOAD PUSH1 0x40 MLOAD PUSH1 0x1 PUSH1 0x1 PUSH1 0xA0 SHL SUB DUP1 DUP6 AND SWAP4 SWAP3 AND SWAP2 PUSH32 0x8BE0079C531659141344CD1FD0A4F28419497F9722A3DAAFE3B4186F6B6457E0 SWAP2 LOG3 PUSH1 0x0 DUP1 SLOAD PUSH1 0x1 PUSH1 0x1 PUSH1 0xA0 SHL SUB NOT AND PUSH1 0x1 PUSH1 0x1 PUSH1 0xA0 SHL SUB SWAP3 SWAP1 SWAP3 AND SWAP2 SWAP1 SWAP2 OR SWAP1 SSTORE JUMP JUMPDEST PUSH2 0x273A PUSH2 0x286E JUMP JUMPDEST PUSH1 0x1 PUSH1 0x1 PUSH1 0xA0 SHL SUB AND PUSH2 0x274B PUSH2 0x1E38 JUMP JUMPDEST PUSH1 0x1 PUSH1 0x1 PUSH1 0xA0 SHL SUB AND EQ PUSH2 0x27A6 JUMPI PUSH1 0x40 DUP1 MLOAD PUSH3 0x461BCD PUSH1 0xE5 SHL DUP2 MSTORE PUSH1 0x20 PUSH1 0x4 DUP3 ADD DUP2 SWAP1 MSTORE PUSH1 0x24 DUP3 ADD MSTORE PUSH32 0x4F776E61626C653A2063616C6C6572206973206E6F7420746865206F776E6572 PUSH1 0x44 DUP3 ADD MSTORE SWAP1 MLOAD SWAP1 DUP2 SWAP1 SUB PUSH1 0x64 ADD SWAP1 REVERT JUMPDEST PUSH1 0x8 SLOAD NUMBER LT PUSH2 0x27E6 JUMPI PUSH1 0x40 MLOAD PUSH3 0x461BCD PUSH1 0xE5 SHL DUP2 MSTORE PUSH1 0x4 ADD DUP1 DUP1 PUSH1 0x20 ADD DUP3 DUP2 SUB DUP3 MSTORE PUSH1 0x41 DUP2 MSTORE PUSH1 0x20 ADD DUP1 PUSH2 0x3110 PUSH1 0x41 SWAP2 CODECOPY PUSH1 0x60 ADD SWAP2 POP POP PUSH1 0x40 MLOAD DUP1 SWAP2 SUB SWAP1 REVERT JUMPDEST DUP1 NUMBER LT PUSH2 0x2824 JUMPI PUSH1 0x40 MLOAD PUSH3 0x461BCD PUSH1 0xE5 SHL DUP2 MSTORE PUSH1 0x4 ADD DUP1 DUP1 PUSH1 0x20 ADD DUP3 DUP2 SUB DUP3 MSTORE PUSH1 0x2E DUP2 MSTORE PUSH1 0x20 ADD DUP1 PUSH2 0x317B PUSH1 0x2E SWAP2 CODECOPY PUSH1 0x40 ADD SWAP2 POP POP PUSH1 0x40 MLOAD DUP1 SWAP2 SUB SWAP1 REVERT JUMPDEST PUSH1 0x5 SLOAD PUSH1 0x0 JUMPDEST DUP2 DUP2 LT ISZERO PUSH2 0x2860 JUMPI PUSH1 0x0 PUSH1 0x5 DUP3 DUP2 SLOAD DUP2 LT PUSH2 0x2841 JUMPI INVALID JUMPDEST PUSH1 0x0 SWAP2 DUP3 MSTORE PUSH1 0x20 SWAP1 SWAP2 KECCAK256 PUSH1 0x2 PUSH1 0x5 SWAP1 SWAP3 MUL ADD ADD DUP5 SWAP1 SSTORE POP PUSH1 0x1 ADD PUSH2 0x282A JUMP JUMPDEST POP POP PUSH1 0x8 SSTORE JUMP JUMPDEST PUSH3 0x186A0 DUP2 JUMP JUMPDEST CALLER SWAP1 JUMP JUMPDEST PUSH1 0x0 DUP3 PUSH2 0x2881 JUMPI POP PUSH1 0x0 PUSH2 0x1327 JUMP JUMPDEST DUP3 DUP3 MUL DUP3 DUP5 DUP3 DUP2 PUSH2 0x288E JUMPI INVALID JUMPDEST DIV EQ PUSH2 0x1EA6 JUMPI PUSH1 0x40 MLOAD PUSH3 0x461BCD PUSH1 0xE5 SHL DUP2 MSTORE PUSH1 0x4 ADD DUP1 DUP1 PUSH1 0x20 ADD DUP3 DUP2 SUB DUP3 MSTORE PUSH1 0x21 DUP2 MSTORE PUSH1 0x20 ADD DUP1 PUSH2 0x3065 PUSH1 0x21 SWAP2 CODECOPY PUSH1 0x40 ADD SWAP2 POP POP PUSH1 0x40 MLOAD DUP1 SWAP2 SUB SWAP1 REVERT JUMPDEST PUSH1 0x0 DUP1 DUP3 GT PUSH2 0x2921 JUMPI PUSH1 0x40 DUP1 MLOAD PUSH3 0x461BCD PUSH1 0xE5 SHL DUP2 MSTORE PUSH1 0x20 PUSH1 0x4 DUP3 ADD MSTORE PUSH1 0x1A PUSH1 0x24 DUP3 ADD MSTORE PUSH32 0x536166654D6174683A206469766973696F6E206279207A65726F000000000000 PUSH1 0x44 DUP3 ADD MSTORE SWAP1 MLOAD SWAP1 DUP2 SWAP1 SUB PUSH1 0x64 ADD SWAP1 REVERT JUMPDEST DUP2 DUP4 DUP2 PUSH2 0x292A JUMPI INVALID JUMPDEST DIV SWAP4 SWAP3 POP POP POP JUMP JUMPDEST PUSH1 0x0 DUP3 DUP3 GT ISZERO PUSH2 0x2989 JUMPI PUSH1 0x40 DUP1 MLOAD PUSH3 0x461BCD PUSH1 0xE5 SHL DUP2 MSTORE PUSH1 0x20 PUSH1 0x4 DUP3 ADD MSTORE PUSH1 0x1E PUSH1 0x24 DUP3 ADD MSTORE PUSH32 0x536166654D6174683A207375627472616374696F6E206F766572666C6F770000 PUSH1 0x44 DUP3 ADD MSTORE SWAP1 MLOAD SWAP1 DUP2 SWAP1 SUB PUSH1 0x64 ADD SWAP1 REVERT JUMPDEST POP SWAP1 SUB SWAP1 JUMP JUMPDEST PUSH32 0x0 PUSH1 0x1 PUSH1 0x1 PUSH1 0xA0 SHL SUB AND PUSH4 0xB918BE3C DUP4 DUP4 PUSH1 0x40 MLOAD DUP4 PUSH4 0xFFFFFFFF AND PUSH1 0xE0 SHL DUP2 MSTORE PUSH1 0x4 ADD DUP1 DUP4 PUSH1 0x1 PUSH1 0x1 PUSH1 0xA0 SHL SUB AND DUP2 MSTORE PUSH1 0x20 ADD DUP3 DUP2 MSTORE PUSH1 0x20 ADD SWAP3 POP POP POP PUSH1 0x0 PUSH1 0x40 MLOAD DUP1 DUP4 SUB DUP2 PUSH1 0x0 DUP8 DUP1 EXTCODESIZE ISZERO DUP1 ISZERO PUSH2 0x2A06 JUMPI PUSH1 0x0 DUP1 REVERT JUMPDEST POP GAS CALL ISZERO DUP1 ISZERO PUSH2 0x2A1A JUMPI RETURNDATASIZE PUSH1 0x0 DUP1 RETURNDATACOPY RETURNDATASIZE PUSH1 0x0 REVERT JUMPDEST POP POP POP POP POP POP JUMP JUMPDEST PUSH1 0x40 DUP1 MLOAD PUSH1 0x1 PUSH1 0x1 PUSH1 0xA0 SHL SUB DUP5 AND PUSH1 0x24 DUP3 ADD MSTORE PUSH1 0x44 DUP1 DUP3 ADD DUP5 SWAP1 MSTORE DUP3 MLOAD DUP1 DUP4 SUB SWAP1 SWAP2 ADD DUP2 MSTORE PUSH1 0x64 SWAP1 SWAP2 ADD SWAP1 SWAP2 MSTORE PUSH1 0x20 DUP2 ADD DUP1 MLOAD PUSH28 0xFFFFFFFFFFFFFFFFFFFFFFFFFFFFFFFFFFFFFFFFFFFFFFFFFFFFFFFF AND PUSH32 0xA9059CBB00000000000000000000000000000000000000000000000000000000 OR SWAP1 MSTORE PUSH2 0x2AA2 SWAP1 DUP5 SWAP1 PUSH2 0x2C4A JUMP JUMPDEST POP POP POP JUMP JUMPDEST PUSH1 0x0 DUP3 DUP3 ADD DUP4 DUP2 LT ISZERO PUSH2 0x1EA6 JUMPI PUSH1 0x40 DUP1 MLOAD PUSH3 0x461BCD PUSH1 0xE5 SHL DUP2 MSTORE PUSH1 0x20 PUSH1 0x4 DUP3 ADD MSTORE PUSH1 0x1B PUSH1 0x24 DUP3 ADD MSTORE PUSH32 0x536166654D6174683A206164646974696F6E206F766572666C6F770000000000 PUSH1 0x44 DUP3 ADD MSTORE SWAP1 MLOAD SWAP1 DUP2 SWAP1 SUB PUSH1 0x64 ADD SWAP1 REVERT JUMPDEST PUSH1 0x5 SLOAD PUSH1 0x0 PUSH1 0x1 JUMPDEST DUP3 DUP2 LT ISZERO PUSH2 0x2B4C JUMPI PUSH2 0x2B42 PUSH1 0x5 DUP3 DUP2 SLOAD DUP2 LT PUSH2 0x2B21 JUMPI INVALID JUMPDEST SWAP1 PUSH1 0x0 MSTORE PUSH1 0x20 PUSH1 0x0 KECCAK256 SWAP1 PUSH1 0x5 MUL ADD PUSH1 0x1 ADD SLOAD DUP4 PUSH2 0x2AA7 SWAP1 SWAP2 SWAP1 PUSH4 0xFFFFFFFF AND JUMP JUMPDEST SWAP2 POP PUSH1 0x1 ADD PUSH2 0x2B09 JUMP JUMPDEST POP DUP1 ISZERO PUSH2 0x1C01 JUMPI PUSH2 0x2B5E DUP2 PUSH1 0x3 PUSH2 0x28CB JUMP JUMPDEST SWAP1 POP PUSH2 0x2B98 DUP2 PUSH2 0xB12 PUSH1 0x5 PUSH1 0x0 DUP2 SLOAD DUP2 LT PUSH2 0x2B75 JUMPI INVALID JUMPDEST SWAP1 PUSH1 0x0 MSTORE PUSH1 0x20 PUSH1 0x0 KECCAK256 SWAP1 PUSH1 0x5 MUL ADD PUSH1 0x1 ADD SLOAD PUSH1 0x7 SLOAD PUSH2 0x2932 SWAP1 SWAP2 SWAP1 PUSH4 0xFFFFFFFF AND JUMP JUMPDEST PUSH1 0x7 DUP2 SWAP1 SSTORE POP DUP1 PUSH1 0x5 PUSH1 0x0 DUP2 SLOAD DUP2 LT PUSH2 0x2BAD JUMPI INVALID JUMPDEST SWAP1 PUSH1 0x0 MSTORE PUSH1 0x20 PUSH1 0x0 KECCAK256 SWAP1 PUSH1 0x5 MUL ADD PUSH1 0x1 ADD DUP2 SWAP1 SSTORE POP POP POP JUMP JUMPDEST PUSH1 0x40 DUP1 MLOAD PUSH1 0x1 PUSH1 0x1 PUSH1 0xA0 SHL SUB DUP1 DUP7 AND PUSH1 0x24 DUP4 ADD MSTORE DUP5 AND PUSH1 0x44 DUP3 ADD MSTORE PUSH1 0x64 DUP1 DUP3 ADD DUP5 SWAP1 MSTORE DUP3 MLOAD DUP1 DUP4 SUB SWAP1 SWAP2 ADD DUP2 MSTORE PUSH1 0x84 SWAP1 SWAP2 ADD SWAP1 SWAP2 MSTORE PUSH1 0x20 DUP2 ADD DUP1 MLOAD PUSH28 0xFFFFFFFFFFFFFFFFFFFFFFFFFFFFFFFFFFFFFFFFFFFFFFFFFFFFFFFF AND PUSH32 0x23B872DD00000000000000000000000000000000000000000000000000000000 OR SWAP1 MSTORE PUSH2 0x1884 SWAP1 DUP6 SWAP1 JUMPDEST PUSH1 0x60 PUSH2 0x2C9F DUP3 PUSH1 0x40 MLOAD DUP1 PUSH1 0x40 ADD PUSH1 0x40 MSTORE DUP1 PUSH1 0x20 DUP2 MSTORE PUSH1 0x20 ADD PUSH32 0x5361666545524332303A206C6F772D6C6576656C2063616C6C206661696C6564 DUP2 MSTORE POP DUP6 PUSH1 0x1 PUSH1 0x1 PUSH1 0xA0 SHL SUB AND PUSH2 0x2CFB SWAP1 SWAP3 SWAP2 SWAP1 PUSH4 0xFFFFFFFF AND JUMP JUMPDEST DUP1 MLOAD SWAP1 SWAP2 POP ISZERO PUSH2 0x2AA2 JUMPI DUP1 DUP1 PUSH1 0x20 ADD SWAP1 MLOAD PUSH1 0x20 DUP2 LT ISZERO PUSH2 0x2CBE JUMPI PUSH1 0x0 DUP1 REVERT JUMPDEST POP MLOAD PUSH2 0x2AA2 JUMPI PUSH1 0x40 MLOAD PUSH3 0x461BCD PUSH1 0xE5 SHL DUP2 MSTORE PUSH1 0x4 ADD DUP1 DUP1 PUSH1 0x20 ADD DUP3 DUP2 SUB DUP3 MSTORE PUSH1 0x2A DUP2 MSTORE PUSH1 0x20 ADD DUP1 PUSH2 0x3151 PUSH1 0x2A SWAP2 CODECOPY PUSH1 0x40 ADD SWAP2 POP POP PUSH1 0x40 MLOAD DUP1 SWAP2 SUB SWAP1 REVERT JUMPDEST PUSH1 0x60 PUSH2 0x2D0A DUP5 DUP5 PUSH1 0x0 DUP6 PUSH2 0x2D12 JUMP JUMPDEST SWAP5 SWAP4 POP POP POP POP JUMP JUMPDEST PUSH1 0x60 DUP3 SELFBALANCE LT ISZERO PUSH2 0x2D53 JUMPI PUSH1 0x40 MLOAD PUSH3 0x461BCD PUSH1 0xE5 SHL DUP2 MSTORE PUSH1 0x4 ADD DUP1 DUP1 PUSH1 0x20 ADD DUP3 DUP2 SUB DUP3 MSTORE PUSH1 0x26 DUP2 MSTORE PUSH1 0x20 ADD DUP1 PUSH2 0x2FB6 PUSH1 0x26 SWAP2 CODECOPY PUSH1 0x40 ADD SWAP2 POP POP PUSH1 0x40 MLOAD DUP1 SWAP2 SUB SWAP1 REVERT JUMPDEST PUSH2 0x2D5C DUP6 PUSH2 0x2E6E JUMP JUMPDEST PUSH2 0x2DAD JUMPI PUSH1 0x40 DUP1 MLOAD PUSH3 0x461BCD PUSH1 0xE5 SHL DUP2 MSTORE PUSH1 0x20 PUSH1 0x4 DUP3 ADD MSTORE PUSH1 0x1D PUSH1 0x24 DUP3 ADD MSTORE PUSH32 0x416464726573733A2063616C6C20746F206E6F6E2D636F6E7472616374000000 PUSH1 0x44 DUP3 ADD MSTORE SWAP1 MLOAD SWAP1 DUP2 SWAP1 SUB PUSH1 0x64 ADD SWAP1 REVERT JUMPDEST PUSH1 0x0 PUSH1 0x60 DUP7 PUSH1 0x1 PUSH1 0x1 PUSH1 0xA0 SHL SUB AND DUP6 DUP8 PUSH1 0x40 MLOAD DUP1 DUP3 DUP1 MLOAD SWAP1 PUSH1 0x20 ADD SWAP1 DUP1 DUP4 DUP4 JUMPDEST PUSH1 0x20 DUP4 LT PUSH2 0x2DEC JUMPI DUP1 MLOAD DUP3 MSTORE PUSH1 0x1F NOT SWAP1 SWAP3 ADD SWAP2 PUSH1 0x20 SWAP2 DUP3 ADD SWAP2 ADD PUSH2 0x2DCD JUMP JUMPDEST PUSH1 0x1 DUP4 PUSH1 0x20 SUB PUSH2 0x100 EXP SUB DUP1 NOT DUP3 MLOAD AND DUP2 DUP5 MLOAD AND DUP1 DUP3 OR DUP6 MSTORE POP POP POP POP POP POP SWAP1 POP ADD SWAP2 POP POP PUSH1 0x0 PUSH1 0x40 MLOAD DUP1 DUP4 SUB DUP2 DUP6 DUP8 GAS CALL SWAP3 POP POP POP RETURNDATASIZE DUP1 PUSH1 0x0 DUP2 EQ PUSH2 0x2E4E JUMPI PUSH1 0x40 MLOAD SWAP2 POP PUSH1 0x1F NOT PUSH1 0x3F RETURNDATASIZE ADD AND DUP3 ADD PUSH1 0x40 MSTORE RETURNDATASIZE DUP3 MSTORE RETURNDATASIZE PUSH1 0x0 PUSH1 0x20 DUP5 ADD RETURNDATACOPY PUSH2 0x2E53 JUMP JUMPDEST PUSH1 0x60 SWAP2 POP JUMPDEST POP SWAP2 POP SWAP2 POP PUSH2 0x2E63 DUP3 DUP3 DUP7 PUSH2 0x2E74 JUMP JUMPDEST SWAP8 SWAP7 POP POP POP POP POP POP POP JUMP JUMPDEST EXTCODESIZE ISZERO ISZERO SWAP1 JUMP JUMPDEST PUSH1 0x60 DUP4 ISZERO PUSH2 0x2E83 JUMPI POP DUP2 PUSH2 0x1EA6 JUMP JUMPDEST DUP3 MLOAD ISZERO PUSH2 0x2E93 JUMPI DUP3 MLOAD DUP1 DUP5 PUSH1 0x20 ADD REVERT JUMPDEST DUP2 PUSH1 0x40 MLOAD PUSH3 0x461BCD PUSH1 0xE5 SHL DUP2 MSTORE PUSH1 0x4 ADD DUP1 DUP1 PUSH1 0x20 ADD DUP3 DUP2 SUB DUP3 MSTORE DUP4 DUP2 DUP2 MLOAD DUP2 MSTORE PUSH1 0x20 ADD SWAP2 POP DUP1 MLOAD SWAP1 PUSH1 0x20 ADD SWAP1 DUP1 DUP4 DUP4 PUSH1 0x0 JUMPDEST DUP4 DUP2 LT ISZERO PUSH2 0x2EDD JUMPI DUP2 DUP2 ADD MLOAD DUP4 DUP3 ADD MSTORE PUSH1 0x20 ADD PUSH2 0x2EC5 JUMP JUMPDEST POP POP POP POP SWAP1 POP SWAP1 DUP2 ADD SWAP1 PUSH1 0x1F AND DUP1 ISZERO PUSH2 0x2F0A JUMPI DUP1 DUP3 SUB DUP1 MLOAD PUSH1 0x1 DUP4 PUSH1 0x20 SUB PUSH2 0x100 EXP SUB NOT AND DUP2 MSTORE PUSH1 0x20 ADD SWAP2 POP JUMPDEST POP SWAP3 POP POP POP PUSH1 0x40 MLOAD DUP1 SWAP2 SUB SWAP1 REVERT INVALID 0x4D PUSH2 0x7374 PUSH6 0x72436865663A KECCAK256 PUSH5 0x65706F7369 PUSH21 0x20474C494445206279207374616B696E674F776E61 PUSH3 0x6C653A KECCAK256 PUSH15 0x6577206F776E657220697320746865 KECCAK256 PUSH27 0x65726F20616464726573734D6173746572436865663A2073656E64 PUSH6 0x72206973206E PUSH16 0x742042756E6E79207472616E73666572 KECCAK256 PUSH16 0x776E65724D6173746572436865663A20 PUSH15 0x6F6E4475706C6963617465643A2064 PUSH22 0x706C696361746564416464726573733A20696E737566 PUSH7 0x696369656E7420 PUSH3 0x616C61 PUSH15 0x636520666F722063616C6C4D617374 PUSH6 0x72436865663A KECCAK256 PUSH14 0x7573742062652073616D65206F72 KECCAK256 PUSH13 0x6172676572207468656E207374 PUSH2 0x7274 TIMESTAMP PUSH13 0x6F636B4D617374657243686566 GASPRICE KECCAK256 PUSH20 0x656E646572206973206E6F742073616D65206173 KECCAK256 PUSH5 0x6576206164 PUSH5 0x724D617374 PUSH6 0x72436865663A KECCAK256 PUSH24 0x6520646F6E7420616363657074206465706F73697473206F PUSH7 0x20302073697A65 MSTORE8 PUSH2 0x6665 0x4D PUSH2 0x7468 GASPRICE KECCAK256 PUSH14 0x756C7469706C69636174696F6E20 PUSH16 0x766572666C6F774D6173746572436865 PUSH7 0x3A207769746864 PUSH19 0x617720474C49444520627920756E7374616B69 PUSH15 0x674D6173746572436865663A206D75 PUSH20 0x74206C6974746C65207468616E20746865206375 PUSH19 0x72656E7420626C6F636B206E756D6265724D61 PUSH20 0x746572436865663A2073656E646572206973206E PUSH16 0x7420676C696465207472616E73666572 KECCAK256 PUSH16 0x776E65724D6173746572436865663A20 PUSH4 0x616E6E6F PUSH21 0x206368616E676520737461727420626C6F636B2069 PUSH7 0x206661726D2068 PUSH2 0x7320 PUSH2 0x6C72 PUSH6 0x616479207374 PUSH2 0x7274 PUSH6 0x645361666545 MSTORE NUMBER ORIGIN ADDRESS GASPRICE KECCAK256 GASLIMIT MSTORE NUMBER ORIGIN ADDRESS KECCAK256 PUSH16 0x7065726174696F6E20646964206E6F74 KECCAK256 PUSH20 0x7563636565644D6173746572436865663A206361 PUSH15 0x6E6F74207365742073746172742062 PUSH13 0x6F636B20696E20746865207061 PUSH20 0x74A26469706673582212200A8BB4EB58BF83CA69 CREATE2 0xC3 TIMESTAMP 0xDB 0xDD DUP15 REVERT MSTORE 0xA5 0xEB DUP13 0x22 CALLER EQ 0x4B SLT SELFBALANCE 0xA5 KECCAK256 LOG0 SWAP11 0x5C PUSH22 0x64736F6C634300060C00330000000000000000000000 "
		},
		"gasEstimates": {
			"creation": {
				"codeDepositCost": "2553200",
				"executionCost": "infinite",
				"totalCost": "infinite"
			},
			"external": {
				"MAX_ALLOC_POINT()": "308",
				"MAX_EMISSION_RATE()": "289",
				"add(uint256,address,bool)": "infinite",
				"bonusPeriod()": "266",
				"deposit(uint256,uint256)": "infinite",
				"devaddr()": "1148",
				"emergencyWithdraw(uint256)": "infinite",
				"enterStaking(uint256)": "infinite",
				"getGlideReward(uint256)": "infinite",
				"getTotalGlideReward(uint256,uint256)": "infinite",
				"glide()": "infinite",
				"glidePerBlock()": "1110",
				"glideTransferOwner()": "1149",
				"leaveStaking(uint256)": "infinite",
				"massUpdatePools()": "infinite",
				"owner()": "1105",
				"pendingGlide(uint256,address)": "infinite",
				"phase()": "infinite",
				"phase(uint256)": "infinite",
				"poolExistence(address)": "1203",
				"poolInfo(uint256)": "5391",
				"poolLength()": "1068",
				"reductionPeriod()": "266",
				"renounceOwnership()": "24345",
				"reward()": "infinite",
				"reward(uint256)": "infinite",
				"rewardPerPhase(uint256)": "infinite",
				"set(uint256,uint256,bool)": "infinite",
				"setDevAddress(address)": "infinite",
				"setGlideTransferOwner(address)": "infinite",
				"setStartBlock(uint256)": "infinite",
				"startBlock()": "1110",
				"sugar()": "infinite",
				"totalAllocPoint()": "1089",
				"transferGlideOwnership(address)": "infinite",
				"transferOwnership(address)": "infinite",
				"treasuryaddr()": "infinite",
				"updateEmissionRate(uint256)": "infinite",
				"updatePool(uint256)": "infinite",
				"userInfo(uint256,address)": "2140",
				"withdraw(uint256,uint256)": "infinite"
			},
			"internal": {
				"safeGlideTransfer(address,uint256)": "infinite",
				"updateStakingPool()": "infinite"
			}
		},
		"methodIdentifiers": {
			"MAX_ALLOC_POINT()": "f958d1f9",
			"MAX_EMISSION_RATE()": "436cc3d6",
			"add(uint256,address,bool)": "1eaaa045",
			"bonusPeriod()": "4af4a127",
			"deposit(uint256,uint256)": "e2bbb158",
			"devaddr()": "d49e77cd",
			"emergencyWithdraw(uint256)": "5312ea8e",
			"enterStaking(uint256)": "41441d3b",
			"getGlideReward(uint256)": "47cf5b59",
			"getTotalGlideReward(uint256,uint256)": "5d2af1b7",
			"glide()": "14139805",
			"glidePerBlock()": "897b96ff",
			"glideTransferOwner()": "2deedf42",
			"leaveStaking(uint256)": "1058d281",
			"massUpdatePools()": "630b5ba1",
			"owner()": "8da5cb5b",
			"pendingGlide(uint256,address)": "da6dfb80",
			"phase()": "b1c9fe6e",
			"phase(uint256)": "135f8aa7",
			"poolExistence(address)": "cbd258b5",
			"poolInfo(uint256)": "1526fe27",
			"poolLength()": "081e3eda",
			"reductionPeriod()": "ba624f44",
			"renounceOwnership()": "715018a6",
			"reward()": "228cb733",
			"reward(uint256)": "a9fb763c",
			"rewardPerPhase(uint256)": "5d5ebf16",
			"set(uint256,uint256,bool)": "64482f79",
			"setDevAddress(address)": "d0d41fe1",
			"setGlideTransferOwner(address)": "f0ce0dff",
			"setStartBlock(uint256)": "f35e4a6e",
			"startBlock()": "48cd4cb1",
			"sugar()": "a0e0e13c",
			"totalAllocPoint()": "17caf6f1",
			"transferGlideOwnership(address)": "bd7418b3",
			"transferOwnership(address)": "f2fde38b",
			"treasuryaddr()": "6e99b75e",
			"updateEmissionRate(uint256)": "0ba84cd2",
			"updatePool(uint256)": "51eb05a6",
			"userInfo(uint256,address)": "93f1a40b",
			"withdraw(uint256,uint256)": "441a3e70"
		}
	},
	"abi": [
		{
			"inputs": [
				{
					"internalType": "contract BunnyToken",
					"name": "_glide",
					"type": "address"
				},
				{
					"internalType": "contract Sugar",
					"name": "_sugar",
					"type": "address"
				},
				{
					"internalType": "address",
					"name": "_devaddr",
					"type": "address"
				},
				{
					"internalType": "address",
					"name": "_treasuryaddr",
					"type": "address"
				},
				{
					"internalType": "uint256",
					"name": "_glidePerBlock",
					"type": "uint256"
				},
				{
					"internalType": "uint256",
					"name": "_startBlock",
					"type": "uint256"
				},
				{
					"internalType": "address",
					"name": "_glideTransferOwner",
					"type": "address"
				}
			],
			"stateMutability": "nonpayable",
			"type": "constructor"
		},
		{
			"anonymous": false,
			"inputs": [
				{
					"indexed": true,
					"internalType": "address",
					"name": "user",
					"type": "address"
				},
				{
					"indexed": true,
					"internalType": "uint256",
					"name": "pid",
					"type": "uint256"
				},
				{
					"indexed": false,
					"internalType": "uint256",
					"name": "amount",
					"type": "uint256"
				}
			],
			"name": "Deposit",
			"type": "event"
		},
		{
			"anonymous": false,
			"inputs": [
				{
					"indexed": true,
					"internalType": "address",
					"name": "user",
					"type": "address"
				},
				{
					"indexed": true,
					"internalType": "uint256",
					"name": "pid",
					"type": "uint256"
				},
				{
					"indexed": false,
					"internalType": "uint256",
					"name": "amount",
					"type": "uint256"
				}
			],
			"name": "EmergencyWithdraw",
			"type": "event"
		},
		{
			"anonymous": false,
			"inputs": [
				{
					"indexed": true,
					"internalType": "address",
					"name": "previousOwner",
					"type": "address"
				},
				{
					"indexed": true,
					"internalType": "address",
					"name": "newOwner",
					"type": "address"
				}
			],
			"name": "OwnershipTransferred",
			"type": "event"
		},
		{
			"anonymous": false,
			"inputs": [
				{
					"indexed": true,
					"internalType": "address",
					"name": "user",
					"type": "address"
				},
				{
					"indexed": true,
					"internalType": "address",
					"name": "glideTransferOwner",
					"type": "address"
				}
			],
			"name": "SetGlideTransferOwner",
			"type": "event"
		},
		{
			"anonymous": false,
			"inputs": [
				{
					"indexed": true,
					"internalType": "address",
					"name": "user",
					"type": "address"
				},
				{
					"indexed": true,
					"internalType": "address",
					"name": "newOwner",
					"type": "address"
				}
			],
			"name": "TransferGlideOwnership",
			"type": "event"
		},
		{
			"anonymous": false,
			"inputs": [
				{
					"indexed": true,
					"internalType": "address",
					"name": "user",
					"type": "address"
				},
				{
					"indexed": false,
					"internalType": "uint256",
					"name": "glidePerBlock",
					"type": "uint256"
				}
			],
			"name": "UpdateEmissionRate",
			"type": "event"
		},
		{
			"anonymous": false,
			"inputs": [
				{
					"indexed": true,
					"internalType": "address",
					"name": "user",
					"type": "address"
				},
				{
					"indexed": true,
					"internalType": "uint256",
					"name": "pid",
					"type": "uint256"
				},
				{
					"indexed": false,
					"internalType": "uint256",
					"name": "amount",
					"type": "uint256"
				}
			],
			"name": "Withdraw",
			"type": "event"
		},
		{
			"inputs": [],
			"name": "MAX_ALLOC_POINT",
			"outputs": [
				{
					"internalType": "uint256",
					"name": "",
					"type": "uint256"
				}
			],
			"stateMutability": "view",
			"type": "function"
		},
		{
			"inputs": [],
			"name": "MAX_EMISSION_RATE",
			"outputs": [
				{
					"internalType": "uint256",
					"name": "",
					"type": "uint256"
				}
			],
			"stateMutability": "view",
			"type": "function"
		},
		{
			"inputs": [
				{
					"internalType": "uint256",
					"name": "_allocPoint",
					"type": "uint256"
				},
				{
					"internalType": "contract IERC20",
					"name": "_lpToken",
					"type": "address"
				},
				{
					"internalType": "bool",
					"name": "_withUpdate",
					"type": "bool"
				}
			],
			"name": "add",
			"outputs": [],
			"stateMutability": "nonpayable",
			"type": "function"
		},
		{
			"inputs": [],
			"name": "bonusPeriod",
			"outputs": [
				{
					"internalType": "uint256",
					"name": "",
					"type": "uint256"
				}
			],
			"stateMutability": "view",
			"type": "function"
		},
		{
			"inputs": [
				{
					"internalType": "uint256",
					"name": "_pid",
					"type": "uint256"
				},
				{
					"internalType": "uint256",
					"name": "_amount",
					"type": "uint256"
				}
			],
			"name": "deposit",
			"outputs": [],
			"stateMutability": "nonpayable",
			"type": "function"
		},
		{
			"inputs": [],
			"name": "devaddr",
			"outputs": [
				{
					"internalType": "address",
					"name": "",
					"type": "address"
				}
			],
			"stateMutability": "view",
			"type": "function"
		},
		{
			"inputs": [
				{
					"internalType": "uint256",
					"name": "_pid",
					"type": "uint256"
				}
			],
			"name": "emergencyWithdraw",
			"outputs": [],
			"stateMutability": "nonpayable",
			"type": "function"
		},
		{
			"inputs": [
				{
					"internalType": "uint256",
					"name": "_amount",
					"type": "uint256"
				}
			],
			"name": "enterStaking",
			"outputs": [],
			"stateMutability": "nonpayable",
			"type": "function"
		},
		{
			"inputs": [
				{
					"internalType": "uint256",
					"name": "_lastRewardBlock",
					"type": "uint256"
				}
			],
			"name": "getGlideReward",
			"outputs": [
				{
					"internalType": "uint256",
					"name": "",
					"type": "uint256"
				}
			],
			"stateMutability": "view",
			"type": "function"
		},
		{
			"inputs": [
				{
					"internalType": "uint256",
					"name": "_lastRewardBlock",
					"type": "uint256"
				},
				{
					"internalType": "uint256",
					"name": "_blockNumber",
					"type": "uint256"
				}
			],
			"name": "getTotalGlideReward",
			"outputs": [
				{
					"internalType": "uint256",
					"name": "",
					"type": "uint256"
				}
			],
			"stateMutability": "view",
			"type": "function"
		},
		{
			"inputs": [],
			"name": "glide",
			"outputs": [
				{
					"internalType": "contract BunnyToken",
					"name": "",
					"type": "address"
				}
			],
			"stateMutability": "view",
			"type": "function"
		},
		{
			"inputs": [],
			"name": "glidePerBlock",
			"outputs": [
				{
					"internalType": "uint256",
					"name": "",
					"type": "uint256"
				}
			],
			"stateMutability": "view",
			"type": "function"
		},
		{
			"inputs": [],
			"name": "glideTransferOwner",
			"outputs": [
				{
					"internalType": "address",
					"name": "",
					"type": "address"
				}
			],
			"stateMutability": "view",
			"type": "function"
		},
		{
			"inputs": [
				{
					"internalType": "uint256",
					"name": "_amount",
					"type": "uint256"
				}
			],
			"name": "leaveStaking",
			"outputs": [],
			"stateMutability": "nonpayable",
			"type": "function"
		},
		{
			"inputs": [],
			"name": "massUpdatePools",
			"outputs": [],
			"stateMutability": "nonpayable",
			"type": "function"
		},
		{
			"inputs": [],
			"name": "owner",
			"outputs": [
				{
					"internalType": "address",
					"name": "",
					"type": "address"
				}
			],
			"stateMutability": "view",
			"type": "function"
		},
		{
			"inputs": [
				{
					"internalType": "uint256",
					"name": "_pid",
					"type": "uint256"
				},
				{
					"internalType": "address",
					"name": "_user",
					"type": "address"
				}
			],
			"name": "pendingGlide",
			"outputs": [
				{
					"internalType": "uint256",
					"name": "",
					"type": "uint256"
				}
			],
			"stateMutability": "view",
			"type": "function"
		},
		{
			"inputs": [
				{
					"internalType": "uint256",
					"name": "blockNumber",
					"type": "uint256"
				}
			],
			"name": "phase",
			"outputs": [
				{
					"internalType": "uint256",
					"name": "",
					"type": "uint256"
				}
			],
			"stateMutability": "view",
			"type": "function"
		},
		{
			"inputs": [],
			"name": "phase",
			"outputs": [
				{
					"internalType": "uint256",
					"name": "",
					"type": "uint256"
				}
			],
			"stateMutability": "view",
			"type": "function"
		},
		{
			"inputs": [
				{
					"internalType": "contract IERC20",
					"name": "",
					"type": "address"
				}
			],
			"name": "poolExistence",
			"outputs": [
				{
					"internalType": "bool",
					"name": "",
					"type": "bool"
				}
			],
			"stateMutability": "view",
			"type": "function"
		},
		{
			"inputs": [
				{
					"internalType": "uint256",
					"name": "",
					"type": "uint256"
				}
			],
			"name": "poolInfo",
			"outputs": [
				{
					"internalType": "contract IERC20",
					"name": "lpToken",
					"type": "address"
				},
				{
					"internalType": "uint256",
					"name": "allocPoint",
					"type": "uint256"
				},
				{
					"internalType": "uint256",
					"name": "lastRewardBlock",
					"type": "uint256"
				},
				{
					"internalType": "uint256",
					"name": "accGlidePerShare",
					"type": "uint256"
				},
				{
					"internalType": "uint256",
					"name": "lpSupply",
					"type": "uint256"
				}
			],
			"stateMutability": "view",
			"type": "function"
		},
		{
			"inputs": [],
			"name": "poolLength",
			"outputs": [
				{
					"internalType": "uint256",
					"name": "",
					"type": "uint256"
				}
			],
			"stateMutability": "view",
			"type": "function"
		},
		{
			"inputs": [],
			"name": "reductionPeriod",
			"outputs": [
				{
					"internalType": "uint256",
					"name": "",
					"type": "uint256"
				}
			],
			"stateMutability": "view",
			"type": "function"
		},
		{
			"inputs": [],
			"name": "renounceOwnership",
			"outputs": [],
			"stateMutability": "nonpayable",
			"type": "function"
		},
		{
			"inputs": [],
			"name": "reward",
			"outputs": [
				{
					"internalType": "uint256",
					"name": "",
					"type": "uint256"
				}
			],
			"stateMutability": "view",
			"type": "function"
		},
		{
			"inputs": [
				{
					"internalType": "uint256",
					"name": "blockNumber",
					"type": "uint256"
				}
			],
			"name": "reward",
			"outputs": [
				{
					"internalType": "uint256",
					"name": "",
					"type": "uint256"
				}
			],
			"stateMutability": "view",
			"type": "function"
		},
		{
			"inputs": [
				{
					"internalType": "uint256",
					"name": "phaseNumber",
					"type": "uint256"
				}
			],
			"name": "rewardPerPhase",
			"outputs": [
				{
					"internalType": "uint256",
					"name": "",
					"type": "uint256"
				}
			],
			"stateMutability": "view",
			"type": "function"
		},
		{
			"inputs": [
				{
					"internalType": "uint256",
					"name": "_pid",
					"type": "uint256"
				},
				{
					"internalType": "uint256",
					"name": "_allocPoint",
					"type": "uint256"
				},
				{
					"internalType": "bool",
					"name": "_withUpdate",
					"type": "bool"
				}
			],
			"name": "set",
			"outputs": [],
			"stateMutability": "nonpayable",
			"type": "function"
		},
		{
			"inputs": [
				{
					"internalType": "address",
					"name": "_devaddr",
					"type": "address"
				}
			],
			"name": "setDevAddress",
			"outputs": [],
			"stateMutability": "nonpayable",
			"type": "function"
		},
		{
			"inputs": [
				{
					"internalType": "address",
					"name": "_glideTransferOwner",
					"type": "address"
				}
			],
			"name": "setGlideTransferOwner",
			"outputs": [],
			"stateMutability": "nonpayable",
			"type": "function"
		},
		{
			"inputs": [
				{
					"internalType": "uint256",
					"name": "_newStartBlock",
					"type": "uint256"
				}
			],
			"name": "setStartBlock",
			"outputs": [],
			"stateMutability": "nonpayable",
			"type": "function"
		},
		{
			"inputs": [],
			"name": "startBlock",
			"outputs": [
				{
					"internalType": "uint256",
					"name": "",
					"type": "uint256"
				}
			],
			"stateMutability": "view",
			"type": "function"
		},
		{
			"inputs": [],
			"name": "sugar",
			"outputs": [
				{
					"internalType": "contract Sugar",
					"name": "",
					"type": "address"
				}
			],
			"stateMutability": "view",
			"type": "function"
		},
		{
			"inputs": [],
			"name": "totalAllocPoint",
			"outputs": [
				{
					"internalType": "uint256",
					"name": "",
					"type": "uint256"
				}
			],
			"stateMutability": "view",
			"type": "function"
		},
		{
			"inputs": [
				{
					"internalType": "address",
					"name": "_newOwner",
					"type": "address"
				}
			],
			"name": "transferGlideOwnership",
			"outputs": [],
			"stateMutability": "nonpayable",
			"type": "function"
		},
		{
			"inputs": [
				{
					"internalType": "address",
					"name": "newOwner",
					"type": "address"
				}
			],
			"name": "transferOwnership",
			"outputs": [],
			"stateMutability": "nonpayable",
			"type": "function"
		},
		{
			"inputs": [],
			"name": "treasuryaddr",
			"outputs": [
				{
					"internalType": "address",
					"name": "",
					"type": "address"
				}
			],
			"stateMutability": "view",
			"type": "function"
		},
		{
			"inputs": [
				{
					"internalType": "uint256",
					"name": "_glidePerBlock",
					"type": "uint256"
				}
			],
			"name": "updateEmissionRate",
			"outputs": [],
			"stateMutability": "nonpayable",
			"type": "function"
		},
		{
			"inputs": [
				{
					"internalType": "uint256",
					"name": "_pid",
					"type": "uint256"
				}
			],
			"name": "updatePool",
			"outputs": [],
			"stateMutability": "nonpayable",
			"type": "function"
		},
		{
			"inputs": [
				{
					"internalType": "uint256",
					"name": "",
					"type": "uint256"
				},
				{
					"internalType": "address",
					"name": "",
					"type": "address"
				}
			],
			"name": "userInfo",
			"outputs": [
				{
					"internalType": "uint256",
					"name": "amount",
					"type": "uint256"
				},
				{
					"internalType": "uint256",
					"name": "rewardDebt",
					"type": "uint256"
				}
			],
			"stateMutability": "view",
			"type": "function"
		},
		{
			"inputs": [
				{
					"internalType": "uint256",
					"name": "_pid",
					"type": "uint256"
				},
				{
					"internalType": "uint256",
					"name": "_amount",
					"type": "uint256"
				}
			],
			"name": "withdraw",
			"outputs": [],
			"stateMutability": "nonpayable",
			"type": "function"
		}
	]
}